{
	"contracts/fund.sol": {
		"Fund": {
			"abi": [
				{
					"inputs": [],
					"stateMutability": "nonpayable",
					"type": "constructor"
				},
				{
					"anonymous": false,
					"inputs": [
						{
							"indexed": false,
							"internalType": "bytes32",
							"name": "projectId",
							"type": "bytes32"
						},
						{
							"indexed": false,
							"internalType": "address",
							"name": "contributor",
							"type": "address"
						},
						{
							"indexed": false,
							"internalType": "uint256",
							"name": "amount",
							"type": "uint256"
						}
					],
					"name": "ContributionMade",
					"type": "event"
				},
				{
					"anonymous": false,
					"inputs": [
						{
							"indexed": false,
							"internalType": "bytes32",
							"name": "projectId",
							"type": "bytes32"
						},
						{
							"indexed": false,
							"internalType": "address",
							"name": "creator",
							"type": "address"
						},
						{
							"indexed": false,
							"internalType": "uint256",
							"name": "amount",
							"type": "uint256"
						}
					],
					"name": "FundsWithdrawn",
					"type": "event"
				},
				{
					"anonymous": false,
					"inputs": [
						{
							"indexed": false,
							"internalType": "uint256",
							"name": "newFee",
							"type": "uint256"
						}
					],
					"name": "PlatformFeeUpdated",
					"type": "event"
				},
				{
					"anonymous": false,
					"inputs": [
						{
							"indexed": false,
							"internalType": "bytes32",
							"name": "projectId",
							"type": "bytes32"
						},
						{
							"indexed": false,
							"internalType": "string",
							"name": "project_name",
							"type": "string"
						},
						{
							"indexed": false,
							"internalType": "string",
							"name": "description",
							"type": "string"
						},
						{
							"indexed": false,
							"internalType": "address",
							"name": "creator",
							"type": "address"
						},
						{
							"indexed": false,
							"internalType": "uint256",
							"name": "final_goal",
							"type": "uint256"
						},
						{
							"indexed": false,
							"internalType": "uint256",
							"name": "deadline",
							"type": "uint256"
						}
					],
					"name": "ProjectCreated",
					"type": "event"
				},
				{
					"anonymous": false,
					"inputs": [
						{
							"indexed": false,
							"internalType": "bytes32",
							"name": "projectId",
							"type": "bytes32"
						},
						{
							"indexed": false,
							"internalType": "string",
							"name": "newDescription",
							"type": "string"
						}
					],
					"name": "ProjectDescriptionUpdated",
					"type": "event"
				},
				{
					"anonymous": false,
					"inputs": [
						{
							"indexed": false,
							"internalType": "bytes32",
							"name": "projectID",
							"type": "bytes32"
						},
						{
							"indexed": false,
							"internalType": "enum Fund.ProjectStatus",
							"name": "newStatus",
							"type": "uint8"
						}
					],
					"name": "ProjectStatusUpdated",
					"type": "event"
				},
				{
					"anonymous": false,
					"inputs": [
						{
							"indexed": false,
							"internalType": "bytes32",
							"name": "projectId",
							"type": "bytes32"
						},
						{
							"indexed": false,
							"internalType": "address",
							"name": "contributor",
							"type": "address"
						},
						{
							"indexed": false,
							"internalType": "uint256",
							"name": "amount",
							"type": "uint256"
						}
					],
					"name": "RefundIssued",
					"type": "event"
				},
				{
					"stateMutability": "payable",
					"type": "fallback"
				},
				{
					"inputs": [],
					"name": "CONTRIBUTION_COMMISSION_RATE",
					"outputs": [
						{
							"internalType": "uint256",
							"name": "",
							"type": "uint256"
						}
					],
					"stateMutability": "view",
					"type": "function"
				},
				{
					"inputs": [],
					"name": "TRANSACTION_COMMISSION_RATE",
					"outputs": [
						{
							"internalType": "uint256",
							"name": "",
							"type": "uint256"
						}
					],
					"stateMutability": "view",
					"type": "function"
				},
				{
					"inputs": [
						{
							"internalType": "bytes32",
							"name": "projectId",
							"type": "bytes32"
						},
						{
							"internalType": "address",
							"name": "targetAddress",
							"type": "address"
						}
					],
					"name": "binarySearchContributor",
					"outputs": [
						{
							"internalType": "uint256",
							"name": "index",
							"type": "uint256"
						},
						{
							"internalType": "bool",
							"name": "found",
							"type": "bool"
						}
					],
					"stateMutability": "view",
					"type": "function"
				},
				{
					"inputs": [
						{
							"internalType": "bytes32",
							"name": "projectID",
							"type": "bytes32"
						}
					],
					"name": "checkIfFundingComplete",
					"outputs": [],
					"stateMutability": "nonpayable",
					"type": "function"
				},
				{
					"inputs": [
						{
							"internalType": "string",
							"name": "name",
							"type": "string"
						},
						{
							"internalType": "string",
							"name": "description",
							"type": "string"
						},
						{
							"internalType": "uint256",
							"name": "goal",
							"type": "uint256"
						},
						{
							"internalType": "uint256",
							"name": "deadline",
							"type": "uint256"
						}
					],
					"name": "createProject",
					"outputs": [],
					"stateMutability": "nonpayable",
					"type": "function"
				},
				{
					"inputs": [
						{
							"internalType": "bytes32",
							"name": "projectID",
							"type": "bytes32"
						}
					],
					"name": "fundProject",
					"outputs": [],
					"stateMutability": "payable",
					"type": "function"
				},
				{
					"inputs": [],
					"name": "getAmountOfProjects",
					"outputs": [
						{
							"internalType": "uint256",
							"name": "",
							"type": "uint256"
						}
					],
					"stateMutability": "view",
					"type": "function"
				},
				{
					"inputs": [],
					"name": "getContributionFee",
					"outputs": [
						{
							"internalType": "uint256",
							"name": "",
							"type": "uint256"
						}
					],
					"stateMutability": "view",
					"type": "function"
				},
				{
					"inputs": [
						{
							"internalType": "bytes32",
							"name": "projectID",
							"type": "bytes32"
						}
					],
					"name": "getMilestones",
					"outputs": [
						{
							"components": [
								{
									"internalType": "uint256",
									"name": "milestone_sum",
									"type": "uint256"
								},
								{
									"internalType": "string",
									"name": "milestone_description",
									"type": "string"
								}
							],
							"internalType": "struct Fund.Milestone[]",
							"name": "",
							"type": "tuple[]"
						}
					],
					"stateMutability": "view",
					"type": "function"
				},
				{
					"inputs": [
						{
							"internalType": "bytes32",
							"name": "projectId",
							"type": "bytes32"
						}
					],
					"name": "getProjectCreator",
					"outputs": [
						{
							"internalType": "address",
							"name": "",
							"type": "address"
						}
					],
					"stateMutability": "view",
					"type": "function"
				},
				{
					"inputs": [
						{
							"internalType": "bytes32",
							"name": "projectID",
							"type": "bytes32"
						}
					],
					"name": "getProjectDetails",
					"outputs": [
						{
							"internalType": "string",
							"name": "",
							"type": "string"
						},
						{
							"internalType": "string",
							"name": "",
							"type": "string"
						},
						{
							"internalType": "address",
							"name": "",
							"type": "address"
						},
						{
							"internalType": "uint256",
							"name": "",
							"type": "uint256"
						},
						{
							"internalType": "uint256",
							"name": "",
							"type": "uint256"
						},
						{
							"internalType": "uint256",
							"name": "",
							"type": "uint256"
						},
						{
							"internalType": "enum Fund.ProjectStatus",
							"name": "",
							"type": "uint8"
						}
					],
					"stateMutability": "view",
					"type": "function"
				},
				{
					"inputs": [
						{
							"internalType": "bytes32",
							"name": "projectID",
							"type": "bytes32"
						}
					],
					"name": "getProjectStatus",
					"outputs": [
						{
							"internalType": "enum Fund.ProjectStatus",
							"name": "",
							"type": "uint8"
						}
					],
					"stateMutability": "view",
					"type": "function"
				},
				{
					"inputs": [],
					"name": "getTransactionFee",
					"outputs": [
						{
							"internalType": "uint256",
							"name": "",
							"type": "uint256"
						}
					],
					"stateMutability": "view",
					"type": "function"
				},
				{
					"inputs": [
						{
							"internalType": "bytes32",
							"name": "projectID",
							"type": "bytes32"
						}
					],
					"name": "getUserContribution",
					"outputs": [
						{
							"internalType": "uint256",
							"name": "",
							"type": "uint256"
						}
					],
					"stateMutability": "view",
					"type": "function"
				},
				{
					"inputs": [],
					"name": "getUserProjects",
					"outputs": [
						{
							"internalType": "bytes32[]",
							"name": "",
							"type": "bytes32[]"
						}
					],
					"stateMutability": "view",
					"type": "function"
				},
				{
					"inputs": [
						{
							"internalType": "bytes32[]",
							"name": "array",
							"type": "bytes32[]"
						},
						{
							"internalType": "bytes32",
							"name": "target",
							"type": "bytes32"
						}
					],
					"name": "idSearch",
					"outputs": [
						{
							"internalType": "int256",
							"name": "",
							"type": "int256"
						}
					],
					"stateMutability": "pure",
					"type": "function"
				},
				{
					"inputs": [
						{
							"internalType": "bytes32",
							"name": "projectID",
							"type": "bytes32"
						}
					],
					"name": "makeRefund",
					"outputs": [],
					"stateMutability": "nonpayable",
					"type": "function"
				},
				{
					"inputs": [],
					"name": "pause",
					"outputs": [],
					"stateMutability": "nonpayable",
					"type": "function"
				},
				{
					"inputs": [
						{
							"internalType": "bytes32",
							"name": "projectID",
							"type": "bytes32"
						}
					],
					"name": "projectExists",
					"outputs": [
						{
							"internalType": "bool",
							"name": "",
							"type": "bool"
						}
					],
					"stateMutability": "view",
					"type": "function"
				},
				{
					"inputs": [
						{
							"internalType": "bytes32",
							"name": "projectId",
							"type": "bytes32"
						}
					],
					"name": "projectIsActive",
					"outputs": [
						{
							"internalType": "enum Fund.ProjectStatus",
							"name": "",
							"type": "uint8"
						}
					],
					"stateMutability": "view",
					"type": "function"
				},
				{
					"inputs": [
						{
							"internalType": "bytes32[]",
							"name": "arr",
							"type": "bytes32[]"
						}
					],
					"name": "quickSort",
					"outputs": [
						{
							"internalType": "bytes32[]",
							"name": "",
							"type": "bytes32[]"
						}
					],
					"stateMutability": "pure",
					"type": "function"
				},
				{
					"inputs": [
						{
							"internalType": "bytes32",
							"name": "projectID",
							"type": "bytes32"
						}
					],
					"name": "sendFunds",
					"outputs": [],
					"stateMutability": "nonpayable",
					"type": "function"
				},
				{
					"inputs": [
						{
							"internalType": "uint256",
							"name": "fee",
							"type": "uint256"
						}
					],
					"name": "setContributionFee",
					"outputs": [],
					"stateMutability": "nonpayable",
					"type": "function"
				},
				{
					"inputs": [
						{
							"internalType": "bytes32",
							"name": "projectID",
							"type": "bytes32"
						},
						{
							"internalType": "uint256",
							"name": "milestoneSum",
							"type": "uint256"
						},
						{
							"internalType": "string",
							"name": "milestoneDescription",
							"type": "string"
						}
					],
					"name": "setMilestone",
					"outputs": [],
					"stateMutability": "nonpayable",
					"type": "function"
				},
				{
					"inputs": [
						{
							"internalType": "bytes32",
							"name": "projectID",
							"type": "bytes32"
						},
						{
							"internalType": "string",
							"name": "newDescription",
							"type": "string"
						}
					],
					"name": "setProjectDescription",
					"outputs": [],
					"stateMutability": "nonpayable",
					"type": "function"
				},
				{
					"inputs": [
						{
							"internalType": "uint256",
							"name": "fee",
							"type": "uint256"
						}
					],
					"name": "setTransactionFee",
					"outputs": [],
					"stateMutability": "nonpayable",
					"type": "function"
				},
				{
					"inputs": [],
					"name": "unpause",
					"outputs": [],
					"stateMutability": "nonpayable",
					"type": "function"
				},
				{
					"inputs": [],
					"name": "withdraw",
					"outputs": [],
					"stateMutability": "nonpayable",
					"type": "function"
				},
				{
					"stateMutability": "payable",
					"type": "receive"
				}
			],
			"devdoc": {
				"kind": "dev",
				"methods": {},
				"version": 1
			},
			"evm": {
				"assembly": "    /* \"contracts/fund.sol\":60:12752  contract Fund {... */\n  mstore(0x40, 0x80)\n    /* \"contracts/fund.sol\":181:184  490 */\n  0x01ea\n    /* \"contracts/fund.sol\":135:184  uint256 public CONTRIBUTION_COMMISSION_RATE = 490 */\n  0x01\n  sstore\n    /* \"contracts/fund.sol\":236:239  290 */\n  0x0122\n    /* \"contracts/fund.sol\":191:239  uint256 public TRANSACTION_COMMISSION_RATE = 290 */\n  0x02\n  sstore\n    /* \"contracts/fund.sol\":1178:1229  constructor() {... */\n  callvalue\n  dup1\n  iszero\n  tag_1\n  jumpi\n  0x00\n  dup1\n  revert\ntag_1:\n  pop\n    /* \"contracts/fund.sol\":1211:1221  msg.sender */\n  caller\n    /* \"contracts/fund.sol\":1203:1208  owner */\n  0x00\n  dup1\n    /* \"contracts/fund.sol\":1203:1221  owner = msg.sender */\n  0x0100\n  exp\n  dup2\n  sload\n  dup2\n  0xffffffffffffffffffffffffffffffffffffffff\n  mul\n  not\n  and\n  swap1\n  dup4\n  0xffffffffffffffffffffffffffffffffffffffff\n  and\n  mul\n  or\n  swap1\n  sstore\n  pop\n    /* \"contracts/fund.sol\":60:12752  contract Fund {... */\n  dataSize(sub_0)\n  dup1\n  dataOffset(sub_0)\n  0x00\n  codecopy\n  0x00\n  return\nstop\n\nsub_0: assembly {\n        /* \"contracts/fund.sol\":60:12752  contract Fund {... */\n      mstore(0x40, 0x80)\n      jumpi(tag_1, lt(calldatasize, 0x04))\n      shr(0xe0, calldataload(0x00))\n      dup1\n      0x88559468\n      gt\n      tag_31\n      jumpi\n      dup1\n      0xc12483d4\n      gt\n      tag_32\n      jumpi\n      dup1\n      0xd874cf64\n      gt\n      tag_33\n      jumpi\n      dup1\n      0xd874cf64\n      eq\n      tag_27\n      jumpi\n      dup1\n      0xea4a873c\n      eq\n      tag_28\n      jumpi\n      dup1\n      0xf08a64e6\n      eq\n      tag_29\n      jumpi\n      dup1\n      0xf88fb6cf\n      eq\n      tag_30\n      jumpi\n      jump(tag_2)\n    tag_33:\n      dup1\n      0xc12483d4\n      eq\n      tag_24\n      jumpi\n      dup1\n      0xd10797cf\n      eq\n      tag_25\n      jumpi\n      dup1\n      0xd3d6a117\n      eq\n      tag_26\n      jumpi\n      jump(tag_2)\n    tag_32:\n      dup1\n      0xa1bdae45\n      gt\n      tag_34\n      jumpi\n      dup1\n      0xa1bdae45\n      eq\n      tag_20\n      jumpi\n      dup1\n      0xa81ae362\n      eq\n      tag_21\n      jumpi\n      dup1\n      0xbbdb284f\n      eq\n      tag_22\n      jumpi\n      dup1\n      0xbf6faedc\n      eq\n      tag_23\n      jumpi\n      jump(tag_2)\n    tag_34:\n      dup1\n      0x88559468\n      eq\n      tag_17\n      jumpi\n      dup1\n      0x89022ff3\n      eq\n      tag_18\n      jumpi\n      dup1\n      0x94ba9709\n      eq\n      tag_19\n      jumpi\n      jump(tag_2)\n    tag_31:\n      dup1\n      0x3f4ba83a\n      gt\n      tag_35\n      jumpi\n      dup1\n      0x6e0ace70\n      gt\n      tag_36\n      jumpi\n      dup1\n      0x6e0ace70\n      eq\n      tag_13\n      jumpi\n      dup1\n      0x7b18d3e7\n      eq\n      tag_14\n      jumpi\n      dup1\n      0x8456cb59\n      eq\n      tag_15\n      jumpi\n      dup1\n      0x85d79102\n      eq\n      tag_16\n      jumpi\n      jump(tag_2)\n    tag_36:\n      dup1\n      0x3f4ba83a\n      eq\n      tag_10\n      jumpi\n      dup1\n      0x4a83b226\n      eq\n      tag_11\n      jumpi\n      dup1\n      0x64088bb8\n      eq\n      tag_12\n      jumpi\n      jump(tag_2)\n    tag_35:\n      dup1\n      0x0f26bb9c\n      gt\n      tag_37\n      jumpi\n      dup1\n      0x0f26bb9c\n      eq\n      tag_6\n      jumpi\n      dup1\n      0x2f2fafcd\n      eq\n      tag_7\n      jumpi\n      dup1\n      0x38975895\n      eq\n      tag_8\n      jumpi\n      dup1\n      0x3ccfd60b\n      eq\n      tag_9\n      jumpi\n      jump(tag_2)\n    tag_37:\n      dup1\n      0x096a8ab7\n      eq\n      tag_3\n      jumpi\n      dup1\n      0x0b207621\n      eq\n      tag_4\n      jumpi\n      dup1\n      0x0d93dab8\n      eq\n      tag_5\n      jumpi\n      jump(tag_2)\n    tag_1:\n      jumpi(tag_2, calldatasize)\n      stop\n    tag_2:\n      stop\n        /* \"contracts/fund.sol\":5403:5512  function setTransactionFee(uint256 fee) public onlyOwner {... */\n    tag_3:\n      callvalue\n      dup1\n      iszero\n      tag_42\n      jumpi\n      0x00\n      dup1\n      revert\n    tag_42:\n      pop\n      tag_43\n      0x04\n      dup1\n      calldatasize\n      sub\n      dup2\n      add\n      swap1\n      tag_44\n      swap2\n      swap1\n      tag_45\n      jump\t// in\n    tag_44:\n      tag_46\n      jump\t// in\n    tag_43:\n      stop\n        /* \"contracts/fund.sol\":2982:3119  function getProjectCreator(bytes32 projectId) public view returns (address) {... */\n    tag_4:\n      callvalue\n      dup1\n      iszero\n      tag_47\n      jumpi\n      0x00\n      dup1\n      revert\n    tag_47:\n      pop\n      tag_48\n      0x04\n      dup1\n      calldatasize\n      sub\n      dup2\n      add\n      swap1\n      tag_49\n      swap2\n      swap1\n      tag_50\n      jump\t// in\n    tag_49:\n      tag_51\n      jump\t// in\n    tag_48:\n      mload(0x40)\n      tag_52\n      swap2\n      swap1\n      tag_53\n      jump\t// in\n    tag_52:\n      mload(0x40)\n      dup1\n      swap2\n      sub\n      swap1\n      return\n        /* \"contracts/fund.sol\":10306:11056  function makeRefund(bytes32 projectID) public {... */\n    tag_5:\n      callvalue\n      dup1\n      iszero\n      tag_54\n      jumpi\n      0x00\n      dup1\n      revert\n    tag_54:\n      pop\n      tag_55\n      0x04\n      dup1\n      calldatasize\n      sub\n      dup2\n      add\n      swap1\n      tag_56\n      swap2\n      swap1\n      tag_50\n      jump\t// in\n    tag_56:\n      tag_57\n      jump\t// in\n    tag_55:\n      stop\n        /* \"contracts/fund.sol\":8272:9099  function binarySearchContributor(bytes32 projectId, address targetAddress) public view returns (uint256 index, bool found) {... */\n    tag_6:\n      callvalue\n      dup1\n      iszero\n      tag_58\n      jumpi\n      0x00\n      dup1\n      revert\n    tag_58:\n      pop\n      tag_59\n      0x04\n      dup1\n      calldatasize\n      sub\n      dup2\n      add\n      swap1\n      tag_60\n      swap2\n      swap1\n      tag_61\n      jump\t// in\n    tag_60:\n      tag_62\n      jump\t// in\n    tag_59:\n      mload(0x40)\n      tag_63\n      swap3\n      swap2\n      swap1\n      tag_64\n      jump\t// in\n    tag_63:\n      mload(0x40)\n      dup1\n      swap2\n      sub\n      swap1\n      return\n        /* \"contracts/fund.sol\":11664:12479  function checkIfFundingComplete(bytes32 projectID) public {... */\n    tag_7:\n      callvalue\n      dup1\n      iszero\n      tag_65\n      jumpi\n      0x00\n      dup1\n      revert\n    tag_65:\n      pop\n      tag_66\n      0x04\n      dup1\n      calldatasize\n      sub\n      dup2\n      add\n      swap1\n      tag_67\n      swap2\n      swap1\n      tag_50\n      jump\t// in\n    tag_67:\n      tag_68\n      jump\t// in\n    tag_66:\n      stop\n        /* \"contracts/fund.sol\":3127:3247  function projectExists(bytes32 projectID) public view returns (bool) {... */\n    tag_8:\n      callvalue\n      dup1\n      iszero\n      tag_69\n      jumpi\n      0x00\n      dup1\n      revert\n    tag_69:\n      pop\n      tag_70\n      0x04\n      dup1\n      calldatasize\n      sub\n      dup2\n      add\n      swap1\n      tag_71\n      swap2\n      swap1\n      tag_50\n      jump\t// in\n    tag_71:\n      tag_72\n      jump\t// in\n    tag_70:\n      mload(0x40)\n      tag_73\n      swap2\n      swap1\n      tag_74\n      jump\t// in\n    tag_73:\n      mload(0x40)\n      dup1\n      swap2\n      sub\n      swap1\n      return\n        /* \"contracts/fund.sol\":12489:12749  function withdraw() public {... */\n    tag_9:\n      callvalue\n      dup1\n      iszero\n      tag_75\n      jumpi\n      0x00\n      dup1\n      revert\n    tag_75:\n      pop\n      tag_76\n      tag_77\n      jump\t// in\n    tag_76:\n      stop\n        /* \"contracts/fund.sol\":5196:5276  function unpause() public whenPaused onlyOwner {... */\n    tag_10:\n      callvalue\n      dup1\n      iszero\n      tag_78\n      jumpi\n      0x00\n      dup1\n      revert\n    tag_78:\n      pop\n      tag_79\n      tag_80\n      jump\t// in\n    tag_79:\n      stop\n        /* \"contracts/fund.sol\":9107:9946  function fundProject(bytes32 projectID) public payable {... */\n    tag_11:\n      tag_81\n      0x04\n      dup1\n      calldatasize\n      sub\n      dup2\n      add\n      swap1\n      tag_82\n      swap2\n      swap1\n      tag_50\n      jump\t// in\n    tag_82:\n      tag_83\n      jump\t// in\n    tag_81:\n      stop\n        /* \"contracts/fund.sol\":5284:5395  function setContributionFee(uint256 fee) public onlyOwner {... */\n    tag_12:\n      callvalue\n      dup1\n      iszero\n      tag_84\n      jumpi\n      0x00\n      dup1\n      revert\n    tag_84:\n      pop\n      tag_85\n      0x04\n      dup1\n      calldatasize\n      sub\n      dup2\n      add\n      swap1\n      tag_86\n      swap2\n      swap1\n      tag_45\n      jump\t// in\n    tag_86:\n      tag_87\n      jump\t// in\n    tag_85:\n      stop\n        /* \"contracts/fund.sol\":11064:11656  function sendFunds(bytes32 projectID) public {... */\n    tag_13:\n      callvalue\n      dup1\n      iszero\n      tag_88\n      jumpi\n      0x00\n      dup1\n      revert\n    tag_88:\n      pop\n      tag_89\n      0x04\n      dup1\n      calldatasize\n      sub\n      dup2\n      add\n      swap1\n      tag_90\n      swap2\n      swap1\n      tag_50\n      jump\t// in\n    tag_90:\n      tag_91\n      jump\t// in\n    tag_89:\n      stop\n        /* \"contracts/fund.sol\":135:184  uint256 public CONTRIBUTION_COMMISSION_RATE = 490 */\n    tag_14:\n      callvalue\n      dup1\n      iszero\n      tag_92\n      jumpi\n      0x00\n      dup1\n      revert\n    tag_92:\n      pop\n      tag_93\n      tag_94\n      jump\t// in\n    tag_93:\n      mload(0x40)\n      tag_95\n      swap2\n      swap1\n      tag_96\n      jump\t// in\n    tag_95:\n      mload(0x40)\n      dup1\n      swap2\n      sub\n      swap1\n      return\n        /* \"contracts/fund.sol\":5108:5188  function pause() public whenNotPaused onlyOwner {... */\n    tag_15:\n      callvalue\n      dup1\n      iszero\n      tag_97\n      jumpi\n      0x00\n      dup1\n      revert\n    tag_97:\n      pop\n      tag_98\n      tag_99\n      jump\t// in\n    tag_98:\n      stop\n        /* \"contracts/fund.sol\":5642:5754  function getTransactionFee() public view returns (uint256) {... */\n    tag_16:\n      callvalue\n      dup1\n      iszero\n      tag_100\n      jumpi\n      0x00\n      dup1\n      revert\n    tag_100:\n      pop\n      tag_101\n      tag_102\n      jump\t// in\n    tag_101:\n      mload(0x40)\n      tag_103\n      swap2\n      swap1\n      tag_96\n      jump\t// in\n    tag_103:\n      mload(0x40)\n      dup1\n      swap2\n      sub\n      swap1\n      return\n        /* \"contracts/fund.sol\":7113:7391  function setProjectDescription(bytes32 projectID, string memory newDescription) public onlyCreator(projectID) projectActive(projectID) {... */\n    tag_17:\n      callvalue\n      dup1\n      iszero\n      tag_104\n      jumpi\n      0x00\n      dup1\n      revert\n    tag_104:\n      pop\n      tag_105\n      0x04\n      dup1\n      calldatasize\n      sub\n      dup2\n      add\n      swap1\n      tag_106\n      swap2\n      swap1\n      tag_107\n      jump\t// in\n    tag_106:\n      tag_108\n      jump\t// in\n    tag_105:\n      stop\n        /* \"contracts/fund.sol\":4535:5100  function idSearch(bytes32[] memory array, bytes32 target) public pure returns (int256) {... */\n    tag_18:\n      callvalue\n      dup1\n      iszero\n      tag_109\n      jumpi\n      0x00\n      dup1\n      revert\n    tag_109:\n      pop\n      tag_110\n      0x04\n      dup1\n      calldatasize\n      sub\n      dup2\n      add\n      swap1\n      tag_111\n      swap2\n      swap1\n      tag_112\n      jump\t// in\n    tag_111:\n      tag_113\n      jump\t// in\n    tag_110:\n      mload(0x40)\n      tag_114\n      swap2\n      swap1\n      tag_115\n      jump\t// in\n    tag_114:\n      mload(0x40)\n      dup1\n      swap2\n      sub\n      swap1\n      return\n        /* \"contracts/fund.sol\":5762:6612  function createProject(string memory name, string memory description, uint goal, uint deadline) public {... */\n    tag_19:\n      callvalue\n      dup1\n      iszero\n      tag_116\n      jumpi\n      0x00\n      dup1\n      revert\n    tag_116:\n      pop\n      tag_117\n      0x04\n      dup1\n      calldatasize\n      sub\n      dup2\n      add\n      swap1\n      tag_118\n      swap2\n      swap1\n      tag_119\n      jump\t// in\n    tag_118:\n      tag_120\n      jump\t// in\n    tag_117:\n      stop\n        /* \"contracts/fund.sol\":2835:2974  function projectIsActive(bytes32 projectId) public view returns (ProjectStatus) {... */\n    tag_20:\n      callvalue\n      dup1\n      iszero\n      tag_121\n      jumpi\n      0x00\n      dup1\n      revert\n    tag_121:\n      pop\n      tag_122\n      0x04\n      dup1\n      calldatasize\n      sub\n      dup2\n      add\n      swap1\n      tag_123\n      swap2\n      swap1\n      tag_50\n      jump\t// in\n    tag_123:\n      tag_124\n      jump\t// in\n    tag_122:\n      mload(0x40)\n      tag_125\n      swap2\n      swap1\n      tag_126\n      jump\t// in\n    tag_125:\n      mload(0x40)\n      dup1\n      swap2\n      sub\n      swap1\n      return\n        /* \"contracts/fund.sol\":9954:10298  function getUserContribution(bytes32 projectID) public view returns (uint256) {... */\n    tag_21:\n      callvalue\n      dup1\n      iszero\n      tag_127\n      jumpi\n      0x00\n      dup1\n      revert\n    tag_127:\n      pop\n      tag_128\n      0x04\n      dup1\n      calldatasize\n      sub\n      dup2\n      add\n      swap1\n      tag_129\n      swap2\n      swap1\n      tag_50\n      jump\t// in\n    tag_129:\n      tag_130\n      jump\t// in\n    tag_128:\n      mload(0x40)\n      tag_131\n      swap2\n      swap1\n      tag_96\n      jump\t// in\n    tag_131:\n      mload(0x40)\n      dup1\n      swap2\n      sub\n      swap1\n      return\n        /* \"contracts/fund.sol\":5520:5634  function getContributionFee() public view returns (uint256) {... */\n    tag_22:\n      callvalue\n      dup1\n      iszero\n      tag_132\n      jumpi\n      0x00\n      dup1\n      revert\n    tag_132:\n      pop\n      tag_133\n      tag_134\n      jump\t// in\n    tag_133:\n      mload(0x40)\n      tag_135\n      swap2\n      swap1\n      tag_96\n      jump\t// in\n    tag_135:\n      mload(0x40)\n      dup1\n      swap2\n      sub\n      swap1\n      return\n        /* \"contracts/fund.sol\":191:239  uint256 public TRANSACTION_COMMISSION_RATE = 290 */\n    tag_23:\n      callvalue\n      dup1\n      iszero\n      tag_136\n      jumpi\n      0x00\n      dup1\n      revert\n    tag_136:\n      pop\n      tag_137\n      tag_138\n      jump\t// in\n    tag_137:\n      mload(0x40)\n      tag_139\n      swap2\n      swap1\n      tag_96\n      jump\t// in\n    tag_139:\n      mload(0x40)\n      dup1\n      swap2\n      sub\n      swap1\n      return\n        /* \"contracts/fund.sol\":3255:4088  function quickSort(bytes32[] memory arr) public pure returns (bytes32[] memory) {... */\n    tag_24:\n      callvalue\n      dup1\n      iszero\n      tag_140\n      jumpi\n      0x00\n      dup1\n      revert\n    tag_140:\n      pop\n      tag_141\n      0x04\n      dup1\n      calldatasize\n      sub\n      dup2\n      add\n      swap1\n      tag_142\n      swap2\n      swap1\n      tag_143\n      jump\t// in\n    tag_142:\n      tag_144\n      jump\t// in\n    tag_141:\n      mload(0x40)\n      tag_145\n      swap2\n      swap1\n      tag_146\n      jump\t// in\n    tag_145:\n      mload(0x40)\n      dup1\n      swap2\n      sub\n      swap1\n      return\n        /* \"contracts/fund.sol\":7883:8023  function getProjectStatus(bytes32 projectID) public view returns (ProjectStatus) {... */\n    tag_25:\n      callvalue\n      dup1\n      iszero\n      tag_147\n      jumpi\n      0x00\n      dup1\n      revert\n    tag_147:\n      pop\n      tag_148\n      0x04\n      dup1\n      calldatasize\n      sub\n      dup2\n      add\n      swap1\n      tag_149\n      swap2\n      swap1\n      tag_50\n      jump\t// in\n    tag_149:\n      tag_150\n      jump\t// in\n    tag_148:\n      mload(0x40)\n      tag_151\n      swap2\n      swap1\n      tag_126\n      jump\t// in\n    tag_151:\n      mload(0x40)\n      dup1\n      swap2\n      sub\n      swap1\n      return\n        /* \"contracts/fund.sol\":8031:8138  function getAmountOfProjects() public view returns (uint256) {... */\n    tag_26:\n      callvalue\n      dup1\n      iszero\n      tag_152\n      jumpi\n      0x00\n      dup1\n      revert\n    tag_152:\n      pop\n      tag_153\n      tag_154\n      jump\t// in\n    tag_153:\n      mload(0x40)\n      tag_155\n      swap2\n      swap1\n      tag_96\n      jump\t// in\n    tag_155:\n      mload(0x40)\n      dup1\n      swap2\n      sub\n      swap1\n      return\n        /* \"contracts/fund.sol\":7399:7728  function setMilestone(bytes32 projectID, uint milestoneSum, string memory milestoneDescription) public onlyCreator(projectID) projectActive(projectID) {... */\n    tag_27:\n      callvalue\n      dup1\n      iszero\n      tag_156\n      jumpi\n      0x00\n      dup1\n      revert\n    tag_156:\n      pop\n      tag_157\n      0x04\n      dup1\n      calldatasize\n      sub\n      dup2\n      add\n      swap1\n      tag_158\n      swap2\n      swap1\n      tag_159\n      jump\t// in\n    tag_158:\n      tag_160\n      jump\t// in\n    tag_157:\n      stop\n        /* \"contracts/fund.sol\":7736:7875  function getMilestones(bytes32 projectID) public view returns (Milestone[] memory) {... */\n    tag_28:\n      callvalue\n      dup1\n      iszero\n      tag_161\n      jumpi\n      0x00\n      dup1\n      revert\n    tag_161:\n      pop\n      tag_162\n      0x04\n      dup1\n      calldatasize\n      sub\n      dup2\n      add\n      swap1\n      tag_163\n      swap2\n      swap1\n      tag_50\n      jump\t// in\n    tag_163:\n      tag_164\n      jump\t// in\n    tag_162:\n      mload(0x40)\n      tag_165\n      swap2\n      swap1\n      tag_166\n      jump\t// in\n    tag_165:\n      mload(0x40)\n      dup1\n      swap2\n      sub\n      swap1\n      return\n        /* \"contracts/fund.sol\":8146:8264  function getUserProjects() public view returns (bytes32[] memory) {... */\n    tag_29:\n      callvalue\n      dup1\n      iszero\n      tag_167\n      jumpi\n      0x00\n      dup1\n      revert\n    tag_167:\n      pop\n      tag_168\n      tag_169\n      jump\t// in\n    tag_168:\n      mload(0x40)\n      tag_170\n      swap2\n      swap1\n      tag_146\n      jump\t// in\n    tag_170:\n      mload(0x40)\n      dup1\n      swap2\n      sub\n      swap1\n      return\n        /* \"contracts/fund.sol\":6620:7105  function getProjectDetails(bytes32 projectID) public view returns (string memory, string memory, address, uint256, uint256, uint256, ProjectStatus) {... */\n    tag_30:\n      callvalue\n      dup1\n      iszero\n      tag_171\n      jumpi\n      0x00\n      dup1\n      revert\n    tag_171:\n      pop\n      tag_172\n      0x04\n      dup1\n      calldatasize\n      sub\n      dup2\n      add\n      swap1\n      tag_173\n      swap2\n      swap1\n      tag_50\n      jump\t// in\n    tag_173:\n      tag_174\n      jump\t// in\n    tag_172:\n      mload(0x40)\n      tag_175\n      swap8\n      swap7\n      swap6\n      swap5\n      swap4\n      swap3\n      swap2\n      swap1\n      tag_176\n      jump\t// in\n    tag_175:\n      mload(0x40)\n      dup1\n      swap2\n      sub\n      swap1\n      return\n        /* \"contracts/fund.sol\":5403:5512  function setTransactionFee(uint256 fee) public onlyOwner {... */\n    tag_46:\n        /* \"contracts/fund.sol\":2090:2095  owner */\n      0x00\n      dup1\n      sload\n      swap1\n      0x0100\n      exp\n      swap1\n      div\n      0xffffffffffffffffffffffffffffffffffffffff\n      and\n        /* \"contracts/fund.sol\":2076:2095  msg.sender == owner */\n      0xffffffffffffffffffffffffffffffffffffffff\n      and\n        /* \"contracts/fund.sol\":2076:2086  msg.sender */\n      caller\n        /* \"contracts/fund.sol\":2076:2095  msg.sender == owner */\n      0xffffffffffffffffffffffffffffffffffffffff\n      and\n      eq\n        /* \"contracts/fund.sol\":2068:2123  require(msg.sender == owner, \"Caller is not the owner\") */\n      tag_178\n      jumpi\n      mload(0x40)\n      0x08c379a000000000000000000000000000000000000000000000000000000000\n      dup2\n      mstore\n      0x04\n      add\n      tag_179\n      swap1\n      tag_180\n      jump\t// in\n    tag_179:\n      mload(0x40)\n      dup1\n      swap2\n      sub\n      swap1\n      revert\n    tag_178:\n        /* \"contracts/fund.sol\":5501:5504  fee */\n      dup1\n        /* \"contracts/fund.sol\":5471:5498  TRANSACTION_COMMISSION_RATE */\n      0x02\n        /* \"contracts/fund.sol\":5471:5504  TRANSACTION_COMMISSION_RATE = fee */\n      dup2\n      swap1\n      sstore\n      pop\n        /* \"contracts/fund.sol\":5403:5512  function setTransactionFee(uint256 fee) public onlyOwner {... */\n      pop\n      jump\t// out\n        /* \"contracts/fund.sol\":2982:3119  function getProjectCreator(bytes32 projectId) public view returns (address) {... */\n    tag_51:\n        /* \"contracts/fund.sol\":3049:3056  address */\n      0x00\n        /* \"contracts/fund.sol\":3076:3084  projects */\n      0x07\n        /* \"contracts/fund.sol\":3076:3095  projects[projectId] */\n      0x00\n        /* \"contracts/fund.sol\":3085:3094  projectId */\n      dup4\n        /* \"contracts/fund.sol\":3076:3095  projects[projectId] */\n      dup2\n      mstore\n      0x20\n      add\n      swap1\n      dup2\n      mstore\n      0x20\n      add\n      0x00\n      keccak256\n        /* \"contracts/fund.sol\":3076:3111  projects[projectId].project_creator */\n      0x02\n      add\n      0x00\n      swap1\n      sload\n      swap1\n      0x0100\n      exp\n      swap1\n      div\n      0xffffffffffffffffffffffffffffffffffffffff\n      and\n        /* \"contracts/fund.sol\":3069:3111  return projects[projectId].project_creator */\n      swap1\n      pop\n        /* \"contracts/fund.sol\":2982:3119  function getProjectCreator(bytes32 projectId) public view returns (address) {... */\n      swap2\n      swap1\n      pop\n      jump\t// out\n        /* \"contracts/fund.sol\":10306:11056  function makeRefund(bytes32 projectID) public {... */\n    tag_57:\n        /* \"contracts/fund.sol\":10371:10395  projectExists(projectID) */\n      tag_184\n        /* \"contracts/fund.sol\":10385:10394  projectID */\n      dup2\n        /* \"contracts/fund.sol\":10371:10384  projectExists */\n      tag_72\n        /* \"contracts/fund.sol\":10371:10395  projectExists(projectID) */\n      jump\t// in\n    tag_184:\n        /* \"contracts/fund.sol\":10363:10422  require(projectExists(projectID), \"Project does not exist\") */\n      tag_185\n      jumpi\n      mload(0x40)\n      0x08c379a000000000000000000000000000000000000000000000000000000000\n      dup2\n      mstore\n      0x04\n      add\n      tag_186\n      swap1\n      tag_187\n      jump\t// in\n    tag_186:\n      mload(0x40)\n      dup1\n      swap2\n      sub\n      swap1\n      revert\n    tag_185:\n        /* \"contracts/fund.sol\":10433:10460  ProjectStatus projectStatus */\n      0x00\n        /* \"contracts/fund.sol\":10463:10490  getProjectStatus(projectID) */\n      tag_188\n        /* \"contracts/fund.sol\":10480:10489  projectID */\n      dup3\n        /* \"contracts/fund.sol\":10463:10479  getProjectStatus */\n      tag_150\n        /* \"contracts/fund.sol\":10463:10490  getProjectStatus(projectID) */\n      jump\t// in\n    tag_188:\n        /* \"contracts/fund.sol\":10433:10490  ProjectStatus projectStatus = getProjectStatus(projectID) */\n      swap1\n      pop\n        /* \"contracts/fund.sol\":10526:10546  ProjectStatus.Failed */\n      0x02\n        /* \"contracts/fund.sol\":10509:10546  projectStatus == ProjectStatus.Failed */\n      dup1\n      dup2\n      gt\n      iszero\n      tag_189\n      jumpi\n      tag_190\n      tag_191\n      jump\t// in\n    tag_190:\n    tag_189:\n        /* \"contracts/fund.sol\":10509:10522  projectStatus */\n      dup2\n        /* \"contracts/fund.sol\":10509:10546  projectStatus == ProjectStatus.Failed */\n      0x02\n      dup2\n      gt\n      iszero\n      tag_192\n      jumpi\n      tag_193\n      tag_191\n      jump\t// in\n    tag_193:\n    tag_192:\n      eq\n        /* \"contracts/fund.sol\":10501:10571  require(projectStatus == ProjectStatus.Failed, \"Project isn't failed\") */\n      tag_194\n      jumpi\n      mload(0x40)\n      0x08c379a000000000000000000000000000000000000000000000000000000000\n      dup2\n      mstore\n      0x04\n      add\n      tag_195\n      swap1\n      tag_196\n      jump\t// in\n    tag_195:\n      mload(0x40)\n      dup1\n      swap2\n      sub\n      swap1\n      revert\n    tag_194:\n        /* \"contracts/fund.sol\":10584:10623  Contributor[] storage contributorsArray */\n      0x00\n        /* \"contracts/fund.sol\":10626:10647  projects_contributors */\n      0x06\n        /* \"contracts/fund.sol\":10626:10658  projects_contributors[projectID] */\n      0x00\n        /* \"contracts/fund.sol\":10648:10657  projectID */\n      dup5\n        /* \"contracts/fund.sol\":10626:10658  projects_contributors[projectID] */\n      dup2\n      mstore\n      0x20\n      add\n      swap1\n      dup2\n      mstore\n      0x20\n      add\n      0x00\n      keccak256\n        /* \"contracts/fund.sol\":10584:10658  Contributor[] storage contributorsArray = projects_contributors[projectID] */\n      swap1\n      pop\n        /* \"contracts/fund.sol\":10674:10683  uint256 i */\n      0x00\n        /* \"contracts/fund.sol\":10669:11049  for (uint256 i = 0; i < contributorsArray.length; i++) {... */\n    tag_197:\n        /* \"contracts/fund.sol\":10693:10710  contributorsArray */\n      dup2\n        /* \"contracts/fund.sol\":10693:10717  contributorsArray.length */\n      dup1\n      sload\n      swap1\n      pop\n        /* \"contracts/fund.sol\":10689:10690  i */\n      dup2\n        /* \"contracts/fund.sol\":10689:10717  i < contributorsArray.length */\n      lt\n        /* \"contracts/fund.sol\":10669:11049  for (uint256 i = 0; i < contributorsArray.length; i++) {... */\n      iszero\n      tag_198\n      jumpi\n        /* \"contracts/fund.sol\":10739:10765  address contributorAddress */\n      0x00\n        /* \"contracts/fund.sol\":10768:10785  contributorsArray */\n      dup3\n        /* \"contracts/fund.sol\":10786:10787  i */\n      dup3\n        /* \"contracts/fund.sol\":10768:10788  contributorsArray[i] */\n      dup2\n      sload\n      dup2\n      lt\n      tag_200\n      jumpi\n      tag_201\n      tag_202\n      jump\t// in\n    tag_201:\n    tag_200:\n      swap1\n      0x00\n      mstore\n      keccak256(0x00, 0x20)\n      swap1\n      0x02\n      mul\n      add\n        /* \"contracts/fund.sol\":10768:10808  contributorsArray[i].contributor_address */\n      0x00\n      add\n      0x00\n      swap1\n      sload\n      swap1\n      0x0100\n      exp\n      swap1\n      div\n      0xffffffffffffffffffffffffffffffffffffffff\n      and\n        /* \"contracts/fund.sol\":10739:10808  address contributorAddress = contributorsArray[i].contributor_address */\n      swap1\n      pop\n        /* \"contracts/fund.sol\":10823:10847  uint256 amountToWithdraw */\n      0x00\n        /* \"contracts/fund.sol\":10850:10867  contributorsArray */\n      dup4\n        /* \"contracts/fund.sol\":10868:10869  i */\n      dup4\n        /* \"contracts/fund.sol\":10850:10870  contributorsArray[i] */\n      dup2\n      sload\n      dup2\n      lt\n      tag_204\n      jumpi\n      tag_205\n      tag_202\n      jump\t// in\n    tag_205:\n    tag_204:\n      swap1\n      0x00\n      mstore\n      keccak256(0x00, 0x20)\n      swap1\n      0x02\n      mul\n      add\n        /* \"contracts/fund.sol\":10850:10883  contributorsArray[i].contribution */\n      0x01\n      add\n      sload\n        /* \"contracts/fund.sol\":10823:10883  uint256 amountToWithdraw = contributorsArray[i].contribution */\n      swap1\n      pop\n        /* \"contracts/fund.sol\":10938:10954  amountToWithdraw */\n      dup1\n        /* \"contracts/fund.sol\":10900:10914  users_withdraw */\n      0x04\n        /* \"contracts/fund.sol\":10900:10934  users_withdraw[contributorAddress] */\n      0x00\n        /* \"contracts/fund.sol\":10915:10933  contributorAddress */\n      dup5\n        /* \"contracts/fund.sol\":10900:10934  users_withdraw[contributorAddress] */\n      0xffffffffffffffffffffffffffffffffffffffff\n      and\n      0xffffffffffffffffffffffffffffffffffffffff\n      and\n      dup2\n      mstore\n      0x20\n      add\n      swap1\n      dup2\n      mstore\n      0x20\n      add\n      0x00\n      keccak256\n      0x00\n        /* \"contracts/fund.sol\":10900:10954  users_withdraw[contributorAddress] += amountToWithdraw */\n      dup3\n      dup3\n      sload\n      tag_207\n      swap2\n      swap1\n      tag_208\n      jump\t// in\n    tag_207:\n      swap3\n      pop\n      pop\n      dup2\n      swap1\n      sstore\n      pop\n        /* \"contracts/fund.sol\":10976:11037  RefundIssued(projectID, contributorAddress, amountToWithdraw) */\n      0xf8590cd6b8c44be7a2bc57131f10e203ec5f7d7f2f761e1508a8cc964ecb9eb7\n        /* \"contracts/fund.sol\":10989:10998  projectID */\n      dup7\n        /* \"contracts/fund.sol\":11000:11018  contributorAddress */\n      dup4\n        /* \"contracts/fund.sol\":11020:11036  amountToWithdraw */\n      dup4\n        /* \"contracts/fund.sol\":10976:11037  RefundIssued(projectID, contributorAddress, amountToWithdraw) */\n      mload(0x40)\n      tag_209\n      swap4\n      swap3\n      swap2\n      swap1\n      tag_210\n      jump\t// in\n    tag_209:\n      mload(0x40)\n      dup1\n      swap2\n      sub\n      swap1\n      log1\n        /* \"contracts/fund.sol\":10724:11049  {... */\n      pop\n      pop\n        /* \"contracts/fund.sol\":10719:10722  i++ */\n      dup1\n      dup1\n      0x01\n      add\n      swap2\n      pop\n      pop\n        /* \"contracts/fund.sol\":10669:11049  for (uint256 i = 0; i < contributorsArray.length; i++) {... */\n      jump(tag_197)\n    tag_198:\n      pop\n        /* \"contracts/fund.sol\":10352:11056  {... */\n      pop\n      pop\n        /* \"contracts/fund.sol\":10306:11056  function makeRefund(bytes32 projectID) public {... */\n      pop\n      jump\t// out\n        /* \"contracts/fund.sol\":8272:9099  function binarySearchContributor(bytes32 projectId, address targetAddress) public view returns (uint256 index, bool found) {... */\n    tag_62:\n        /* \"contracts/fund.sol\":8368:8381  uint256 index */\n      0x00\n        /* \"contracts/fund.sol\":8383:8393  bool found */\n      dup1\n        /* \"contracts/fund.sol\":8406:8431  Contributor[] storage arr */\n      0x00\n        /* \"contracts/fund.sol\":8434:8455  projects_contributors */\n      0x06\n        /* \"contracts/fund.sol\":8434:8466  projects_contributors[projectId] */\n      0x00\n        /* \"contracts/fund.sol\":8456:8465  projectId */\n      dup7\n        /* \"contracts/fund.sol\":8434:8466  projects_contributors[projectId] */\n      dup2\n      mstore\n      0x20\n      add\n      swap1\n      dup2\n      mstore\n      0x20\n      add\n      0x00\n      keccak256\n        /* \"contracts/fund.sol\":8406:8466  Contributor[] storage arr = projects_contributors[projectId] */\n      swap1\n      pop\n        /* \"contracts/fund.sol\":8477:8488  uint256 low */\n      0x00\n        /* \"contracts/fund.sol\":8523:8524  0 */\n      dup1\n        /* \"contracts/fund.sol\":8509:8512  arr */\n      dup3\n        /* \"contracts/fund.sol\":8509:8519  arr.length */\n      dup1\n      sload\n      swap1\n      pop\n        /* \"contracts/fund.sol\":8509:8524  arr.length == 0 */\n      sub\n        /* \"contracts/fund.sol\":8505:8570  if (arr.length == 0) {... */\n      tag_212\n      jumpi\n        /* \"contracts/fund.sol\":8549:8550  0 */\n      0x00\n        /* \"contracts/fund.sol\":8552:8557  false */\n      dup1\n        /* \"contracts/fund.sol\":8541:8558  return (0, false) */\n      swap4\n      pop\n      swap4\n      pop\n      pop\n      pop\n      jump(tag_211)\n        /* \"contracts/fund.sol\":8505:8570  if (arr.length == 0) {... */\n    tag_212:\n        /* \"contracts/fund.sol\":8582:8594  uint256 high */\n      0x00\n        /* \"contracts/fund.sol\":8610:8611  1 */\n      0x01\n        /* \"contracts/fund.sol\":8597:8600  arr */\n      dup4\n        /* \"contracts/fund.sol\":8597:8607  arr.length */\n      dup1\n      sload\n      swap1\n      pop\n        /* \"contracts/fund.sol\":8597:8611  arr.length - 1 */\n      tag_213\n      swap2\n      swap1\n      tag_214\n      jump\t// in\n    tag_213:\n        /* \"contracts/fund.sol\":8582:8611  uint256 high = arr.length - 1 */\n      swap1\n      pop\n        /* \"contracts/fund.sol\":8624:9064  while (low <= high) {... */\n    tag_215:\n        /* \"contracts/fund.sol\":8638:8642  high */\n      dup1\n        /* \"contracts/fund.sol\":8631:8634  low */\n      dup3\n        /* \"contracts/fund.sol\":8631:8642  low <= high */\n      gt\n        /* \"contracts/fund.sol\":8624:9064  while (low <= high) {... */\n      tag_216\n      jumpi\n        /* \"contracts/fund.sol\":8659:8670  uint256 mid */\n      0x00\n        /* \"contracts/fund.sol\":8694:8695  2 */\n      0x02\n        /* \"contracts/fund.sol\":8687:8690  low */\n      dup4\n        /* \"contracts/fund.sol\":8680:8684  high */\n      dup4\n        /* \"contracts/fund.sol\":8680:8690  high - low */\n      tag_217\n      swap2\n      swap1\n      tag_214\n      jump\t// in\n    tag_217:\n        /* \"contracts/fund.sol\":8679:8695  (high - low) / 2 */\n      tag_218\n      swap2\n      swap1\n      tag_219\n      jump\t// in\n    tag_218:\n        /* \"contracts/fund.sol\":8673:8676  low */\n      dup4\n        /* \"contracts/fund.sol\":8673:8695  low + (high - low) / 2 */\n      tag_220\n      swap2\n      swap1\n      tag_208\n      jump\t// in\n    tag_220:\n        /* \"contracts/fund.sol\":8659:8695  uint256 mid = low + (high - low) / 2 */\n      swap1\n      pop\n        /* \"contracts/fund.sol\":8746:8759  targetAddress */\n      dup7\n        /* \"contracts/fund.sol\":8714:8759  arr[mid].contributor_address == targetAddress */\n      0xffffffffffffffffffffffffffffffffffffffff\n      and\n        /* \"contracts/fund.sol\":8714:8717  arr */\n      dup5\n        /* \"contracts/fund.sol\":8718:8721  mid */\n      dup3\n        /* \"contracts/fund.sol\":8714:8722  arr[mid] */\n      dup2\n      sload\n      dup2\n      lt\n      tag_221\n      jumpi\n      tag_222\n      tag_202\n      jump\t// in\n    tag_222:\n    tag_221:\n      swap1\n      0x00\n      mstore\n      keccak256(0x00, 0x20)\n      swap1\n      0x02\n      mul\n      add\n        /* \"contracts/fund.sol\":8714:8742  arr[mid].contributor_address */\n      0x00\n      add\n      0x00\n      swap1\n      sload\n      swap1\n      0x0100\n      exp\n      swap1\n      div\n      0xffffffffffffffffffffffffffffffffffffffff\n      and\n        /* \"contracts/fund.sol\":8714:8759  arr[mid].contributor_address == targetAddress */\n      0xffffffffffffffffffffffffffffffffffffffff\n      and\n      sub\n        /* \"contracts/fund.sol\":8710:9053  if (arr[mid].contributor_address == targetAddress) {... */\n      tag_224\n      jumpi\n        /* \"contracts/fund.sol\":8788:8791  mid */\n      dup1\n        /* \"contracts/fund.sol\":8793:8797  true */\n      0x01\n        /* \"contracts/fund.sol\":8780:8798  return (mid, true) */\n      swap6\n      pop\n      swap6\n      pop\n      pop\n      pop\n      pop\n      pop\n      jump(tag_211)\n        /* \"contracts/fund.sol\":8710:9053  if (arr[mid].contributor_address == targetAddress) {... */\n    tag_224:\n        /* \"contracts/fund.sol\":8855:8868  targetAddress */\n      dup7\n        /* \"contracts/fund.sol\":8824:8868  arr[mid].contributor_address < targetAddress */\n      0xffffffffffffffffffffffffffffffffffffffff\n      and\n        /* \"contracts/fund.sol\":8824:8827  arr */\n      dup5\n        /* \"contracts/fund.sol\":8828:8831  mid */\n      dup3\n        /* \"contracts/fund.sol\":8824:8832  arr[mid] */\n      dup2\n      sload\n      dup2\n      lt\n      tag_226\n      jumpi\n      tag_227\n      tag_202\n      jump\t// in\n    tag_227:\n    tag_226:\n      swap1\n      0x00\n      mstore\n      keccak256(0x00, 0x20)\n      swap1\n      0x02\n      mul\n      add\n        /* \"contracts/fund.sol\":8824:8852  arr[mid].contributor_address */\n      0x00\n      add\n      0x00\n      swap1\n      sload\n      swap1\n      0x0100\n      exp\n      swap1\n      div\n      0xffffffffffffffffffffffffffffffffffffffff\n      and\n        /* \"contracts/fund.sol\":8824:8868  arr[mid].contributor_address < targetAddress */\n      0xffffffffffffffffffffffffffffffffffffffff\n      and\n      lt\n        /* \"contracts/fund.sol\":8820:9053  if (arr[mid].contributor_address < targetAddress) {... */\n      iszero\n      tag_229\n      jumpi\n        /* \"contracts/fund.sol\":8901:8902  1 */\n      0x01\n        /* \"contracts/fund.sol\":8895:8898  mid */\n      dup2\n        /* \"contracts/fund.sol\":8895:8902  mid + 1 */\n      tag_230\n      swap2\n      swap1\n      tag_208\n      jump\t// in\n    tag_230:\n        /* \"contracts/fund.sol\":8889:8902  low = mid + 1 */\n      swap3\n      pop\n        /* \"contracts/fund.sol\":8820:9053  if (arr[mid].contributor_address < targetAddress) {... */\n      jump(tag_231)\n    tag_229:\n        /* \"contracts/fund.sol\":8954:8955  0 */\n      0x00\n        /* \"contracts/fund.sol\":8947:8950  mid */\n      dup2\n        /* \"contracts/fund.sol\":8947:8955  mid == 0 */\n      sub\n        /* \"contracts/fund.sol\":8943:9005  if (mid == 0) {... */\n      tag_232\n      jumpi\n        /* \"contracts/fund.sol\":8980:8985  break */\n      pop\n      jump(tag_216)\n        /* \"contracts/fund.sol\":8943:9005  if (mid == 0) {... */\n    tag_232:\n        /* \"contracts/fund.sol\":9036:9037  1 */\n      0x01\n        /* \"contracts/fund.sol\":9030:9033  mid */\n      dup2\n        /* \"contracts/fund.sol\":9030:9037  mid - 1 */\n      tag_233\n      swap2\n      swap1\n      tag_214\n      jump\t// in\n    tag_233:\n        /* \"contracts/fund.sol\":9023:9037  high = mid - 1 */\n      swap2\n      pop\n        /* \"contracts/fund.sol\":8820:9053  if (arr[mid].contributor_address < targetAddress) {... */\n    tag_231:\n        /* \"contracts/fund.sol\":8644:9064  {... */\n      pop\n        /* \"contracts/fund.sol\":8624:9064  while (low <= high) {... */\n      jump(tag_215)\n    tag_216:\n        /* \"contracts/fund.sol\":9082:9083  0 */\n      0x00\n        /* \"contracts/fund.sol\":9085:9090  false */\n      dup1\n        /* \"contracts/fund.sol\":9074:9091  return (0, false) */\n      swap5\n      pop\n      swap5\n      pop\n      pop\n      pop\n      pop\n        /* \"contracts/fund.sol\":8272:9099  function binarySearchContributor(bytes32 projectId, address targetAddress) public view returns (uint256 index, bool found) {... */\n    tag_211:\n      swap3\n      pop\n      swap3\n      swap1\n      pop\n      jump\t// out\n        /* \"contracts/fund.sol\":11664:12479  function checkIfFundingComplete(bytes32 projectID) public {... */\n    tag_68:\n        /* \"contracts/fund.sol\":11737:11761  projectExists(projectID) */\n      tag_235\n        /* \"contracts/fund.sol\":11751:11760  projectID */\n      dup2\n        /* \"contracts/fund.sol\":11737:11750  projectExists */\n      tag_72\n        /* \"contracts/fund.sol\":11737:11761  projectExists(projectID) */\n      jump\t// in\n    tag_235:\n        /* \"contracts/fund.sol\":11729:11788  require(projectExists(projectID), \"Project does not exist\") */\n      tag_236\n      jumpi\n      mload(0x40)\n      0x08c379a000000000000000000000000000000000000000000000000000000000\n      dup2\n      mstore\n      0x04\n      add\n      tag_237\n      swap1\n      tag_187\n      jump\t// in\n    tag_237:\n      mload(0x40)\n      dup1\n      swap2\n      sub\n      swap1\n      revert\n    tag_236:\n        /* \"contracts/fund.sol\":11795:11818  Project storage project */\n      0x00\n        /* \"contracts/fund.sol\":11821:11829  projects */\n      0x07\n        /* \"contracts/fund.sol\":11821:11840  projects[projectID] */\n      0x00\n        /* \"contracts/fund.sol\":11830:11839  projectID */\n      dup4\n        /* \"contracts/fund.sol\":11821:11840  projects[projectID] */\n      dup2\n      mstore\n      0x20\n      add\n      swap1\n      dup2\n      mstore\n      0x20\n      add\n      0x00\n      keccak256\n        /* \"contracts/fund.sol\":11795:11840  Project storage project = projects[projectID] */\n      swap1\n      pop\n        /* \"contracts/fund.sol\":11880:11900  ProjectStatus.Active */\n      0x00\n        /* \"contracts/fund.sol\":11855:11900  project.projectStatus == ProjectStatus.Active */\n      0x02\n      dup2\n      gt\n      iszero\n      tag_238\n      jumpi\n      tag_239\n      tag_191\n      jump\t// in\n    tag_239:\n    tag_238:\n        /* \"contracts/fund.sol\":11855:11862  project */\n      dup2\n        /* \"contracts/fund.sol\":11855:11876  project.projectStatus */\n      0x06\n      add\n      0x00\n      swap1\n      sload\n      swap1\n      0x0100\n      exp\n      swap1\n      div\n      0xff\n      and\n        /* \"contracts/fund.sol\":11855:11900  project.projectStatus == ProjectStatus.Active */\n      0x02\n      dup2\n      gt\n      iszero\n      tag_240\n      jumpi\n      tag_241\n      tag_191\n      jump\t// in\n    tag_241:\n    tag_240:\n      eq\n        /* \"contracts/fund.sol\":11847:11926  require(project.projectStatus == ProjectStatus.Active, \"Project is not active\") */\n      tag_242\n      jumpi\n      mload(0x40)\n      0x08c379a000000000000000000000000000000000000000000000000000000000\n      dup2\n      mstore\n      0x04\n      add\n      tag_243\n      swap1\n      tag_244\n      jump\t// in\n    tag_243:\n      mload(0x40)\n      dup1\n      swap2\n      sub\n      swap1\n      revert\n    tag_242:\n        /* \"contracts/fund.sol\":11960:11967  project */\n      dup1\n        /* \"contracts/fund.sol\":11960:11976  project.deadline */\n      0x05\n      add\n      sload\n        /* \"contracts/fund.sol\":11941:11956  block.timestamp */\n      timestamp\n        /* \"contracts/fund.sol\":11941:11976  block.timestamp >= project.deadline */\n      lt\n        /* \"contracts/fund.sol\":11937:12476  if (block.timestamp >= project.deadline) {... */\n      tag_245\n      jumpi\n        /* \"contracts/fund.sol\":12011:12018  project */\n      dup1\n        /* \"contracts/fund.sol\":12011:12029  project.final_goal */\n      0x03\n      add\n      sload\n        /* \"contracts/fund.sol\":11993:12000  project */\n      dup2\n        /* \"contracts/fund.sol\":11993:12007  project.funded */\n      0x04\n      add\n      sload\n        /* \"contracts/fund.sol\":11993:12029  project.funded >= project.final_goal */\n      lt\n        /* \"contracts/fund.sol\":11989:12404  if (project.funded >= project.final_goal) {... */\n      tag_246\n      jumpi\n        /* \"contracts/fund.sol\":12072:12092  ProjectStatus.Funded */\n      0x01\n        /* \"contracts/fund.sol\":12048:12055  project */\n      dup2\n        /* \"contracts/fund.sol\":12048:12069  project.projectStatus */\n      0x06\n      add\n      0x00\n        /* \"contracts/fund.sol\":12048:12092  project.projectStatus = ProjectStatus.Funded */\n      0x0100\n      exp\n      dup2\n      sload\n      dup2\n      0xff\n      mul\n      not\n      and\n      swap1\n      dup4\n      0x02\n      dup2\n      gt\n      iszero\n      tag_247\n      jumpi\n      tag_248\n      tag_191\n      jump\t// in\n    tag_248:\n    tag_247:\n      mul\n      or\n      swap1\n      sstore\n      pop\n        /* \"contracts/fund.sol\":12112:12165  ProjectStatusUpdated(projectID, ProjectStatus.Funded) */\n      0x9429ffd66955b0a50202aef461a5c7cc17723d8735de36b6119776d3511d7c4f\n        /* \"contracts/fund.sol\":12133:12142  projectID */\n      dup3\n        /* \"contracts/fund.sol\":12144:12164  ProjectStatus.Funded */\n      0x01\n        /* \"contracts/fund.sol\":12112:12165  ProjectStatusUpdated(projectID, ProjectStatus.Funded) */\n      mload(0x40)\n      tag_249\n      swap3\n      swap2\n      swap1\n      tag_250\n      jump\t// in\n    tag_249:\n      mload(0x40)\n      dup1\n      swap2\n      sub\n      swap1\n      log1\n        /* \"contracts/fund.sol\":12182:12202  sendFunds(projectID) */\n      tag_251\n        /* \"contracts/fund.sol\":12192:12201  projectID */\n      dup3\n        /* \"contracts/fund.sol\":12182:12191  sendFunds */\n      tag_91\n        /* \"contracts/fund.sol\":12182:12202  sendFunds(projectID) */\n      jump\t// in\n    tag_251:\n        /* \"contracts/fund.sol\":11989:12404  if (project.funded >= project.final_goal) {... */\n      jump(tag_252)\n    tag_246:\n        /* \"contracts/fund.sol\":12261:12281  ProjectStatus.Failed */\n      0x02\n        /* \"contracts/fund.sol\":12237:12244  project */\n      dup2\n        /* \"contracts/fund.sol\":12237:12258  project.projectStatus */\n      0x06\n      add\n      0x00\n        /* \"contracts/fund.sol\":12237:12281  project.projectStatus = ProjectStatus.Failed */\n      0x0100\n      exp\n      dup2\n      sload\n      dup2\n      0xff\n      mul\n      not\n      and\n      swap1\n      dup4\n      0x02\n      dup2\n      gt\n      iszero\n      tag_253\n      jumpi\n      tag_254\n      tag_191\n      jump\t// in\n    tag_254:\n    tag_253:\n      mul\n      or\n      swap1\n      sstore\n      pop\n        /* \"contracts/fund.sol\":12301:12354  ProjectStatusUpdated(projectID, ProjectStatus.Funded) */\n      0x9429ffd66955b0a50202aef461a5c7cc17723d8735de36b6119776d3511d7c4f\n        /* \"contracts/fund.sol\":12322:12331  projectID */\n      dup3\n        /* \"contracts/fund.sol\":12333:12353  ProjectStatus.Funded */\n      0x01\n        /* \"contracts/fund.sol\":12301:12354  ProjectStatusUpdated(projectID, ProjectStatus.Funded) */\n      mload(0x40)\n      tag_255\n      swap3\n      swap2\n      swap1\n      tag_250\n      jump\t// in\n    tag_255:\n      mload(0x40)\n      dup1\n      swap2\n      sub\n      swap1\n      log1\n        /* \"contracts/fund.sol\":12371:12392  makeRefund(projectID) */\n      tag_256\n        /* \"contracts/fund.sol\":12382:12391  projectID */\n      dup3\n        /* \"contracts/fund.sol\":12371:12381  makeRefund */\n      tag_57\n        /* \"contracts/fund.sol\":12371:12392  makeRefund(projectID) */\n      jump\t// in\n    tag_256:\n        /* \"contracts/fund.sol\":11989:12404  if (project.funded >= project.final_goal) {... */\n    tag_252:\n        /* \"contracts/fund.sol\":11937:12476  if (block.timestamp >= project.deadline) {... */\n      jump(tag_257)\n    tag_245:\n        /* \"contracts/fund.sol\":12428:12468  revert(\"Funding period is not over yet\") */\n      mload(0x40)\n      0x08c379a000000000000000000000000000000000000000000000000000000000\n      dup2\n      mstore\n      0x04\n      add\n      tag_258\n      swap1\n      tag_259\n      jump\t// in\n    tag_258:\n      mload(0x40)\n      dup1\n      swap2\n      sub\n      swap1\n      revert\n        /* \"contracts/fund.sol\":11937:12476  if (block.timestamp >= project.deadline) {... */\n    tag_257:\n        /* \"contracts/fund.sol\":11722:12479  {... */\n      pop\n        /* \"contracts/fund.sol\":11664:12479  function checkIfFundingComplete(bytes32 projectID) public {... */\n      pop\n      jump\t// out\n        /* \"contracts/fund.sol\":3127:3247  function projectExists(bytes32 projectID) public view returns (bool) {... */\n    tag_72:\n        /* \"contracts/fund.sol\":3190:3194  bool */\n      0x00\n        /* \"contracts/fund.sol\":3214:3222  projects */\n      0x07\n        /* \"contracts/fund.sol\":3214:3233  projects[projectID] */\n      0x00\n        /* \"contracts/fund.sol\":3223:3232  projectID */\n      dup4\n        /* \"contracts/fund.sol\":3214:3233  projects[projectID] */\n      dup2\n      mstore\n      0x20\n      add\n      swap1\n      dup2\n      mstore\n      0x20\n      add\n      0x00\n      keccak256\n        /* \"contracts/fund.sol\":3214:3239  projects[projectID].exist */\n      0x06\n      add\n      0x01\n      swap1\n      sload\n      swap1\n      0x0100\n      exp\n      swap1\n      div\n      0xff\n      and\n        /* \"contracts/fund.sol\":3207:3239  return projects[projectID].exist */\n      swap1\n      pop\n        /* \"contracts/fund.sol\":3127:3247  function projectExists(bytes32 projectID) public view returns (bool) {... */\n      swap2\n      swap1\n      pop\n      jump\t// out\n        /* \"contracts/fund.sol\":12489:12749  function withdraw() public {... */\n    tag_77:\n        /* \"contracts/fund.sol\":12527:12551  uint256 amountToWithdraw */\n      0x00\n        /* \"contracts/fund.sol\":12554:12568  users_withdraw */\n      0x04\n        /* \"contracts/fund.sol\":12554:12580  users_withdraw[msg.sender] */\n      0x00\n        /* \"contracts/fund.sol\":12569:12579  msg.sender */\n      caller\n        /* \"contracts/fund.sol\":12554:12580  users_withdraw[msg.sender] */\n      0xffffffffffffffffffffffffffffffffffffffff\n      and\n      0xffffffffffffffffffffffffffffffffffffffff\n      and\n      dup2\n      mstore\n      0x20\n      add\n      swap1\n      dup2\n      mstore\n      0x20\n      add\n      0x00\n      keccak256\n      sload\n        /* \"contracts/fund.sol\":12527:12580  uint256 amountToWithdraw = users_withdraw[msg.sender] */\n      swap1\n      pop\n        /* \"contracts/fund.sol\":12618:12619  0 */\n      0x00\n        /* \"contracts/fund.sol\":12599:12615  amountToWithdraw */\n      dup2\n        /* \"contracts/fund.sol\":12599:12619  amountToWithdraw > 0 */\n      gt\n        /* \"contracts/fund.sol\":12591:12643  require(amountToWithdraw > 0, \"Nothing to withdraw\") */\n      tag_262\n      jumpi\n      mload(0x40)\n      0x08c379a000000000000000000000000000000000000000000000000000000000\n      dup2\n      mstore\n      0x04\n      add\n      tag_263\n      swap1\n      tag_264\n      jump\t// in\n    tag_263:\n      mload(0x40)\n      dup1\n      swap2\n      sub\n      swap1\n      revert\n    tag_262:\n        /* \"contracts/fund.sol\":12683:12684  0 */\n      0x00\n        /* \"contracts/fund.sol\":12654:12668  users_withdraw */\n      0x04\n        /* \"contracts/fund.sol\":12654:12680  users_withdraw[msg.sender] */\n      0x00\n        /* \"contracts/fund.sol\":12669:12679  msg.sender */\n      caller\n        /* \"contracts/fund.sol\":12654:12680  users_withdraw[msg.sender] */\n      0xffffffffffffffffffffffffffffffffffffffff\n      and\n      0xffffffffffffffffffffffffffffffffffffffff\n      and\n      dup2\n      mstore\n      0x20\n      add\n      swap1\n      dup2\n      mstore\n      0x20\n      add\n      0x00\n      keccak256\n        /* \"contracts/fund.sol\":12654:12684  users_withdraw[msg.sender] = 0 */\n      dup2\n      swap1\n      sstore\n      pop\n        /* \"contracts/fund.sol\":12703:12713  msg.sender */\n      caller\n        /* \"contracts/fund.sol\":12695:12723  payable(msg.sender).transfer */\n      0xffffffffffffffffffffffffffffffffffffffff\n      and\n        /* \"contracts/fund.sol\":12695:12741  payable(msg.sender).transfer(amountToWithdraw) */\n      0x08fc\n        /* \"contracts/fund.sol\":12724:12740  amountToWithdraw */\n      dup3\n        /* \"contracts/fund.sol\":12695:12741  payable(msg.sender).transfer(amountToWithdraw) */\n      swap1\n      dup2\n      iszero\n      mul\n      swap1\n      mload(0x40)\n      0x00\n      mload(0x40)\n      dup1\n      dup4\n      sub\n      dup2\n      dup6\n      dup9\n      dup9\n      call\n      swap4\n      pop\n      pop\n      pop\n      pop\n      iszero\n      dup1\n      iszero\n      tag_266\n      jumpi\n      returndatasize\n      0x00\n      dup1\n      returndatacopy\n      revert(0x00, returndatasize)\n    tag_266:\n      pop\n        /* \"contracts/fund.sol\":12516:12749  {... */\n      pop\n        /* \"contracts/fund.sol\":12489:12749  function withdraw() public {... */\n      jump\t// out\n        /* \"contracts/fund.sol\":5196:5276  function unpause() public whenPaused onlyOwner {... */\n    tag_80:\n        /* \"contracts/fund.sol\":1974:1980  paused */\n      0x00\n      0x14\n      swap1\n      sload\n      swap1\n      0x0100\n      exp\n      swap1\n      div\n      0xff\n      and\n        /* \"contracts/fund.sol\":1966:2007  require(paused, \"Contract is not paused\") */\n      tag_268\n      jumpi\n      mload(0x40)\n      0x08c379a000000000000000000000000000000000000000000000000000000000\n      dup2\n      mstore\n      0x04\n      add\n      tag_269\n      swap1\n      tag_270\n      jump\t// in\n    tag_269:\n      mload(0x40)\n      dup1\n      swap2\n      sub\n      swap1\n      revert\n    tag_268:\n        /* \"contracts/fund.sol\":2090:2095  owner */\n      0x00\n      dup1\n      sload\n      swap1\n      0x0100\n      exp\n      swap1\n      div\n      0xffffffffffffffffffffffffffffffffffffffff\n      and\n        /* \"contracts/fund.sol\":2076:2095  msg.sender == owner */\n      0xffffffffffffffffffffffffffffffffffffffff\n      and\n        /* \"contracts/fund.sol\":2076:2086  msg.sender */\n      caller\n        /* \"contracts/fund.sol\":2076:2095  msg.sender == owner */\n      0xffffffffffffffffffffffffffffffffffffffff\n      and\n      eq\n        /* \"contracts/fund.sol\":2068:2123  require(msg.sender == owner, \"Caller is not the owner\") */\n      tag_272\n      jumpi\n      mload(0x40)\n      0x08c379a000000000000000000000000000000000000000000000000000000000\n      dup2\n      mstore\n      0x04\n      add\n      tag_273\n      swap1\n      tag_180\n      jump\t// in\n    tag_273:\n      mload(0x40)\n      dup1\n      swap2\n      sub\n      swap1\n      revert\n    tag_272:\n        /* \"contracts/fund.sol\":5263:5268  false */\n      0x00\n        /* \"contracts/fund.sol\":5254:5260  paused */\n      dup1\n      0x14\n        /* \"contracts/fund.sol\":5254:5268  paused = false */\n      0x0100\n      exp\n      dup2\n      sload\n      dup2\n      0xff\n      mul\n      not\n      and\n      swap1\n      dup4\n      iszero\n      iszero\n      mul\n      or\n      swap1\n      sstore\n      pop\n        /* \"contracts/fund.sol\":5196:5276  function unpause() public whenPaused onlyOwner {... */\n      jump\t// out\n        /* \"contracts/fund.sol\":9107:9946  function fundProject(bytes32 projectID) public payable {... */\n    tag_83:\n        /* \"contracts/fund.sol\":9181:9205  projectExists(projectID) */\n      tag_276\n        /* \"contracts/fund.sol\":9195:9204  projectID */\n      dup2\n        /* \"contracts/fund.sol\":9181:9194  projectExists */\n      tag_72\n        /* \"contracts/fund.sol\":9181:9205  projectExists(projectID) */\n      jump\t// in\n    tag_276:\n        /* \"contracts/fund.sol\":9173:9232  require(projectExists(projectID), \"Project does not exist\") */\n      tag_277\n      jumpi\n      mload(0x40)\n      0x08c379a000000000000000000000000000000000000000000000000000000000\n      dup2\n      mstore\n      0x04\n      add\n      tag_278\n      swap1\n      tag_187\n      jump\t// in\n    tag_278:\n      mload(0x40)\n      dup1\n      swap2\n      sub\n      swap1\n      revert\n    tag_277:\n        /* \"contracts/fund.sol\":9281:9301  ProjectStatus.Active */\n      0x00\n        /* \"contracts/fund.sol\":9251:9301  projectIsActive(projectID) == ProjectStatus.Active */\n      0x02\n      dup2\n      gt\n      iszero\n      tag_279\n      jumpi\n      tag_280\n      tag_191\n      jump\t// in\n    tag_280:\n    tag_279:\n        /* \"contracts/fund.sol\":9251:9277  projectIsActive(projectID) */\n      tag_281\n        /* \"contracts/fund.sol\":9267:9276  projectID */\n      dup3\n        /* \"contracts/fund.sol\":9251:9266  projectIsActive */\n      tag_124\n        /* \"contracts/fund.sol\":9251:9277  projectIsActive(projectID) */\n      jump\t// in\n    tag_281:\n        /* \"contracts/fund.sol\":9251:9301  projectIsActive(projectID) == ProjectStatus.Active */\n      0x02\n      dup2\n      gt\n      iszero\n      tag_282\n      jumpi\n      tag_283\n      tag_191\n      jump\t// in\n    tag_283:\n    tag_282:\n      eq\n        /* \"contracts/fund.sol\":9243:9326  require(projectIsActive(projectID) == ProjectStatus.Active, \"Project isn't active\") */\n      tag_284\n      jumpi\n      mload(0x40)\n      0x08c379a000000000000000000000000000000000000000000000000000000000\n      dup2\n      mstore\n      0x04\n      add\n      tag_285\n      swap1\n      tag_286\n      jump\t// in\n    tag_285:\n      mload(0x40)\n      dup1\n      swap2\n      sub\n      swap1\n      revert\n    tag_284:\n        /* \"contracts/fund.sol\":9357:9358  0 */\n      0x00\n        /* \"contracts/fund.sol\":9345:9354  msg.value */\n      callvalue\n        /* \"contracts/fund.sol\":9345:9358  msg.value > 0 */\n      gt\n        /* \"contracts/fund.sol\":9337:9401  require(msg.value > 0, \"Contribution must be greater than zero\") */\n      tag_287\n      jumpi\n      mload(0x40)\n      0x08c379a000000000000000000000000000000000000000000000000000000000\n      dup2\n      mstore\n      0x04\n      add\n      tag_288\n      swap1\n      tag_289\n      jump\t// in\n    tag_288:\n      mload(0x40)\n      dup1\n      swap2\n      sub\n      swap1\n      revert\n    tag_287:\n        /* \"contracts/fund.sol\":9415:9439  uint256 contributorIndex */\n      0x00\n        /* \"contracts/fund.sol\":9441:9451  bool found */\n      dup1\n        /* \"contracts/fund.sol\":9455:9501  binarySearchContributor(projectID, msg.sender) */\n      tag_290\n        /* \"contracts/fund.sol\":9479:9488  projectID */\n      dup4\n        /* \"contracts/fund.sol\":9490:9500  msg.sender */\n      caller\n        /* \"contracts/fund.sol\":9455:9478  binarySearchContributor */\n      tag_62\n        /* \"contracts/fund.sol\":9455:9501  binarySearchContributor(projectID, msg.sender) */\n      jump\t// in\n    tag_290:\n        /* \"contracts/fund.sol\":9414:9501  (uint256 contributorIndex, bool found) = binarySearchContributor(projectID, msg.sender) */\n      swap2\n      pop\n      swap2\n      pop\n        /* \"contracts/fund.sol\":9517:9522  found */\n      dup1\n        /* \"contracts/fund.sol\":9512:9819  if (!found) {... */\n      tag_291\n      jumpi\n        /* \"contracts/fund.sol\":9539:9560  projects_contributors */\n      0x06\n        /* \"contracts/fund.sol\":9539:9571  projects_contributors[projectID] */\n      0x00\n        /* \"contracts/fund.sol\":9561:9570  projectID */\n      dup5\n        /* \"contracts/fund.sol\":9539:9571  projects_contributors[projectID] */\n      dup2\n      mstore\n      0x20\n      add\n      swap1\n      dup2\n      mstore\n      0x20\n      add\n      0x00\n      keccak256\n        /* \"contracts/fund.sol\":9577:9697  Contributor({... */\n      mload(0x40)\n      dup1\n      0x40\n      add\n      0x40\n      mstore\n      dup1\n        /* \"contracts/fund.sol\":9629:9639  msg.sender */\n      caller\n        /* \"contracts/fund.sol\":9577:9697  Contributor({... */\n      0xffffffffffffffffffffffffffffffffffffffff\n      and\n      dup2\n      mstore\n      0x20\n      add\n        /* \"contracts/fund.sol\":9672:9681  msg.value */\n      callvalue\n        /* \"contracts/fund.sol\":9577:9697  Contributor({... */\n      dup2\n      mstore\n      pop\n        /* \"contracts/fund.sol\":9539:9698  projects_contributors[projectID].push(Contributor({... */\n      swap1\n      dup1\n      0x01\n      dup2\n      sload\n      add\n      dup1\n      dup3\n      sstore\n      dup1\n      swap2\n      pop\n      pop\n      0x01\n      swap1\n      sub\n      swap1\n      0x00\n      mstore\n      keccak256(0x00, 0x20)\n      swap1\n      0x02\n      mul\n      add\n      0x00\n      swap1\n      swap2\n      swap1\n      swap2\n      swap1\n      swap2\n      pop\n      0x00\n      dup3\n      add\n      mload\n      dup2\n      0x00\n      add\n      exp(0x0100, 0x00)\n      dup2\n      sload\n      dup2\n      0xffffffffffffffffffffffffffffffffffffffff\n      mul\n      not\n      and\n      swap1\n      dup4\n      0xffffffffffffffffffffffffffffffffffffffff\n      and\n      mul\n      or\n      swap1\n      sstore\n      pop\n      0x20\n      dup3\n      add\n      mload\n      dup2\n      0x01\n      add\n      sstore\n      pop\n      pop\n        /* \"contracts/fund.sol\":9512:9819  if (!found) {... */\n      jump(tag_293)\n    tag_291:\n        /* \"contracts/fund.sol\":9798:9807  msg.value */\n      callvalue\n        /* \"contracts/fund.sol\":9731:9752  projects_contributors */\n      0x06\n        /* \"contracts/fund.sol\":9731:9763  projects_contributors[projectID] */\n      0x00\n        /* \"contracts/fund.sol\":9753:9762  projectID */\n      dup6\n        /* \"contracts/fund.sol\":9731:9763  projects_contributors[projectID] */\n      dup2\n      mstore\n      0x20\n      add\n      swap1\n      dup2\n      mstore\n      0x20\n      add\n      0x00\n      keccak256\n        /* \"contracts/fund.sol\":9764:9780  contributorIndex */\n      dup4\n        /* \"contracts/fund.sol\":9731:9781  projects_contributors[projectID][contributorIndex] */\n      dup2\n      sload\n      dup2\n      lt\n      tag_294\n      jumpi\n      tag_295\n      tag_202\n      jump\t// in\n    tag_295:\n    tag_294:\n      swap1\n      0x00\n      mstore\n      keccak256(0x00, 0x20)\n      swap1\n      0x02\n      mul\n      add\n        /* \"contracts/fund.sol\":9731:9794  projects_contributors[projectID][contributorIndex].contribution */\n      0x01\n      add\n      0x00\n        /* \"contracts/fund.sol\":9731:9807  projects_contributors[projectID][contributorIndex].contribution += msg.value */\n      dup3\n      dup3\n      sload\n      tag_297\n      swap2\n      swap1\n      tag_208\n      jump\t// in\n    tag_297:\n      swap3\n      pop\n      pop\n      dup2\n      swap1\n      sstore\n      pop\n        /* \"contracts/fund.sol\":9512:9819  if (!found) {... */\n    tag_293:\n        /* \"contracts/fund.sol\":9861:9870  msg.value */\n      callvalue\n        /* \"contracts/fund.sol\":9831:9839  projects */\n      0x07\n        /* \"contracts/fund.sol\":9831:9850  projects[projectID] */\n      0x00\n        /* \"contracts/fund.sol\":9840:9849  projectID */\n      dup6\n        /* \"contracts/fund.sol\":9831:9850  projects[projectID] */\n      dup2\n      mstore\n      0x20\n      add\n      swap1\n      dup2\n      mstore\n      0x20\n      add\n      0x00\n      keccak256\n        /* \"contracts/fund.sol\":9831:9857  projects[projectID].funded */\n      0x04\n      add\n      0x00\n        /* \"contracts/fund.sol\":9831:9870  projects[projectID].funded += msg.value */\n      dup3\n      dup3\n      sload\n      tag_298\n      swap2\n      swap1\n      tag_208\n      jump\t// in\n    tag_298:\n      swap3\n      pop\n      pop\n      dup2\n      swap1\n      sstore\n      pop\n        /* \"contracts/fund.sol\":9888:9938  ContributionMade(projectID, msg.sender, msg.value) */\n      0xb736b18814da81a1581cd71e835c12a580034bd300493d2c7a455ce69a50f7a0\n        /* \"contracts/fund.sol\":9905:9914  projectID */\n      dup4\n        /* \"contracts/fund.sol\":9916:9926  msg.sender */\n      caller\n        /* \"contracts/fund.sol\":9928:9937  msg.value */\n      callvalue\n        /* \"contracts/fund.sol\":9888:9938  ContributionMade(projectID, msg.sender, msg.value) */\n      mload(0x40)\n      tag_299\n      swap4\n      swap3\n      swap2\n      swap1\n      tag_210\n      jump\t// in\n    tag_299:\n      mload(0x40)\n      dup1\n      swap2\n      sub\n      swap1\n      log1\n        /* \"contracts/fund.sol\":9162:9946  {... */\n      pop\n      pop\n        /* \"contracts/fund.sol\":9107:9946  function fundProject(bytes32 projectID) public payable {... */\n      pop\n      jump\t// out\n        /* \"contracts/fund.sol\":5284:5395  function setContributionFee(uint256 fee) public onlyOwner {... */\n    tag_87:\n        /* \"contracts/fund.sol\":2090:2095  owner */\n      0x00\n      dup1\n      sload\n      swap1\n      0x0100\n      exp\n      swap1\n      div\n      0xffffffffffffffffffffffffffffffffffffffff\n      and\n        /* \"contracts/fund.sol\":2076:2095  msg.sender == owner */\n      0xffffffffffffffffffffffffffffffffffffffff\n      and\n        /* \"contracts/fund.sol\":2076:2086  msg.sender */\n      caller\n        /* \"contracts/fund.sol\":2076:2095  msg.sender == owner */\n      0xffffffffffffffffffffffffffffffffffffffff\n      and\n      eq\n        /* \"contracts/fund.sol\":2068:2123  require(msg.sender == owner, \"Caller is not the owner\") */\n      tag_301\n      jumpi\n      mload(0x40)\n      0x08c379a000000000000000000000000000000000000000000000000000000000\n      dup2\n      mstore\n      0x04\n      add\n      tag_302\n      swap1\n      tag_180\n      jump\t// in\n    tag_302:\n      mload(0x40)\n      dup1\n      swap2\n      sub\n      swap1\n      revert\n    tag_301:\n        /* \"contracts/fund.sol\":5384:5387  fee */\n      dup1\n        /* \"contracts/fund.sol\":5353:5381  CONTRIBUTION_COMMISSION_RATE */\n      0x01\n        /* \"contracts/fund.sol\":5353:5387  CONTRIBUTION_COMMISSION_RATE = fee */\n      dup2\n      swap1\n      sstore\n      pop\n        /* \"contracts/fund.sol\":5284:5395  function setContributionFee(uint256 fee) public onlyOwner {... */\n      pop\n      jump\t// out\n        /* \"contracts/fund.sol\":11064:11656  function sendFunds(bytes32 projectID) public {... */\n    tag_91:\n        /* \"contracts/fund.sol\":11128:11152  projectExists(projectID) */\n      tag_305\n        /* \"contracts/fund.sol\":11142:11151  projectID */\n      dup2\n        /* \"contracts/fund.sol\":11128:11141  projectExists */\n      tag_72\n        /* \"contracts/fund.sol\":11128:11152  projectExists(projectID) */\n      jump\t// in\n    tag_305:\n        /* \"contracts/fund.sol\":11120:11179  require(projectExists(projectID), \"Project does not exist\") */\n      tag_306\n      jumpi\n      mload(0x40)\n      0x08c379a000000000000000000000000000000000000000000000000000000000\n      dup2\n      mstore\n      0x04\n      add\n      tag_307\n      swap1\n      tag_187\n      jump\t// in\n    tag_307:\n      mload(0x40)\n      dup1\n      swap2\n      sub\n      swap1\n      revert\n    tag_306:\n        /* \"contracts/fund.sol\":11212:11240  getProjectCreator(projectID) */\n      tag_308\n        /* \"contracts/fund.sol\":11230:11239  projectID */\n      dup2\n        /* \"contracts/fund.sol\":11212:11229  getProjectCreator */\n      tag_51\n        /* \"contracts/fund.sol\":11212:11240  getProjectCreator(projectID) */\n      jump\t// in\n    tag_308:\n        /* \"contracts/fund.sol\":11198:11240  msg.sender == getProjectCreator(projectID) */\n      0xffffffffffffffffffffffffffffffffffffffff\n      and\n        /* \"contracts/fund.sol\":11198:11208  msg.sender */\n      caller\n        /* \"contracts/fund.sol\":11198:11240  msg.sender == getProjectCreator(projectID) */\n      0xffffffffffffffffffffffffffffffffffffffff\n      and\n      eq\n        /* \"contracts/fund.sol\":11190:11280  require(msg.sender == getProjectCreator(projectID), \"Only project creator can send funds\") */\n      tag_309\n      jumpi\n      mload(0x40)\n      0x08c379a000000000000000000000000000000000000000000000000000000000\n      dup2\n      mstore\n      0x04\n      add\n      tag_310\n      swap1\n      tag_311\n      jump\t// in\n    tag_310:\n      mload(0x40)\n      dup1\n      swap2\n      sub\n      swap1\n      revert\n    tag_309:\n        /* \"contracts/fund.sol\":11329:11349  ProjectStatus.Funded */\n      0x01\n        /* \"contracts/fund.sol\":11299:11349  projectIsActive(projectID) == ProjectStatus.Funded */\n      0x02\n      dup2\n      gt\n      iszero\n      tag_312\n      jumpi\n      tag_313\n      tag_191\n      jump\t// in\n    tag_313:\n    tag_312:\n        /* \"contracts/fund.sol\":11299:11325  projectIsActive(projectID) */\n      tag_314\n        /* \"contracts/fund.sol\":11315:11324  projectID */\n      dup3\n        /* \"contracts/fund.sol\":11299:11314  projectIsActive */\n      tag_124\n        /* \"contracts/fund.sol\":11299:11325  projectIsActive(projectID) */\n      jump\t// in\n    tag_314:\n        /* \"contracts/fund.sol\":11299:11349  projectIsActive(projectID) == ProjectStatus.Funded */\n      0x02\n      dup2\n      gt\n      iszero\n      tag_315\n      jumpi\n      tag_316\n      tag_191\n      jump\t// in\n    tag_316:\n    tag_315:\n      eq\n        /* \"contracts/fund.sol\":11291:11375  require(projectIsActive(projectID) == ProjectStatus.Funded, \"Project is not funded\") */\n      tag_317\n      jumpi\n      mload(0x40)\n      0x08c379a000000000000000000000000000000000000000000000000000000000\n      dup2\n      mstore\n      0x04\n      add\n      tag_318\n      swap1\n      tag_319\n      jump\t// in\n    tag_318:\n      mload(0x40)\n      dup1\n      swap2\n      sub\n      swap1\n      revert\n    tag_317:\n        /* \"contracts/fund.sol\":11388:11406  address payable to */\n      0x00\n        /* \"contracts/fund.sol\":11417:11445  getProjectCreator(projectID) */\n      tag_320\n        /* \"contracts/fund.sol\":11435:11444  projectID */\n      dup3\n        /* \"contracts/fund.sol\":11417:11434  getProjectCreator */\n      tag_51\n        /* \"contracts/fund.sol\":11417:11445  getProjectCreator(projectID) */\n      jump\t// in\n    tag_320:\n        /* \"contracts/fund.sol\":11388:11446  address payable to = payable(getProjectCreator(projectID)) */\n      swap1\n      pop\n        /* \"contracts/fund.sol\":11457:11477  uint256 amountToSend */\n      0x00\n        /* \"contracts/fund.sol\":11480:11488  projects */\n      0x07\n        /* \"contracts/fund.sol\":11480:11499  projects[projectID] */\n      0x00\n        /* \"contracts/fund.sol\":11489:11498  projectID */\n      dup5\n        /* \"contracts/fund.sol\":11480:11499  projects[projectID] */\n      dup2\n      mstore\n      0x20\n      add\n      swap1\n      dup2\n      mstore\n      0x20\n      add\n      0x00\n      keccak256\n        /* \"contracts/fund.sol\":11480:11506  projects[projectID].funded */\n      0x04\n      add\n      sload\n        /* \"contracts/fund.sol\":11457:11506  uint256 amountToSend = projects[projectID].funded */\n      swap1\n      pop\n        /* \"contracts/fund.sol\":11548:11549  0 */\n      0x00\n        /* \"contracts/fund.sol\":11519:11527  projects */\n      0x07\n        /* \"contracts/fund.sol\":11519:11538  projects[projectID] */\n      0x00\n        /* \"contracts/fund.sol\":11528:11537  projectID */\n      dup6\n        /* \"contracts/fund.sol\":11519:11538  projects[projectID] */\n      dup2\n      mstore\n      0x20\n      add\n      swap1\n      dup2\n      mstore\n      0x20\n      add\n      0x00\n      keccak256\n        /* \"contracts/fund.sol\":11519:11545  projects[projectID].funded */\n      0x04\n      add\n        /* \"contracts/fund.sol\":11519:11549  projects[projectID].funded = 0 */\n      dup2\n      swap1\n      sstore\n      pop\n        /* \"contracts/fund.sol\":11562:11564  to */\n      dup2\n        /* \"contracts/fund.sol\":11562:11573  to.transfer */\n      0xffffffffffffffffffffffffffffffffffffffff\n      and\n        /* \"contracts/fund.sol\":11562:11587  to.transfer(amountToSend) */\n      0x08fc\n        /* \"contracts/fund.sol\":11574:11586  amountToSend */\n      dup3\n        /* \"contracts/fund.sol\":11562:11587  to.transfer(amountToSend) */\n      swap1\n      dup2\n      iszero\n      mul\n      swap1\n      mload(0x40)\n      0x00\n      mload(0x40)\n      dup1\n      dup4\n      sub\n      dup2\n      dup6\n      dup9\n      dup9\n      call\n      swap4\n      pop\n      pop\n      pop\n      pop\n      iszero\n      dup1\n      iszero\n      tag_322\n      jumpi\n      returndatasize\n      0x00\n      dup1\n      returndatacopy\n      revert(0x00, returndatasize)\n    tag_322:\n      pop\n        /* \"contracts/fund.sol\":11605:11648  FundsWithdrawn(projectID, to, amountToSend) */\n      0x13e7ed68a0fe9e4bcafdde5f49381514a9ee7e34ff7d926eadab64c1e0e77f16\n        /* \"contracts/fund.sol\":11620:11629  projectID */\n      dup4\n        /* \"contracts/fund.sol\":11631:11633  to */\n      dup4\n        /* \"contracts/fund.sol\":11635:11647  amountToSend */\n      dup4\n        /* \"contracts/fund.sol\":11605:11648  FundsWithdrawn(projectID, to, amountToSend) */\n      mload(0x40)\n      tag_323\n      swap4\n      swap3\n      swap2\n      swap1\n      tag_324\n      jump\t// in\n    tag_323:\n      mload(0x40)\n      dup1\n      swap2\n      sub\n      swap1\n      log1\n        /* \"contracts/fund.sol\":11109:11656  {... */\n      pop\n      pop\n        /* \"contracts/fund.sol\":11064:11656  function sendFunds(bytes32 projectID) public {... */\n      pop\n      jump\t// out\n        /* \"contracts/fund.sol\":135:184  uint256 public CONTRIBUTION_COMMISSION_RATE = 490 */\n    tag_94:\n      sload(0x01)\n      dup2\n      jump\t// out\n        /* \"contracts/fund.sol\":5108:5188  function pause() public whenNotPaused onlyOwner {... */\n    tag_99:\n        /* \"contracts/fund.sol\":1875:1881  paused */\n      0x00\n      0x14\n      swap1\n      sload\n      swap1\n      0x0100\n      exp\n      swap1\n      div\n      0xff\n      and\n        /* \"contracts/fund.sol\":1874:1881  !paused */\n      iszero\n        /* \"contracts/fund.sol\":1866:1904  require(!paused, \"Contract is paused\") */\n      tag_326\n      jumpi\n      mload(0x40)\n      0x08c379a000000000000000000000000000000000000000000000000000000000\n      dup2\n      mstore\n      0x04\n      add\n      tag_327\n      swap1\n      tag_328\n      jump\t// in\n    tag_327:\n      mload(0x40)\n      dup1\n      swap2\n      sub\n      swap1\n      revert\n    tag_326:\n        /* \"contracts/fund.sol\":2090:2095  owner */\n      0x00\n      dup1\n      sload\n      swap1\n      0x0100\n      exp\n      swap1\n      div\n      0xffffffffffffffffffffffffffffffffffffffff\n      and\n        /* \"contracts/fund.sol\":2076:2095  msg.sender == owner */\n      0xffffffffffffffffffffffffffffffffffffffff\n      and\n        /* \"contracts/fund.sol\":2076:2086  msg.sender */\n      caller\n        /* \"contracts/fund.sol\":2076:2095  msg.sender == owner */\n      0xffffffffffffffffffffffffffffffffffffffff\n      and\n      eq\n        /* \"contracts/fund.sol\":2068:2123  require(msg.sender == owner, \"Caller is not the owner\") */\n      tag_330\n      jumpi\n      mload(0x40)\n      0x08c379a000000000000000000000000000000000000000000000000000000000\n      dup2\n      mstore\n      0x04\n      add\n      tag_331\n      swap1\n      tag_180\n      jump\t// in\n    tag_331:\n      mload(0x40)\n      dup1\n      swap2\n      sub\n      swap1\n      revert\n    tag_330:\n        /* \"contracts/fund.sol\":5176:5180  true */\n      0x01\n        /* \"contracts/fund.sol\":5167:5173  paused */\n      0x00\n      0x14\n        /* \"contracts/fund.sol\":5167:5180  paused = true */\n      0x0100\n      exp\n      dup2\n      sload\n      dup2\n      0xff\n      mul\n      not\n      and\n      swap1\n      dup4\n      iszero\n      iszero\n      mul\n      or\n      swap1\n      sstore\n      pop\n        /* \"contracts/fund.sol\":5108:5188  function pause() public whenNotPaused onlyOwner {... */\n      jump\t// out\n        /* \"contracts/fund.sol\":5642:5754  function getTransactionFee() public view returns (uint256) {... */\n    tag_102:\n        /* \"contracts/fund.sol\":5692:5699  uint256 */\n      0x00\n        /* \"contracts/fund.sol\":5719:5746  TRANSACTION_COMMISSION_RATE */\n      sload(0x02)\n        /* \"contracts/fund.sol\":5712:5746  return TRANSACTION_COMMISSION_RATE */\n      swap1\n      pop\n        /* \"contracts/fund.sol\":5642:5754  function getTransactionFee() public view returns (uint256) {... */\n      swap1\n      jump\t// out\n        /* \"contracts/fund.sol\":7113:7391  function setProjectDescription(bytes32 projectID, string memory newDescription) public onlyCreator(projectID) projectActive(projectID) {... */\n    tag_108:\n        /* \"contracts/fund.sol\":7212:7221  projectID */\n      dup2\n        /* \"contracts/fund.sol\":2262:2264  -1 */\n      0xffffffffffffffffffffffffffffffffffffffffffffffffffffffffffffffff\n        /* \"contracts/fund.sol\":2211:2258  idSearch(users_projects[msg.sender], projectID) */\n      tag_335\n        /* \"contracts/fund.sol\":2220:2234  users_projects */\n      0x03\n        /* \"contracts/fund.sol\":2220:2246  users_projects[msg.sender] */\n      0x00\n        /* \"contracts/fund.sol\":2235:2245  msg.sender */\n      caller\n        /* \"contracts/fund.sol\":2220:2246  users_projects[msg.sender] */\n      0xffffffffffffffffffffffffffffffffffffffff\n      and\n      0xffffffffffffffffffffffffffffffffffffffff\n      and\n      dup2\n      mstore\n      0x20\n      add\n      swap1\n      dup2\n      mstore\n      0x20\n      add\n      0x00\n      keccak256\n        /* \"contracts/fund.sol\":2211:2258  idSearch(users_projects[msg.sender], projectID) */\n      dup1\n      sload\n      dup1\n      0x20\n      mul\n      0x20\n      add\n      mload(0x40)\n      swap1\n      dup2\n      add\n      0x40\n      mstore\n      dup1\n      swap3\n      swap2\n      swap1\n      dup2\n      dup2\n      mstore\n      0x20\n      add\n      dup3\n      dup1\n      sload\n      dup1\n      iszero\n      tag_336\n      jumpi\n      0x20\n      mul\n      dup3\n      add\n      swap2\n      swap1\n      0x00\n      mstore\n      keccak256(0x00, 0x20)\n      swap1\n    tag_337:\n      dup2\n      sload\n      dup2\n      mstore\n      0x20\n      add\n      swap1\n      0x01\n      add\n      swap1\n      dup1\n      dup4\n      gt\n      tag_337\n      jumpi\n    tag_336:\n      pop\n      pop\n      pop\n      pop\n      pop\n        /* \"contracts/fund.sol\":2248:2257  projectID */\n      dup4\n        /* \"contracts/fund.sol\":2211:2219  idSearch */\n      tag_113\n        /* \"contracts/fund.sol\":2211:2258  idSearch(users_projects[msg.sender], projectID) */\n      jump\t// in\n    tag_335:\n        /* \"contracts/fund.sol\":2211:2264  idSearch(users_projects[msg.sender], projectID) != -1 */\n      sub\n        /* \"contracts/fund.sol\":2203:2309  require(idSearch(users_projects[msg.sender], projectID) != -1, \"This user is not creator of this project\") */\n      tag_338\n      jumpi\n      mload(0x40)\n      0x08c379a000000000000000000000000000000000000000000000000000000000\n      dup2\n      mstore\n      0x04\n      add\n      tag_339\n      swap1\n      tag_340\n      jump\t// in\n    tag_339:\n      mload(0x40)\n      dup1\n      swap2\n      sub\n      swap1\n      revert\n    tag_338:\n        /* \"contracts/fund.sol\":7237:7246  projectID */\n      dup3\n        /* \"contracts/fund.sol\":2762:2782  ProjectStatus.Active */\n      0x00\n        /* \"contracts/fund.sol\":2732:2782  projectIsActive(projectID) == ProjectStatus.Active */\n      0x02\n      dup2\n      gt\n      iszero\n      tag_342\n      jumpi\n      tag_343\n      tag_191\n      jump\t// in\n    tag_343:\n    tag_342:\n        /* \"contracts/fund.sol\":2732:2758  projectIsActive(projectID) */\n      tag_344\n        /* \"contracts/fund.sol\":2748:2757  projectID */\n      dup3\n        /* \"contracts/fund.sol\":2732:2747  projectIsActive */\n      tag_124\n        /* \"contracts/fund.sol\":2732:2758  projectIsActive(projectID) */\n      jump\t// in\n    tag_344:\n        /* \"contracts/fund.sol\":2732:2782  projectIsActive(projectID) == ProjectStatus.Active */\n      0x02\n      dup2\n      gt\n      iszero\n      tag_345\n      jumpi\n      tag_346\n      tag_191\n      jump\t// in\n    tag_346:\n    tag_345:\n      eq\n        /* \"contracts/fund.sol\":2724:2807  require(projectIsActive(projectID) == ProjectStatus.Active, \"Project isn't active\") */\n      tag_347\n      jumpi\n      mload(0x40)\n      0x08c379a000000000000000000000000000000000000000000000000000000000\n      dup2\n      mstore\n      0x04\n      add\n      tag_348\n      swap1\n      tag_286\n      jump\t// in\n    tag_348:\n      mload(0x40)\n      dup1\n      swap2\n      sub\n      swap1\n      revert\n    tag_347:\n        /* \"contracts/fund.sol\":7301:7315  newDescription */\n      dup3\n        /* \"contracts/fund.sol\":7259:7267  projects */\n      0x07\n        /* \"contracts/fund.sol\":7259:7278  projects[projectID] */\n      0x00\n        /* \"contracts/fund.sol\":7268:7277  projectID */\n      dup7\n        /* \"contracts/fund.sol\":7259:7278  projects[projectID] */\n      dup2\n      mstore\n      0x20\n      add\n      swap1\n      dup2\n      mstore\n      0x20\n      add\n      0x00\n      keccak256\n        /* \"contracts/fund.sol\":7259:7298  projects[projectID].project_description */\n      0x01\n      add\n        /* \"contracts/fund.sol\":7259:7315  projects[projectID].project_description = newDescription */\n      swap1\n      dup2\n      tag_350\n      swap2\n      swap1\n      tag_351\n      jump\t// in\n    tag_350:\n      pop\n        /* \"contracts/fund.sol\":7331:7383  ProjectDescriptionUpdated(projectID, newDescription) */\n      0xd935f8055b4c9c830e03201fac6106c7f64b5402f80b169a44853f21974df942\n        /* \"contracts/fund.sol\":7357:7366  projectID */\n      dup5\n        /* \"contracts/fund.sol\":7368:7382  newDescription */\n      dup5\n        /* \"contracts/fund.sol\":7331:7383  ProjectDescriptionUpdated(projectID, newDescription) */\n      mload(0x40)\n      tag_352\n      swap3\n      swap2\n      swap1\n      tag_353\n      jump\t// in\n    tag_352:\n      mload(0x40)\n      dup1\n      swap2\n      sub\n      swap1\n      log1\n        /* \"contracts/fund.sol\":2320:2321  _ */\n      pop\n        /* \"contracts/fund.sol\":7113:7391  function setProjectDescription(bytes32 projectID, string memory newDescription) public onlyCreator(projectID) projectActive(projectID) {... */\n      pop\n      pop\n      pop\n      jump\t// out\n        /* \"contracts/fund.sol\":4535:5100  function idSearch(bytes32[] memory array, bytes32 target) public pure returns (int256) {... */\n    tag_113:\n        /* \"contracts/fund.sol\":4614:4620  int256 */\n      0x00\n        /* \"contracts/fund.sol\":4633:4644  int256 left */\n      dup1\n        /* \"contracts/fund.sol\":4647:4648  0 */\n      0x00\n        /* \"contracts/fund.sol\":4633:4648  int256 left = 0 */\n      swap1\n      pop\n        /* \"contracts/fund.sol\":4659:4671  int256 right */\n      0x00\n        /* \"contracts/fund.sol\":4697:4698  1 */\n      0x01\n        /* \"contracts/fund.sol\":4681:4686  array */\n      dup6\n        /* \"contracts/fund.sol\":4681:4693  array.length */\n      mload\n        /* \"contracts/fund.sol\":4674:4698  int256(array.length) - 1 */\n      tag_355\n      swap2\n      swap1\n      tag_356\n      jump\t// in\n    tag_355:\n        /* \"contracts/fund.sol\":4659:4698  int256 right = int256(array.length) - 1 */\n      swap1\n      pop\n        /* \"contracts/fund.sol\":4711:5071  while (left <= right) {... */\n    tag_357:\n        /* \"contracts/fund.sol\":4726:4731  right */\n      dup1\n        /* \"contracts/fund.sol\":4718:4722  left */\n      dup3\n        /* \"contracts/fund.sol\":4718:4731  left <= right */\n      sgt\n        /* \"contracts/fund.sol\":4711:5071  while (left <= right) {... */\n      tag_358\n      jumpi\n        /* \"contracts/fund.sol\":4748:4758  int256 mid */\n      0x00\n        /* \"contracts/fund.sol\":4785:4786  2 */\n      0x02\n        /* \"contracts/fund.sol\":4777:4781  left */\n      dup4\n        /* \"contracts/fund.sol\":4769:4774  right */\n      dup4\n        /* \"contracts/fund.sol\":4769:4781  right - left */\n      tag_359\n      swap2\n      swap1\n      tag_356\n      jump\t// in\n    tag_359:\n        /* \"contracts/fund.sol\":4768:4786  (right - left) / 2 */\n      tag_360\n      swap2\n      swap1\n      tag_361\n      jump\t// in\n    tag_360:\n        /* \"contracts/fund.sol\":4761:4765  left */\n      dup4\n        /* \"contracts/fund.sol\":4761:4786  left + (right - left) / 2 */\n      tag_362\n      swap2\n      swap1\n      tag_363\n      jump\t// in\n    tag_362:\n        /* \"contracts/fund.sol\":4748:4786  int256 mid = left + (right - left) / 2 */\n      swap1\n      pop\n        /* \"contracts/fund.sol\":4801:4817  bytes32 midValue */\n      0x00\n        /* \"contracts/fund.sol\":4820:4825  array */\n      dup7\n        /* \"contracts/fund.sol\":4834:4837  mid */\n      dup3\n        /* \"contracts/fund.sol\":4820:4839  array[uint256(mid)] */\n      dup2\n      mload\n      dup2\n      lt\n      tag_364\n      jumpi\n      tag_365\n      tag_202\n      jump\t// in\n    tag_365:\n    tag_364:\n      0x20\n      mul\n      0x20\n      add\n      add\n      mload\n        /* \"contracts/fund.sol\":4801:4839  bytes32 midValue = array[uint256(mid)] */\n      swap1\n      pop\n        /* \"contracts/fund.sol\":4872:4878  target */\n      dup6\n        /* \"contracts/fund.sol\":4860:4868  midValue */\n      dup2\n        /* \"contracts/fund.sol\":4860:4878  midValue == target */\n      sub\n        /* \"contracts/fund.sol\":4856:5060  if (midValue == target) {... */\n      tag_366\n      jumpi\n        /* \"contracts/fund.sol\":4906:4909  mid */\n      dup2\n        /* \"contracts/fund.sol\":4899:4909  return mid */\n      swap5\n      pop\n      pop\n      pop\n      pop\n      pop\n      jump(tag_354)\n        /* \"contracts/fund.sol\":4856:5060  if (midValue == target) {... */\n    tag_366:\n        /* \"contracts/fund.sol\":4947:4953  target */\n      dup6\n        /* \"contracts/fund.sol\":4936:4944  midValue */\n      dup2\n        /* \"contracts/fund.sol\":4936:4953  midValue < target */\n      lt\n        /* \"contracts/fund.sol\":4932:5060  if (midValue < target) {... */\n      iszero\n      tag_368\n      jumpi\n        /* \"contracts/fund.sol\":4987:4988  1 */\n      0x01\n        /* \"contracts/fund.sol\":4981:4984  mid */\n      dup3\n        /* \"contracts/fund.sol\":4981:4988  mid + 1 */\n      tag_369\n      swap2\n      swap1\n      tag_363\n      jump\t// in\n    tag_369:\n        /* \"contracts/fund.sol\":4974:4988  left = mid + 1 */\n      swap4\n      pop\n        /* \"contracts/fund.sol\":4932:5060  if (midValue < target) {... */\n      jump(tag_370)\n    tag_368:\n        /* \"contracts/fund.sol\":5043:5044  1 */\n      0x01\n        /* \"contracts/fund.sol\":5037:5040  mid */\n      dup3\n        /* \"contracts/fund.sol\":5037:5044  mid - 1 */\n      tag_371\n      swap2\n      swap1\n      tag_356\n      jump\t// in\n    tag_371:\n        /* \"contracts/fund.sol\":5029:5044  right = mid - 1 */\n      swap3\n      pop\n        /* \"contracts/fund.sol\":4932:5060  if (midValue < target) {... */\n    tag_370:\n        /* \"contracts/fund.sol\":4733:5071  {... */\n      pop\n      pop\n        /* \"contracts/fund.sol\":4711:5071  while (left <= right) {... */\n      jump(tag_357)\n    tag_358:\n        /* \"contracts/fund.sol\":5090:5092  -1 */\n      0xffffffffffffffffffffffffffffffffffffffffffffffffffffffffffffffff\n        /* \"contracts/fund.sol\":5083:5092  return -1 */\n      swap3\n      pop\n      pop\n      pop\n        /* \"contracts/fund.sol\":4535:5100  function idSearch(bytes32[] memory array, bytes32 target) public pure returns (int256) {... */\n    tag_354:\n      swap3\n      swap2\n      pop\n      pop\n      jump\t// out\n        /* \"contracts/fund.sol\":5762:6612  function createProject(string memory name, string memory description, uint goal, uint deadline) public {... */\n    tag_120:\n        /* \"contracts/fund.sol\":5876:5886  bytes32 id */\n      0x00\n        /* \"contracts/fund.sol\":5916:5920  name */\n      dup5\n        /* \"contracts/fund.sol\":5922:5933  description */\n      dup5\n        /* \"contracts/fund.sol\":5935:5950  block.timestamp */\n      timestamp\n        /* \"contracts/fund.sol\":5952:5962  msg.sender */\n      caller\n        /* \"contracts/fund.sol\":5899:5963  abi.encodePacked(name, description, block.timestamp, msg.sender) */\n      add(0x20, mload(0x40))\n      tag_373\n      swap5\n      swap4\n      swap3\n      swap2\n      swap1\n      tag_374\n      jump\t// in\n    tag_373:\n      mload(0x40)\n      0x20\n      dup2\n      dup4\n      sub\n      sub\n      dup2\n      mstore\n      swap1\n      0x40\n      mstore\n        /* \"contracts/fund.sol\":5889:5964  keccak256(abi.encodePacked(name, description, block.timestamp, msg.sender)) */\n      dup1\n      mload\n      swap1\n      0x20\n      add\n      keccak256\n        /* \"contracts/fund.sol\":5876:5964  bytes32 id = keccak256(abi.encodePacked(name, description, block.timestamp, msg.sender)) */\n      swap1\n      pop\n        /* \"contracts/fund.sol\":5975:6000  Project memory newProject */\n      tag_375\n      tag_376\n      jump\t// in\n    tag_375:\n        /* \"contracts/fund.sol\":6037:6041  name */\n      dup6\n        /* \"contracts/fund.sol\":6011:6021  newProject */\n      dup2\n        /* \"contracts/fund.sol\":6011:6034  newProject.project_name */\n      0x00\n      add\n        /* \"contracts/fund.sol\":6011:6041  newProject.project_name = name */\n      dup2\n      swap1\n      mstore\n      pop\n        /* \"contracts/fund.sol\":6085:6096  description */\n      dup5\n        /* \"contracts/fund.sol\":6052:6062  newProject */\n      dup2\n        /* \"contracts/fund.sol\":6052:6082  newProject.project_description */\n      0x20\n      add\n        /* \"contracts/fund.sol\":6052:6096  newProject.project_description = description */\n      dup2\n      swap1\n      mstore\n      pop\n        /* \"contracts/fund.sol\":6136:6146  msg.sender */\n      caller\n        /* \"contracts/fund.sol\":6107:6117  newProject */\n      dup2\n        /* \"contracts/fund.sol\":6107:6133  newProject.project_creator */\n      0x40\n      add\n        /* \"contracts/fund.sol\":6107:6146  newProject.project_creator = msg.sender */\n      swap1\n      0xffffffffffffffffffffffffffffffffffffffff\n      and\n      swap1\n      dup2\n      0xffffffffffffffffffffffffffffffffffffffff\n      and\n      dup2\n      mstore\n      pop\n      pop\n        /* \"contracts/fund.sol\":6181:6185  goal */\n      dup4\n        /* \"contracts/fund.sol\":6157:6167  newProject */\n      dup2\n        /* \"contracts/fund.sol\":6157:6178  newProject.final_goal */\n      0x60\n      add\n        /* \"contracts/fund.sol\":6157:6185  newProject.final_goal = goal */\n      dup2\n      dup2\n      mstore\n      pop\n      pop\n        /* \"contracts/fund.sol\":6216:6217  0 */\n      0x00\n        /* \"contracts/fund.sol\":6196:6206  newProject */\n      dup2\n        /* \"contracts/fund.sol\":6196:6213  newProject.funded */\n      0x80\n      add\n        /* \"contracts/fund.sol\":6196:6217  newProject.funded = 0 */\n      dup2\n      dup2\n      mstore\n      pop\n      pop\n        /* \"contracts/fund.sol\":6250:6258  deadline */\n      dup3\n        /* \"contracts/fund.sol\":6228:6238  newProject */\n      dup2\n        /* \"contracts/fund.sol\":6228:6247  newProject.deadline */\n      0xa0\n      add\n        /* \"contracts/fund.sol\":6228:6258  newProject.deadline = deadline */\n      dup2\n      dup2\n      mstore\n      pop\n      pop\n        /* \"contracts/fund.sol\":6296:6316  ProjectStatus.Active */\n      0x00\n        /* \"contracts/fund.sol\":6269:6279  newProject */\n      dup2\n        /* \"contracts/fund.sol\":6269:6293  newProject.projectStatus */\n      0xc0\n      add\n        /* \"contracts/fund.sol\":6269:6316  newProject.projectStatus = ProjectStatus.Active */\n      swap1\n      0x02\n      dup2\n      gt\n      iszero\n      tag_377\n      jumpi\n      tag_378\n      tag_191\n      jump\t// in\n    tag_378:\n    tag_377:\n      swap1\n      dup2\n      0x02\n      dup2\n      gt\n      iszero\n      tag_379\n      jumpi\n      tag_380\n      tag_191\n      jump\t// in\n    tag_380:\n    tag_379:\n      dup2\n      mstore\n      pop\n      pop\n        /* \"contracts/fund.sol\":6346:6350  true */\n      0x01\n        /* \"contracts/fund.sol\":6327:6337  newProject */\n      dup2\n        /* \"contracts/fund.sol\":6327:6343  newProject.exist */\n      0xe0\n      add\n        /* \"contracts/fund.sol\":6327:6350  newProject.exist = true */\n      swap1\n      iszero\n      iszero\n      swap1\n      dup2\n      iszero\n      iszero\n      dup2\n      mstore\n      pop\n      pop\n        /* \"contracts/fund.sol\":6378:6388  newProject */\n      dup1\n        /* \"contracts/fund.sol\":6363:6371  projects */\n      0x07\n        /* \"contracts/fund.sol\":6363:6375  projects[id] */\n      0x00\n        /* \"contracts/fund.sol\":6372:6374  id */\n      dup5\n        /* \"contracts/fund.sol\":6363:6375  projects[id] */\n      dup2\n      mstore\n      0x20\n      add\n      swap1\n      dup2\n      mstore\n      0x20\n      add\n      0x00\n      keccak256\n        /* \"contracts/fund.sol\":6363:6388  projects[id] = newProject */\n      0x00\n      dup3\n      add\n      mload\n      dup2\n      0x00\n      add\n      swap1\n      dup2\n      tag_381\n      swap2\n      swap1\n      tag_351\n      jump\t// in\n    tag_381:\n      pop\n      0x20\n      dup3\n      add\n      mload\n      dup2\n      0x01\n      add\n      swap1\n      dup2\n      tag_382\n      swap2\n      swap1\n      tag_351\n      jump\t// in\n    tag_382:\n      pop\n      0x40\n      dup3\n      add\n      mload\n      dup2\n      0x02\n      add\n      exp(0x0100, 0x00)\n      dup2\n      sload\n      dup2\n      0xffffffffffffffffffffffffffffffffffffffff\n      mul\n      not\n      and\n      swap1\n      dup4\n      0xffffffffffffffffffffffffffffffffffffffff\n      and\n      mul\n      or\n      swap1\n      sstore\n      pop\n      0x60\n      dup3\n      add\n      mload\n      dup2\n      0x03\n      add\n      sstore\n      0x80\n      dup3\n      add\n      mload\n      dup2\n      0x04\n      add\n      sstore\n      0xa0\n      dup3\n      add\n      mload\n      dup2\n      0x05\n      add\n      sstore\n      0xc0\n      dup3\n      add\n      mload\n      dup2\n      0x06\n      add\n      exp(0x0100, 0x00)\n      dup2\n      sload\n      dup2\n      0xff\n      mul\n      not\n      and\n      swap1\n      dup4\n      0x02\n      dup2\n      gt\n      iszero\n      tag_383\n      jumpi\n      tag_384\n      tag_191\n      jump\t// in\n    tag_384:\n    tag_383:\n      mul\n      or\n      swap1\n      sstore\n      pop\n      0xe0\n      dup3\n      add\n      mload\n      dup2\n      0x06\n      add\n      exp(0x0100, 0x01)\n      dup2\n      sload\n      dup2\n      0xff\n      mul\n      not\n      and\n      swap1\n      dup4\n      iszero\n      iszero\n      mul\n      or\n      swap1\n      sstore\n      pop\n      swap1\n      pop\n      pop\n        /* \"contracts/fund.sol\":6401:6415  users_projects */\n      0x03\n        /* \"contracts/fund.sol\":6401:6427  users_projects[msg.sender] */\n      0x00\n        /* \"contracts/fund.sol\":6416:6426  msg.sender */\n      caller\n        /* \"contracts/fund.sol\":6401:6427  users_projects[msg.sender] */\n      0xffffffffffffffffffffffffffffffffffffffff\n      and\n      0xffffffffffffffffffffffffffffffffffffffff\n      and\n      dup2\n      mstore\n      0x20\n      add\n      swap1\n      dup2\n      mstore\n      0x20\n      add\n      0x00\n      keccak256\n        /* \"contracts/fund.sol\":6433:6435  id */\n      dup3\n        /* \"contracts/fund.sol\":6401:6436  users_projects[msg.sender].push(id) */\n      swap1\n      dup1\n      0x01\n      dup2\n      sload\n      add\n      dup1\n      dup3\n      sstore\n      dup1\n      swap2\n      pop\n      pop\n      0x01\n      swap1\n      sub\n      swap1\n      0x00\n      mstore\n      keccak256(0x00, 0x20)\n      add\n      0x00\n      swap1\n      swap2\n      swap1\n      swap2\n      swap1\n      swap2\n      pop\n      sstore\n        /* \"contracts/fund.sol\":6449:6462  projects_list */\n      0x08\n        /* \"contracts/fund.sol\":6468:6470  id */\n      dup3\n        /* \"contracts/fund.sol\":6449:6471  projects_list.push(id) */\n      swap1\n      dup1\n      0x01\n      dup2\n      sload\n      add\n      dup1\n      dup3\n      sstore\n      dup1\n      swap2\n      pop\n      pop\n      0x01\n      swap1\n      sub\n      swap1\n      0x00\n      mstore\n      keccak256(0x00, 0x20)\n      add\n      0x00\n      swap1\n      swap2\n      swap1\n      swap2\n      swap1\n      swap2\n      pop\n      sstore\n        /* \"contracts/fund.sol\":6484:6521  quickSort(users_projects[msg.sender]) */\n      tag_387\n        /* \"contracts/fund.sol\":6494:6508  users_projects */\n      0x03\n        /* \"contracts/fund.sol\":6494:6520  users_projects[msg.sender] */\n      0x00\n        /* \"contracts/fund.sol\":6509:6519  msg.sender */\n      caller\n        /* \"contracts/fund.sol\":6494:6520  users_projects[msg.sender] */\n      0xffffffffffffffffffffffffffffffffffffffff\n      and\n      0xffffffffffffffffffffffffffffffffffffffff\n      and\n      dup2\n      mstore\n      0x20\n      add\n      swap1\n      dup2\n      mstore\n      0x20\n      add\n      0x00\n      keccak256\n        /* \"contracts/fund.sol\":6484:6521  quickSort(users_projects[msg.sender]) */\n      dup1\n      sload\n      dup1\n      0x20\n      mul\n      0x20\n      add\n      mload(0x40)\n      swap1\n      dup2\n      add\n      0x40\n      mstore\n      dup1\n      swap3\n      swap2\n      swap1\n      dup2\n      dup2\n      mstore\n      0x20\n      add\n      dup3\n      dup1\n      sload\n      dup1\n      iszero\n      tag_388\n      jumpi\n      0x20\n      mul\n      dup3\n      add\n      swap2\n      swap1\n      0x00\n      mstore\n      keccak256(0x00, 0x20)\n      swap1\n    tag_389:\n      dup2\n      sload\n      dup2\n      mstore\n      0x20\n      add\n      swap1\n      0x01\n      add\n      swap1\n      dup1\n      dup4\n      gt\n      tag_389\n      jumpi\n    tag_388:\n      pop\n      pop\n      pop\n      pop\n      pop\n        /* \"contracts/fund.sol\":6484:6493  quickSort */\n      tag_144\n        /* \"contracts/fund.sol\":6484:6521  quickSort(users_projects[msg.sender]) */\n      jump\t// in\n    tag_387:\n      pop\n        /* \"contracts/fund.sol\":6539:6604  ProjectCreated(id, name, description, msg.sender, goal, deadline) */\n      0x57697173c22831f367942a05f5c552c47d47a6585ddfd0836fb8dc3b08e5c331\n        /* \"contracts/fund.sol\":6554:6556  id */\n      dup3\n        /* \"contracts/fund.sol\":6558:6562  name */\n      dup8\n        /* \"contracts/fund.sol\":6564:6575  description */\n      dup8\n        /* \"contracts/fund.sol\":6577:6587  msg.sender */\n      caller\n        /* \"contracts/fund.sol\":6589:6593  goal */\n      dup9\n        /* \"contracts/fund.sol\":6595:6603  deadline */\n      dup9\n        /* \"contracts/fund.sol\":6539:6604  ProjectCreated(id, name, description, msg.sender, goal, deadline) */\n      mload(0x40)\n      tag_390\n      swap7\n      swap6\n      swap5\n      swap4\n      swap3\n      swap2\n      swap1\n      tag_391\n      jump\t// in\n    tag_390:\n      mload(0x40)\n      dup1\n      swap2\n      sub\n      swap1\n      log1\n        /* \"contracts/fund.sol\":5865:6612  {... */\n      pop\n      pop\n        /* \"contracts/fund.sol\":5762:6612  function createProject(string memory name, string memory description, uint goal, uint deadline) public {... */\n      pop\n      pop\n      pop\n      pop\n      jump\t// out\n        /* \"contracts/fund.sol\":2835:2974  function projectIsActive(bytes32 projectId) public view returns (ProjectStatus) {... */\n    tag_124:\n        /* \"contracts/fund.sol\":2900:2913  ProjectStatus */\n      0x00\n        /* \"contracts/fund.sol\":2933:2941  projects */\n      0x07\n        /* \"contracts/fund.sol\":2933:2952  projects[projectId] */\n      0x00\n        /* \"contracts/fund.sol\":2942:2951  projectId */\n      dup4\n        /* \"contracts/fund.sol\":2933:2952  projects[projectId] */\n      dup2\n      mstore\n      0x20\n      add\n      swap1\n      dup2\n      mstore\n      0x20\n      add\n      0x00\n      keccak256\n        /* \"contracts/fund.sol\":2933:2966  projects[projectId].projectStatus */\n      0x06\n      add\n      0x00\n      swap1\n      sload\n      swap1\n      0x0100\n      exp\n      swap1\n      div\n      0xff\n      and\n        /* \"contracts/fund.sol\":2926:2966  return projects[projectId].projectStatus */\n      swap1\n      pop\n        /* \"contracts/fund.sol\":2835:2974  function projectIsActive(bytes32 projectId) public view returns (ProjectStatus) {... */\n      swap2\n      swap1\n      pop\n      jump\t// out\n        /* \"contracts/fund.sol\":9954:10298  function getUserContribution(bytes32 projectID) public view returns (uint256) {... */\n    tag_130:\n        /* \"contracts/fund.sol\":10023:10030  uint256 */\n      0x00\n        /* \"contracts/fund.sol\":10044:10068  uint256 contributorIndex */\n      dup1\n        /* \"contracts/fund.sol\":10070:10080  bool found */\n      0x00\n        /* \"contracts/fund.sol\":10084:10130  binarySearchContributor(projectID, msg.sender) */\n      tag_394\n        /* \"contracts/fund.sol\":10108:10117  projectID */\n      dup5\n        /* \"contracts/fund.sol\":10119:10129  msg.sender */\n      caller\n        /* \"contracts/fund.sol\":10084:10107  binarySearchContributor */\n      tag_62\n        /* \"contracts/fund.sol\":10084:10130  binarySearchContributor(projectID, msg.sender) */\n      jump\t// in\n    tag_394:\n        /* \"contracts/fund.sol\":10043:10130  (uint256 contributorIndex, bool found) = binarySearchContributor(projectID, msg.sender) */\n      swap2\n      pop\n      swap2\n      pop\n        /* \"contracts/fund.sol\":10146:10151  found */\n      dup1\n        /* \"contracts/fund.sol\":10141:10291  if (!found) {... */\n      tag_395\n      jumpi\n        /* \"contracts/fund.sol\":10175:10176  0 */\n      0x00\n        /* \"contracts/fund.sol\":10168:10176  return 0 */\n      swap3\n      pop\n      pop\n      pop\n      jump(tag_393)\n        /* \"contracts/fund.sol\":10141:10291  if (!found) {... */\n    tag_395:\n        /* \"contracts/fund.sol\":10216:10237  projects_contributors */\n      0x06\n        /* \"contracts/fund.sol\":10216:10248  projects_contributors[projectID] */\n      0x00\n        /* \"contracts/fund.sol\":10238:10247  projectID */\n      dup6\n        /* \"contracts/fund.sol\":10216:10248  projects_contributors[projectID] */\n      dup2\n      mstore\n      0x20\n      add\n      swap1\n      dup2\n      mstore\n      0x20\n      add\n      0x00\n      keccak256\n        /* \"contracts/fund.sol\":10249:10265  contributorIndex */\n      dup3\n        /* \"contracts/fund.sol\":10216:10266  projects_contributors[projectID][contributorIndex] */\n      dup2\n      sload\n      dup2\n      lt\n      tag_397\n      jumpi\n      tag_398\n      tag_202\n      jump\t// in\n    tag_398:\n    tag_397:\n      swap1\n      0x00\n      mstore\n      keccak256(0x00, 0x20)\n      swap1\n      0x02\n      mul\n      add\n        /* \"contracts/fund.sol\":10216:10279  projects_contributors[projectID][contributorIndex].contribution */\n      0x01\n      add\n      sload\n        /* \"contracts/fund.sol\":10209:10279  return projects_contributors[projectID][contributorIndex].contribution */\n      swap3\n      pop\n      pop\n      pop\n        /* \"contracts/fund.sol\":9954:10298  function getUserContribution(bytes32 projectID) public view returns (uint256) {... */\n    tag_393:\n      swap2\n      swap1\n      pop\n      jump\t// out\n        /* \"contracts/fund.sol\":5520:5634  function getContributionFee() public view returns (uint256) {... */\n    tag_134:\n        /* \"contracts/fund.sol\":5571:5578  uint256 */\n      0x00\n        /* \"contracts/fund.sol\":5598:5626  CONTRIBUTION_COMMISSION_RATE */\n      sload(0x01)\n        /* \"contracts/fund.sol\":5591:5626  return CONTRIBUTION_COMMISSION_RATE */\n      swap1\n      pop\n        /* \"contracts/fund.sol\":5520:5634  function getContributionFee() public view returns (uint256) {... */\n      swap1\n      jump\t// out\n        /* \"contracts/fund.sol\":191:239  uint256 public TRANSACTION_COMMISSION_RATE = 290 */\n    tag_138:\n      sload(0x02)\n      dup2\n      jump\t// out\n        /* \"contracts/fund.sol\":3255:4088  function quickSort(bytes32[] memory arr) public pure returns (bytes32[] memory) {... */\n    tag_144:\n        /* \"contracts/fund.sol\":3317:3333  bytes32[] memory */\n      0x60\n        /* \"contracts/fund.sol\":3364:3365  1 */\n      0x01\n        /* \"contracts/fund.sol\":3350:3353  arr */\n      dup3\n        /* \"contracts/fund.sol\":3350:3360  arr.length */\n      mload\n        /* \"contracts/fund.sol\":3350:3365  arr.length <= 1 */\n      gt\n        /* \"contracts/fund.sol\":3346:3404  if (arr.length <= 1) {... */\n      tag_402\n      jumpi\n        /* \"contracts/fund.sol\":3389:3392  arr */\n      dup2\n        /* \"contracts/fund.sol\":3382:3392  return arr */\n      swap1\n      pop\n      jump(tag_401)\n        /* \"contracts/fund.sol\":3346:3404  if (arr.length <= 1) {... */\n    tag_402:\n        /* \"contracts/fund.sol\":3416:3438  uint256[] memory stack */\n      0x00\n        /* \"contracts/fund.sol\":3468:3469  2 */\n      0x02\n        /* \"contracts/fund.sol\":3455:3458  arr */\n      dup4\n        /* \"contracts/fund.sol\":3455:3465  arr.length */\n      mload\n        /* \"contracts/fund.sol\":3455:3469  arr.length * 2 */\n      tag_403\n      swap2\n      swap1\n      tag_404\n      jump\t// in\n    tag_403:\n        /* \"contracts/fund.sol\":3441:3470  new uint256[](arr.length * 2) */\n      0xffffffffffffffff\n      dup2\n      gt\n      iszero\n      tag_405\n      jumpi\n      tag_406\n      tag_407\n      jump\t// in\n    tag_406:\n    tag_405:\n      mload(0x40)\n      swap1\n      dup1\n      dup3\n      mstore\n      dup1\n      0x20\n      mul\n      0x20\n      add\n      dup3\n      add\n      0x40\n      mstore\n      dup1\n      iszero\n      tag_408\n      jumpi\n      dup2\n      0x20\n      add\n      0x20\n      dup3\n      mul\n      dup1\n      calldatasize\n      dup4\n      calldatacopy\n      dup1\n      dup3\n      add\n      swap2\n      pop\n      pop\n      swap1\n      pop\n    tag_408:\n      pop\n        /* \"contracts/fund.sol\":3416:3470  uint256[] memory stack = new uint256[](arr.length * 2) */\n      swap1\n      pop\n        /* \"contracts/fund.sol\":3481:3492  uint256 top */\n      0x00\n        /* \"contracts/fund.sol\":3524:3525  0 */\n      dup1\n        /* \"contracts/fund.sol\":3509:3514  stack */\n      dup3\n        /* \"contracts/fund.sol\":3515:3520  top++ */\n      dup3\n      dup1\n      tag_409\n      swap1\n      tag_410\n      jump\t// in\n    tag_409:\n      swap4\n      pop\n        /* \"contracts/fund.sol\":3509:3521  stack[top++] */\n      dup2\n      mload\n      dup2\n      lt\n      tag_411\n      jumpi\n      tag_412\n      tag_202\n      jump\t// in\n    tag_412:\n    tag_411:\n      0x20\n      mul\n      0x20\n      add\n      add\n        /* \"contracts/fund.sol\":3509:3525  stack[top++] = 0 */\n      dup2\n      dup2\n      mstore\n      pop\n      pop\n        /* \"contracts/fund.sol\":3564:3565  1 */\n      0x01\n        /* \"contracts/fund.sol\":3551:3554  arr */\n      dup5\n        /* \"contracts/fund.sol\":3551:3561  arr.length */\n      mload\n        /* \"contracts/fund.sol\":3551:3565  arr.length - 1 */\n      tag_413\n      swap2\n      swap1\n      tag_214\n      jump\t// in\n    tag_413:\n        /* \"contracts/fund.sol\":3536:3541  stack */\n      dup3\n        /* \"contracts/fund.sol\":3542:3547  top++ */\n      dup3\n      dup1\n      tag_414\n      swap1\n      tag_410\n      jump\t// in\n    tag_414:\n      swap4\n      pop\n        /* \"contracts/fund.sol\":3536:3548  stack[top++] */\n      dup2\n      mload\n      dup2\n      lt\n      tag_415\n      jumpi\n      tag_416\n      tag_202\n      jump\t// in\n    tag_416:\n    tag_415:\n      0x20\n      mul\n      0x20\n      add\n      add\n        /* \"contracts/fund.sol\":3536:3565  stack[top++] = arr.length - 1 */\n      dup2\n      dup2\n      mstore\n      pop\n      pop\n        /* \"contracts/fund.sol\":3578:4058  while (top > 0) {... */\n    tag_417:\n        /* \"contracts/fund.sol\":3591:3592  0 */\n      0x00\n        /* \"contracts/fund.sol\":3585:3588  top */\n      dup2\n        /* \"contracts/fund.sol\":3585:3592  top > 0 */\n      gt\n        /* \"contracts/fund.sol\":3578:4058  while (top > 0) {... */\n      iszero\n      tag_418\n      jumpi\n        /* \"contracts/fund.sol\":3609:3621  uint256 high */\n      0x00\n        /* \"contracts/fund.sol\":3624:3629  stack */\n      dup3\n        /* \"contracts/fund.sol\":3630:3635  --top */\n      dup3\n      tag_419\n      swap1\n      tag_420\n      jump\t// in\n    tag_419:\n      swap3\n      pop\n      dup3\n        /* \"contracts/fund.sol\":3624:3636  stack[--top] */\n      dup2\n      mload\n      dup2\n      lt\n      tag_421\n      jumpi\n      tag_422\n      tag_202\n      jump\t// in\n    tag_422:\n    tag_421:\n      0x20\n      mul\n      0x20\n      add\n      add\n      mload\n        /* \"contracts/fund.sol\":3609:3636  uint256 high = stack[--top] */\n      swap1\n      pop\n        /* \"contracts/fund.sol\":3651:3662  uint256 low */\n      0x00\n        /* \"contracts/fund.sol\":3665:3670  stack */\n      dup4\n        /* \"contracts/fund.sol\":3671:3676  --top */\n      dup4\n      tag_423\n      swap1\n      tag_420\n      jump\t// in\n    tag_423:\n      swap4\n      pop\n      dup4\n        /* \"contracts/fund.sol\":3665:3677  stack[--top] */\n      dup2\n      mload\n      dup2\n      lt\n      tag_424\n      jumpi\n      tag_425\n      tag_202\n      jump\t// in\n    tag_425:\n    tag_424:\n      0x20\n      mul\n      0x20\n      add\n      add\n      mload\n        /* \"contracts/fund.sol\":3651:3677  uint256 low = stack[--top] */\n      swap1\n      pop\n        /* \"contracts/fund.sol\":3694:3712  uint256 pivotIndex */\n      0x00\n        /* \"contracts/fund.sol\":3715:3740  partition(arr, low, high) */\n      tag_426\n        /* \"contracts/fund.sol\":3725:3728  arr */\n      dup8\n        /* \"contracts/fund.sol\":3730:3733  low */\n      dup4\n        /* \"contracts/fund.sol\":3735:3739  high */\n      dup6\n        /* \"contracts/fund.sol\":3715:3724  partition */\n      tag_427\n        /* \"contracts/fund.sol\":3715:3740  partition(arr, low, high) */\n      jump\t// in\n    tag_426:\n        /* \"contracts/fund.sol\":3694:3740  uint256 pivotIndex = partition(arr, low, high) */\n      swap1\n      pop\n        /* \"contracts/fund.sol\":3774:3775  0 */\n      0x00\n        /* \"contracts/fund.sol\":3761:3771  pivotIndex */\n      dup2\n        /* \"contracts/fund.sol\":3761:3775  pivotIndex > 0 */\n      gt\n        /* \"contracts/fund.sol\":3761:3799  pivotIndex > 0 && pivotIndex - 1 > low */\n      dup1\n      iszero\n      tag_428\n      jumpi\n      pop\n        /* \"contracts/fund.sol\":3796:3799  low */\n      dup2\n        /* \"contracts/fund.sol\":3792:3793  1 */\n      0x01\n        /* \"contracts/fund.sol\":3779:3789  pivotIndex */\n      dup3\n        /* \"contracts/fund.sol\":3779:3793  pivotIndex - 1 */\n      tag_429\n      swap2\n      swap1\n      tag_214\n      jump\t// in\n    tag_429:\n        /* \"contracts/fund.sol\":3779:3799  pivotIndex - 1 > low */\n      gt\n        /* \"contracts/fund.sol\":3761:3799  pivotIndex > 0 && pivotIndex - 1 > low */\n    tag_428:\n        /* \"contracts/fund.sol\":3757:3902  if (pivotIndex > 0 && pivotIndex - 1 > low) {... */\n      iszero\n      tag_430\n      jumpi\n        /* \"contracts/fund.sol\":3835:3838  low */\n      dup2\n        /* \"contracts/fund.sol\":3820:3825  stack */\n      dup6\n        /* \"contracts/fund.sol\":3826:3831  top++ */\n      dup6\n      dup1\n      tag_431\n      swap1\n      tag_410\n      jump\t// in\n    tag_431:\n      swap7\n      pop\n        /* \"contracts/fund.sol\":3820:3832  stack[top++] */\n      dup2\n      mload\n      dup2\n      lt\n      tag_432\n      jumpi\n      tag_433\n      tag_202\n      jump\t// in\n    tag_433:\n    tag_432:\n      0x20\n      mul\n      0x20\n      add\n      add\n        /* \"contracts/fund.sol\":3820:3838  stack[top++] = low */\n      dup2\n      dup2\n      mstore\n      pop\n      pop\n        /* \"contracts/fund.sol\":3885:3886  1 */\n      0x01\n        /* \"contracts/fund.sol\":3872:3882  pivotIndex */\n      dup2\n        /* \"contracts/fund.sol\":3872:3886  pivotIndex - 1 */\n      tag_434\n      swap2\n      swap1\n      tag_214\n      jump\t// in\n    tag_434:\n        /* \"contracts/fund.sol\":3857:3862  stack */\n      dup6\n        /* \"contracts/fund.sol\":3863:3868  top++ */\n      dup6\n      dup1\n      tag_435\n      swap1\n      tag_410\n      jump\t// in\n    tag_435:\n      swap7\n      pop\n        /* \"contracts/fund.sol\":3857:3869  stack[top++] */\n      dup2\n      mload\n      dup2\n      lt\n      tag_436\n      jumpi\n      tag_437\n      tag_202\n      jump\t// in\n    tag_437:\n    tag_436:\n      0x20\n      mul\n      0x20\n      add\n      add\n        /* \"contracts/fund.sol\":3857:3886  stack[top++] = pivotIndex - 1 */\n      dup2\n      dup2\n      mstore\n      pop\n      pop\n        /* \"contracts/fund.sol\":3757:3902  if (pivotIndex > 0 && pivotIndex - 1 > low) {... */\n    tag_430:\n        /* \"contracts/fund.sol\":3939:3943  high */\n      dup3\n        /* \"contracts/fund.sol\":3935:3936  1 */\n      0x01\n        /* \"contracts/fund.sol\":3922:3932  pivotIndex */\n      dup3\n        /* \"contracts/fund.sol\":3922:3936  pivotIndex + 1 */\n      tag_438\n      swap2\n      swap1\n      tag_208\n      jump\t// in\n    tag_438:\n        /* \"contracts/fund.sol\":3922:3943  pivotIndex + 1 < high */\n      lt\n        /* \"contracts/fund.sol\":3918:4047  if (pivotIndex + 1 < high) {... */\n      iszero\n      tag_439\n      jumpi\n        /* \"contracts/fund.sol\":3992:3993  1 */\n      0x01\n        /* \"contracts/fund.sol\":3979:3989  pivotIndex */\n      dup2\n        /* \"contracts/fund.sol\":3979:3993  pivotIndex + 1 */\n      tag_440\n      swap2\n      swap1\n      tag_208\n      jump\t// in\n    tag_440:\n        /* \"contracts/fund.sol\":3964:3969  stack */\n      dup6\n        /* \"contracts/fund.sol\":3970:3975  top++ */\n      dup6\n      dup1\n      tag_441\n      swap1\n      tag_410\n      jump\t// in\n    tag_441:\n      swap7\n      pop\n        /* \"contracts/fund.sol\":3964:3976  stack[top++] */\n      dup2\n      mload\n      dup2\n      lt\n      tag_442\n      jumpi\n      tag_443\n      tag_202\n      jump\t// in\n    tag_443:\n    tag_442:\n      0x20\n      mul\n      0x20\n      add\n      add\n        /* \"contracts/fund.sol\":3964:3993  stack[top++] = pivotIndex + 1 */\n      dup2\n      dup2\n      mstore\n      pop\n      pop\n        /* \"contracts/fund.sol\":4027:4031  high */\n      dup3\n        /* \"contracts/fund.sol\":4012:4017  stack */\n      dup6\n        /* \"contracts/fund.sol\":4018:4023  top++ */\n      dup6\n      dup1\n      tag_444\n      swap1\n      tag_410\n      jump\t// in\n    tag_444:\n      swap7\n      pop\n        /* \"contracts/fund.sol\":4012:4024  stack[top++] */\n      dup2\n      mload\n      dup2\n      lt\n      tag_445\n      jumpi\n      tag_446\n      tag_202\n      jump\t// in\n    tag_446:\n    tag_445:\n      0x20\n      mul\n      0x20\n      add\n      add\n        /* \"contracts/fund.sol\":4012:4031  stack[top++] = high */\n      dup2\n      dup2\n      mstore\n      pop\n      pop\n        /* \"contracts/fund.sol\":3918:4047  if (pivotIndex + 1 < high) {... */\n    tag_439:\n        /* \"contracts/fund.sol\":3594:4058  {... */\n      pop\n      pop\n      pop\n        /* \"contracts/fund.sol\":3578:4058  while (top > 0) {... */\n      jump(tag_417)\n    tag_418:\n        /* \"contracts/fund.sol\":4077:4080  arr */\n      dup4\n        /* \"contracts/fund.sol\":4070:4080  return arr */\n      swap3\n      pop\n      pop\n      pop\n        /* \"contracts/fund.sol\":3255:4088  function quickSort(bytes32[] memory arr) public pure returns (bytes32[] memory) {... */\n    tag_401:\n      swap2\n      swap1\n      pop\n      jump\t// out\n        /* \"contracts/fund.sol\":7883:8023  function getProjectStatus(bytes32 projectID) public view returns (ProjectStatus) {... */\n    tag_150:\n        /* \"contracts/fund.sol\":7949:7962  ProjectStatus */\n      0x00\n        /* \"contracts/fund.sol\":7982:7990  projects */\n      0x07\n        /* \"contracts/fund.sol\":7982:8001  projects[projectID] */\n      0x00\n        /* \"contracts/fund.sol\":7991:8000  projectID */\n      dup4\n        /* \"contracts/fund.sol\":7982:8001  projects[projectID] */\n      dup2\n      mstore\n      0x20\n      add\n      swap1\n      dup2\n      mstore\n      0x20\n      add\n      0x00\n      keccak256\n        /* \"contracts/fund.sol\":7982:8015  projects[projectID].projectStatus */\n      0x06\n      add\n      0x00\n      swap1\n      sload\n      swap1\n      0x0100\n      exp\n      swap1\n      div\n      0xff\n      and\n        /* \"contracts/fund.sol\":7975:8015  return projects[projectID].projectStatus */\n      swap1\n      pop\n        /* \"contracts/fund.sol\":7883:8023  function getProjectStatus(bytes32 projectID) public view returns (ProjectStatus) {... */\n      swap2\n      swap1\n      pop\n      jump\t// out\n        /* \"contracts/fund.sol\":8031:8138  function getAmountOfProjects() public view returns (uint256) {... */\n    tag_154:\n        /* \"contracts/fund.sol\":8083:8090  uint256 */\n      0x00\n        /* \"contracts/fund.sol\":8110:8123  projects_list */\n      0x08\n        /* \"contracts/fund.sol\":8110:8130  projects_list.length */\n      dup1\n      sload\n      swap1\n      pop\n        /* \"contracts/fund.sol\":8103:8130  return projects_list.length */\n      swap1\n      pop\n        /* \"contracts/fund.sol\":8031:8138  function getAmountOfProjects() public view returns (uint256) {... */\n      swap1\n      jump\t// out\n        /* \"contracts/fund.sol\":7399:7728  function setMilestone(bytes32 projectID, uint milestoneSum, string memory milestoneDescription) public onlyCreator(projectID) projectActive(projectID) {... */\n    tag_160:\n        /* \"contracts/fund.sol\":7514:7523  projectID */\n      dup3\n        /* \"contracts/fund.sol\":2262:2264  -1 */\n      0xffffffffffffffffffffffffffffffffffffffffffffffffffffffffffffffff\n        /* \"contracts/fund.sol\":2211:2258  idSearch(users_projects[msg.sender], projectID) */\n      tag_450\n        /* \"contracts/fund.sol\":2220:2234  users_projects */\n      0x03\n        /* \"contracts/fund.sol\":2220:2246  users_projects[msg.sender] */\n      0x00\n        /* \"contracts/fund.sol\":2235:2245  msg.sender */\n      caller\n        /* \"contracts/fund.sol\":2220:2246  users_projects[msg.sender] */\n      0xffffffffffffffffffffffffffffffffffffffff\n      and\n      0xffffffffffffffffffffffffffffffffffffffff\n      and\n      dup2\n      mstore\n      0x20\n      add\n      swap1\n      dup2\n      mstore\n      0x20\n      add\n      0x00\n      keccak256\n        /* \"contracts/fund.sol\":2211:2258  idSearch(users_projects[msg.sender], projectID) */\n      dup1\n      sload\n      dup1\n      0x20\n      mul\n      0x20\n      add\n      mload(0x40)\n      swap1\n      dup2\n      add\n      0x40\n      mstore\n      dup1\n      swap3\n      swap2\n      swap1\n      dup2\n      dup2\n      mstore\n      0x20\n      add\n      dup3\n      dup1\n      sload\n      dup1\n      iszero\n      tag_451\n      jumpi\n      0x20\n      mul\n      dup3\n      add\n      swap2\n      swap1\n      0x00\n      mstore\n      keccak256(0x00, 0x20)\n      swap1\n    tag_452:\n      dup2\n      sload\n      dup2\n      mstore\n      0x20\n      add\n      swap1\n      0x01\n      add\n      swap1\n      dup1\n      dup4\n      gt\n      tag_452\n      jumpi\n    tag_451:\n      pop\n      pop\n      pop\n      pop\n      pop\n        /* \"contracts/fund.sol\":2248:2257  projectID */\n      dup4\n        /* \"contracts/fund.sol\":2211:2219  idSearch */\n      tag_113\n        /* \"contracts/fund.sol\":2211:2258  idSearch(users_projects[msg.sender], projectID) */\n      jump\t// in\n    tag_450:\n        /* \"contracts/fund.sol\":2211:2264  idSearch(users_projects[msg.sender], projectID) != -1 */\n      sub\n        /* \"contracts/fund.sol\":2203:2309  require(idSearch(users_projects[msg.sender], projectID) != -1, \"This user is not creator of this project\") */\n      tag_453\n      jumpi\n      mload(0x40)\n      0x08c379a000000000000000000000000000000000000000000000000000000000\n      dup2\n      mstore\n      0x04\n      add\n      tag_454\n      swap1\n      tag_340\n      jump\t// in\n    tag_454:\n      mload(0x40)\n      dup1\n      swap2\n      sub\n      swap1\n      revert\n    tag_453:\n        /* \"contracts/fund.sol\":7539:7548  projectID */\n      dup4\n        /* \"contracts/fund.sol\":2762:2782  ProjectStatus.Active */\n      0x00\n        /* \"contracts/fund.sol\":2732:2782  projectIsActive(projectID) == ProjectStatus.Active */\n      0x02\n      dup2\n      gt\n      iszero\n      tag_456\n      jumpi\n      tag_457\n      tag_191\n      jump\t// in\n    tag_457:\n    tag_456:\n        /* \"contracts/fund.sol\":2732:2758  projectIsActive(projectID) */\n      tag_458\n        /* \"contracts/fund.sol\":2748:2757  projectID */\n      dup3\n        /* \"contracts/fund.sol\":2732:2747  projectIsActive */\n      tag_124\n        /* \"contracts/fund.sol\":2732:2758  projectIsActive(projectID) */\n      jump\t// in\n    tag_458:\n        /* \"contracts/fund.sol\":2732:2782  projectIsActive(projectID) == ProjectStatus.Active */\n      0x02\n      dup2\n      gt\n      iszero\n      tag_459\n      jumpi\n      tag_460\n      tag_191\n      jump\t// in\n    tag_460:\n    tag_459:\n      eq\n        /* \"contracts/fund.sol\":2724:2807  require(projectIsActive(projectID) == ProjectStatus.Active, \"Project isn't active\") */\n      tag_461\n      jumpi\n      mload(0x40)\n      0x08c379a000000000000000000000000000000000000000000000000000000000\n      dup2\n      mstore\n      0x04\n      add\n      tag_462\n      swap1\n      tag_286\n      jump\t// in\n    tag_462:\n      mload(0x40)\n      dup1\n      swap2\n      sub\n      swap1\n      revert\n    tag_461:\n        /* \"contracts/fund.sol\":7561:7580  projects_milestones */\n      0x05\n        /* \"contracts/fund.sol\":7561:7591  projects_milestones[projectID] */\n      0x00\n        /* \"contracts/fund.sol\":7581:7590  projectID */\n      dup7\n        /* \"contracts/fund.sol\":7561:7591  projects_milestones[projectID] */\n      dup2\n      mstore\n      0x20\n      add\n      swap1\n      dup2\n      mstore\n      0x20\n      add\n      0x00\n      keccak256\n        /* \"contracts/fund.sol\":7597:7719  Milestone({... */\n      mload(0x40)\n      dup1\n      0x40\n      add\n      0x40\n      mstore\n      dup1\n        /* \"contracts/fund.sol\":7637:7649  milestoneSum */\n      dup7\n        /* \"contracts/fund.sol\":7597:7719  Milestone({... */\n      dup2\n      mstore\n      0x20\n      add\n        /* \"contracts/fund.sol\":7687:7707  milestoneDescription */\n      dup6\n        /* \"contracts/fund.sol\":7597:7719  Milestone({... */\n      dup2\n      mstore\n      pop\n        /* \"contracts/fund.sol\":7561:7720  projects_milestones[projectID].push(Milestone({... */\n      swap1\n      dup1\n      0x01\n      dup2\n      sload\n      add\n      dup1\n      dup3\n      sstore\n      dup1\n      swap2\n      pop\n      pop\n      0x01\n      swap1\n      sub\n      swap1\n      0x00\n      mstore\n      keccak256(0x00, 0x20)\n      swap1\n      0x02\n      mul\n      add\n      0x00\n      swap1\n      swap2\n      swap1\n      swap2\n      swap1\n      swap2\n      pop\n      0x00\n      dup3\n      add\n      mload\n      dup2\n      0x00\n      add\n      sstore\n      0x20\n      dup3\n      add\n      mload\n      dup2\n      0x01\n      add\n      swap1\n      dup2\n      tag_465\n      swap2\n      swap1\n      tag_351\n      jump\t// in\n    tag_465:\n      pop\n      pop\n      pop\n        /* \"contracts/fund.sol\":2320:2321  _ */\n      pop\n        /* \"contracts/fund.sol\":7399:7728  function setMilestone(bytes32 projectID, uint milestoneSum, string memory milestoneDescription) public onlyCreator(projectID) projectActive(projectID) {... */\n      pop\n      pop\n      pop\n      pop\n      jump\t// out\n        /* \"contracts/fund.sol\":7736:7875  function getMilestones(bytes32 projectID) public view returns (Milestone[] memory) {... */\n    tag_164:\n        /* \"contracts/fund.sol\":7799:7817  Milestone[] memory */\n      0x60\n        /* \"contracts/fund.sol\":7837:7856  projects_milestones */\n      0x05\n        /* \"contracts/fund.sol\":7837:7867  projects_milestones[projectID] */\n      0x00\n        /* \"contracts/fund.sol\":7857:7866  projectID */\n      dup4\n        /* \"contracts/fund.sol\":7837:7867  projects_milestones[projectID] */\n      dup2\n      mstore\n      0x20\n      add\n      swap1\n      dup2\n      mstore\n      0x20\n      add\n      0x00\n      keccak256\n        /* \"contracts/fund.sol\":7830:7867  return projects_milestones[projectID] */\n      dup1\n      sload\n      dup1\n      0x20\n      mul\n      0x20\n      add\n      mload(0x40)\n      swap1\n      dup2\n      add\n      0x40\n      mstore\n      dup1\n      swap3\n      swap2\n      swap1\n      dup2\n      dup2\n      mstore\n      0x20\n      add\n      0x00\n      swap1\n    tag_467:\n      dup3\n      dup3\n      lt\n      iszero\n      tag_468\n      jumpi\n      dup4\n      dup3\n      swap1\n      0x00\n      mstore\n      keccak256(0x00, 0x20)\n      swap1\n      0x02\n      mul\n      add\n      mload(0x40)\n      dup1\n      0x40\n      add\n      0x40\n      mstore\n      swap1\n      dup2\n      0x00\n      dup3\n      add\n      sload\n      dup2\n      mstore\n      0x20\n      add\n      0x01\n      dup3\n      add\n      dup1\n      sload\n      tag_470\n      swap1\n      tag_471\n      jump\t// in\n    tag_470:\n      dup1\n      0x1f\n      add\n      0x20\n      dup1\n      swap2\n      div\n      mul\n      0x20\n      add\n      mload(0x40)\n      swap1\n      dup2\n      add\n      0x40\n      mstore\n      dup1\n      swap3\n      swap2\n      swap1\n      dup2\n      dup2\n      mstore\n      0x20\n      add\n      dup3\n      dup1\n      sload\n      tag_472\n      swap1\n      tag_471\n      jump\t// in\n    tag_472:\n      dup1\n      iszero\n      tag_473\n      jumpi\n      dup1\n      0x1f\n      lt\n      tag_474\n      jumpi\n      0x0100\n      dup1\n      dup4\n      sload\n      div\n      mul\n      dup4\n      mstore\n      swap2\n      0x20\n      add\n      swap2\n      jump(tag_473)\n    tag_474:\n      dup3\n      add\n      swap2\n      swap1\n      0x00\n      mstore\n      keccak256(0x00, 0x20)\n      swap1\n    tag_475:\n      dup2\n      sload\n      dup2\n      mstore\n      swap1\n      0x01\n      add\n      swap1\n      0x20\n      add\n      dup1\n      dup4\n      gt\n      tag_475\n      jumpi\n      dup3\n      swap1\n      sub\n      0x1f\n      and\n      dup3\n      add\n      swap2\n    tag_473:\n      pop\n      pop\n      pop\n      pop\n      pop\n      dup2\n      mstore\n      pop\n      pop\n      dup2\n      mstore\n      0x20\n      add\n      swap1\n      0x01\n      add\n      swap1\n      jump(tag_467)\n    tag_468:\n      pop\n      pop\n      pop\n      pop\n      swap1\n      pop\n        /* \"contracts/fund.sol\":7736:7875  function getMilestones(bytes32 projectID) public view returns (Milestone[] memory) {... */\n      swap2\n      swap1\n      pop\n      jump\t// out\n        /* \"contracts/fund.sol\":8146:8264  function getUserProjects() public view returns (bytes32[] memory) {... */\n    tag_169:\n        /* \"contracts/fund.sol\":8194:8210  bytes32[] memory */\n      0x60\n        /* \"contracts/fund.sol\":8230:8244  users_projects */\n      0x03\n        /* \"contracts/fund.sol\":8230:8256  users_projects[msg.sender] */\n      0x00\n        /* \"contracts/fund.sol\":8245:8255  msg.sender */\n      caller\n        /* \"contracts/fund.sol\":8230:8256  users_projects[msg.sender] */\n      0xffffffffffffffffffffffffffffffffffffffff\n      and\n      0xffffffffffffffffffffffffffffffffffffffff\n      and\n      dup2\n      mstore\n      0x20\n      add\n      swap1\n      dup2\n      mstore\n      0x20\n      add\n      0x00\n      keccak256\n        /* \"contracts/fund.sol\":8223:8256  return users_projects[msg.sender] */\n      dup1\n      sload\n      dup1\n      0x20\n      mul\n      0x20\n      add\n      mload(0x40)\n      swap1\n      dup2\n      add\n      0x40\n      mstore\n      dup1\n      swap3\n      swap2\n      swap1\n      dup2\n      dup2\n      mstore\n      0x20\n      add\n      dup3\n      dup1\n      sload\n      dup1\n      iszero\n      tag_477\n      jumpi\n      0x20\n      mul\n      dup3\n      add\n      swap2\n      swap1\n      0x00\n      mstore\n      keccak256(0x00, 0x20)\n      swap1\n    tag_478:\n      dup2\n      sload\n      dup2\n      mstore\n      0x20\n      add\n      swap1\n      0x01\n      add\n      swap1\n      dup1\n      dup4\n      gt\n      tag_478\n      jumpi\n    tag_477:\n      pop\n      pop\n      pop\n      pop\n      pop\n      swap1\n      pop\n        /* \"contracts/fund.sol\":8146:8264  function getUserProjects() public view returns (bytes32[] memory) {... */\n      swap1\n      jump\t// out\n        /* \"contracts/fund.sol\":6620:7105  function getProjectDetails(bytes32 projectID) public view returns (string memory, string memory, address, uint256, uint256, uint256, ProjectStatus) {... */\n    tag_174:\n        /* \"contracts/fund.sol\":6687:6700  string memory */\n      0x60\n        /* \"contracts/fund.sol\":6702:6715  string memory */\n      dup1\n        /* \"contracts/fund.sol\":6717:6724  address */\n      0x00\n        /* \"contracts/fund.sol\":6726:6733  uint256 */\n      dup1\n        /* \"contracts/fund.sol\":6735:6742  uint256 */\n      0x00\n        /* \"contracts/fund.sol\":6744:6751  uint256 */\n      dup1\n        /* \"contracts/fund.sol\":6753:6766  ProjectStatus */\n      0x00\n        /* \"contracts/fund.sol\":6779:6802  Project storage project */\n      dup1\n        /* \"contracts/fund.sol\":6805:6813  projects */\n      0x07\n        /* \"contracts/fund.sol\":6805:6824  projects[projectID] */\n      0x00\n        /* \"contracts/fund.sol\":6814:6823  projectID */\n      dup11\n        /* \"contracts/fund.sol\":6805:6824  projects[projectID] */\n      dup2\n      mstore\n      0x20\n      add\n      swap1\n      dup2\n      mstore\n      0x20\n      add\n      0x00\n      keccak256\n        /* \"contracts/fund.sol\":6779:6824  Project storage project = projects[projectID] */\n      swap1\n      pop\n        /* \"contracts/fund.sol\":6857:6864  project */\n      dup1\n        /* \"contracts/fund.sol\":6857:6877  project.project_name */\n      0x00\n      add\n        /* \"contracts/fund.sol\":6892:6899  project */\n      dup2\n        /* \"contracts/fund.sol\":6892:6919  project.project_description */\n      0x01\n      add\n        /* \"contracts/fund.sol\":6934:6941  project */\n      dup3\n        /* \"contracts/fund.sol\":6934:6957  project.project_creator */\n      0x02\n      add\n      0x00\n      swap1\n      sload\n      swap1\n      0x0100\n      exp\n      swap1\n      div\n      0xffffffffffffffffffffffffffffffffffffffff\n      and\n        /* \"contracts/fund.sol\":6972:6979  project */\n      dup4\n        /* \"contracts/fund.sol\":6972:6990  project.final_goal */\n      0x03\n      add\n      sload\n        /* \"contracts/fund.sol\":7005:7012  project */\n      dup5\n        /* \"contracts/fund.sol\":7005:7019  project.funded */\n      0x04\n      add\n      sload\n        /* \"contracts/fund.sol\":7034:7041  project */\n      dup6\n        /* \"contracts/fund.sol\":7034:7050  project.deadline */\n      0x05\n      add\n      sload\n        /* \"contracts/fund.sol\":7065:7072  project */\n      dup7\n        /* \"contracts/fund.sol\":7065:7086  project.projectStatus */\n      0x06\n      add\n      0x00\n      swap1\n      sload\n      swap1\n      0x0100\n      exp\n      swap1\n      div\n      0xff\n      and\n        /* \"contracts/fund.sol\":6835:7097  return (... */\n      dup7\n      dup1\n      sload\n      tag_480\n      swap1\n      tag_471\n      jump\t// in\n    tag_480:\n      dup1\n      0x1f\n      add\n      0x20\n      dup1\n      swap2\n      div\n      mul\n      0x20\n      add\n      mload(0x40)\n      swap1\n      dup2\n      add\n      0x40\n      mstore\n      dup1\n      swap3\n      swap2\n      swap1\n      dup2\n      dup2\n      mstore\n      0x20\n      add\n      dup3\n      dup1\n      sload\n      tag_481\n      swap1\n      tag_471\n      jump\t// in\n    tag_481:\n      dup1\n      iszero\n      tag_482\n      jumpi\n      dup1\n      0x1f\n      lt\n      tag_483\n      jumpi\n      0x0100\n      dup1\n      dup4\n      sload\n      div\n      mul\n      dup4\n      mstore\n      swap2\n      0x20\n      add\n      swap2\n      jump(tag_482)\n    tag_483:\n      dup3\n      add\n      swap2\n      swap1\n      0x00\n      mstore\n      keccak256(0x00, 0x20)\n      swap1\n    tag_484:\n      dup2\n      sload\n      dup2\n      mstore\n      swap1\n      0x01\n      add\n      swap1\n      0x20\n      add\n      dup1\n      dup4\n      gt\n      tag_484\n      jumpi\n      dup3\n      swap1\n      sub\n      0x1f\n      and\n      dup3\n      add\n      swap2\n    tag_482:\n      pop\n      pop\n      pop\n      pop\n      pop\n      swap7\n      pop\n      dup6\n      dup1\n      sload\n      tag_485\n      swap1\n      tag_471\n      jump\t// in\n    tag_485:\n      dup1\n      0x1f\n      add\n      0x20\n      dup1\n      swap2\n      div\n      mul\n      0x20\n      add\n      mload(0x40)\n      swap1\n      dup2\n      add\n      0x40\n      mstore\n      dup1\n      swap3\n      swap2\n      swap1\n      dup2\n      dup2\n      mstore\n      0x20\n      add\n      dup3\n      dup1\n      sload\n      tag_486\n      swap1\n      tag_471\n      jump\t// in\n    tag_486:\n      dup1\n      iszero\n      tag_487\n      jumpi\n      dup1\n      0x1f\n      lt\n      tag_488\n      jumpi\n      0x0100\n      dup1\n      dup4\n      sload\n      div\n      mul\n      dup4\n      mstore\n      swap2\n      0x20\n      add\n      swap2\n      jump(tag_487)\n    tag_488:\n      dup3\n      add\n      swap2\n      swap1\n      0x00\n      mstore\n      keccak256(0x00, 0x20)\n      swap1\n    tag_489:\n      dup2\n      sload\n      dup2\n      mstore\n      swap1\n      0x01\n      add\n      swap1\n      0x20\n      add\n      dup1\n      dup4\n      gt\n      tag_489\n      jumpi\n      dup3\n      swap1\n      sub\n      0x1f\n      and\n      dup3\n      add\n      swap2\n    tag_487:\n      pop\n      pop\n      pop\n      pop\n      pop\n      swap6\n      pop\n      swap8\n      pop\n      swap8\n      pop\n      swap8\n      pop\n      swap8\n      pop\n      swap8\n      pop\n      swap8\n      pop\n      swap8\n      pop\n      pop\n        /* \"contracts/fund.sol\":6620:7105  function getProjectDetails(bytes32 projectID) public view returns (string memory, string memory, address, uint256, uint256, uint256, ProjectStatus) {... */\n      swap2\n      swap4\n      swap6\n      swap8\n      swap1\n      swap3\n      swap5\n      swap7\n      pop\n      jump\t// out\n        /* \"contracts/fund.sol\":4096:4527  function partition(bytes32[] memory arr, uint256 low, uint256 high) internal pure returns (uint256) {... */\n    tag_427:\n        /* \"contracts/fund.sol\":4187:4194  uint256 */\n      0x00\n        /* \"contracts/fund.sol\":4207:4220  bytes32 pivot */\n      dup1\n        /* \"contracts/fund.sol\":4223:4226  arr */\n      dup5\n        /* \"contracts/fund.sol\":4227:4231  high */\n      dup4\n        /* \"contracts/fund.sol\":4223:4232  arr[high] */\n      dup2\n      mload\n      dup2\n      lt\n      tag_491\n      jumpi\n      tag_492\n      tag_202\n      jump\t// in\n    tag_492:\n    tag_491:\n      0x20\n      mul\n      0x20\n      add\n      add\n      mload\n        /* \"contracts/fund.sol\":4207:4232  bytes32 pivot = arr[high] */\n      swap1\n      pop\n        /* \"contracts/fund.sol\":4243:4252  uint256 i */\n      0x00\n        /* \"contracts/fund.sol\":4255:4258  low */\n      dup5\n        /* \"contracts/fund.sol\":4243:4258  uint256 i = low */\n      swap1\n      pop\n        /* \"contracts/fund.sol\":4276:4285  uint256 j */\n      0x00\n        /* \"contracts/fund.sol\":4288:4291  low */\n      dup6\n        /* \"contracts/fund.sol\":4276:4291  uint256 j = low */\n      swap1\n      pop\n        /* \"contracts/fund.sol\":4271:4447  for (uint256 j = low; j < high; j++) {... */\n    tag_493:\n        /* \"contracts/fund.sol\":4297:4301  high */\n      dup5\n        /* \"contracts/fund.sol\":4293:4294  j */\n      dup2\n        /* \"contracts/fund.sol\":4293:4301  j < high */\n      lt\n        /* \"contracts/fund.sol\":4271:4447  for (uint256 j = low; j < high; j++) {... */\n      iszero\n      tag_494\n      jumpi\n        /* \"contracts/fund.sol\":4337:4342  pivot */\n      dup3\n        /* \"contracts/fund.sol\":4327:4330  arr */\n      dup8\n        /* \"contracts/fund.sol\":4331:4332  j */\n      dup3\n        /* \"contracts/fund.sol\":4327:4333  arr[j] */\n      dup2\n      mload\n      dup2\n      lt\n      tag_496\n      jumpi\n      tag_497\n      tag_202\n      jump\t// in\n    tag_497:\n    tag_496:\n      0x20\n      mul\n      0x20\n      add\n      add\n      mload\n        /* \"contracts/fund.sol\":4327:4342  arr[j] <= pivot */\n      gt\n        /* \"contracts/fund.sol\":4323:4436  if (arr[j] <= pivot) {... */\n      tag_498\n      jumpi\n        /* \"contracts/fund.sol\":4383:4386  arr */\n      dup7\n        /* \"contracts/fund.sol\":4387:4388  j */\n      dup2\n        /* \"contracts/fund.sol\":4383:4389  arr[j] */\n      dup2\n      mload\n      dup2\n      lt\n      tag_499\n      jumpi\n      tag_500\n      tag_202\n      jump\t// in\n    tag_500:\n    tag_499:\n      0x20\n      mul\n      0x20\n      add\n      add\n      mload\n        /* \"contracts/fund.sol\":4391:4394  arr */\n      dup8\n        /* \"contracts/fund.sol\":4395:4396  i */\n      dup4\n        /* \"contracts/fund.sol\":4391:4397  arr[i] */\n      dup2\n      mload\n      dup2\n      lt\n      tag_501\n      jumpi\n      tag_502\n      tag_202\n      jump\t// in\n    tag_502:\n    tag_501:\n      0x20\n      mul\n      0x20\n      add\n      add\n      mload\n        /* \"contracts/fund.sol\":4364:4367  arr */\n      dup9\n        /* \"contracts/fund.sol\":4368:4369  i */\n      dup5\n        /* \"contracts/fund.sol\":4364:4370  arr[i] */\n      dup2\n      mload\n      dup2\n      lt\n      tag_503\n      jumpi\n      tag_504\n      tag_202\n      jump\t// in\n    tag_504:\n    tag_503:\n      0x20\n      mul\n      0x20\n      add\n      add\n        /* \"contracts/fund.sol\":4372:4375  arr */\n      dup10\n        /* \"contracts/fund.sol\":4376:4377  j */\n      dup5\n        /* \"contracts/fund.sol\":4372:4378  arr[j] */\n      dup2\n      mload\n      dup2\n      lt\n      tag_505\n      jumpi\n      tag_506\n      tag_202\n      jump\t// in\n    tag_506:\n    tag_505:\n      0x20\n      mul\n      0x20\n      add\n      add\n        /* \"contracts/fund.sol\":4363:4398  (arr[i], arr[j]) = (arr[j], arr[i]) */\n      dup3\n      dup2\n      mstore\n      pop\n      dup3\n      dup2\n      mstore\n      pop\n      pop\n      pop\n        /* \"contracts/fund.sol\":4417:4420  i++ */\n      dup2\n      dup1\n      tag_507\n      swap1\n      tag_410\n      jump\t// in\n    tag_507:\n      swap3\n      pop\n      pop\n        /* \"contracts/fund.sol\":4323:4436  if (arr[j] <= pivot) {... */\n    tag_498:\n        /* \"contracts/fund.sol\":4303:4306  j++ */\n      dup1\n      dup1\n      0x01\n      add\n      swap2\n      pop\n      pop\n        /* \"contracts/fund.sol\":4271:4447  for (uint256 j = low; j < high; j++) {... */\n      jump(tag_493)\n    tag_494:\n      pop\n        /* \"contracts/fund.sol\":4482:4485  arr */\n      dup6\n        /* \"contracts/fund.sol\":4486:4490  high */\n      dup5\n        /* \"contracts/fund.sol\":4482:4491  arr[high] */\n      dup2\n      mload\n      dup2\n      lt\n      tag_508\n      jumpi\n      tag_509\n      tag_202\n      jump\t// in\n    tag_509:\n    tag_508:\n      0x20\n      mul\n      0x20\n      add\n      add\n      mload\n        /* \"contracts/fund.sol\":4493:4496  arr */\n      dup7\n        /* \"contracts/fund.sol\":4497:4498  i */\n      dup3\n        /* \"contracts/fund.sol\":4493:4499  arr[i] */\n      dup2\n      mload\n      dup2\n      lt\n      tag_510\n      jumpi\n      tag_511\n      tag_202\n      jump\t// in\n    tag_511:\n    tag_510:\n      0x20\n      mul\n      0x20\n      add\n      add\n      mload\n        /* \"contracts/fund.sol\":4460:4463  arr */\n      dup8\n        /* \"contracts/fund.sol\":4464:4465  i */\n      dup4\n        /* \"contracts/fund.sol\":4460:4466  arr[i] */\n      dup2\n      mload\n      dup2\n      lt\n      tag_512\n      jumpi\n      tag_513\n      tag_202\n      jump\t// in\n    tag_513:\n    tag_512:\n      0x20\n      mul\n      0x20\n      add\n      add\n        /* \"contracts/fund.sol\":4468:4471  arr */\n      dup9\n        /* \"contracts/fund.sol\":4472:4476  high */\n      dup8\n        /* \"contracts/fund.sol\":4468:4477  arr[high] */\n      dup2\n      mload\n      dup2\n      lt\n      tag_514\n      jumpi\n      tag_515\n      tag_202\n      jump\t// in\n    tag_515:\n    tag_514:\n      0x20\n      mul\n      0x20\n      add\n      add\n        /* \"contracts/fund.sol\":4459:4500  (arr[i], arr[high]) = (arr[high], arr[i]) */\n      dup3\n      dup2\n      mstore\n      pop\n      dup3\n      dup2\n      mstore\n      pop\n      pop\n      pop\n        /* \"contracts/fund.sol\":4518:4519  i */\n      dup1\n        /* \"contracts/fund.sol\":4511:4519  return i */\n      swap3\n      pop\n      pop\n      pop\n        /* \"contracts/fund.sol\":4096:4527  function partition(bytes32[] memory arr, uint256 low, uint256 high) internal pure returns (uint256) {... */\n      swap4\n      swap3\n      pop\n      pop\n      pop\n      jump\t// out\n    tag_376:\n      mload(0x40)\n      dup1\n      0x0100\n      add\n      0x40\n      mstore\n      dup1\n      0x60\n      dup2\n      mstore\n      0x20\n      add\n      0x60\n      dup2\n      mstore\n      0x20\n      add\n      and(0xffffffffffffffffffffffffffffffffffffffff, 0x00)\n      dup2\n      mstore\n      0x20\n      add\n      0x00\n      dup2\n      mstore\n      0x20\n      add\n      0x00\n      dup2\n      mstore\n      0x20\n      add\n      0x00\n      dup2\n      mstore\n      0x20\n      add\n      0x00\n      0x02\n      dup2\n      gt\n      iszero\n      tag_516\n      jumpi\n      tag_517\n      tag_191\n      jump\t// in\n    tag_517:\n    tag_516:\n      dup2\n      mstore\n      0x20\n      add\n      iszero(iszero(0x00))\n      dup2\n      mstore\n      pop\n      swap1\n      jump\t// out\n        /* \"#utility.yul\":7:82   */\n    tag_518:\n        /* \"#utility.yul\":40:46   */\n      0x00\n        /* \"#utility.yul\":73:75   */\n      0x40\n        /* \"#utility.yul\":67:76   */\n      mload\n        /* \"#utility.yul\":57:76   */\n      swap1\n      pop\n        /* \"#utility.yul\":7:82   */\n      swap1\n      jump\t// out\n        /* \"#utility.yul\":88:205   */\n    tag_519:\n        /* \"#utility.yul\":197:198   */\n      0x00\n        /* \"#utility.yul\":194:195   */\n      dup1\n        /* \"#utility.yul\":187:199   */\n      revert\n        /* \"#utility.yul\":211:328   */\n    tag_520:\n        /* \"#utility.yul\":320:321   */\n      0x00\n        /* \"#utility.yul\":317:318   */\n      dup1\n        /* \"#utility.yul\":310:322   */\n      revert\n        /* \"#utility.yul\":334:411   */\n    tag_521:\n        /* \"#utility.yul\":371:378   */\n      0x00\n        /* \"#utility.yul\":400:405   */\n      dup2\n        /* \"#utility.yul\":389:405   */\n      swap1\n      pop\n        /* \"#utility.yul\":334:411   */\n      swap2\n      swap1\n      pop\n      jump\t// out\n        /* \"#utility.yul\":417:539   */\n    tag_522:\n        /* \"#utility.yul\":490:514   */\n      tag_638\n        /* \"#utility.yul\":508:513   */\n      dup2\n        /* \"#utility.yul\":490:514   */\n      tag_521\n      jump\t// in\n    tag_638:\n        /* \"#utility.yul\":483:488   */\n      dup2\n        /* \"#utility.yul\":480:515   */\n      eq\n        /* \"#utility.yul\":470:533   */\n      tag_639\n      jumpi\n        /* \"#utility.yul\":529:530   */\n      0x00\n        /* \"#utility.yul\":526:527   */\n      dup1\n        /* \"#utility.yul\":519:531   */\n      revert\n        /* \"#utility.yul\":470:533   */\n    tag_639:\n        /* \"#utility.yul\":417:539   */\n      pop\n      jump\t// out\n        /* \"#utility.yul\":545:684   */\n    tag_523:\n        /* \"#utility.yul\":591:596   */\n      0x00\n        /* \"#utility.yul\":629:635   */\n      dup2\n        /* \"#utility.yul\":616:636   */\n      calldataload\n        /* \"#utility.yul\":607:636   */\n      swap1\n      pop\n        /* \"#utility.yul\":645:678   */\n      tag_641\n        /* \"#utility.yul\":672:677   */\n      dup2\n        /* \"#utility.yul\":645:678   */\n      tag_522\n      jump\t// in\n    tag_641:\n        /* \"#utility.yul\":545:684   */\n      swap3\n      swap2\n      pop\n      pop\n      jump\t// out\n        /* \"#utility.yul\":690:1019   */\n    tag_45:\n        /* \"#utility.yul\":749:755   */\n      0x00\n        /* \"#utility.yul\":798:800   */\n      0x20\n        /* \"#utility.yul\":786:795   */\n      dup3\n        /* \"#utility.yul\":777:784   */\n      dup5\n        /* \"#utility.yul\":773:796   */\n      sub\n        /* \"#utility.yul\":769:801   */\n      slt\n        /* \"#utility.yul\":766:885   */\n      iszero\n      tag_643\n      jumpi\n        /* \"#utility.yul\":804:883   */\n      tag_644\n      tag_519\n      jump\t// in\n    tag_644:\n        /* \"#utility.yul\":766:885   */\n    tag_643:\n        /* \"#utility.yul\":924:925   */\n      0x00\n        /* \"#utility.yul\":949:1002   */\n      tag_645\n        /* \"#utility.yul\":994:1001   */\n      dup5\n        /* \"#utility.yul\":985:991   */\n      dup3\n        /* \"#utility.yul\":974:983   */\n      dup6\n        /* \"#utility.yul\":970:992   */\n      add\n        /* \"#utility.yul\":949:1002   */\n      tag_523\n      jump\t// in\n    tag_645:\n        /* \"#utility.yul\":939:1002   */\n      swap2\n      pop\n        /* \"#utility.yul\":895:1012   */\n      pop\n        /* \"#utility.yul\":690:1019   */\n      swap3\n      swap2\n      pop\n      pop\n      jump\t// out\n        /* \"#utility.yul\":1025:1102   */\n    tag_524:\n        /* \"#utility.yul\":1062:1069   */\n      0x00\n        /* \"#utility.yul\":1091:1096   */\n      dup2\n        /* \"#utility.yul\":1080:1096   */\n      swap1\n      pop\n        /* \"#utility.yul\":1025:1102   */\n      swap2\n      swap1\n      pop\n      jump\t// out\n        /* \"#utility.yul\":1108:1230   */\n    tag_525:\n        /* \"#utility.yul\":1181:1205   */\n      tag_648\n        /* \"#utility.yul\":1199:1204   */\n      dup2\n        /* \"#utility.yul\":1181:1205   */\n      tag_524\n      jump\t// in\n    tag_648:\n        /* \"#utility.yul\":1174:1179   */\n      dup2\n        /* \"#utility.yul\":1171:1206   */\n      eq\n        /* \"#utility.yul\":1161:1224   */\n      tag_649\n      jumpi\n        /* \"#utility.yul\":1220:1221   */\n      0x00\n        /* \"#utility.yul\":1217:1218   */\n      dup1\n        /* \"#utility.yul\":1210:1222   */\n      revert\n        /* \"#utility.yul\":1161:1224   */\n    tag_649:\n        /* \"#utility.yul\":1108:1230   */\n      pop\n      jump\t// out\n        /* \"#utility.yul\":1236:1375   */\n    tag_526:\n        /* \"#utility.yul\":1282:1287   */\n      0x00\n        /* \"#utility.yul\":1320:1326   */\n      dup2\n        /* \"#utility.yul\":1307:1327   */\n      calldataload\n        /* \"#utility.yul\":1298:1327   */\n      swap1\n      pop\n        /* \"#utility.yul\":1336:1369   */\n      tag_651\n        /* \"#utility.yul\":1363:1368   */\n      dup2\n        /* \"#utility.yul\":1336:1369   */\n      tag_525\n      jump\t// in\n    tag_651:\n        /* \"#utility.yul\":1236:1375   */\n      swap3\n      swap2\n      pop\n      pop\n      jump\t// out\n        /* \"#utility.yul\":1381:1710   */\n    tag_50:\n        /* \"#utility.yul\":1440:1446   */\n      0x00\n        /* \"#utility.yul\":1489:1491   */\n      0x20\n        /* \"#utility.yul\":1477:1486   */\n      dup3\n        /* \"#utility.yul\":1468:1475   */\n      dup5\n        /* \"#utility.yul\":1464:1487   */\n      sub\n        /* \"#utility.yul\":1460:1492   */\n      slt\n        /* \"#utility.yul\":1457:1576   */\n      iszero\n      tag_653\n      jumpi\n        /* \"#utility.yul\":1495:1574   */\n      tag_654\n      tag_519\n      jump\t// in\n    tag_654:\n        /* \"#utility.yul\":1457:1576   */\n    tag_653:\n        /* \"#utility.yul\":1615:1616   */\n      0x00\n        /* \"#utility.yul\":1640:1693   */\n      tag_655\n        /* \"#utility.yul\":1685:1692   */\n      dup5\n        /* \"#utility.yul\":1676:1682   */\n      dup3\n        /* \"#utility.yul\":1665:1674   */\n      dup6\n        /* \"#utility.yul\":1661:1683   */\n      add\n        /* \"#utility.yul\":1640:1693   */\n      tag_526\n      jump\t// in\n    tag_655:\n        /* \"#utility.yul\":1630:1693   */\n      swap2\n      pop\n        /* \"#utility.yul\":1586:1703   */\n      pop\n        /* \"#utility.yul\":1381:1710   */\n      swap3\n      swap2\n      pop\n      pop\n      jump\t// out\n        /* \"#utility.yul\":1716:1842   */\n    tag_527:\n        /* \"#utility.yul\":1753:1760   */\n      0x00\n        /* \"#utility.yul\":1793:1835   */\n      0xffffffffffffffffffffffffffffffffffffffff\n        /* \"#utility.yul\":1786:1791   */\n      dup3\n        /* \"#utility.yul\":1782:1836   */\n      and\n        /* \"#utility.yul\":1771:1836   */\n      swap1\n      pop\n        /* \"#utility.yul\":1716:1842   */\n      swap2\n      swap1\n      pop\n      jump\t// out\n        /* \"#utility.yul\":1848:1944   */\n    tag_528:\n        /* \"#utility.yul\":1885:1892   */\n      0x00\n        /* \"#utility.yul\":1914:1938   */\n      tag_658\n        /* \"#utility.yul\":1932:1937   */\n      dup3\n        /* \"#utility.yul\":1914:1938   */\n      tag_527\n      jump\t// in\n    tag_658:\n        /* \"#utility.yul\":1903:1938   */\n      swap1\n      pop\n        /* \"#utility.yul\":1848:1944   */\n      swap2\n      swap1\n      pop\n      jump\t// out\n        /* \"#utility.yul\":1950:2068   */\n    tag_529:\n        /* \"#utility.yul\":2037:2061   */\n      tag_660\n        /* \"#utility.yul\":2055:2060   */\n      dup2\n        /* \"#utility.yul\":2037:2061   */\n      tag_528\n      jump\t// in\n    tag_660:\n        /* \"#utility.yul\":2032:2035   */\n      dup3\n        /* \"#utility.yul\":2025:2062   */\n      mstore\n        /* \"#utility.yul\":1950:2068   */\n      pop\n      pop\n      jump\t// out\n        /* \"#utility.yul\":2074:2296   */\n    tag_53:\n        /* \"#utility.yul\":2167:2171   */\n      0x00\n        /* \"#utility.yul\":2205:2207   */\n      0x20\n        /* \"#utility.yul\":2194:2203   */\n      dup3\n        /* \"#utility.yul\":2190:2208   */\n      add\n        /* \"#utility.yul\":2182:2208   */\n      swap1\n      pop\n        /* \"#utility.yul\":2218:2289   */\n      tag_662\n        /* \"#utility.yul\":2286:2287   */\n      0x00\n        /* \"#utility.yul\":2275:2284   */\n      dup4\n        /* \"#utility.yul\":2271:2288   */\n      add\n        /* \"#utility.yul\":2262:2268   */\n      dup5\n        /* \"#utility.yul\":2218:2289   */\n      tag_529\n      jump\t// in\n    tag_662:\n        /* \"#utility.yul\":2074:2296   */\n      swap3\n      swap2\n      pop\n      pop\n      jump\t// out\n        /* \"#utility.yul\":2302:2424   */\n    tag_530:\n        /* \"#utility.yul\":2375:2399   */\n      tag_664\n        /* \"#utility.yul\":2393:2398   */\n      dup2\n        /* \"#utility.yul\":2375:2399   */\n      tag_528\n      jump\t// in\n    tag_664:\n        /* \"#utility.yul\":2368:2373   */\n      dup2\n        /* \"#utility.yul\":2365:2400   */\n      eq\n        /* \"#utility.yul\":2355:2418   */\n      tag_665\n      jumpi\n        /* \"#utility.yul\":2414:2415   */\n      0x00\n        /* \"#utility.yul\":2411:2412   */\n      dup1\n        /* \"#utility.yul\":2404:2416   */\n      revert\n        /* \"#utility.yul\":2355:2418   */\n    tag_665:\n        /* \"#utility.yul\":2302:2424   */\n      pop\n      jump\t// out\n        /* \"#utility.yul\":2430:2569   */\n    tag_531:\n        /* \"#utility.yul\":2476:2481   */\n      0x00\n        /* \"#utility.yul\":2514:2520   */\n      dup2\n        /* \"#utility.yul\":2501:2521   */\n      calldataload\n        /* \"#utility.yul\":2492:2521   */\n      swap1\n      pop\n        /* \"#utility.yul\":2530:2563   */\n      tag_667\n        /* \"#utility.yul\":2557:2562   */\n      dup2\n        /* \"#utility.yul\":2530:2563   */\n      tag_530\n      jump\t// in\n    tag_667:\n        /* \"#utility.yul\":2430:2569   */\n      swap3\n      swap2\n      pop\n      pop\n      jump\t// out\n        /* \"#utility.yul\":2575:3049   */\n    tag_61:\n        /* \"#utility.yul\":2643:2649   */\n      0x00\n        /* \"#utility.yul\":2651:2657   */\n      dup1\n        /* \"#utility.yul\":2700:2702   */\n      0x40\n        /* \"#utility.yul\":2688:2697   */\n      dup4\n        /* \"#utility.yul\":2679:2686   */\n      dup6\n        /* \"#utility.yul\":2675:2698   */\n      sub\n        /* \"#utility.yul\":2671:2703   */\n      slt\n        /* \"#utility.yul\":2668:2787   */\n      iszero\n      tag_669\n      jumpi\n        /* \"#utility.yul\":2706:2785   */\n      tag_670\n      tag_519\n      jump\t// in\n    tag_670:\n        /* \"#utility.yul\":2668:2787   */\n    tag_669:\n        /* \"#utility.yul\":2826:2827   */\n      0x00\n        /* \"#utility.yul\":2851:2904   */\n      tag_671\n        /* \"#utility.yul\":2896:2903   */\n      dup6\n        /* \"#utility.yul\":2887:2893   */\n      dup3\n        /* \"#utility.yul\":2876:2885   */\n      dup7\n        /* \"#utility.yul\":2872:2894   */\n      add\n        /* \"#utility.yul\":2851:2904   */\n      tag_526\n      jump\t// in\n    tag_671:\n        /* \"#utility.yul\":2841:2904   */\n      swap3\n      pop\n        /* \"#utility.yul\":2797:2914   */\n      pop\n        /* \"#utility.yul\":2953:2955   */\n      0x20\n        /* \"#utility.yul\":2979:3032   */\n      tag_672\n        /* \"#utility.yul\":3024:3031   */\n      dup6\n        /* \"#utility.yul\":3015:3021   */\n      dup3\n        /* \"#utility.yul\":3004:3013   */\n      dup7\n        /* \"#utility.yul\":3000:3022   */\n      add\n        /* \"#utility.yul\":2979:3032   */\n      tag_531\n      jump\t// in\n    tag_672:\n        /* \"#utility.yul\":2969:3032   */\n      swap2\n      pop\n        /* \"#utility.yul\":2924:3042   */\n      pop\n        /* \"#utility.yul\":2575:3049   */\n      swap3\n      pop\n      swap3\n      swap1\n      pop\n      jump\t// out\n        /* \"#utility.yul\":3055:3173   */\n    tag_532:\n        /* \"#utility.yul\":3142:3166   */\n      tag_674\n        /* \"#utility.yul\":3160:3165   */\n      dup2\n        /* \"#utility.yul\":3142:3166   */\n      tag_521\n      jump\t// in\n    tag_674:\n        /* \"#utility.yul\":3137:3140   */\n      dup3\n        /* \"#utility.yul\":3130:3167   */\n      mstore\n        /* \"#utility.yul\":3055:3173   */\n      pop\n      pop\n      jump\t// out\n        /* \"#utility.yul\":3179:3269   */\n    tag_533:\n        /* \"#utility.yul\":3213:3220   */\n      0x00\n        /* \"#utility.yul\":3256:3261   */\n      dup2\n        /* \"#utility.yul\":3249:3262   */\n      iszero\n        /* \"#utility.yul\":3242:3263   */\n      iszero\n        /* \"#utility.yul\":3231:3263   */\n      swap1\n      pop\n        /* \"#utility.yul\":3179:3269   */\n      swap2\n      swap1\n      pop\n      jump\t// out\n        /* \"#utility.yul\":3275:3384   */\n    tag_534:\n        /* \"#utility.yul\":3356:3377   */\n      tag_677\n        /* \"#utility.yul\":3371:3376   */\n      dup2\n        /* \"#utility.yul\":3356:3377   */\n      tag_533\n      jump\t// in\n    tag_677:\n        /* \"#utility.yul\":3351:3354   */\n      dup3\n        /* \"#utility.yul\":3344:3378   */\n      mstore\n        /* \"#utility.yul\":3275:3384   */\n      pop\n      pop\n      jump\t// out\n        /* \"#utility.yul\":3390:3710   */\n    tag_64:\n        /* \"#utility.yul\":3505:3509   */\n      0x00\n        /* \"#utility.yul\":3543:3545   */\n      0x40\n        /* \"#utility.yul\":3532:3541   */\n      dup3\n        /* \"#utility.yul\":3528:3546   */\n      add\n        /* \"#utility.yul\":3520:3546   */\n      swap1\n      pop\n        /* \"#utility.yul\":3556:3627   */\n      tag_679\n        /* \"#utility.yul\":3624:3625   */\n      0x00\n        /* \"#utility.yul\":3613:3622   */\n      dup4\n        /* \"#utility.yul\":3609:3626   */\n      add\n        /* \"#utility.yul\":3600:3606   */\n      dup6\n        /* \"#utility.yul\":3556:3627   */\n      tag_532\n      jump\t// in\n    tag_679:\n        /* \"#utility.yul\":3637:3703   */\n      tag_680\n        /* \"#utility.yul\":3699:3701   */\n      0x20\n        /* \"#utility.yul\":3688:3697   */\n      dup4\n        /* \"#utility.yul\":3684:3702   */\n      add\n        /* \"#utility.yul\":3675:3681   */\n      dup5\n        /* \"#utility.yul\":3637:3703   */\n      tag_534\n      jump\t// in\n    tag_680:\n        /* \"#utility.yul\":3390:3710   */\n      swap4\n      swap3\n      pop\n      pop\n      pop\n      jump\t// out\n        /* \"#utility.yul\":3716:3926   */\n    tag_74:\n        /* \"#utility.yul\":3803:3807   */\n      0x00\n        /* \"#utility.yul\":3841:3843   */\n      0x20\n        /* \"#utility.yul\":3830:3839   */\n      dup3\n        /* \"#utility.yul\":3826:3844   */\n      add\n        /* \"#utility.yul\":3818:3844   */\n      swap1\n      pop\n        /* \"#utility.yul\":3854:3919   */\n      tag_682\n        /* \"#utility.yul\":3916:3917   */\n      0x00\n        /* \"#utility.yul\":3905:3914   */\n      dup4\n        /* \"#utility.yul\":3901:3918   */\n      add\n        /* \"#utility.yul\":3892:3898   */\n      dup5\n        /* \"#utility.yul\":3854:3919   */\n      tag_534\n      jump\t// in\n    tag_682:\n        /* \"#utility.yul\":3716:3926   */\n      swap3\n      swap2\n      pop\n      pop\n      jump\t// out\n        /* \"#utility.yul\":3932:4154   */\n    tag_96:\n        /* \"#utility.yul\":4025:4029   */\n      0x00\n        /* \"#utility.yul\":4063:4065   */\n      0x20\n        /* \"#utility.yul\":4052:4061   */\n      dup3\n        /* \"#utility.yul\":4048:4066   */\n      add\n        /* \"#utility.yul\":4040:4066   */\n      swap1\n      pop\n        /* \"#utility.yul\":4076:4147   */\n      tag_684\n        /* \"#utility.yul\":4144:4145   */\n      0x00\n        /* \"#utility.yul\":4133:4142   */\n      dup4\n        /* \"#utility.yul\":4129:4146   */\n      add\n        /* \"#utility.yul\":4120:4126   */\n      dup5\n        /* \"#utility.yul\":4076:4147   */\n      tag_532\n      jump\t// in\n    tag_684:\n        /* \"#utility.yul\":3932:4154   */\n      swap3\n      swap2\n      pop\n      pop\n      jump\t// out\n        /* \"#utility.yul\":4160:4277   */\n    tag_535:\n        /* \"#utility.yul\":4269:4270   */\n      0x00\n        /* \"#utility.yul\":4266:4267   */\n      dup1\n        /* \"#utility.yul\":4259:4271   */\n      revert\n        /* \"#utility.yul\":4283:4400   */\n    tag_536:\n        /* \"#utility.yul\":4392:4393   */\n      0x00\n        /* \"#utility.yul\":4389:4390   */\n      dup1\n        /* \"#utility.yul\":4382:4394   */\n      revert\n        /* \"#utility.yul\":4406:4508   */\n    tag_537:\n        /* \"#utility.yul\":4447:4453   */\n      0x00\n        /* \"#utility.yul\":4498:4500   */\n      0x1f\n        /* \"#utility.yul\":4494:4501   */\n      not\n        /* \"#utility.yul\":4489:4491   */\n      0x1f\n        /* \"#utility.yul\":4482:4487   */\n      dup4\n        /* \"#utility.yul\":4478:4492   */\n      add\n        /* \"#utility.yul\":4474:4502   */\n      and\n        /* \"#utility.yul\":4464:4502   */\n      swap1\n      pop\n        /* \"#utility.yul\":4406:4508   */\n      swap2\n      swap1\n      pop\n      jump\t// out\n        /* \"#utility.yul\":4514:4694   */\n    tag_407:\n        /* \"#utility.yul\":4562:4639   */\n      0x4e487b7100000000000000000000000000000000000000000000000000000000\n        /* \"#utility.yul\":4559:4560   */\n      0x00\n        /* \"#utility.yul\":4552:4640   */\n      mstore\n        /* \"#utility.yul\":4659:4663   */\n      0x41\n        /* \"#utility.yul\":4656:4657   */\n      0x04\n        /* \"#utility.yul\":4649:4664   */\n      mstore\n        /* \"#utility.yul\":4683:4687   */\n      0x24\n        /* \"#utility.yul\":4680:4681   */\n      0x00\n        /* \"#utility.yul\":4673:4688   */\n      revert\n        /* \"#utility.yul\":4700:4981   */\n    tag_538:\n        /* \"#utility.yul\":4783:4810   */\n      tag_690\n        /* \"#utility.yul\":4805:4809   */\n      dup3\n        /* \"#utility.yul\":4783:4810   */\n      tag_537\n      jump\t// in\n    tag_690:\n        /* \"#utility.yul\":4775:4781   */\n      dup2\n        /* \"#utility.yul\":4771:4811   */\n      add\n        /* \"#utility.yul\":4913:4919   */\n      dup2\n        /* \"#utility.yul\":4901:4911   */\n      dup2\n        /* \"#utility.yul\":4898:4920   */\n      lt\n        /* \"#utility.yul\":4877:4895   */\n      0xffffffffffffffff\n        /* \"#utility.yul\":4865:4875   */\n      dup3\n        /* \"#utility.yul\":4862:4896   */\n      gt\n        /* \"#utility.yul\":4859:4921   */\n      or\n        /* \"#utility.yul\":4856:4944   */\n      iszero\n      tag_691\n      jumpi\n        /* \"#utility.yul\":4924:4942   */\n      tag_692\n      tag_407\n      jump\t// in\n    tag_692:\n        /* \"#utility.yul\":4856:4944   */\n    tag_691:\n        /* \"#utility.yul\":4964:4974   */\n      dup1\n        /* \"#utility.yul\":4960:4962   */\n      0x40\n        /* \"#utility.yul\":4953:4975   */\n      mstore\n        /* \"#utility.yul\":4743:4981   */\n      pop\n        /* \"#utility.yul\":4700:4981   */\n      pop\n      pop\n      jump\t// out\n        /* \"#utility.yul\":4987:5116   */\n    tag_539:\n        /* \"#utility.yul\":5021:5027   */\n      0x00\n        /* \"#utility.yul\":5048:5068   */\n      tag_694\n      tag_518\n      jump\t// in\n    tag_694:\n        /* \"#utility.yul\":5038:5068   */\n      swap1\n      pop\n        /* \"#utility.yul\":5077:5110   */\n      tag_695\n        /* \"#utility.yul\":5105:5109   */\n      dup3\n        /* \"#utility.yul\":5097:5103   */\n      dup3\n        /* \"#utility.yul\":5077:5110   */\n      tag_538\n      jump\t// in\n    tag_695:\n        /* \"#utility.yul\":4987:5116   */\n      swap2\n      swap1\n      pop\n      jump\t// out\n        /* \"#utility.yul\":5122:5430   */\n    tag_540:\n        /* \"#utility.yul\":5184:5188   */\n      0x00\n        /* \"#utility.yul\":5274:5292   */\n      0xffffffffffffffff\n        /* \"#utility.yul\":5266:5272   */\n      dup3\n        /* \"#utility.yul\":5263:5293   */\n      gt\n        /* \"#utility.yul\":5260:5316   */\n      iszero\n      tag_697\n      jumpi\n        /* \"#utility.yul\":5296:5314   */\n      tag_698\n      tag_407\n      jump\t// in\n    tag_698:\n        /* \"#utility.yul\":5260:5316   */\n    tag_697:\n        /* \"#utility.yul\":5334:5363   */\n      tag_699\n        /* \"#utility.yul\":5356:5362   */\n      dup3\n        /* \"#utility.yul\":5334:5363   */\n      tag_537\n      jump\t// in\n    tag_699:\n        /* \"#utility.yul\":5326:5363   */\n      swap1\n      pop\n        /* \"#utility.yul\":5418:5422   */\n      0x20\n        /* \"#utility.yul\":5412:5416   */\n      dup2\n        /* \"#utility.yul\":5408:5423   */\n      add\n        /* \"#utility.yul\":5400:5423   */\n      swap1\n      pop\n        /* \"#utility.yul\":5122:5430   */\n      swap2\n      swap1\n      pop\n      jump\t// out\n        /* \"#utility.yul\":5436:5584   */\n    tag_541:\n        /* \"#utility.yul\":5534:5540   */\n      dup3\n        /* \"#utility.yul\":5529:5532   */\n      dup2\n        /* \"#utility.yul\":5524:5527   */\n      dup4\n        /* \"#utility.yul\":5511:5541   */\n      calldatacopy\n        /* \"#utility.yul\":5575:5576   */\n      0x00\n        /* \"#utility.yul\":5566:5572   */\n      dup4\n        /* \"#utility.yul\":5561:5564   */\n      dup4\n        /* \"#utility.yul\":5557:5573   */\n      add\n        /* \"#utility.yul\":5550:5577   */\n      mstore\n        /* \"#utility.yul\":5436:5584   */\n      pop\n      pop\n      pop\n      jump\t// out\n        /* \"#utility.yul\":5590:6015   */\n    tag_542:\n        /* \"#utility.yul\":5668:5673   */\n      0x00\n        /* \"#utility.yul\":5693:5759   */\n      tag_702\n        /* \"#utility.yul\":5709:5758   */\n      tag_703\n        /* \"#utility.yul\":5751:5757   */\n      dup5\n        /* \"#utility.yul\":5709:5758   */\n      tag_540\n      jump\t// in\n    tag_703:\n        /* \"#utility.yul\":5693:5759   */\n      tag_539\n      jump\t// in\n    tag_702:\n        /* \"#utility.yul\":5684:5759   */\n      swap1\n      pop\n        /* \"#utility.yul\":5782:5788   */\n      dup3\n        /* \"#utility.yul\":5775:5780   */\n      dup2\n        /* \"#utility.yul\":5768:5789   */\n      mstore\n        /* \"#utility.yul\":5820:5824   */\n      0x20\n        /* \"#utility.yul\":5813:5818   */\n      dup2\n        /* \"#utility.yul\":5809:5825   */\n      add\n        /* \"#utility.yul\":5858:5861   */\n      dup5\n        /* \"#utility.yul\":5849:5855   */\n      dup5\n        /* \"#utility.yul\":5844:5847   */\n      dup5\n        /* \"#utility.yul\":5840:5856   */\n      add\n        /* \"#utility.yul\":5837:5862   */\n      gt\n        /* \"#utility.yul\":5834:5946   */\n      iszero\n      tag_704\n      jumpi\n        /* \"#utility.yul\":5865:5944   */\n      tag_705\n      tag_536\n      jump\t// in\n    tag_705:\n        /* \"#utility.yul\":5834:5946   */\n    tag_704:\n        /* \"#utility.yul\":5955:6009   */\n      tag_706\n        /* \"#utility.yul\":6002:6008   */\n      dup5\n        /* \"#utility.yul\":5997:6000   */\n      dup3\n        /* \"#utility.yul\":5992:5995   */\n      dup6\n        /* \"#utility.yul\":5955:6009   */\n      tag_541\n      jump\t// in\n    tag_706:\n        /* \"#utility.yul\":5674:6015   */\n      pop\n        /* \"#utility.yul\":5590:6015   */\n      swap4\n      swap3\n      pop\n      pop\n      pop\n      jump\t// out\n        /* \"#utility.yul\":6035:6375   */\n    tag_543:\n        /* \"#utility.yul\":6091:6096   */\n      0x00\n        /* \"#utility.yul\":6140:6143   */\n      dup3\n        /* \"#utility.yul\":6133:6137   */\n      0x1f\n        /* \"#utility.yul\":6125:6131   */\n      dup4\n        /* \"#utility.yul\":6121:6138   */\n      add\n        /* \"#utility.yul\":6117:6144   */\n      slt\n        /* \"#utility.yul\":6107:6229   */\n      tag_708\n      jumpi\n        /* \"#utility.yul\":6148:6227   */\n      tag_709\n      tag_535\n      jump\t// in\n    tag_709:\n        /* \"#utility.yul\":6107:6229   */\n    tag_708:\n        /* \"#utility.yul\":6265:6271   */\n      dup2\n        /* \"#utility.yul\":6252:6272   */\n      calldataload\n        /* \"#utility.yul\":6290:6369   */\n      tag_710\n        /* \"#utility.yul\":6365:6368   */\n      dup5\n        /* \"#utility.yul\":6357:6363   */\n      dup3\n        /* \"#utility.yul\":6350:6354   */\n      0x20\n        /* \"#utility.yul\":6342:6348   */\n      dup7\n        /* \"#utility.yul\":6338:6355   */\n      add\n        /* \"#utility.yul\":6290:6369   */\n      tag_542\n      jump\t// in\n    tag_710:\n        /* \"#utility.yul\":6281:6369   */\n      swap2\n      pop\n        /* \"#utility.yul\":6097:6375   */\n      pop\n        /* \"#utility.yul\":6035:6375   */\n      swap3\n      swap2\n      pop\n      pop\n      jump\t// out\n        /* \"#utility.yul\":6381:7035   */\n    tag_107:\n        /* \"#utility.yul\":6459:6465   */\n      0x00\n        /* \"#utility.yul\":6467:6473   */\n      dup1\n        /* \"#utility.yul\":6516:6518   */\n      0x40\n        /* \"#utility.yul\":6504:6513   */\n      dup4\n        /* \"#utility.yul\":6495:6502   */\n      dup6\n        /* \"#utility.yul\":6491:6514   */\n      sub\n        /* \"#utility.yul\":6487:6519   */\n      slt\n        /* \"#utility.yul\":6484:6603   */\n      iszero\n      tag_712\n      jumpi\n        /* \"#utility.yul\":6522:6601   */\n      tag_713\n      tag_519\n      jump\t// in\n    tag_713:\n        /* \"#utility.yul\":6484:6603   */\n    tag_712:\n        /* \"#utility.yul\":6642:6643   */\n      0x00\n        /* \"#utility.yul\":6667:6720   */\n      tag_714\n        /* \"#utility.yul\":6712:6719   */\n      dup6\n        /* \"#utility.yul\":6703:6709   */\n      dup3\n        /* \"#utility.yul\":6692:6701   */\n      dup7\n        /* \"#utility.yul\":6688:6710   */\n      add\n        /* \"#utility.yul\":6667:6720   */\n      tag_526\n      jump\t// in\n    tag_714:\n        /* \"#utility.yul\":6657:6720   */\n      swap3\n      pop\n        /* \"#utility.yul\":6613:6730   */\n      pop\n        /* \"#utility.yul\":6797:6799   */\n      0x20\n        /* \"#utility.yul\":6786:6795   */\n      dup4\n        /* \"#utility.yul\":6782:6800   */\n      add\n        /* \"#utility.yul\":6769:6801   */\n      calldataload\n        /* \"#utility.yul\":6828:6846   */\n      0xffffffffffffffff\n        /* \"#utility.yul\":6820:6826   */\n      dup2\n        /* \"#utility.yul\":6817:6847   */\n      gt\n        /* \"#utility.yul\":6814:6931   */\n      iszero\n      tag_715\n      jumpi\n        /* \"#utility.yul\":6850:6929   */\n      tag_716\n      tag_520\n      jump\t// in\n    tag_716:\n        /* \"#utility.yul\":6814:6931   */\n    tag_715:\n        /* \"#utility.yul\":6955:7018   */\n      tag_717\n        /* \"#utility.yul\":7010:7017   */\n      dup6\n        /* \"#utility.yul\":7001:7007   */\n      dup3\n        /* \"#utility.yul\":6990:6999   */\n      dup7\n        /* \"#utility.yul\":6986:7008   */\n      add\n        /* \"#utility.yul\":6955:7018   */\n      tag_543\n      jump\t// in\n    tag_717:\n        /* \"#utility.yul\":6945:7018   */\n      swap2\n      pop\n        /* \"#utility.yul\":6740:7028   */\n      pop\n        /* \"#utility.yul\":6381:7035   */\n      swap3\n      pop\n      swap3\n      swap1\n      pop\n      jump\t// out\n        /* \"#utility.yul\":7041:7352   */\n    tag_544:\n        /* \"#utility.yul\":7118:7122   */\n      0x00\n        /* \"#utility.yul\":7208:7226   */\n      0xffffffffffffffff\n        /* \"#utility.yul\":7200:7206   */\n      dup3\n        /* \"#utility.yul\":7197:7227   */\n      gt\n        /* \"#utility.yul\":7194:7250   */\n      iszero\n      tag_719\n      jumpi\n        /* \"#utility.yul\":7230:7248   */\n      tag_720\n      tag_407\n      jump\t// in\n    tag_720:\n        /* \"#utility.yul\":7194:7250   */\n    tag_719:\n        /* \"#utility.yul\":7280:7284   */\n      0x20\n        /* \"#utility.yul\":7272:7278   */\n      dup3\n        /* \"#utility.yul\":7268:7285   */\n      mul\n        /* \"#utility.yul\":7260:7285   */\n      swap1\n      pop\n        /* \"#utility.yul\":7340:7344   */\n      0x20\n        /* \"#utility.yul\":7334:7338   */\n      dup2\n        /* \"#utility.yul\":7330:7345   */\n      add\n        /* \"#utility.yul\":7322:7345   */\n      swap1\n      pop\n        /* \"#utility.yul\":7041:7352   */\n      swap2\n      swap1\n      pop\n      jump\t// out\n        /* \"#utility.yul\":7358:7475   */\n    tag_545:\n        /* \"#utility.yul\":7467:7468   */\n      0x00\n        /* \"#utility.yul\":7464:7465   */\n      dup1\n        /* \"#utility.yul\":7457:7469   */\n      revert\n        /* \"#utility.yul\":7498:8208   */\n    tag_546:\n        /* \"#utility.yul\":7594:7599   */\n      0x00\n        /* \"#utility.yul\":7619:7700   */\n      tag_723\n        /* \"#utility.yul\":7635:7699   */\n      tag_724\n        /* \"#utility.yul\":7692:7698   */\n      dup5\n        /* \"#utility.yul\":7635:7699   */\n      tag_544\n      jump\t// in\n    tag_724:\n        /* \"#utility.yul\":7619:7700   */\n      tag_539\n      jump\t// in\n    tag_723:\n        /* \"#utility.yul\":7610:7700   */\n      swap1\n      pop\n        /* \"#utility.yul\":7720:7725   */\n      dup1\n        /* \"#utility.yul\":7749:7755   */\n      dup4\n        /* \"#utility.yul\":7742:7747   */\n      dup3\n        /* \"#utility.yul\":7735:7756   */\n      mstore\n        /* \"#utility.yul\":7783:7787   */\n      0x20\n        /* \"#utility.yul\":7776:7781   */\n      dup3\n        /* \"#utility.yul\":7772:7788   */\n      add\n        /* \"#utility.yul\":7765:7788   */\n      swap1\n      pop\n        /* \"#utility.yul\":7836:7840   */\n      0x20\n        /* \"#utility.yul\":7828:7834   */\n      dup5\n        /* \"#utility.yul\":7824:7841   */\n      mul\n        /* \"#utility.yul\":7816:7822   */\n      dup4\n        /* \"#utility.yul\":7812:7842   */\n      add\n        /* \"#utility.yul\":7865:7868   */\n      dup6\n        /* \"#utility.yul\":7857:7863   */\n      dup2\n        /* \"#utility.yul\":7854:7869   */\n      gt\n        /* \"#utility.yul\":7851:7973   */\n      iszero\n      tag_725\n      jumpi\n        /* \"#utility.yul\":7884:7963   */\n      tag_726\n      tag_545\n      jump\t// in\n    tag_726:\n        /* \"#utility.yul\":7851:7973   */\n    tag_725:\n        /* \"#utility.yul\":7999:8005   */\n      dup4\n        /* \"#utility.yul\":7982:8202   */\n    tag_727:\n        /* \"#utility.yul\":8016:8022   */\n      dup2\n        /* \"#utility.yul\":8011:8014   */\n      dup2\n        /* \"#utility.yul\":8008:8023   */\n      lt\n        /* \"#utility.yul\":7982:8202   */\n      iszero\n      tag_729\n      jumpi\n        /* \"#utility.yul\":8091:8094   */\n      dup1\n        /* \"#utility.yul\":8120:8157   */\n      tag_730\n        /* \"#utility.yul\":8153:8156   */\n      dup9\n        /* \"#utility.yul\":8141:8151   */\n      dup3\n        /* \"#utility.yul\":8120:8157   */\n      tag_526\n      jump\t// in\n    tag_730:\n        /* \"#utility.yul\":8115:8118   */\n      dup5\n        /* \"#utility.yul\":8108:8158   */\n      mstore\n        /* \"#utility.yul\":8187:8191   */\n      0x20\n        /* \"#utility.yul\":8182:8185   */\n      dup5\n        /* \"#utility.yul\":8178:8192   */\n      add\n        /* \"#utility.yul\":8171:8192   */\n      swap4\n      pop\n        /* \"#utility.yul\":8058:8202   */\n      pop\n        /* \"#utility.yul\":8042:8046   */\n      0x20\n        /* \"#utility.yul\":8037:8040   */\n      dup2\n        /* \"#utility.yul\":8033:8047   */\n      add\n        /* \"#utility.yul\":8026:8047   */\n      swap1\n      pop\n        /* \"#utility.yul\":7982:8202   */\n      jump(tag_727)\n    tag_729:\n        /* \"#utility.yul\":7986:8007   */\n      pop\n        /* \"#utility.yul\":7600:8208   */\n      pop\n      pop\n        /* \"#utility.yul\":7498:8208   */\n      swap4\n      swap3\n      pop\n      pop\n      pop\n      jump\t// out\n        /* \"#utility.yul\":8231:8601   */\n    tag_547:\n        /* \"#utility.yul\":8302:8307   */\n      0x00\n        /* \"#utility.yul\":8351:8354   */\n      dup3\n        /* \"#utility.yul\":8344:8348   */\n      0x1f\n        /* \"#utility.yul\":8336:8342   */\n      dup4\n        /* \"#utility.yul\":8332:8349   */\n      add\n        /* \"#utility.yul\":8328:8355   */\n      slt\n        /* \"#utility.yul\":8318:8440   */\n      tag_732\n      jumpi\n        /* \"#utility.yul\":8359:8438   */\n      tag_733\n      tag_535\n      jump\t// in\n    tag_733:\n        /* \"#utility.yul\":8318:8440   */\n    tag_732:\n        /* \"#utility.yul\":8476:8482   */\n      dup2\n        /* \"#utility.yul\":8463:8483   */\n      calldataload\n        /* \"#utility.yul\":8501:8595   */\n      tag_734\n        /* \"#utility.yul\":8591:8594   */\n      dup5\n        /* \"#utility.yul\":8583:8589   */\n      dup3\n        /* \"#utility.yul\":8576:8580   */\n      0x20\n        /* \"#utility.yul\":8568:8574   */\n      dup7\n        /* \"#utility.yul\":8564:8581   */\n      add\n        /* \"#utility.yul\":8501:8595   */\n      tag_546\n      jump\t// in\n    tag_734:\n        /* \"#utility.yul\":8492:8595   */\n      swap2\n      pop\n        /* \"#utility.yul\":8308:8601   */\n      pop\n        /* \"#utility.yul\":8231:8601   */\n      swap3\n      swap2\n      pop\n      pop\n      jump\t// out\n        /* \"#utility.yul\":8607:9291   */\n    tag_112:\n        /* \"#utility.yul\":8700:8706   */\n      0x00\n        /* \"#utility.yul\":8708:8714   */\n      dup1\n        /* \"#utility.yul\":8757:8759   */\n      0x40\n        /* \"#utility.yul\":8745:8754   */\n      dup4\n        /* \"#utility.yul\":8736:8743   */\n      dup6\n        /* \"#utility.yul\":8732:8755   */\n      sub\n        /* \"#utility.yul\":8728:8760   */\n      slt\n        /* \"#utility.yul\":8725:8844   */\n      iszero\n      tag_736\n      jumpi\n        /* \"#utility.yul\":8763:8842   */\n      tag_737\n      tag_519\n      jump\t// in\n    tag_737:\n        /* \"#utility.yul\":8725:8844   */\n    tag_736:\n        /* \"#utility.yul\":8911:8912   */\n      0x00\n        /* \"#utility.yul\":8900:8909   */\n      dup4\n        /* \"#utility.yul\":8896:8913   */\n      add\n        /* \"#utility.yul\":8883:8914   */\n      calldataload\n        /* \"#utility.yul\":8941:8959   */\n      0xffffffffffffffff\n        /* \"#utility.yul\":8933:8939   */\n      dup2\n        /* \"#utility.yul\":8930:8960   */\n      gt\n        /* \"#utility.yul\":8927:9044   */\n      iszero\n      tag_738\n      jumpi\n        /* \"#utility.yul\":8963:9042   */\n      tag_739\n      tag_520\n      jump\t// in\n    tag_739:\n        /* \"#utility.yul\":8927:9044   */\n    tag_738:\n        /* \"#utility.yul\":9068:9146   */\n      tag_740\n        /* \"#utility.yul\":9138:9145   */\n      dup6\n        /* \"#utility.yul\":9129:9135   */\n      dup3\n        /* \"#utility.yul\":9118:9127   */\n      dup7\n        /* \"#utility.yul\":9114:9136   */\n      add\n        /* \"#utility.yul\":9068:9146   */\n      tag_547\n      jump\t// in\n    tag_740:\n        /* \"#utility.yul\":9058:9146   */\n      swap3\n      pop\n        /* \"#utility.yul\":8854:9156   */\n      pop\n        /* \"#utility.yul\":9195:9197   */\n      0x20\n        /* \"#utility.yul\":9221:9274   */\n      tag_741\n        /* \"#utility.yul\":9266:9273   */\n      dup6\n        /* \"#utility.yul\":9257:9263   */\n      dup3\n        /* \"#utility.yul\":9246:9255   */\n      dup7\n        /* \"#utility.yul\":9242:9264   */\n      add\n        /* \"#utility.yul\":9221:9274   */\n      tag_526\n      jump\t// in\n    tag_741:\n        /* \"#utility.yul\":9211:9274   */\n      swap2\n      pop\n        /* \"#utility.yul\":9166:9284   */\n      pop\n        /* \"#utility.yul\":8607:9291   */\n      swap3\n      pop\n      swap3\n      swap1\n      pop\n      jump\t// out\n        /* \"#utility.yul\":9297:9373   */\n    tag_548:\n        /* \"#utility.yul\":9333:9340   */\n      0x00\n        /* \"#utility.yul\":9362:9367   */\n      dup2\n        /* \"#utility.yul\":9351:9367   */\n      swap1\n      pop\n        /* \"#utility.yul\":9297:9373   */\n      swap2\n      swap1\n      pop\n      jump\t// out\n        /* \"#utility.yul\":9379:9494   */\n    tag_549:\n        /* \"#utility.yul\":9464:9487   */\n      tag_744\n        /* \"#utility.yul\":9481:9486   */\n      dup2\n        /* \"#utility.yul\":9464:9487   */\n      tag_548\n      jump\t// in\n    tag_744:\n        /* \"#utility.yul\":9459:9462   */\n      dup3\n        /* \"#utility.yul\":9452:9488   */\n      mstore\n        /* \"#utility.yul\":9379:9494   */\n      pop\n      pop\n      jump\t// out\n        /* \"#utility.yul\":9500:9718   */\n    tag_115:\n        /* \"#utility.yul\":9591:9595   */\n      0x00\n        /* \"#utility.yul\":9629:9631   */\n      0x20\n        /* \"#utility.yul\":9618:9627   */\n      dup3\n        /* \"#utility.yul\":9614:9632   */\n      add\n        /* \"#utility.yul\":9606:9632   */\n      swap1\n      pop\n        /* \"#utility.yul\":9642:9711   */\n      tag_746\n        /* \"#utility.yul\":9708:9709   */\n      0x00\n        /* \"#utility.yul\":9697:9706   */\n      dup4\n        /* \"#utility.yul\":9693:9710   */\n      add\n        /* \"#utility.yul\":9684:9690   */\n      dup5\n        /* \"#utility.yul\":9642:9711   */\n      tag_549\n      jump\t// in\n    tag_746:\n        /* \"#utility.yul\":9500:9718   */\n      swap3\n      swap2\n      pop\n      pop\n      jump\t// out\n        /* \"#utility.yul\":9724:10849   */\n    tag_119:\n        /* \"#utility.yul\":9830:9836   */\n      0x00\n        /* \"#utility.yul\":9838:9844   */\n      dup1\n        /* \"#utility.yul\":9846:9852   */\n      0x00\n        /* \"#utility.yul\":9854:9860   */\n      dup1\n        /* \"#utility.yul\":9903:9906   */\n      0x80\n        /* \"#utility.yul\":9891:9900   */\n      dup6\n        /* \"#utility.yul\":9882:9889   */\n      dup8\n        /* \"#utility.yul\":9878:9901   */\n      sub\n        /* \"#utility.yul\":9874:9907   */\n      slt\n        /* \"#utility.yul\":9871:9991   */\n      iszero\n      tag_748\n      jumpi\n        /* \"#utility.yul\":9910:9989   */\n      tag_749\n      tag_519\n      jump\t// in\n    tag_749:\n        /* \"#utility.yul\":9871:9991   */\n    tag_748:\n        /* \"#utility.yul\":10058:10059   */\n      0x00\n        /* \"#utility.yul\":10047:10056   */\n      dup6\n        /* \"#utility.yul\":10043:10060   */\n      add\n        /* \"#utility.yul\":10030:10061   */\n      calldataload\n        /* \"#utility.yul\":10088:10106   */\n      0xffffffffffffffff\n        /* \"#utility.yul\":10080:10086   */\n      dup2\n        /* \"#utility.yul\":10077:10107   */\n      gt\n        /* \"#utility.yul\":10074:10191   */\n      iszero\n      tag_750\n      jumpi\n        /* \"#utility.yul\":10110:10189   */\n      tag_751\n      tag_520\n      jump\t// in\n    tag_751:\n        /* \"#utility.yul\":10074:10191   */\n    tag_750:\n        /* \"#utility.yul\":10215:10278   */\n      tag_752\n        /* \"#utility.yul\":10270:10277   */\n      dup8\n        /* \"#utility.yul\":10261:10267   */\n      dup3\n        /* \"#utility.yul\":10250:10259   */\n      dup9\n        /* \"#utility.yul\":10246:10268   */\n      add\n        /* \"#utility.yul\":10215:10278   */\n      tag_543\n      jump\t// in\n    tag_752:\n        /* \"#utility.yul\":10205:10278   */\n      swap5\n      pop\n        /* \"#utility.yul\":10001:10288   */\n      pop\n        /* \"#utility.yul\":10355:10357   */\n      0x20\n        /* \"#utility.yul\":10344:10353   */\n      dup6\n        /* \"#utility.yul\":10340:10358   */\n      add\n        /* \"#utility.yul\":10327:10359   */\n      calldataload\n        /* \"#utility.yul\":10386:10404   */\n      0xffffffffffffffff\n        /* \"#utility.yul\":10378:10384   */\n      dup2\n        /* \"#utility.yul\":10375:10405   */\n      gt\n        /* \"#utility.yul\":10372:10489   */\n      iszero\n      tag_753\n      jumpi\n        /* \"#utility.yul\":10408:10487   */\n      tag_754\n      tag_520\n      jump\t// in\n    tag_754:\n        /* \"#utility.yul\":10372:10489   */\n    tag_753:\n        /* \"#utility.yul\":10513:10576   */\n      tag_755\n        /* \"#utility.yul\":10568:10575   */\n      dup8\n        /* \"#utility.yul\":10559:10565   */\n      dup3\n        /* \"#utility.yul\":10548:10557   */\n      dup9\n        /* \"#utility.yul\":10544:10566   */\n      add\n        /* \"#utility.yul\":10513:10576   */\n      tag_543\n      jump\t// in\n    tag_755:\n        /* \"#utility.yul\":10503:10576   */\n      swap4\n      pop\n        /* \"#utility.yul\":10298:10586   */\n      pop\n        /* \"#utility.yul\":10625:10627   */\n      0x40\n        /* \"#utility.yul\":10651:10704   */\n      tag_756\n        /* \"#utility.yul\":10696:10703   */\n      dup8\n        /* \"#utility.yul\":10687:10693   */\n      dup3\n        /* \"#utility.yul\":10676:10685   */\n      dup9\n        /* \"#utility.yul\":10672:10694   */\n      add\n        /* \"#utility.yul\":10651:10704   */\n      tag_523\n      jump\t// in\n    tag_756:\n        /* \"#utility.yul\":10641:10704   */\n      swap3\n      pop\n        /* \"#utility.yul\":10596:10714   */\n      pop\n        /* \"#utility.yul\":10753:10755   */\n      0x60\n        /* \"#utility.yul\":10779:10832   */\n      tag_757\n        /* \"#utility.yul\":10824:10831   */\n      dup8\n        /* \"#utility.yul\":10815:10821   */\n      dup3\n        /* \"#utility.yul\":10804:10813   */\n      dup9\n        /* \"#utility.yul\":10800:10822   */\n      add\n        /* \"#utility.yul\":10779:10832   */\n      tag_523\n      jump\t// in\n    tag_757:\n        /* \"#utility.yul\":10769:10832   */\n      swap2\n      pop\n        /* \"#utility.yul\":10724:10842   */\n      pop\n        /* \"#utility.yul\":9724:10849   */\n      swap3\n      swap6\n      swap2\n      swap5\n      pop\n      swap3\n      pop\n      jump\t// out\n        /* \"#utility.yul\":10855:11035   */\n    tag_191:\n        /* \"#utility.yul\":10903:10980   */\n      0x4e487b7100000000000000000000000000000000000000000000000000000000\n        /* \"#utility.yul\":10900:10901   */\n      0x00\n        /* \"#utility.yul\":10893:10981   */\n      mstore\n        /* \"#utility.yul\":11000:11004   */\n      0x21\n        /* \"#utility.yul\":10997:10998   */\n      0x04\n        /* \"#utility.yul\":10990:11005   */\n      mstore\n        /* \"#utility.yul\":11024:11028   */\n      0x24\n        /* \"#utility.yul\":11021:11022   */\n      0x00\n        /* \"#utility.yul\":11014:11029   */\n      revert\n        /* \"#utility.yul\":11041:11162   */\n    tag_550:\n        /* \"#utility.yul\":11130:11131   */\n      0x03\n        /* \"#utility.yul\":11123:11128   */\n      dup2\n        /* \"#utility.yul\":11120:11132   */\n      lt\n        /* \"#utility.yul\":11110:11156   */\n      tag_760\n      jumpi\n        /* \"#utility.yul\":11136:11154   */\n      tag_761\n      tag_191\n      jump\t// in\n    tag_761:\n        /* \"#utility.yul\":11110:11156   */\n    tag_760:\n        /* \"#utility.yul\":11041:11162   */\n      pop\n      jump\t// out\n        /* \"#utility.yul\":11168:11311   */\n    tag_551:\n        /* \"#utility.yul\":11221:11228   */\n      0x00\n        /* \"#utility.yul\":11250:11255   */\n      dup2\n        /* \"#utility.yul\":11239:11255   */\n      swap1\n      pop\n        /* \"#utility.yul\":11256:11305   */\n      tag_763\n        /* \"#utility.yul\":11299:11304   */\n      dup3\n        /* \"#utility.yul\":11256:11305   */\n      tag_550\n      jump\t// in\n    tag_763:\n        /* \"#utility.yul\":11168:11311   */\n      swap2\n      swap1\n      pop\n      jump\t// out\n        /* \"#utility.yul\":11317:11460   */\n    tag_552:\n        /* \"#utility.yul\":11381:11390   */\n      0x00\n        /* \"#utility.yul\":11414:11454   */\n      tag_765\n        /* \"#utility.yul\":11448:11453   */\n      dup3\n        /* \"#utility.yul\":11414:11454   */\n      tag_551\n      jump\t// in\n    tag_765:\n        /* \"#utility.yul\":11401:11454   */\n      swap1\n      pop\n        /* \"#utility.yul\":11317:11460   */\n      swap2\n      swap1\n      pop\n      jump\t// out\n        /* \"#utility.yul\":11466:11625   */\n    tag_553:\n        /* \"#utility.yul\":11567:11618   */\n      tag_767\n        /* \"#utility.yul\":11612:11617   */\n      dup2\n        /* \"#utility.yul\":11567:11618   */\n      tag_552\n      jump\t// in\n    tag_767:\n        /* \"#utility.yul\":11562:11565   */\n      dup3\n        /* \"#utility.yul\":11555:11619   */\n      mstore\n        /* \"#utility.yul\":11466:11625   */\n      pop\n      pop\n      jump\t// out\n        /* \"#utility.yul\":11631:11881   */\n    tag_126:\n        /* \"#utility.yul\":11738:11742   */\n      0x00\n        /* \"#utility.yul\":11776:11778   */\n      0x20\n        /* \"#utility.yul\":11765:11774   */\n      dup3\n        /* \"#utility.yul\":11761:11779   */\n      add\n        /* \"#utility.yul\":11753:11779   */\n      swap1\n      pop\n        /* \"#utility.yul\":11789:11874   */\n      tag_769\n        /* \"#utility.yul\":11871:11872   */\n      0x00\n        /* \"#utility.yul\":11860:11869   */\n      dup4\n        /* \"#utility.yul\":11856:11873   */\n      add\n        /* \"#utility.yul\":11847:11853   */\n      dup5\n        /* \"#utility.yul\":11789:11874   */\n      tag_553\n      jump\t// in\n    tag_769:\n        /* \"#utility.yul\":11631:11881   */\n      swap3\n      swap2\n      pop\n      pop\n      jump\t// out\n        /* \"#utility.yul\":11887:12426   */\n    tag_143:\n        /* \"#utility.yul\":11971:11977   */\n      0x00\n        /* \"#utility.yul\":12020:12022   */\n      0x20\n        /* \"#utility.yul\":12008:12017   */\n      dup3\n        /* \"#utility.yul\":11999:12006   */\n      dup5\n        /* \"#utility.yul\":11995:12018   */\n      sub\n        /* \"#utility.yul\":11991:12023   */\n      slt\n        /* \"#utility.yul\":11988:12107   */\n      iszero\n      tag_771\n      jumpi\n        /* \"#utility.yul\":12026:12105   */\n      tag_772\n      tag_519\n      jump\t// in\n    tag_772:\n        /* \"#utility.yul\":11988:12107   */\n    tag_771:\n        /* \"#utility.yul\":12174:12175   */\n      0x00\n        /* \"#utility.yul\":12163:12172   */\n      dup3\n        /* \"#utility.yul\":12159:12176   */\n      add\n        /* \"#utility.yul\":12146:12177   */\n      calldataload\n        /* \"#utility.yul\":12204:12222   */\n      0xffffffffffffffff\n        /* \"#utility.yul\":12196:12202   */\n      dup2\n        /* \"#utility.yul\":12193:12223   */\n      gt\n        /* \"#utility.yul\":12190:12307   */\n      iszero\n      tag_773\n      jumpi\n        /* \"#utility.yul\":12226:12305   */\n      tag_774\n      tag_520\n      jump\t// in\n    tag_774:\n        /* \"#utility.yul\":12190:12307   */\n    tag_773:\n        /* \"#utility.yul\":12331:12409   */\n      tag_775\n        /* \"#utility.yul\":12401:12408   */\n      dup5\n        /* \"#utility.yul\":12392:12398   */\n      dup3\n        /* \"#utility.yul\":12381:12390   */\n      dup6\n        /* \"#utility.yul\":12377:12399   */\n      add\n        /* \"#utility.yul\":12331:12409   */\n      tag_547\n      jump\t// in\n    tag_775:\n        /* \"#utility.yul\":12321:12409   */\n      swap2\n      pop\n        /* \"#utility.yul\":12117:12419   */\n      pop\n        /* \"#utility.yul\":11887:12426   */\n      swap3\n      swap2\n      pop\n      pop\n      jump\t// out\n        /* \"#utility.yul\":12432:12546   */\n    tag_554:\n        /* \"#utility.yul\":12499:12505   */\n      0x00\n        /* \"#utility.yul\":12533:12538   */\n      dup2\n        /* \"#utility.yul\":12527:12539   */\n      mload\n        /* \"#utility.yul\":12517:12539   */\n      swap1\n      pop\n        /* \"#utility.yul\":12432:12546   */\n      swap2\n      swap1\n      pop\n      jump\t// out\n        /* \"#utility.yul\":12552:12736   */\n    tag_555:\n        /* \"#utility.yul\":12651:12662   */\n      0x00\n        /* \"#utility.yul\":12685:12691   */\n      dup3\n        /* \"#utility.yul\":12680:12683   */\n      dup3\n        /* \"#utility.yul\":12673:12692   */\n      mstore\n        /* \"#utility.yul\":12725:12729   */\n      0x20\n        /* \"#utility.yul\":12720:12723   */\n      dup3\n        /* \"#utility.yul\":12716:12730   */\n      add\n        /* \"#utility.yul\":12701:12730   */\n      swap1\n      pop\n        /* \"#utility.yul\":12552:12736   */\n      swap3\n      swap2\n      pop\n      pop\n      jump\t// out\n        /* \"#utility.yul\":12742:12874   */\n    tag_556:\n        /* \"#utility.yul\":12809:12813   */\n      0x00\n        /* \"#utility.yul\":12832:12835   */\n      dup2\n        /* \"#utility.yul\":12824:12835   */\n      swap1\n      pop\n        /* \"#utility.yul\":12862:12866   */\n      0x20\n        /* \"#utility.yul\":12857:12860   */\n      dup3\n        /* \"#utility.yul\":12853:12867   */\n      add\n        /* \"#utility.yul\":12845:12867   */\n      swap1\n      pop\n        /* \"#utility.yul\":12742:12874   */\n      swap2\n      swap1\n      pop\n      jump\t// out\n        /* \"#utility.yul\":12880:12988   */\n    tag_557:\n        /* \"#utility.yul\":12957:12981   */\n      tag_780\n        /* \"#utility.yul\":12975:12980   */\n      dup2\n        /* \"#utility.yul\":12957:12981   */\n      tag_524\n      jump\t// in\n    tag_780:\n        /* \"#utility.yul\":12952:12955   */\n      dup3\n        /* \"#utility.yul\":12945:12982   */\n      mstore\n        /* \"#utility.yul\":12880:12988   */\n      pop\n      pop\n      jump\t// out\n        /* \"#utility.yul\":12994:13173   */\n    tag_558:\n        /* \"#utility.yul\":13063:13073   */\n      0x00\n        /* \"#utility.yul\":13084:13130   */\n      tag_782\n        /* \"#utility.yul\":13126:13129   */\n      dup4\n        /* \"#utility.yul\":13118:13124   */\n      dup4\n        /* \"#utility.yul\":13084:13130   */\n      tag_557\n      jump\t// in\n    tag_782:\n        /* \"#utility.yul\":13162:13166   */\n      0x20\n        /* \"#utility.yul\":13157:13160   */\n      dup4\n        /* \"#utility.yul\":13153:13167   */\n      add\n        /* \"#utility.yul\":13139:13167   */\n      swap1\n      pop\n        /* \"#utility.yul\":12994:13173   */\n      swap3\n      swap2\n      pop\n      pop\n      jump\t// out\n        /* \"#utility.yul\":13179:13292   */\n    tag_559:\n        /* \"#utility.yul\":13249:13253   */\n      0x00\n        /* \"#utility.yul\":13281:13285   */\n      0x20\n        /* \"#utility.yul\":13276:13279   */\n      dup3\n        /* \"#utility.yul\":13272:13286   */\n      add\n        /* \"#utility.yul\":13264:13286   */\n      swap1\n      pop\n        /* \"#utility.yul\":13179:13292   */\n      swap2\n      swap1\n      pop\n      jump\t// out\n        /* \"#utility.yul\":13328:14060   */\n    tag_560:\n        /* \"#utility.yul\":13447:13450   */\n      0x00\n        /* \"#utility.yul\":13476:13530   */\n      tag_785\n        /* \"#utility.yul\":13524:13529   */\n      dup3\n        /* \"#utility.yul\":13476:13530   */\n      tag_554\n      jump\t// in\n    tag_785:\n        /* \"#utility.yul\":13546:13632   */\n      tag_786\n        /* \"#utility.yul\":13625:13631   */\n      dup2\n        /* \"#utility.yul\":13620:13623   */\n      dup6\n        /* \"#utility.yul\":13546:13632   */\n      tag_555\n      jump\t// in\n    tag_786:\n        /* \"#utility.yul\":13539:13632   */\n      swap4\n      pop\n        /* \"#utility.yul\":13656:13712   */\n      tag_787\n        /* \"#utility.yul\":13706:13711   */\n      dup4\n        /* \"#utility.yul\":13656:13712   */\n      tag_556\n      jump\t// in\n    tag_787:\n        /* \"#utility.yul\":13735:13742   */\n      dup1\n        /* \"#utility.yul\":13766:13767   */\n      0x00\n        /* \"#utility.yul\":13751:14035   */\n    tag_788:\n        /* \"#utility.yul\":13776:13782   */\n      dup4\n        /* \"#utility.yul\":13773:13774   */\n      dup2\n        /* \"#utility.yul\":13770:13783   */\n      lt\n        /* \"#utility.yul\":13751:14035   */\n      iszero\n      tag_790\n      jumpi\n        /* \"#utility.yul\":13852:13858   */\n      dup2\n        /* \"#utility.yul\":13846:13859   */\n      mload\n        /* \"#utility.yul\":13879:13942   */\n      tag_791\n        /* \"#utility.yul\":13938:13941   */\n      dup9\n        /* \"#utility.yul\":13923:13936   */\n      dup3\n        /* \"#utility.yul\":13879:13942   */\n      tag_558\n      jump\t// in\n    tag_791:\n        /* \"#utility.yul\":13872:13942   */\n      swap8\n      pop\n        /* \"#utility.yul\":13965:14025   */\n      tag_792\n        /* \"#utility.yul\":14018:14024   */\n      dup4\n        /* \"#utility.yul\":13965:14025   */\n      tag_559\n      jump\t// in\n    tag_792:\n        /* \"#utility.yul\":13955:14025   */\n      swap3\n      pop\n        /* \"#utility.yul\":13811:14035   */\n      pop\n        /* \"#utility.yul\":13798:13799   */\n      0x01\n        /* \"#utility.yul\":13795:13796   */\n      dup2\n        /* \"#utility.yul\":13791:13800   */\n      add\n        /* \"#utility.yul\":13786:13800   */\n      swap1\n      pop\n        /* \"#utility.yul\":13751:14035   */\n      jump(tag_788)\n    tag_790:\n        /* \"#utility.yul\":13755:13769   */\n      pop\n        /* \"#utility.yul\":14051:14054   */\n      dup6\n        /* \"#utility.yul\":14044:14054   */\n      swap4\n      pop\n        /* \"#utility.yul\":13452:14060   */\n      pop\n      pop\n      pop\n        /* \"#utility.yul\":13328:14060   */\n      swap3\n      swap2\n      pop\n      pop\n      jump\t// out\n        /* \"#utility.yul\":14066:14439   */\n    tag_146:\n        /* \"#utility.yul\":14209:14213   */\n      0x00\n        /* \"#utility.yul\":14247:14249   */\n      0x20\n        /* \"#utility.yul\":14236:14245   */\n      dup3\n        /* \"#utility.yul\":14232:14250   */\n      add\n        /* \"#utility.yul\":14224:14250   */\n      swap1\n      pop\n        /* \"#utility.yul\":14296:14305   */\n      dup2\n        /* \"#utility.yul\":14290:14294   */\n      dup2\n        /* \"#utility.yul\":14286:14306   */\n      sub\n        /* \"#utility.yul\":14282:14283   */\n      0x00\n        /* \"#utility.yul\":14271:14280   */\n      dup4\n        /* \"#utility.yul\":14267:14284   */\n      add\n        /* \"#utility.yul\":14260:14307   */\n      mstore\n        /* \"#utility.yul\":14324:14432   */\n      tag_794\n        /* \"#utility.yul\":14427:14431   */\n      dup2\n        /* \"#utility.yul\":14418:14424   */\n      dup5\n        /* \"#utility.yul\":14324:14432   */\n      tag_560\n      jump\t// in\n    tag_794:\n        /* \"#utility.yul\":14316:14432   */\n      swap1\n      pop\n        /* \"#utility.yul\":14066:14439   */\n      swap3\n      swap2\n      pop\n      pop\n      jump\t// out\n        /* \"#utility.yul\":14445:15244   */\n    tag_159:\n        /* \"#utility.yul\":14532:14538   */\n      0x00\n        /* \"#utility.yul\":14540:14546   */\n      dup1\n        /* \"#utility.yul\":14548:14554   */\n      0x00\n        /* \"#utility.yul\":14597:14599   */\n      0x60\n        /* \"#utility.yul\":14585:14594   */\n      dup5\n        /* \"#utility.yul\":14576:14583   */\n      dup7\n        /* \"#utility.yul\":14572:14595   */\n      sub\n        /* \"#utility.yul\":14568:14600   */\n      slt\n        /* \"#utility.yul\":14565:14684   */\n      iszero\n      tag_796\n      jumpi\n        /* \"#utility.yul\":14603:14682   */\n      tag_797\n      tag_519\n      jump\t// in\n    tag_797:\n        /* \"#utility.yul\":14565:14684   */\n    tag_796:\n        /* \"#utility.yul\":14723:14724   */\n      0x00\n        /* \"#utility.yul\":14748:14801   */\n      tag_798\n        /* \"#utility.yul\":14793:14800   */\n      dup7\n        /* \"#utility.yul\":14784:14790   */\n      dup3\n        /* \"#utility.yul\":14773:14782   */\n      dup8\n        /* \"#utility.yul\":14769:14791   */\n      add\n        /* \"#utility.yul\":14748:14801   */\n      tag_526\n      jump\t// in\n    tag_798:\n        /* \"#utility.yul\":14738:14801   */\n      swap4\n      pop\n        /* \"#utility.yul\":14694:14811   */\n      pop\n        /* \"#utility.yul\":14850:14852   */\n      0x20\n        /* \"#utility.yul\":14876:14929   */\n      tag_799\n        /* \"#utility.yul\":14921:14928   */\n      dup7\n        /* \"#utility.yul\":14912:14918   */\n      dup3\n        /* \"#utility.yul\":14901:14910   */\n      dup8\n        /* \"#utility.yul\":14897:14919   */\n      add\n        /* \"#utility.yul\":14876:14929   */\n      tag_523\n      jump\t// in\n    tag_799:\n        /* \"#utility.yul\":14866:14929   */\n      swap3\n      pop\n        /* \"#utility.yul\":14821:14939   */\n      pop\n        /* \"#utility.yul\":15006:15008   */\n      0x40\n        /* \"#utility.yul\":14995:15004   */\n      dup5\n        /* \"#utility.yul\":14991:15009   */\n      add\n        /* \"#utility.yul\":14978:15010   */\n      calldataload\n        /* \"#utility.yul\":15037:15055   */\n      0xffffffffffffffff\n        /* \"#utility.yul\":15029:15035   */\n      dup2\n        /* \"#utility.yul\":15026:15056   */\n      gt\n        /* \"#utility.yul\":15023:15140   */\n      iszero\n      tag_800\n      jumpi\n        /* \"#utility.yul\":15059:15138   */\n      tag_801\n      tag_520\n      jump\t// in\n    tag_801:\n        /* \"#utility.yul\":15023:15140   */\n    tag_800:\n        /* \"#utility.yul\":15164:15227   */\n      tag_802\n        /* \"#utility.yul\":15219:15226   */\n      dup7\n        /* \"#utility.yul\":15210:15216   */\n      dup3\n        /* \"#utility.yul\":15199:15208   */\n      dup8\n        /* \"#utility.yul\":15195:15217   */\n      add\n        /* \"#utility.yul\":15164:15227   */\n      tag_543\n      jump\t// in\n    tag_802:\n        /* \"#utility.yul\":15154:15227   */\n      swap2\n      pop\n        /* \"#utility.yul\":14949:15237   */\n      pop\n        /* \"#utility.yul\":14445:15244   */\n      swap3\n      pop\n      swap3\n      pop\n      swap3\n      jump\t// out\n        /* \"#utility.yul\":15250:15389   */\n    tag_561:\n        /* \"#utility.yul\":15342:15348   */\n      0x00\n        /* \"#utility.yul\":15376:15381   */\n      dup2\n        /* \"#utility.yul\":15370:15382   */\n      mload\n        /* \"#utility.yul\":15360:15382   */\n      swap1\n      pop\n        /* \"#utility.yul\":15250:15389   */\n      swap2\n      swap1\n      pop\n      jump\t// out\n        /* \"#utility.yul\":15395:15604   */\n    tag_562:\n        /* \"#utility.yul\":15519:15530   */\n      0x00\n        /* \"#utility.yul\":15553:15559   */\n      dup3\n        /* \"#utility.yul\":15548:15551   */\n      dup3\n        /* \"#utility.yul\":15541:15560   */\n      mstore\n        /* \"#utility.yul\":15593:15597   */\n      0x20\n        /* \"#utility.yul\":15588:15591   */\n      dup3\n        /* \"#utility.yul\":15584:15598   */\n      add\n        /* \"#utility.yul\":15569:15598   */\n      swap1\n      pop\n        /* \"#utility.yul\":15395:15604   */\n      swap3\n      swap2\n      pop\n      pop\n      jump\t// out\n        /* \"#utility.yul\":15610:15767   */\n    tag_563:\n        /* \"#utility.yul\":15702:15706   */\n      0x00\n        /* \"#utility.yul\":15725:15728   */\n      dup2\n        /* \"#utility.yul\":15717:15728   */\n      swap1\n      pop\n        /* \"#utility.yul\":15755:15759   */\n      0x20\n        /* \"#utility.yul\":15750:15753   */\n      dup3\n        /* \"#utility.yul\":15746:15760   */\n      add\n        /* \"#utility.yul\":15738:15760   */\n      swap1\n      pop\n        /* \"#utility.yul\":15610:15767   */\n      swap2\n      swap1\n      pop\n      jump\t// out\n        /* \"#utility.yul\":15773:15881   */\n    tag_564:\n        /* \"#utility.yul\":15850:15874   */\n      tag_807\n        /* \"#utility.yul\":15868:15873   */\n      dup2\n        /* \"#utility.yul\":15850:15874   */\n      tag_521\n      jump\t// in\n    tag_807:\n        /* \"#utility.yul\":15845:15848   */\n      dup3\n        /* \"#utility.yul\":15838:15875   */\n      mstore\n        /* \"#utility.yul\":15773:15881   */\n      pop\n      pop\n      jump\t// out\n        /* \"#utility.yul\":15887:15986   */\n    tag_565:\n        /* \"#utility.yul\":15939:15945   */\n      0x00\n        /* \"#utility.yul\":15973:15978   */\n      dup2\n        /* \"#utility.yul\":15967:15979   */\n      mload\n        /* \"#utility.yul\":15957:15979   */\n      swap1\n      pop\n        /* \"#utility.yul\":15887:15986   */\n      swap2\n      swap1\n      pop\n      jump\t// out\n        /* \"#utility.yul\":15992:16151   */\n    tag_566:\n        /* \"#utility.yul\":16066:16077   */\n      0x00\n        /* \"#utility.yul\":16100:16106   */\n      dup3\n        /* \"#utility.yul\":16095:16098   */\n      dup3\n        /* \"#utility.yul\":16088:16107   */\n      mstore\n        /* \"#utility.yul\":16140:16144   */\n      0x20\n        /* \"#utility.yul\":16135:16138   */\n      dup3\n        /* \"#utility.yul\":16131:16145   */\n      add\n        /* \"#utility.yul\":16116:16145   */\n      swap1\n      pop\n        /* \"#utility.yul\":15992:16151   */\n      swap3\n      swap2\n      pop\n      pop\n      jump\t// out\n        /* \"#utility.yul\":16157:16296   */\n    tag_567:\n        /* \"#utility.yul\":16246:16252   */\n      dup3\n        /* \"#utility.yul\":16241:16244   */\n      dup2\n        /* \"#utility.yul\":16236:16239   */\n      dup4\n        /* \"#utility.yul\":16230:16253   */\n      mcopy\n        /* \"#utility.yul\":16287:16288   */\n      0x00\n        /* \"#utility.yul\":16278:16284   */\n      dup4\n        /* \"#utility.yul\":16273:16276   */\n      dup4\n        /* \"#utility.yul\":16269:16285   */\n      add\n        /* \"#utility.yul\":16262:16289   */\n      mstore\n        /* \"#utility.yul\":16157:16296   */\n      pop\n      pop\n      pop\n      jump\t// out\n        /* \"#utility.yul\":16302:16659   */\n    tag_568:\n        /* \"#utility.yul\":16380:16383   */\n      0x00\n        /* \"#utility.yul\":16408:16447   */\n      tag_812\n        /* \"#utility.yul\":16441:16446   */\n      dup3\n        /* \"#utility.yul\":16408:16447   */\n      tag_565\n      jump\t// in\n    tag_812:\n        /* \"#utility.yul\":16463:16524   */\n      tag_813\n        /* \"#utility.yul\":16517:16523   */\n      dup2\n        /* \"#utility.yul\":16512:16515   */\n      dup6\n        /* \"#utility.yul\":16463:16524   */\n      tag_566\n      jump\t// in\n    tag_813:\n        /* \"#utility.yul\":16456:16524   */\n      swap4\n      pop\n        /* \"#utility.yul\":16533:16598   */\n      tag_814\n        /* \"#utility.yul\":16591:16597   */\n      dup2\n        /* \"#utility.yul\":16586:16589   */\n      dup6\n        /* \"#utility.yul\":16579:16583   */\n      0x20\n        /* \"#utility.yul\":16572:16577   */\n      dup7\n        /* \"#utility.yul\":16568:16584   */\n      add\n        /* \"#utility.yul\":16533:16598   */\n      tag_567\n      jump\t// in\n    tag_814:\n        /* \"#utility.yul\":16623:16652   */\n      tag_815\n        /* \"#utility.yul\":16645:16651   */\n      dup2\n        /* \"#utility.yul\":16623:16652   */\n      tag_537\n      jump\t// in\n    tag_815:\n        /* \"#utility.yul\":16618:16621   */\n      dup5\n        /* \"#utility.yul\":16614:16653   */\n      add\n        /* \"#utility.yul\":16607:16653   */\n      swap2\n      pop\n        /* \"#utility.yul\":16384:16659   */\n      pop\n        /* \"#utility.yul\":16302:16659   */\n      swap3\n      swap2\n      pop\n      pop\n      jump\t// out\n        /* \"#utility.yul\":16719:17341   */\n    tag_569:\n        /* \"#utility.yul\":16828:16831   */\n      0x00\n        /* \"#utility.yul\":16864:16868   */\n      0x40\n        /* \"#utility.yul\":16859:16862   */\n      dup4\n        /* \"#utility.yul\":16855:16869   */\n      add\n        /* \"#utility.yul\":16960:16964   */\n      0x00\n        /* \"#utility.yul\":16953:16958   */\n      dup4\n        /* \"#utility.yul\":16949:16965   */\n      add\n        /* \"#utility.yul\":16943:16966   */\n      mload\n        /* \"#utility.yul\":16979:17042   */\n      tag_817\n        /* \"#utility.yul\":17036:17040   */\n      0x00\n        /* \"#utility.yul\":17031:17034   */\n      dup7\n        /* \"#utility.yul\":17027:17041   */\n      add\n        /* \"#utility.yul\":17013:17025   */\n      dup3\n        /* \"#utility.yul\":16979:17042   */\n      tag_564\n      jump\t// in\n    tag_817:\n        /* \"#utility.yul\":16879:17052   */\n      pop\n        /* \"#utility.yul\":17151:17155   */\n      0x20\n        /* \"#utility.yul\":17144:17149   */\n      dup4\n        /* \"#utility.yul\":17140:17156   */\n      add\n        /* \"#utility.yul\":17134:17157   */\n      mload\n        /* \"#utility.yul\":17204:17207   */\n      dup5\n        /* \"#utility.yul\":17198:17202   */\n      dup3\n        /* \"#utility.yul\":17194:17208   */\n      sub\n        /* \"#utility.yul\":17187:17191   */\n      0x20\n        /* \"#utility.yul\":17182:17185   */\n      dup7\n        /* \"#utility.yul\":17178:17192   */\n      add\n        /* \"#utility.yul\":17171:17209   */\n      mstore\n        /* \"#utility.yul\":17230:17303   */\n      tag_818\n        /* \"#utility.yul\":17298:17302   */\n      dup3\n        /* \"#utility.yul\":17284:17296   */\n      dup3\n        /* \"#utility.yul\":17230:17303   */\n      tag_568\n      jump\t// in\n    tag_818:\n        /* \"#utility.yul\":17222:17303   */\n      swap2\n      pop\n        /* \"#utility.yul\":17062:17314   */\n      pop\n        /* \"#utility.yul\":17331:17335   */\n      dup1\n        /* \"#utility.yul\":17324:17335   */\n      swap2\n      pop\n        /* \"#utility.yul\":16833:17341   */\n      pop\n        /* \"#utility.yul\":16719:17341   */\n      swap3\n      swap2\n      pop\n      pop\n      jump\t// out\n        /* \"#utility.yul\":17347:17603   */\n    tag_570:\n        /* \"#utility.yul\":17466:17476   */\n      0x00\n        /* \"#utility.yul\":17501:17597   */\n      tag_820\n        /* \"#utility.yul\":17593:17596   */\n      dup4\n        /* \"#utility.yul\":17585:17591   */\n      dup4\n        /* \"#utility.yul\":17501:17597   */\n      tag_569\n      jump\t// in\n    tag_820:\n        /* \"#utility.yul\":17487:17597   */\n      swap1\n      pop\n        /* \"#utility.yul\":17347:17603   */\n      swap3\n      swap2\n      pop\n      pop\n      jump\t// out\n        /* \"#utility.yul\":17609:17747   */\n    tag_571:\n        /* \"#utility.yul\":17704:17708   */\n      0x00\n        /* \"#utility.yul\":17736:17740   */\n      0x20\n        /* \"#utility.yul\":17731:17734   */\n      dup3\n        /* \"#utility.yul\":17727:17741   */\n      add\n        /* \"#utility.yul\":17719:17741   */\n      swap1\n      pop\n        /* \"#utility.yul\":17609:17747   */\n      swap2\n      swap1\n      pop\n      jump\t// out\n        /* \"#utility.yul\":17811:18922   */\n    tag_572:\n        /* \"#utility.yul\":17980:17983   */\n      0x00\n        /* \"#utility.yul\":18009:18088   */\n      tag_823\n        /* \"#utility.yul\":18082:18087   */\n      dup3\n        /* \"#utility.yul\":18009:18088   */\n      tag_561\n      jump\t// in\n    tag_823:\n        /* \"#utility.yul\":18104:18215   */\n      tag_824\n        /* \"#utility.yul\":18208:18214   */\n      dup2\n        /* \"#utility.yul\":18203:18206   */\n      dup6\n        /* \"#utility.yul\":18104:18215   */\n      tag_562\n      jump\t// in\n    tag_824:\n        /* \"#utility.yul\":18097:18215   */\n      swap4\n      pop\n        /* \"#utility.yul\":18241:18244   */\n      dup4\n        /* \"#utility.yul\":18286:18290   */\n      0x20\n        /* \"#utility.yul\":18278:18284   */\n      dup3\n        /* \"#utility.yul\":18274:18291   */\n      mul\n        /* \"#utility.yul\":18269:18272   */\n      dup6\n        /* \"#utility.yul\":18265:18292   */\n      add\n        /* \"#utility.yul\":18316:18397   */\n      tag_825\n        /* \"#utility.yul\":18391:18396   */\n      dup6\n        /* \"#utility.yul\":18316:18397   */\n      tag_563\n      jump\t// in\n    tag_825:\n        /* \"#utility.yul\":18420:18427   */\n      dup1\n        /* \"#utility.yul\":18451:18452   */\n      0x00\n        /* \"#utility.yul\":18436:18877   */\n    tag_826:\n        /* \"#utility.yul\":18461:18467   */\n      dup6\n        /* \"#utility.yul\":18458:18459   */\n      dup2\n        /* \"#utility.yul\":18455:18468   */\n      lt\n        /* \"#utility.yul\":18436:18877   */\n      iszero\n      tag_828\n      jumpi\n        /* \"#utility.yul\":18532:18541   */\n      dup5\n        /* \"#utility.yul\":18526:18530   */\n      dup5\n        /* \"#utility.yul\":18522:18542   */\n      sub\n        /* \"#utility.yul\":18517:18520   */\n      dup10\n        /* \"#utility.yul\":18510:18543   */\n      mstore\n        /* \"#utility.yul\":18583:18589   */\n      dup2\n        /* \"#utility.yul\":18577:18590   */\n      mload\n        /* \"#utility.yul\":18611:18725   */\n      tag_829\n        /* \"#utility.yul\":18720:18724   */\n      dup6\n        /* \"#utility.yul\":18705:18718   */\n      dup3\n        /* \"#utility.yul\":18611:18725   */\n      tag_570\n      jump\t// in\n    tag_829:\n        /* \"#utility.yul\":18603:18725   */\n      swap5\n      pop\n        /* \"#utility.yul\":18748:18833   */\n      tag_830\n        /* \"#utility.yul\":18826:18832   */\n      dup4\n        /* \"#utility.yul\":18748:18833   */\n      tag_571\n      jump\t// in\n    tag_830:\n        /* \"#utility.yul\":18738:18833   */\n      swap3\n      pop\n        /* \"#utility.yul\":18862:18866   */\n      0x20\n        /* \"#utility.yul\":18857:18860   */\n      dup11\n        /* \"#utility.yul\":18853:18867   */\n      add\n        /* \"#utility.yul\":18846:18867   */\n      swap10\n      pop\n        /* \"#utility.yul\":18496:18877   */\n      pop\n        /* \"#utility.yul\":18483:18484   */\n      0x01\n        /* \"#utility.yul\":18480:18481   */\n      dup2\n        /* \"#utility.yul\":18476:18485   */\n      add\n        /* \"#utility.yul\":18471:18485   */\n      swap1\n      pop\n        /* \"#utility.yul\":18436:18877   */\n      jump(tag_826)\n    tag_828:\n        /* \"#utility.yul\":18440:18454   */\n      pop\n        /* \"#utility.yul\":18893:18897   */\n      dup3\n        /* \"#utility.yul\":18886:18897   */\n      swap8\n      pop\n        /* \"#utility.yul\":18913:18916   */\n      dup8\n        /* \"#utility.yul\":18906:18916   */\n      swap6\n      pop\n        /* \"#utility.yul\":17985:18922   */\n      pop\n      pop\n      pop\n      pop\n      pop\n        /* \"#utility.yul\":17811:18922   */\n      swap3\n      swap2\n      pop\n      pop\n      jump\t// out\n        /* \"#utility.yul\":18928:19401   */\n    tag_166:\n        /* \"#utility.yul\":19121:19125   */\n      0x00\n        /* \"#utility.yul\":19159:19161   */\n      0x20\n        /* \"#utility.yul\":19148:19157   */\n      dup3\n        /* \"#utility.yul\":19144:19162   */\n      add\n        /* \"#utility.yul\":19136:19162   */\n      swap1\n      pop\n        /* \"#utility.yul\":19208:19217   */\n      dup2\n        /* \"#utility.yul\":19202:19206   */\n      dup2\n        /* \"#utility.yul\":19198:19218   */\n      sub\n        /* \"#utility.yul\":19194:19195   */\n      0x00\n        /* \"#utility.yul\":19183:19192   */\n      dup4\n        /* \"#utility.yul\":19179:19196   */\n      add\n        /* \"#utility.yul\":19172:19219   */\n      mstore\n        /* \"#utility.yul\":19236:19394   */\n      tag_832\n        /* \"#utility.yul\":19389:19393   */\n      dup2\n        /* \"#utility.yul\":19380:19386   */\n      dup5\n        /* \"#utility.yul\":19236:19394   */\n      tag_572\n      jump\t// in\n    tag_832:\n        /* \"#utility.yul\":19228:19394   */\n      swap1\n      pop\n        /* \"#utility.yul\":18928:19401   */\n      swap3\n      swap2\n      pop\n      pop\n      jump\t// out\n        /* \"#utility.yul\":19407:19576   */\n    tag_573:\n        /* \"#utility.yul\":19491:19502   */\n      0x00\n        /* \"#utility.yul\":19525:19531   */\n      dup3\n        /* \"#utility.yul\":19520:19523   */\n      dup3\n        /* \"#utility.yul\":19513:19532   */\n      mstore\n        /* \"#utility.yul\":19565:19569   */\n      0x20\n        /* \"#utility.yul\":19560:19563   */\n      dup3\n        /* \"#utility.yul\":19556:19570   */\n      add\n        /* \"#utility.yul\":19541:19570   */\n      swap1\n      pop\n        /* \"#utility.yul\":19407:19576   */\n      swap3\n      swap2\n      pop\n      pop\n      jump\t// out\n        /* \"#utility.yul\":19582:19959   */\n    tag_574:\n        /* \"#utility.yul\":19670:19673   */\n      0x00\n        /* \"#utility.yul\":19698:19737   */\n      tag_835\n        /* \"#utility.yul\":19731:19736   */\n      dup3\n        /* \"#utility.yul\":19698:19737   */\n      tag_565\n      jump\t// in\n    tag_835:\n        /* \"#utility.yul\":19753:19824   */\n      tag_836\n        /* \"#utility.yul\":19817:19823   */\n      dup2\n        /* \"#utility.yul\":19812:19815   */\n      dup6\n        /* \"#utility.yul\":19753:19824   */\n      tag_573\n      jump\t// in\n    tag_836:\n        /* \"#utility.yul\":19746:19824   */\n      swap4\n      pop\n        /* \"#utility.yul\":19833:19898   */\n      tag_837\n        /* \"#utility.yul\":19891:19897   */\n      dup2\n        /* \"#utility.yul\":19886:19889   */\n      dup6\n        /* \"#utility.yul\":19879:19883   */\n      0x20\n        /* \"#utility.yul\":19872:19877   */\n      dup7\n        /* \"#utility.yul\":19868:19884   */\n      add\n        /* \"#utility.yul\":19833:19898   */\n      tag_567\n      jump\t// in\n    tag_837:\n        /* \"#utility.yul\":19923:19952   */\n      tag_838\n        /* \"#utility.yul\":19945:19951   */\n      dup2\n        /* \"#utility.yul\":19923:19952   */\n      tag_537\n      jump\t// in\n    tag_838:\n        /* \"#utility.yul\":19918:19921   */\n      dup5\n        /* \"#utility.yul\":19914:19953   */\n      add\n        /* \"#utility.yul\":19907:19953   */\n      swap2\n      pop\n        /* \"#utility.yul\":19674:19959   */\n      pop\n        /* \"#utility.yul\":19582:19959   */\n      swap3\n      swap2\n      pop\n      pop\n      jump\t// out\n        /* \"#utility.yul\":19965:21061   */\n    tag_176:\n        /* \"#utility.yul\":20280:20284   */\n      0x00\n        /* \"#utility.yul\":20318:20321   */\n      0xe0\n        /* \"#utility.yul\":20307:20316   */\n      dup3\n        /* \"#utility.yul\":20303:20322   */\n      add\n        /* \"#utility.yul\":20295:20322   */\n      swap1\n      pop\n        /* \"#utility.yul\":20368:20377   */\n      dup2\n        /* \"#utility.yul\":20362:20366   */\n      dup2\n        /* \"#utility.yul\":20358:20378   */\n      sub\n        /* \"#utility.yul\":20354:20355   */\n      0x00\n        /* \"#utility.yul\":20343:20352   */\n      dup4\n        /* \"#utility.yul\":20339:20356   */\n      add\n        /* \"#utility.yul\":20332:20379   */\n      mstore\n        /* \"#utility.yul\":20396:20474   */\n      tag_840\n        /* \"#utility.yul\":20469:20473   */\n      dup2\n        /* \"#utility.yul\":20460:20466   */\n      dup11\n        /* \"#utility.yul\":20396:20474   */\n      tag_574\n      jump\t// in\n    tag_840:\n        /* \"#utility.yul\":20388:20474   */\n      swap1\n      pop\n        /* \"#utility.yul\":20521:20530   */\n      dup2\n        /* \"#utility.yul\":20515:20519   */\n      dup2\n        /* \"#utility.yul\":20511:20531   */\n      sub\n        /* \"#utility.yul\":20506:20508   */\n      0x20\n        /* \"#utility.yul\":20495:20504   */\n      dup4\n        /* \"#utility.yul\":20491:20509   */\n      add\n        /* \"#utility.yul\":20484:20532   */\n      mstore\n        /* \"#utility.yul\":20549:20627   */\n      tag_841\n        /* \"#utility.yul\":20622:20626   */\n      dup2\n        /* \"#utility.yul\":20613:20619   */\n      dup10\n        /* \"#utility.yul\":20549:20627   */\n      tag_574\n      jump\t// in\n    tag_841:\n        /* \"#utility.yul\":20541:20627   */\n      swap1\n      pop\n        /* \"#utility.yul\":20637:20709   */\n      tag_842\n        /* \"#utility.yul\":20705:20707   */\n      0x40\n        /* \"#utility.yul\":20694:20703   */\n      dup4\n        /* \"#utility.yul\":20690:20708   */\n      add\n        /* \"#utility.yul\":20681:20687   */\n      dup9\n        /* \"#utility.yul\":20637:20709   */\n      tag_529\n      jump\t// in\n    tag_842:\n        /* \"#utility.yul\":20719:20791   */\n      tag_843\n        /* \"#utility.yul\":20787:20789   */\n      0x60\n        /* \"#utility.yul\":20776:20785   */\n      dup4\n        /* \"#utility.yul\":20772:20790   */\n      add\n        /* \"#utility.yul\":20763:20769   */\n      dup8\n        /* \"#utility.yul\":20719:20791   */\n      tag_532\n      jump\t// in\n    tag_843:\n        /* \"#utility.yul\":20801:20874   */\n      tag_844\n        /* \"#utility.yul\":20869:20872   */\n      0x80\n        /* \"#utility.yul\":20858:20867   */\n      dup4\n        /* \"#utility.yul\":20854:20873   */\n      add\n        /* \"#utility.yul\":20845:20851   */\n      dup7\n        /* \"#utility.yul\":20801:20874   */\n      tag_532\n      jump\t// in\n    tag_844:\n        /* \"#utility.yul\":20884:20957   */\n      tag_845\n        /* \"#utility.yul\":20952:20955   */\n      0xa0\n        /* \"#utility.yul\":20941:20950   */\n      dup4\n        /* \"#utility.yul\":20937:20956   */\n      add\n        /* \"#utility.yul\":20928:20934   */\n      dup6\n        /* \"#utility.yul\":20884:20957   */\n      tag_532\n      jump\t// in\n    tag_845:\n        /* \"#utility.yul\":20967:21054   */\n      tag_846\n        /* \"#utility.yul\":21049:21052   */\n      0xc0\n        /* \"#utility.yul\":21038:21047   */\n      dup4\n        /* \"#utility.yul\":21034:21053   */\n      add\n        /* \"#utility.yul\":21025:21031   */\n      dup5\n        /* \"#utility.yul\":20967:21054   */\n      tag_553\n      jump\t// in\n    tag_846:\n        /* \"#utility.yul\":19965:21061   */\n      swap9\n      swap8\n      pop\n      pop\n      pop\n      pop\n      pop\n      pop\n      pop\n      pop\n      jump\t// out\n        /* \"#utility.yul\":21067:21240   */\n    tag_575:\n        /* \"#utility.yul\":21207:21232   */\n      0x43616c6c6572206973206e6f7420746865206f776e6572000000000000000000\n        /* \"#utility.yul\":21203:21204   */\n      0x00\n        /* \"#utility.yul\":21195:21201   */\n      dup3\n        /* \"#utility.yul\":21191:21205   */\n      add\n        /* \"#utility.yul\":21184:21233   */\n      mstore\n        /* \"#utility.yul\":21067:21240   */\n      pop\n      jump\t// out\n        /* \"#utility.yul\":21246:21612   */\n    tag_576:\n        /* \"#utility.yul\":21388:21391   */\n      0x00\n        /* \"#utility.yul\":21409:21476   */\n      tag_849\n        /* \"#utility.yul\":21473:21475   */\n      0x17\n        /* \"#utility.yul\":21468:21471   */\n      dup4\n        /* \"#utility.yul\":21409:21476   */\n      tag_573\n      jump\t// in\n    tag_849:\n        /* \"#utility.yul\":21402:21476   */\n      swap2\n      pop\n        /* \"#utility.yul\":21485:21578   */\n      tag_850\n        /* \"#utility.yul\":21574:21577   */\n      dup3\n        /* \"#utility.yul\":21485:21578   */\n      tag_575\n      jump\t// in\n    tag_850:\n        /* \"#utility.yul\":21603:21605   */\n      0x20\n        /* \"#utility.yul\":21598:21601   */\n      dup3\n        /* \"#utility.yul\":21594:21606   */\n      add\n        /* \"#utility.yul\":21587:21606   */\n      swap1\n      pop\n        /* \"#utility.yul\":21246:21612   */\n      swap2\n      swap1\n      pop\n      jump\t// out\n        /* \"#utility.yul\":21618:22037   */\n    tag_180:\n        /* \"#utility.yul\":21784:21788   */\n      0x00\n        /* \"#utility.yul\":21822:21824   */\n      0x20\n        /* \"#utility.yul\":21811:21820   */\n      dup3\n        /* \"#utility.yul\":21807:21825   */\n      add\n        /* \"#utility.yul\":21799:21825   */\n      swap1\n      pop\n        /* \"#utility.yul\":21871:21880   */\n      dup2\n        /* \"#utility.yul\":21865:21869   */\n      dup2\n        /* \"#utility.yul\":21861:21881   */\n      sub\n        /* \"#utility.yul\":21857:21858   */\n      0x00\n        /* \"#utility.yul\":21846:21855   */\n      dup4\n        /* \"#utility.yul\":21842:21859   */\n      add\n        /* \"#utility.yul\":21835:21882   */\n      mstore\n        /* \"#utility.yul\":21899:22030   */\n      tag_852\n        /* \"#utility.yul\":22025:22029   */\n      dup2\n        /* \"#utility.yul\":21899:22030   */\n      tag_576\n      jump\t// in\n    tag_852:\n        /* \"#utility.yul\":21891:22030   */\n      swap1\n      pop\n        /* \"#utility.yul\":21618:22037   */\n      swap2\n      swap1\n      pop\n      jump\t// out\n        /* \"#utility.yul\":22043:22215   */\n    tag_577:\n        /* \"#utility.yul\":22183:22207   */\n      0x50726f6a65637420646f6573206e6f7420657869737400000000000000000000\n        /* \"#utility.yul\":22179:22180   */\n      0x00\n        /* \"#utility.yul\":22171:22177   */\n      dup3\n        /* \"#utility.yul\":22167:22181   */\n      add\n        /* \"#utility.yul\":22160:22208   */\n      mstore\n        /* \"#utility.yul\":22043:22215   */\n      pop\n      jump\t// out\n        /* \"#utility.yul\":22221:22587   */\n    tag_578:\n        /* \"#utility.yul\":22363:22366   */\n      0x00\n        /* \"#utility.yul\":22384:22451   */\n      tag_855\n        /* \"#utility.yul\":22448:22450   */\n      0x16\n        /* \"#utility.yul\":22443:22446   */\n      dup4\n        /* \"#utility.yul\":22384:22451   */\n      tag_573\n      jump\t// in\n    tag_855:\n        /* \"#utility.yul\":22377:22451   */\n      swap2\n      pop\n        /* \"#utility.yul\":22460:22553   */\n      tag_856\n        /* \"#utility.yul\":22549:22552   */\n      dup3\n        /* \"#utility.yul\":22460:22553   */\n      tag_577\n      jump\t// in\n    tag_856:\n        /* \"#utility.yul\":22578:22580   */\n      0x20\n        /* \"#utility.yul\":22573:22576   */\n      dup3\n        /* \"#utility.yul\":22569:22581   */\n      add\n        /* \"#utility.yul\":22562:22581   */\n      swap1\n      pop\n        /* \"#utility.yul\":22221:22587   */\n      swap2\n      swap1\n      pop\n      jump\t// out\n        /* \"#utility.yul\":22593:23012   */\n    tag_187:\n        /* \"#utility.yul\":22759:22763   */\n      0x00\n        /* \"#utility.yul\":22797:22799   */\n      0x20\n        /* \"#utility.yul\":22786:22795   */\n      dup3\n        /* \"#utility.yul\":22782:22800   */\n      add\n        /* \"#utility.yul\":22774:22800   */\n      swap1\n      pop\n        /* \"#utility.yul\":22846:22855   */\n      dup2\n        /* \"#utility.yul\":22840:22844   */\n      dup2\n        /* \"#utility.yul\":22836:22856   */\n      sub\n        /* \"#utility.yul\":22832:22833   */\n      0x00\n        /* \"#utility.yul\":22821:22830   */\n      dup4\n        /* \"#utility.yul\":22817:22834   */\n      add\n        /* \"#utility.yul\":22810:22857   */\n      mstore\n        /* \"#utility.yul\":22874:23005   */\n      tag_858\n        /* \"#utility.yul\":23000:23004   */\n      dup2\n        /* \"#utility.yul\":22874:23005   */\n      tag_578\n      jump\t// in\n    tag_858:\n        /* \"#utility.yul\":22866:23005   */\n      swap1\n      pop\n        /* \"#utility.yul\":22593:23012   */\n      swap2\n      swap1\n      pop\n      jump\t// out\n        /* \"#utility.yul\":23018:23188   */\n    tag_579:\n        /* \"#utility.yul\":23158:23180   */\n      0x50726f6a6563742069736e2774206661696c6564000000000000000000000000\n        /* \"#utility.yul\":23154:23155   */\n      0x00\n        /* \"#utility.yul\":23146:23152   */\n      dup3\n        /* \"#utility.yul\":23142:23156   */\n      add\n        /* \"#utility.yul\":23135:23181   */\n      mstore\n        /* \"#utility.yul\":23018:23188   */\n      pop\n      jump\t// out\n        /* \"#utility.yul\":23194:23560   */\n    tag_580:\n        /* \"#utility.yul\":23336:23339   */\n      0x00\n        /* \"#utility.yul\":23357:23424   */\n      tag_861\n        /* \"#utility.yul\":23421:23423   */\n      0x14\n        /* \"#utility.yul\":23416:23419   */\n      dup4\n        /* \"#utility.yul\":23357:23424   */\n      tag_573\n      jump\t// in\n    tag_861:\n        /* \"#utility.yul\":23350:23424   */\n      swap2\n      pop\n        /* \"#utility.yul\":23433:23526   */\n      tag_862\n        /* \"#utility.yul\":23522:23525   */\n      dup3\n        /* \"#utility.yul\":23433:23526   */\n      tag_579\n      jump\t// in\n    tag_862:\n        /* \"#utility.yul\":23551:23553   */\n      0x20\n        /* \"#utility.yul\":23546:23549   */\n      dup3\n        /* \"#utility.yul\":23542:23554   */\n      add\n        /* \"#utility.yul\":23535:23554   */\n      swap1\n      pop\n        /* \"#utility.yul\":23194:23560   */\n      swap2\n      swap1\n      pop\n      jump\t// out\n        /* \"#utility.yul\":23566:23985   */\n    tag_196:\n        /* \"#utility.yul\":23732:23736   */\n      0x00\n        /* \"#utility.yul\":23770:23772   */\n      0x20\n        /* \"#utility.yul\":23759:23768   */\n      dup3\n        /* \"#utility.yul\":23755:23773   */\n      add\n        /* \"#utility.yul\":23747:23773   */\n      swap1\n      pop\n        /* \"#utility.yul\":23819:23828   */\n      dup2\n        /* \"#utility.yul\":23813:23817   */\n      dup2\n        /* \"#utility.yul\":23809:23829   */\n      sub\n        /* \"#utility.yul\":23805:23806   */\n      0x00\n        /* \"#utility.yul\":23794:23803   */\n      dup4\n        /* \"#utility.yul\":23790:23807   */\n      add\n        /* \"#utility.yul\":23783:23830   */\n      mstore\n        /* \"#utility.yul\":23847:23978   */\n      tag_864\n        /* \"#utility.yul\":23973:23977   */\n      dup2\n        /* \"#utility.yul\":23847:23978   */\n      tag_580\n      jump\t// in\n    tag_864:\n        /* \"#utility.yul\":23839:23978   */\n      swap1\n      pop\n        /* \"#utility.yul\":23566:23985   */\n      swap2\n      swap1\n      pop\n      jump\t// out\n        /* \"#utility.yul\":23991:24171   */\n    tag_202:\n        /* \"#utility.yul\":24039:24116   */\n      0x4e487b7100000000000000000000000000000000000000000000000000000000\n        /* \"#utility.yul\":24036:24037   */\n      0x00\n        /* \"#utility.yul\":24029:24117   */\n      mstore\n        /* \"#utility.yul\":24136:24140   */\n      0x32\n        /* \"#utility.yul\":24133:24134   */\n      0x04\n        /* \"#utility.yul\":24126:24141   */\n      mstore\n        /* \"#utility.yul\":24160:24164   */\n      0x24\n        /* \"#utility.yul\":24157:24158   */\n      0x00\n        /* \"#utility.yul\":24150:24165   */\n      revert\n        /* \"#utility.yul\":24177:24357   */\n    tag_581:\n        /* \"#utility.yul\":24225:24302   */\n      0x4e487b7100000000000000000000000000000000000000000000000000000000\n        /* \"#utility.yul\":24222:24223   */\n      0x00\n        /* \"#utility.yul\":24215:24303   */\n      mstore\n        /* \"#utility.yul\":24322:24326   */\n      0x11\n        /* \"#utility.yul\":24319:24320   */\n      0x04\n        /* \"#utility.yul\":24312:24327   */\n      mstore\n        /* \"#utility.yul\":24346:24350   */\n      0x24\n        /* \"#utility.yul\":24343:24344   */\n      0x00\n        /* \"#utility.yul\":24336:24351   */\n      revert\n        /* \"#utility.yul\":24363:24554   */\n    tag_208:\n        /* \"#utility.yul\":24403:24406   */\n      0x00\n        /* \"#utility.yul\":24422:24442   */\n      tag_868\n        /* \"#utility.yul\":24440:24441   */\n      dup3\n        /* \"#utility.yul\":24422:24442   */\n      tag_521\n      jump\t// in\n    tag_868:\n        /* \"#utility.yul\":24417:24442   */\n      swap2\n      pop\n        /* \"#utility.yul\":24456:24476   */\n      tag_869\n        /* \"#utility.yul\":24474:24475   */\n      dup4\n        /* \"#utility.yul\":24456:24476   */\n      tag_521\n      jump\t// in\n    tag_869:\n        /* \"#utility.yul\":24451:24476   */\n      swap3\n      pop\n        /* \"#utility.yul\":24499:24500   */\n      dup3\n        /* \"#utility.yul\":24496:24497   */\n      dup3\n        /* \"#utility.yul\":24492:24501   */\n      add\n        /* \"#utility.yul\":24485:24501   */\n      swap1\n      pop\n        /* \"#utility.yul\":24520:24523   */\n      dup1\n        /* \"#utility.yul\":24517:24518   */\n      dup3\n        /* \"#utility.yul\":24514:24524   */\n      gt\n        /* \"#utility.yul\":24511:24547   */\n      iszero\n      tag_870\n      jumpi\n        /* \"#utility.yul\":24527:24545   */\n      tag_871\n      tag_581\n      jump\t// in\n    tag_871:\n        /* \"#utility.yul\":24511:24547   */\n    tag_870:\n        /* \"#utility.yul\":24363:24554   */\n      swap3\n      swap2\n      pop\n      pop\n      jump\t// out\n        /* \"#utility.yul\":24560:24678   */\n    tag_582:\n        /* \"#utility.yul\":24647:24671   */\n      tag_873\n        /* \"#utility.yul\":24665:24670   */\n      dup2\n        /* \"#utility.yul\":24647:24671   */\n      tag_524\n      jump\t// in\n    tag_873:\n        /* \"#utility.yul\":24642:24645   */\n      dup3\n        /* \"#utility.yul\":24635:24672   */\n      mstore\n        /* \"#utility.yul\":24560:24678   */\n      pop\n      pop\n      jump\t// out\n        /* \"#utility.yul\":24684:25126   */\n    tag_210:\n        /* \"#utility.yul\":24833:24837   */\n      0x00\n        /* \"#utility.yul\":24871:24873   */\n      0x60\n        /* \"#utility.yul\":24860:24869   */\n      dup3\n        /* \"#utility.yul\":24856:24874   */\n      add\n        /* \"#utility.yul\":24848:24874   */\n      swap1\n      pop\n        /* \"#utility.yul\":24884:24955   */\n      tag_875\n        /* \"#utility.yul\":24952:24953   */\n      0x00\n        /* \"#utility.yul\":24941:24950   */\n      dup4\n        /* \"#utility.yul\":24937:24954   */\n      add\n        /* \"#utility.yul\":24928:24934   */\n      dup7\n        /* \"#utility.yul\":24884:24955   */\n      tag_582\n      jump\t// in\n    tag_875:\n        /* \"#utility.yul\":24965:25037   */\n      tag_876\n        /* \"#utility.yul\":25033:25035   */\n      0x20\n        /* \"#utility.yul\":25022:25031   */\n      dup4\n        /* \"#utility.yul\":25018:25036   */\n      add\n        /* \"#utility.yul\":25009:25015   */\n      dup6\n        /* \"#utility.yul\":24965:25037   */\n      tag_529\n      jump\t// in\n    tag_876:\n        /* \"#utility.yul\":25047:25119   */\n      tag_877\n        /* \"#utility.yul\":25115:25117   */\n      0x40\n        /* \"#utility.yul\":25104:25113   */\n      dup4\n        /* \"#utility.yul\":25100:25118   */\n      add\n        /* \"#utility.yul\":25091:25097   */\n      dup5\n        /* \"#utility.yul\":25047:25119   */\n      tag_532\n      jump\t// in\n    tag_877:\n        /* \"#utility.yul\":24684:25126   */\n      swap5\n      swap4\n      pop\n      pop\n      pop\n      pop\n      jump\t// out\n        /* \"#utility.yul\":25132:25326   */\n    tag_214:\n        /* \"#utility.yul\":25172:25176   */\n      0x00\n        /* \"#utility.yul\":25192:25212   */\n      tag_879\n        /* \"#utility.yul\":25210:25211   */\n      dup3\n        /* \"#utility.yul\":25192:25212   */\n      tag_521\n      jump\t// in\n    tag_879:\n        /* \"#utility.yul\":25187:25212   */\n      swap2\n      pop\n        /* \"#utility.yul\":25226:25246   */\n      tag_880\n        /* \"#utility.yul\":25244:25245   */\n      dup4\n        /* \"#utility.yul\":25226:25246   */\n      tag_521\n      jump\t// in\n    tag_880:\n        /* \"#utility.yul\":25221:25246   */\n      swap3\n      pop\n        /* \"#utility.yul\":25270:25271   */\n      dup3\n        /* \"#utility.yul\":25267:25268   */\n      dup3\n        /* \"#utility.yul\":25263:25272   */\n      sub\n        /* \"#utility.yul\":25255:25272   */\n      swap1\n      pop\n        /* \"#utility.yul\":25294:25295   */\n      dup2\n        /* \"#utility.yul\":25288:25292   */\n      dup2\n        /* \"#utility.yul\":25285:25296   */\n      gt\n        /* \"#utility.yul\":25282:25319   */\n      iszero\n      tag_881\n      jumpi\n        /* \"#utility.yul\":25299:25317   */\n      tag_882\n      tag_581\n      jump\t// in\n    tag_882:\n        /* \"#utility.yul\":25282:25319   */\n    tag_881:\n        /* \"#utility.yul\":25132:25326   */\n      swap3\n      swap2\n      pop\n      pop\n      jump\t// out\n        /* \"#utility.yul\":25332:25512   */\n    tag_583:\n        /* \"#utility.yul\":25380:25457   */\n      0x4e487b7100000000000000000000000000000000000000000000000000000000\n        /* \"#utility.yul\":25377:25378   */\n      0x00\n        /* \"#utility.yul\":25370:25458   */\n      mstore\n        /* \"#utility.yul\":25477:25481   */\n      0x12\n        /* \"#utility.yul\":25474:25475   */\n      0x04\n        /* \"#utility.yul\":25467:25482   */\n      mstore\n        /* \"#utility.yul\":25501:25505   */\n      0x24\n        /* \"#utility.yul\":25498:25499   */\n      0x00\n        /* \"#utility.yul\":25491:25506   */\n      revert\n        /* \"#utility.yul\":25518:25703   */\n    tag_219:\n        /* \"#utility.yul\":25558:25559   */\n      0x00\n        /* \"#utility.yul\":25575:25595   */\n      tag_885\n        /* \"#utility.yul\":25593:25594   */\n      dup3\n        /* \"#utility.yul\":25575:25595   */\n      tag_521\n      jump\t// in\n    tag_885:\n        /* \"#utility.yul\":25570:25595   */\n      swap2\n      pop\n        /* \"#utility.yul\":25609:25629   */\n      tag_886\n        /* \"#utility.yul\":25627:25628   */\n      dup4\n        /* \"#utility.yul\":25609:25629   */\n      tag_521\n      jump\t// in\n    tag_886:\n        /* \"#utility.yul\":25604:25629   */\n      swap3\n      pop\n        /* \"#utility.yul\":25648:25649   */\n      dup3\n        /* \"#utility.yul\":25638:25673   */\n      tag_887\n      jumpi\n        /* \"#utility.yul\":25653:25671   */\n      tag_888\n      tag_583\n      jump\t// in\n    tag_888:\n        /* \"#utility.yul\":25638:25673   */\n    tag_887:\n        /* \"#utility.yul\":25695:25696   */\n      dup3\n        /* \"#utility.yul\":25692:25693   */\n      dup3\n        /* \"#utility.yul\":25688:25697   */\n      div\n        /* \"#utility.yul\":25683:25697   */\n      swap1\n      pop\n        /* \"#utility.yul\":25518:25703   */\n      swap3\n      swap2\n      pop\n      pop\n      jump\t// out\n        /* \"#utility.yul\":25709:25880   */\n    tag_584:\n        /* \"#utility.yul\":25849:25872   */\n      0x50726f6a656374206973206e6f74206163746976650000000000000000000000\n        /* \"#utility.yul\":25845:25846   */\n      0x00\n        /* \"#utility.yul\":25837:25843   */\n      dup3\n        /* \"#utility.yul\":25833:25847   */\n      add\n        /* \"#utility.yul\":25826:25873   */\n      mstore\n        /* \"#utility.yul\":25709:25880   */\n      pop\n      jump\t// out\n        /* \"#utility.yul\":25886:26252   */\n    tag_585:\n        /* \"#utility.yul\":26028:26031   */\n      0x00\n        /* \"#utility.yul\":26049:26116   */\n      tag_891\n        /* \"#utility.yul\":26113:26115   */\n      0x15\n        /* \"#utility.yul\":26108:26111   */\n      dup4\n        /* \"#utility.yul\":26049:26116   */\n      tag_573\n      jump\t// in\n    tag_891:\n        /* \"#utility.yul\":26042:26116   */\n      swap2\n      pop\n        /* \"#utility.yul\":26125:26218   */\n      tag_892\n        /* \"#utility.yul\":26214:26217   */\n      dup3\n        /* \"#utility.yul\":26125:26218   */\n      tag_584\n      jump\t// in\n    tag_892:\n        /* \"#utility.yul\":26243:26245   */\n      0x20\n        /* \"#utility.yul\":26238:26241   */\n      dup3\n        /* \"#utility.yul\":26234:26246   */\n      add\n        /* \"#utility.yul\":26227:26246   */\n      swap1\n      pop\n        /* \"#utility.yul\":25886:26252   */\n      swap2\n      swap1\n      pop\n      jump\t// out\n        /* \"#utility.yul\":26258:26677   */\n    tag_244:\n        /* \"#utility.yul\":26424:26428   */\n      0x00\n        /* \"#utility.yul\":26462:26464   */\n      0x20\n        /* \"#utility.yul\":26451:26460   */\n      dup3\n        /* \"#utility.yul\":26447:26465   */\n      add\n        /* \"#utility.yul\":26439:26465   */\n      swap1\n      pop\n        /* \"#utility.yul\":26511:26520   */\n      dup2\n        /* \"#utility.yul\":26505:26509   */\n      dup2\n        /* \"#utility.yul\":26501:26521   */\n      sub\n        /* \"#utility.yul\":26497:26498   */\n      0x00\n        /* \"#utility.yul\":26486:26495   */\n      dup4\n        /* \"#utility.yul\":26482:26499   */\n      add\n        /* \"#utility.yul\":26475:26522   */\n      mstore\n        /* \"#utility.yul\":26539:26670   */\n      tag_894\n        /* \"#utility.yul\":26665:26669   */\n      dup2\n        /* \"#utility.yul\":26539:26670   */\n      tag_585\n      jump\t// in\n    tag_894:\n        /* \"#utility.yul\":26531:26670   */\n      swap1\n      pop\n        /* \"#utility.yul\":26258:26677   */\n      swap2\n      swap1\n      pop\n      jump\t// out\n        /* \"#utility.yul\":26683:27043   */\n    tag_250:\n        /* \"#utility.yul\":26818:26822   */\n      0x00\n        /* \"#utility.yul\":26856:26858   */\n      0x40\n        /* \"#utility.yul\":26845:26854   */\n      dup3\n        /* \"#utility.yul\":26841:26859   */\n      add\n        /* \"#utility.yul\":26833:26859   */\n      swap1\n      pop\n        /* \"#utility.yul\":26869:26940   */\n      tag_896\n        /* \"#utility.yul\":26937:26938   */\n      0x00\n        /* \"#utility.yul\":26926:26935   */\n      dup4\n        /* \"#utility.yul\":26922:26939   */\n      add\n        /* \"#utility.yul\":26913:26919   */\n      dup6\n        /* \"#utility.yul\":26869:26940   */\n      tag_582\n      jump\t// in\n    tag_896:\n        /* \"#utility.yul\":26950:27036   */\n      tag_897\n        /* \"#utility.yul\":27032:27034   */\n      0x20\n        /* \"#utility.yul\":27021:27030   */\n      dup4\n        /* \"#utility.yul\":27017:27035   */\n      add\n        /* \"#utility.yul\":27008:27014   */\n      dup5\n        /* \"#utility.yul\":26950:27036   */\n      tag_553\n      jump\t// in\n    tag_897:\n        /* \"#utility.yul\":26683:27043   */\n      swap4\n      swap3\n      pop\n      pop\n      pop\n      jump\t// out\n        /* \"#utility.yul\":27049:27229   */\n    tag_586:\n        /* \"#utility.yul\":27189:27221   */\n      0x46756e64696e6720706572696f64206973206e6f74206f766572207965740000\n        /* \"#utility.yul\":27185:27186   */\n      0x00\n        /* \"#utility.yul\":27177:27183   */\n      dup3\n        /* \"#utility.yul\":27173:27187   */\n      add\n        /* \"#utility.yul\":27166:27222   */\n      mstore\n        /* \"#utility.yul\":27049:27229   */\n      pop\n      jump\t// out\n        /* \"#utility.yul\":27235:27601   */\n    tag_587:\n        /* \"#utility.yul\":27377:27380   */\n      0x00\n        /* \"#utility.yul\":27398:27465   */\n      tag_900\n        /* \"#utility.yul\":27462:27464   */\n      0x1e\n        /* \"#utility.yul\":27457:27460   */\n      dup4\n        /* \"#utility.yul\":27398:27465   */\n      tag_573\n      jump\t// in\n    tag_900:\n        /* \"#utility.yul\":27391:27465   */\n      swap2\n      pop\n        /* \"#utility.yul\":27474:27567   */\n      tag_901\n        /* \"#utility.yul\":27563:27566   */\n      dup3\n        /* \"#utility.yul\":27474:27567   */\n      tag_586\n      jump\t// in\n    tag_901:\n        /* \"#utility.yul\":27592:27594   */\n      0x20\n        /* \"#utility.yul\":27587:27590   */\n      dup3\n        /* \"#utility.yul\":27583:27595   */\n      add\n        /* \"#utility.yul\":27576:27595   */\n      swap1\n      pop\n        /* \"#utility.yul\":27235:27601   */\n      swap2\n      swap1\n      pop\n      jump\t// out\n        /* \"#utility.yul\":27607:28026   */\n    tag_259:\n        /* \"#utility.yul\":27773:27777   */\n      0x00\n        /* \"#utility.yul\":27811:27813   */\n      0x20\n        /* \"#utility.yul\":27800:27809   */\n      dup3\n        /* \"#utility.yul\":27796:27814   */\n      add\n        /* \"#utility.yul\":27788:27814   */\n      swap1\n      pop\n        /* \"#utility.yul\":27860:27869   */\n      dup2\n        /* \"#utility.yul\":27854:27858   */\n      dup2\n        /* \"#utility.yul\":27850:27870   */\n      sub\n        /* \"#utility.yul\":27846:27847   */\n      0x00\n        /* \"#utility.yul\":27835:27844   */\n      dup4\n        /* \"#utility.yul\":27831:27848   */\n      add\n        /* \"#utility.yul\":27824:27871   */\n      mstore\n        /* \"#utility.yul\":27888:28019   */\n      tag_903\n        /* \"#utility.yul\":28014:28018   */\n      dup2\n        /* \"#utility.yul\":27888:28019   */\n      tag_587\n      jump\t// in\n    tag_903:\n        /* \"#utility.yul\":27880:28019   */\n      swap1\n      pop\n        /* \"#utility.yul\":27607:28026   */\n      swap2\n      swap1\n      pop\n      jump\t// out\n        /* \"#utility.yul\":28032:28201   */\n    tag_588:\n        /* \"#utility.yul\":28172:28193   */\n      0x4e6f7468696e6720746f20776974686472617700000000000000000000000000\n        /* \"#utility.yul\":28168:28169   */\n      0x00\n        /* \"#utility.yul\":28160:28166   */\n      dup3\n        /* \"#utility.yul\":28156:28170   */\n      add\n        /* \"#utility.yul\":28149:28194   */\n      mstore\n        /* \"#utility.yul\":28032:28201   */\n      pop\n      jump\t// out\n        /* \"#utility.yul\":28207:28573   */\n    tag_589:\n        /* \"#utility.yul\":28349:28352   */\n      0x00\n        /* \"#utility.yul\":28370:28437   */\n      tag_906\n        /* \"#utility.yul\":28434:28436   */\n      0x13\n        /* \"#utility.yul\":28429:28432   */\n      dup4\n        /* \"#utility.yul\":28370:28437   */\n      tag_573\n      jump\t// in\n    tag_906:\n        /* \"#utility.yul\":28363:28437   */\n      swap2\n      pop\n        /* \"#utility.yul\":28446:28539   */\n      tag_907\n        /* \"#utility.yul\":28535:28538   */\n      dup3\n        /* \"#utility.yul\":28446:28539   */\n      tag_588\n      jump\t// in\n    tag_907:\n        /* \"#utility.yul\":28564:28566   */\n      0x20\n        /* \"#utility.yul\":28559:28562   */\n      dup3\n        /* \"#utility.yul\":28555:28567   */\n      add\n        /* \"#utility.yul\":28548:28567   */\n      swap1\n      pop\n        /* \"#utility.yul\":28207:28573   */\n      swap2\n      swap1\n      pop\n      jump\t// out\n        /* \"#utility.yul\":28579:28998   */\n    tag_264:\n        /* \"#utility.yul\":28745:28749   */\n      0x00\n        /* \"#utility.yul\":28783:28785   */\n      0x20\n        /* \"#utility.yul\":28772:28781   */\n      dup3\n        /* \"#utility.yul\":28768:28786   */\n      add\n        /* \"#utility.yul\":28760:28786   */\n      swap1\n      pop\n        /* \"#utility.yul\":28832:28841   */\n      dup2\n        /* \"#utility.yul\":28826:28830   */\n      dup2\n        /* \"#utility.yul\":28822:28842   */\n      sub\n        /* \"#utility.yul\":28818:28819   */\n      0x00\n        /* \"#utility.yul\":28807:28816   */\n      dup4\n        /* \"#utility.yul\":28803:28820   */\n      add\n        /* \"#utility.yul\":28796:28843   */\n      mstore\n        /* \"#utility.yul\":28860:28991   */\n      tag_909\n        /* \"#utility.yul\":28986:28990   */\n      dup2\n        /* \"#utility.yul\":28860:28991   */\n      tag_589\n      jump\t// in\n    tag_909:\n        /* \"#utility.yul\":28852:28991   */\n      swap1\n      pop\n        /* \"#utility.yul\":28579:28998   */\n      swap2\n      swap1\n      pop\n      jump\t// out\n        /* \"#utility.yul\":29004:29176   */\n    tag_590:\n        /* \"#utility.yul\":29144:29168   */\n      0x436f6e7472616374206973206e6f742070617573656400000000000000000000\n        /* \"#utility.yul\":29140:29141   */\n      0x00\n        /* \"#utility.yul\":29132:29138   */\n      dup3\n        /* \"#utility.yul\":29128:29142   */\n      add\n        /* \"#utility.yul\":29121:29169   */\n      mstore\n        /* \"#utility.yul\":29004:29176   */\n      pop\n      jump\t// out\n        /* \"#utility.yul\":29182:29548   */\n    tag_591:\n        /* \"#utility.yul\":29324:29327   */\n      0x00\n        /* \"#utility.yul\":29345:29412   */\n      tag_912\n        /* \"#utility.yul\":29409:29411   */\n      0x16\n        /* \"#utility.yul\":29404:29407   */\n      dup4\n        /* \"#utility.yul\":29345:29412   */\n      tag_573\n      jump\t// in\n    tag_912:\n        /* \"#utility.yul\":29338:29412   */\n      swap2\n      pop\n        /* \"#utility.yul\":29421:29514   */\n      tag_913\n        /* \"#utility.yul\":29510:29513   */\n      dup3\n        /* \"#utility.yul\":29421:29514   */\n      tag_590\n      jump\t// in\n    tag_913:\n        /* \"#utility.yul\":29539:29541   */\n      0x20\n        /* \"#utility.yul\":29534:29537   */\n      dup3\n        /* \"#utility.yul\":29530:29542   */\n      add\n        /* \"#utility.yul\":29523:29542   */\n      swap1\n      pop\n        /* \"#utility.yul\":29182:29548   */\n      swap2\n      swap1\n      pop\n      jump\t// out\n        /* \"#utility.yul\":29554:29973   */\n    tag_270:\n        /* \"#utility.yul\":29720:29724   */\n      0x00\n        /* \"#utility.yul\":29758:29760   */\n      0x20\n        /* \"#utility.yul\":29747:29756   */\n      dup3\n        /* \"#utility.yul\":29743:29761   */\n      add\n        /* \"#utility.yul\":29735:29761   */\n      swap1\n      pop\n        /* \"#utility.yul\":29807:29816   */\n      dup2\n        /* \"#utility.yul\":29801:29805   */\n      dup2\n        /* \"#utility.yul\":29797:29817   */\n      sub\n        /* \"#utility.yul\":29793:29794   */\n      0x00\n        /* \"#utility.yul\":29782:29791   */\n      dup4\n        /* \"#utility.yul\":29778:29795   */\n      add\n        /* \"#utility.yul\":29771:29818   */\n      mstore\n        /* \"#utility.yul\":29835:29966   */\n      tag_915\n        /* \"#utility.yul\":29961:29965   */\n      dup2\n        /* \"#utility.yul\":29835:29966   */\n      tag_591\n      jump\t// in\n    tag_915:\n        /* \"#utility.yul\":29827:29966   */\n      swap1\n      pop\n        /* \"#utility.yul\":29554:29973   */\n      swap2\n      swap1\n      pop\n      jump\t// out\n        /* \"#utility.yul\":29979:30149   */\n    tag_592:\n        /* \"#utility.yul\":30119:30141   */\n      0x50726f6a6563742069736e277420616374697665000000000000000000000000\n        /* \"#utility.yul\":30115:30116   */\n      0x00\n        /* \"#utility.yul\":30107:30113   */\n      dup3\n        /* \"#utility.yul\":30103:30117   */\n      add\n        /* \"#utility.yul\":30096:30142   */\n      mstore\n        /* \"#utility.yul\":29979:30149   */\n      pop\n      jump\t// out\n        /* \"#utility.yul\":30155:30521   */\n    tag_593:\n        /* \"#utility.yul\":30297:30300   */\n      0x00\n        /* \"#utility.yul\":30318:30385   */\n      tag_918\n        /* \"#utility.yul\":30382:30384   */\n      0x14\n        /* \"#utility.yul\":30377:30380   */\n      dup4\n        /* \"#utility.yul\":30318:30385   */\n      tag_573\n      jump\t// in\n    tag_918:\n        /* \"#utility.yul\":30311:30385   */\n      swap2\n      pop\n        /* \"#utility.yul\":30394:30487   */\n      tag_919\n        /* \"#utility.yul\":30483:30486   */\n      dup3\n        /* \"#utility.yul\":30394:30487   */\n      tag_592\n      jump\t// in\n    tag_919:\n        /* \"#utility.yul\":30512:30514   */\n      0x20\n        /* \"#utility.yul\":30507:30510   */\n      dup3\n        /* \"#utility.yul\":30503:30515   */\n      add\n        /* \"#utility.yul\":30496:30515   */\n      swap1\n      pop\n        /* \"#utility.yul\":30155:30521   */\n      swap2\n      swap1\n      pop\n      jump\t// out\n        /* \"#utility.yul\":30527:30946   */\n    tag_286:\n        /* \"#utility.yul\":30693:30697   */\n      0x00\n        /* \"#utility.yul\":30731:30733   */\n      0x20\n        /* \"#utility.yul\":30720:30729   */\n      dup3\n        /* \"#utility.yul\":30716:30734   */\n      add\n        /* \"#utility.yul\":30708:30734   */\n      swap1\n      pop\n        /* \"#utility.yul\":30780:30789   */\n      dup2\n        /* \"#utility.yul\":30774:30778   */\n      dup2\n        /* \"#utility.yul\":30770:30790   */\n      sub\n        /* \"#utility.yul\":30766:30767   */\n      0x00\n        /* \"#utility.yul\":30755:30764   */\n      dup4\n        /* \"#utility.yul\":30751:30768   */\n      add\n        /* \"#utility.yul\":30744:30791   */\n      mstore\n        /* \"#utility.yul\":30808:30939   */\n      tag_921\n        /* \"#utility.yul\":30934:30938   */\n      dup2\n        /* \"#utility.yul\":30808:30939   */\n      tag_593\n      jump\t// in\n    tag_921:\n        /* \"#utility.yul\":30800:30939   */\n      swap1\n      pop\n        /* \"#utility.yul\":30527:30946   */\n      swap2\n      swap1\n      pop\n      jump\t// out\n        /* \"#utility.yul\":30952:31177   */\n    tag_594:\n        /* \"#utility.yul\":31092:31126   */\n      0x436f6e747269627574696f6e206d757374206265206772656174657220746861\n        /* \"#utility.yul\":31088:31089   */\n      0x00\n        /* \"#utility.yul\":31080:31086   */\n      dup3\n        /* \"#utility.yul\":31076:31090   */\n      add\n        /* \"#utility.yul\":31069:31127   */\n      mstore\n        /* \"#utility.yul\":31161:31169   */\n      0x6e207a65726f0000000000000000000000000000000000000000000000000000\n        /* \"#utility.yul\":31156:31158   */\n      0x20\n        /* \"#utility.yul\":31148:31154   */\n      dup3\n        /* \"#utility.yul\":31144:31159   */\n      add\n        /* \"#utility.yul\":31137:31170   */\n      mstore\n        /* \"#utility.yul\":30952:31177   */\n      pop\n      jump\t// out\n        /* \"#utility.yul\":31183:31549   */\n    tag_595:\n        /* \"#utility.yul\":31325:31328   */\n      0x00\n        /* \"#utility.yul\":31346:31413   */\n      tag_924\n        /* \"#utility.yul\":31410:31412   */\n      0x26\n        /* \"#utility.yul\":31405:31408   */\n      dup4\n        /* \"#utility.yul\":31346:31413   */\n      tag_573\n      jump\t// in\n    tag_924:\n        /* \"#utility.yul\":31339:31413   */\n      swap2\n      pop\n        /* \"#utility.yul\":31422:31515   */\n      tag_925\n        /* \"#utility.yul\":31511:31514   */\n      dup3\n        /* \"#utility.yul\":31422:31515   */\n      tag_594\n      jump\t// in\n    tag_925:\n        /* \"#utility.yul\":31540:31542   */\n      0x40\n        /* \"#utility.yul\":31535:31538   */\n      dup3\n        /* \"#utility.yul\":31531:31543   */\n      add\n        /* \"#utility.yul\":31524:31543   */\n      swap1\n      pop\n        /* \"#utility.yul\":31183:31549   */\n      swap2\n      swap1\n      pop\n      jump\t// out\n        /* \"#utility.yul\":31555:31974   */\n    tag_289:\n        /* \"#utility.yul\":31721:31725   */\n      0x00\n        /* \"#utility.yul\":31759:31761   */\n      0x20\n        /* \"#utility.yul\":31748:31757   */\n      dup3\n        /* \"#utility.yul\":31744:31762   */\n      add\n        /* \"#utility.yul\":31736:31762   */\n      swap1\n      pop\n        /* \"#utility.yul\":31808:31817   */\n      dup2\n        /* \"#utility.yul\":31802:31806   */\n      dup2\n        /* \"#utility.yul\":31798:31818   */\n      sub\n        /* \"#utility.yul\":31794:31795   */\n      0x00\n        /* \"#utility.yul\":31783:31792   */\n      dup4\n        /* \"#utility.yul\":31779:31796   */\n      add\n        /* \"#utility.yul\":31772:31819   */\n      mstore\n        /* \"#utility.yul\":31836:31967   */\n      tag_927\n        /* \"#utility.yul\":31962:31966   */\n      dup2\n        /* \"#utility.yul\":31836:31967   */\n      tag_595\n      jump\t// in\n    tag_927:\n        /* \"#utility.yul\":31828:31967   */\n      swap1\n      pop\n        /* \"#utility.yul\":31555:31974   */\n      swap2\n      swap1\n      pop\n      jump\t// out\n        /* \"#utility.yul\":31980:32202   */\n    tag_596:\n        /* \"#utility.yul\":32120:32154   */\n      0x4f6e6c792070726f6a6563742063726561746f722063616e2073656e64206675\n        /* \"#utility.yul\":32116:32117   */\n      0x00\n        /* \"#utility.yul\":32108:32114   */\n      dup3\n        /* \"#utility.yul\":32104:32118   */\n      add\n        /* \"#utility.yul\":32097:32155   */\n      mstore\n        /* \"#utility.yul\":32189:32194   */\n      0x6e64730000000000000000000000000000000000000000000000000000000000\n        /* \"#utility.yul\":32184:32186   */\n      0x20\n        /* \"#utility.yul\":32176:32182   */\n      dup3\n        /* \"#utility.yul\":32172:32187   */\n      add\n        /* \"#utility.yul\":32165:32195   */\n      mstore\n        /* \"#utility.yul\":31980:32202   */\n      pop\n      jump\t// out\n        /* \"#utility.yul\":32208:32574   */\n    tag_597:\n        /* \"#utility.yul\":32350:32353   */\n      0x00\n        /* \"#utility.yul\":32371:32438   */\n      tag_930\n        /* \"#utility.yul\":32435:32437   */\n      0x23\n        /* \"#utility.yul\":32430:32433   */\n      dup4\n        /* \"#utility.yul\":32371:32438   */\n      tag_573\n      jump\t// in\n    tag_930:\n        /* \"#utility.yul\":32364:32438   */\n      swap2\n      pop\n        /* \"#utility.yul\":32447:32540   */\n      tag_931\n        /* \"#utility.yul\":32536:32539   */\n      dup3\n        /* \"#utility.yul\":32447:32540   */\n      tag_596\n      jump\t// in\n    tag_931:\n        /* \"#utility.yul\":32565:32567   */\n      0x40\n        /* \"#utility.yul\":32560:32563   */\n      dup3\n        /* \"#utility.yul\":32556:32568   */\n      add\n        /* \"#utility.yul\":32549:32568   */\n      swap1\n      pop\n        /* \"#utility.yul\":32208:32574   */\n      swap2\n      swap1\n      pop\n      jump\t// out\n        /* \"#utility.yul\":32580:32999   */\n    tag_311:\n        /* \"#utility.yul\":32746:32750   */\n      0x00\n        /* \"#utility.yul\":32784:32786   */\n      0x20\n        /* \"#utility.yul\":32773:32782   */\n      dup3\n        /* \"#utility.yul\":32769:32787   */\n      add\n        /* \"#utility.yul\":32761:32787   */\n      swap1\n      pop\n        /* \"#utility.yul\":32833:32842   */\n      dup2\n        /* \"#utility.yul\":32827:32831   */\n      dup2\n        /* \"#utility.yul\":32823:32843   */\n      sub\n        /* \"#utility.yul\":32819:32820   */\n      0x00\n        /* \"#utility.yul\":32808:32817   */\n      dup4\n        /* \"#utility.yul\":32804:32821   */\n      add\n        /* \"#utility.yul\":32797:32844   */\n      mstore\n        /* \"#utility.yul\":32861:32992   */\n      tag_933\n        /* \"#utility.yul\":32987:32991   */\n      dup2\n        /* \"#utility.yul\":32861:32992   */\n      tag_597\n      jump\t// in\n    tag_933:\n        /* \"#utility.yul\":32853:32992   */\n      swap1\n      pop\n        /* \"#utility.yul\":32580:32999   */\n      swap2\n      swap1\n      pop\n      jump\t// out\n        /* \"#utility.yul\":33005:33176   */\n    tag_598:\n        /* \"#utility.yul\":33145:33168   */\n      0x50726f6a656374206973206e6f742066756e6465640000000000000000000000\n        /* \"#utility.yul\":33141:33142   */\n      0x00\n        /* \"#utility.yul\":33133:33139   */\n      dup3\n        /* \"#utility.yul\":33129:33143   */\n      add\n        /* \"#utility.yul\":33122:33169   */\n      mstore\n        /* \"#utility.yul\":33005:33176   */\n      pop\n      jump\t// out\n        /* \"#utility.yul\":33182:33548   */\n    tag_599:\n        /* \"#utility.yul\":33324:33327   */\n      0x00\n        /* \"#utility.yul\":33345:33412   */\n      tag_936\n        /* \"#utility.yul\":33409:33411   */\n      0x15\n        /* \"#utility.yul\":33404:33407   */\n      dup4\n        /* \"#utility.yul\":33345:33412   */\n      tag_573\n      jump\t// in\n    tag_936:\n        /* \"#utility.yul\":33338:33412   */\n      swap2\n      pop\n        /* \"#utility.yul\":33421:33514   */\n      tag_937\n        /* \"#utility.yul\":33510:33513   */\n      dup3\n        /* \"#utility.yul\":33421:33514   */\n      tag_598\n      jump\t// in\n    tag_937:\n        /* \"#utility.yul\":33539:33541   */\n      0x20\n        /* \"#utility.yul\":33534:33537   */\n      dup3\n        /* \"#utility.yul\":33530:33542   */\n      add\n        /* \"#utility.yul\":33523:33542   */\n      swap1\n      pop\n        /* \"#utility.yul\":33182:33548   */\n      swap2\n      swap1\n      pop\n      jump\t// out\n        /* \"#utility.yul\":33554:33973   */\n    tag_319:\n        /* \"#utility.yul\":33720:33724   */\n      0x00\n        /* \"#utility.yul\":33758:33760   */\n      0x20\n        /* \"#utility.yul\":33747:33756   */\n      dup3\n        /* \"#utility.yul\":33743:33761   */\n      add\n        /* \"#utility.yul\":33735:33761   */\n      swap1\n      pop\n        /* \"#utility.yul\":33807:33816   */\n      dup2\n        /* \"#utility.yul\":33801:33805   */\n      dup2\n        /* \"#utility.yul\":33797:33817   */\n      sub\n        /* \"#utility.yul\":33793:33794   */\n      0x00\n        /* \"#utility.yul\":33782:33791   */\n      dup4\n        /* \"#utility.yul\":33778:33795   */\n      add\n        /* \"#utility.yul\":33771:33818   */\n      mstore\n        /* \"#utility.yul\":33835:33966   */\n      tag_939\n        /* \"#utility.yul\":33961:33965   */\n      dup2\n        /* \"#utility.yul\":33835:33966   */\n      tag_599\n      jump\t// in\n    tag_939:\n        /* \"#utility.yul\":33827:33966   */\n      swap1\n      pop\n        /* \"#utility.yul\":33554:33973   */\n      swap2\n      swap1\n      pop\n      jump\t// out\n        /* \"#utility.yul\":33979:34039   */\n    tag_600:\n        /* \"#utility.yul\":34007:34010   */\n      0x00\n        /* \"#utility.yul\":34028:34033   */\n      dup2\n        /* \"#utility.yul\":34021:34033   */\n      swap1\n      pop\n        /* \"#utility.yul\":33979:34039   */\n      swap2\n      swap1\n      pop\n      jump\t// out\n        /* \"#utility.yul\":34045:34187   */\n    tag_601:\n        /* \"#utility.yul\":34095:34104   */\n      0x00\n        /* \"#utility.yul\":34128:34181   */\n      tag_942\n        /* \"#utility.yul\":34146:34180   */\n      tag_943\n        /* \"#utility.yul\":34155:34179   */\n      tag_944\n        /* \"#utility.yul\":34173:34178   */\n      dup5\n        /* \"#utility.yul\":34155:34179   */\n      tag_527\n      jump\t// in\n    tag_944:\n        /* \"#utility.yul\":34146:34180   */\n      tag_600\n      jump\t// in\n    tag_943:\n        /* \"#utility.yul\":34128:34181   */\n      tag_527\n      jump\t// in\n    tag_942:\n        /* \"#utility.yul\":34115:34181   */\n      swap1\n      pop\n        /* \"#utility.yul\":34045:34187   */\n      swap2\n      swap1\n      pop\n      jump\t// out\n        /* \"#utility.yul\":34193:34319   */\n    tag_602:\n        /* \"#utility.yul\":34243:34252   */\n      0x00\n        /* \"#utility.yul\":34276:34313   */\n      tag_946\n        /* \"#utility.yul\":34307:34312   */\n      dup3\n        /* \"#utility.yul\":34276:34313   */\n      tag_601\n      jump\t// in\n    tag_946:\n        /* \"#utility.yul\":34263:34313   */\n      swap1\n      pop\n        /* \"#utility.yul\":34193:34319   */\n      swap2\n      swap1\n      pop\n      jump\t// out\n        /* \"#utility.yul\":34325:34459   */\n    tag_603:\n        /* \"#utility.yul\":34383:34392   */\n      0x00\n        /* \"#utility.yul\":34416:34453   */\n      tag_948\n        /* \"#utility.yul\":34447:34452   */\n      dup3\n        /* \"#utility.yul\":34416:34453   */\n      tag_602\n      jump\t// in\n    tag_948:\n        /* \"#utility.yul\":34403:34453   */\n      swap1\n      pop\n        /* \"#utility.yul\":34325:34459   */\n      swap2\n      swap1\n      pop\n      jump\t// out\n        /* \"#utility.yul\":34465:34612   */\n    tag_604:\n        /* \"#utility.yul\":34560:34605   */\n      tag_950\n        /* \"#utility.yul\":34599:34604   */\n      dup2\n        /* \"#utility.yul\":34560:34605   */\n      tag_603\n      jump\t// in\n    tag_950:\n        /* \"#utility.yul\":34555:34558   */\n      dup3\n        /* \"#utility.yul\":34548:34606   */\n      mstore\n        /* \"#utility.yul\":34465:34612   */\n      pop\n      pop\n      jump\t// out\n        /* \"#utility.yul\":34618:35076   */\n    tag_324:\n        /* \"#utility.yul\":34775:34779   */\n      0x00\n        /* \"#utility.yul\":34813:34815   */\n      0x60\n        /* \"#utility.yul\":34802:34811   */\n      dup3\n        /* \"#utility.yul\":34798:34816   */\n      add\n        /* \"#utility.yul\":34790:34816   */\n      swap1\n      pop\n        /* \"#utility.yul\":34826:34897   */\n      tag_952\n        /* \"#utility.yul\":34894:34895   */\n      0x00\n        /* \"#utility.yul\":34883:34892   */\n      dup4\n        /* \"#utility.yul\":34879:34896   */\n      add\n        /* \"#utility.yul\":34870:34876   */\n      dup7\n        /* \"#utility.yul\":34826:34897   */\n      tag_582\n      jump\t// in\n    tag_952:\n        /* \"#utility.yul\":34907:34987   */\n      tag_953\n        /* \"#utility.yul\":34983:34985   */\n      0x20\n        /* \"#utility.yul\":34972:34981   */\n      dup4\n        /* \"#utility.yul\":34968:34986   */\n      add\n        /* \"#utility.yul\":34959:34965   */\n      dup6\n        /* \"#utility.yul\":34907:34987   */\n      tag_604\n      jump\t// in\n    tag_953:\n        /* \"#utility.yul\":34997:35069   */\n      tag_954\n        /* \"#utility.yul\":35065:35067   */\n      0x40\n        /* \"#utility.yul\":35054:35063   */\n      dup4\n        /* \"#utility.yul\":35050:35068   */\n      add\n        /* \"#utility.yul\":35041:35047   */\n      dup5\n        /* \"#utility.yul\":34997:35069   */\n      tag_532\n      jump\t// in\n    tag_954:\n        /* \"#utility.yul\":34618:35076   */\n      swap5\n      swap4\n      pop\n      pop\n      pop\n      pop\n      jump\t// out\n        /* \"#utility.yul\":35082:35250   */\n    tag_605:\n        /* \"#utility.yul\":35222:35242   */\n      0x436f6e7472616374206973207061757365640000000000000000000000000000\n        /* \"#utility.yul\":35218:35219   */\n      0x00\n        /* \"#utility.yul\":35210:35216   */\n      dup3\n        /* \"#utility.yul\":35206:35220   */\n      add\n        /* \"#utility.yul\":35199:35243   */\n      mstore\n        /* \"#utility.yul\":35082:35250   */\n      pop\n      jump\t// out\n        /* \"#utility.yul\":35256:35622   */\n    tag_606:\n        /* \"#utility.yul\":35398:35401   */\n      0x00\n        /* \"#utility.yul\":35419:35486   */\n      tag_957\n        /* \"#utility.yul\":35483:35485   */\n      0x12\n        /* \"#utility.yul\":35478:35481   */\n      dup4\n        /* \"#utility.yul\":35419:35486   */\n      tag_573\n      jump\t// in\n    tag_957:\n        /* \"#utility.yul\":35412:35486   */\n      swap2\n      pop\n        /* \"#utility.yul\":35495:35588   */\n      tag_958\n        /* \"#utility.yul\":35584:35587   */\n      dup3\n        /* \"#utility.yul\":35495:35588   */\n      tag_605\n      jump\t// in\n    tag_958:\n        /* \"#utility.yul\":35613:35615   */\n      0x20\n        /* \"#utility.yul\":35608:35611   */\n      dup3\n        /* \"#utility.yul\":35604:35616   */\n      add\n        /* \"#utility.yul\":35597:35616   */\n      swap1\n      pop\n        /* \"#utility.yul\":35256:35622   */\n      swap2\n      swap1\n      pop\n      jump\t// out\n        /* \"#utility.yul\":35628:36047   */\n    tag_328:\n        /* \"#utility.yul\":35794:35798   */\n      0x00\n        /* \"#utility.yul\":35832:35834   */\n      0x20\n        /* \"#utility.yul\":35821:35830   */\n      dup3\n        /* \"#utility.yul\":35817:35835   */\n      add\n        /* \"#utility.yul\":35809:35835   */\n      swap1\n      pop\n        /* \"#utility.yul\":35881:35890   */\n      dup2\n        /* \"#utility.yul\":35875:35879   */\n      dup2\n        /* \"#utility.yul\":35871:35891   */\n      sub\n        /* \"#utility.yul\":35867:35868   */\n      0x00\n        /* \"#utility.yul\":35856:35865   */\n      dup4\n        /* \"#utility.yul\":35852:35869   */\n      add\n        /* \"#utility.yul\":35845:35892   */\n      mstore\n        /* \"#utility.yul\":35909:36040   */\n      tag_960\n        /* \"#utility.yul\":36035:36039   */\n      dup2\n        /* \"#utility.yul\":35909:36040   */\n      tag_606\n      jump\t// in\n    tag_960:\n        /* \"#utility.yul\":35901:36040   */\n      swap1\n      pop\n        /* \"#utility.yul\":35628:36047   */\n      swap2\n      swap1\n      pop\n      jump\t// out\n        /* \"#utility.yul\":36053:36280   */\n    tag_607:\n        /* \"#utility.yul\":36193:36227   */\n      0x546869732075736572206973206e6f742063726561746f72206f662074686973\n        /* \"#utility.yul\":36189:36190   */\n      0x00\n        /* \"#utility.yul\":36181:36187   */\n      dup3\n        /* \"#utility.yul\":36177:36191   */\n      add\n        /* \"#utility.yul\":36170:36228   */\n      mstore\n        /* \"#utility.yul\":36262:36272   */\n      0x2070726f6a656374000000000000000000000000000000000000000000000000\n        /* \"#utility.yul\":36257:36259   */\n      0x20\n        /* \"#utility.yul\":36249:36255   */\n      dup3\n        /* \"#utility.yul\":36245:36260   */\n      add\n        /* \"#utility.yul\":36238:36273   */\n      mstore\n        /* \"#utility.yul\":36053:36280   */\n      pop\n      jump\t// out\n        /* \"#utility.yul\":36286:36652   */\n    tag_608:\n        /* \"#utility.yul\":36428:36431   */\n      0x00\n        /* \"#utility.yul\":36449:36516   */\n      tag_963\n        /* \"#utility.yul\":36513:36515   */\n      0x28\n        /* \"#utility.yul\":36508:36511   */\n      dup4\n        /* \"#utility.yul\":36449:36516   */\n      tag_573\n      jump\t// in\n    tag_963:\n        /* \"#utility.yul\":36442:36516   */\n      swap2\n      pop\n        /* \"#utility.yul\":36525:36618   */\n      tag_964\n        /* \"#utility.yul\":36614:36617   */\n      dup3\n        /* \"#utility.yul\":36525:36618   */\n      tag_607\n      jump\t// in\n    tag_964:\n        /* \"#utility.yul\":36643:36645   */\n      0x40\n        /* \"#utility.yul\":36638:36641   */\n      dup3\n        /* \"#utility.yul\":36634:36646   */\n      add\n        /* \"#utility.yul\":36627:36646   */\n      swap1\n      pop\n        /* \"#utility.yul\":36286:36652   */\n      swap2\n      swap1\n      pop\n      jump\t// out\n        /* \"#utility.yul\":36658:37077   */\n    tag_340:\n        /* \"#utility.yul\":36824:36828   */\n      0x00\n        /* \"#utility.yul\":36862:36864   */\n      0x20\n        /* \"#utility.yul\":36851:36860   */\n      dup3\n        /* \"#utility.yul\":36847:36865   */\n      add\n        /* \"#utility.yul\":36839:36865   */\n      swap1\n      pop\n        /* \"#utility.yul\":36911:36920   */\n      dup2\n        /* \"#utility.yul\":36905:36909   */\n      dup2\n        /* \"#utility.yul\":36901:36921   */\n      sub\n        /* \"#utility.yul\":36897:36898   */\n      0x00\n        /* \"#utility.yul\":36886:36895   */\n      dup4\n        /* \"#utility.yul\":36882:36899   */\n      add\n        /* \"#utility.yul\":36875:36922   */\n      mstore\n        /* \"#utility.yul\":36939:37070   */\n      tag_966\n        /* \"#utility.yul\":37065:37069   */\n      dup2\n        /* \"#utility.yul\":36939:37070   */\n      tag_608\n      jump\t// in\n    tag_966:\n        /* \"#utility.yul\":36931:37070   */\n      swap1\n      pop\n        /* \"#utility.yul\":36658:37077   */\n      swap2\n      swap1\n      pop\n      jump\t// out\n        /* \"#utility.yul\":37083:37263   */\n    tag_609:\n        /* \"#utility.yul\":37131:37208   */\n      0x4e487b7100000000000000000000000000000000000000000000000000000000\n        /* \"#utility.yul\":37128:37129   */\n      0x00\n        /* \"#utility.yul\":37121:37209   */\n      mstore\n        /* \"#utility.yul\":37228:37232   */\n      0x22\n        /* \"#utility.yul\":37225:37226   */\n      0x04\n        /* \"#utility.yul\":37218:37233   */\n      mstore\n        /* \"#utility.yul\":37252:37256   */\n      0x24\n        /* \"#utility.yul\":37249:37250   */\n      0x00\n        /* \"#utility.yul\":37242:37257   */\n      revert\n        /* \"#utility.yul\":37269:37589   */\n    tag_471:\n        /* \"#utility.yul\":37313:37319   */\n      0x00\n        /* \"#utility.yul\":37350:37351   */\n      0x02\n        /* \"#utility.yul\":37344:37348   */\n      dup3\n        /* \"#utility.yul\":37340:37352   */\n      div\n        /* \"#utility.yul\":37330:37352   */\n      swap1\n      pop\n        /* \"#utility.yul\":37397:37398   */\n      0x01\n        /* \"#utility.yul\":37391:37395   */\n      dup3\n        /* \"#utility.yul\":37387:37399   */\n      and\n        /* \"#utility.yul\":37418:37436   */\n      dup1\n        /* \"#utility.yul\":37408:37489   */\n      tag_969\n      jumpi\n        /* \"#utility.yul\":37474:37478   */\n      0x7f\n        /* \"#utility.yul\":37466:37472   */\n      dup3\n        /* \"#utility.yul\":37462:37479   */\n      and\n        /* \"#utility.yul\":37452:37479   */\n      swap2\n      pop\n        /* \"#utility.yul\":37408:37489   */\n    tag_969:\n        /* \"#utility.yul\":37536:37538   */\n      0x20\n        /* \"#utility.yul\":37528:37534   */\n      dup3\n        /* \"#utility.yul\":37525:37539   */\n      lt\n        /* \"#utility.yul\":37505:37523   */\n      dup2\n        /* \"#utility.yul\":37502:37540   */\n      sub\n        /* \"#utility.yul\":37499:37583   */\n      tag_970\n      jumpi\n        /* \"#utility.yul\":37555:37573   */\n      tag_971\n      tag_609\n      jump\t// in\n    tag_971:\n        /* \"#utility.yul\":37499:37583   */\n    tag_970:\n        /* \"#utility.yul\":37320:37589   */\n      pop\n        /* \"#utility.yul\":37269:37589   */\n      swap2\n      swap1\n      pop\n      jump\t// out\n        /* \"#utility.yul\":37595:37736   */\n    tag_610:\n        /* \"#utility.yul\":37644:37648   */\n      0x00\n        /* \"#utility.yul\":37667:37670   */\n      dup2\n        /* \"#utility.yul\":37659:37670   */\n      swap1\n      pop\n        /* \"#utility.yul\":37690:37693   */\n      dup2\n        /* \"#utility.yul\":37687:37688   */\n      0x00\n        /* \"#utility.yul\":37680:37694   */\n      mstore\n        /* \"#utility.yul\":37724:37728   */\n      0x20\n        /* \"#utility.yul\":37721:37722   */\n      0x00\n        /* \"#utility.yul\":37711:37729   */\n      keccak256\n        /* \"#utility.yul\":37703:37729   */\n      swap1\n      pop\n        /* \"#utility.yul\":37595:37736   */\n      swap2\n      swap1\n      pop\n      jump\t// out\n        /* \"#utility.yul\":37742:37835   */\n    tag_611:\n        /* \"#utility.yul\":37779:37785   */\n      0x00\n        /* \"#utility.yul\":37826:37828   */\n      0x20\n        /* \"#utility.yul\":37821:37823   */\n      0x1f\n        /* \"#utility.yul\":37814:37819   */\n      dup4\n        /* \"#utility.yul\":37810:37824   */\n      add\n        /* \"#utility.yul\":37806:37829   */\n      div\n        /* \"#utility.yul\":37796:37829   */\n      swap1\n      pop\n        /* \"#utility.yul\":37742:37835   */\n      swap2\n      swap1\n      pop\n      jump\t// out\n        /* \"#utility.yul\":37841:37948   */\n    tag_612:\n        /* \"#utility.yul\":37885:37893   */\n      0x00\n        /* \"#utility.yul\":37935:37940   */\n      dup3\n        /* \"#utility.yul\":37929:37933   */\n      dup3\n        /* \"#utility.yul\":37925:37941   */\n      shl\n        /* \"#utility.yul\":37904:37941   */\n      swap1\n      pop\n        /* \"#utility.yul\":37841:37948   */\n      swap3\n      swap2\n      pop\n      pop\n      jump\t// out\n        /* \"#utility.yul\":37954:38347   */\n    tag_613:\n        /* \"#utility.yul\":38023:38029   */\n      0x00\n        /* \"#utility.yul\":38073:38074   */\n      0x08\n        /* \"#utility.yul\":38061:38071   */\n      dup4\n        /* \"#utility.yul\":38057:38075   */\n      mul\n        /* \"#utility.yul\":38096:38193   */\n      tag_976\n        /* \"#utility.yul\":38126:38192   */\n      0xffffffffffffffffffffffffffffffffffffffffffffffffffffffffffffffff\n        /* \"#utility.yul\":38115:38124   */\n      dup3\n        /* \"#utility.yul\":38096:38193   */\n      tag_612\n      jump\t// in\n    tag_976:\n        /* \"#utility.yul\":38214:38253   */\n      tag_977\n        /* \"#utility.yul\":38244:38252   */\n      dup7\n        /* \"#utility.yul\":38233:38242   */\n      dup4\n        /* \"#utility.yul\":38214:38253   */\n      tag_612\n      jump\t// in\n    tag_977:\n        /* \"#utility.yul\":38202:38253   */\n      swap6\n      pop\n        /* \"#utility.yul\":38286:38290   */\n      dup1\n        /* \"#utility.yul\":38282:38291   */\n      not\n        /* \"#utility.yul\":38275:38280   */\n      dup5\n        /* \"#utility.yul\":38271:38292   */\n      and\n        /* \"#utility.yul\":38262:38292   */\n      swap4\n      pop\n        /* \"#utility.yul\":38335:38339   */\n      dup1\n        /* \"#utility.yul\":38325:38333   */\n      dup7\n        /* \"#utility.yul\":38321:38340   */\n      and\n        /* \"#utility.yul\":38314:38319   */\n      dup5\n        /* \"#utility.yul\":38311:38341   */\n      or\n        /* \"#utility.yul\":38301:38341   */\n      swap3\n      pop\n        /* \"#utility.yul\":38030:38347   */\n      pop\n      pop\n        /* \"#utility.yul\":37954:38347   */\n      swap4\n      swap3\n      pop\n      pop\n      pop\n      jump\t// out\n        /* \"#utility.yul\":38353:38495   */\n    tag_614:\n        /* \"#utility.yul\":38403:38412   */\n      0x00\n        /* \"#utility.yul\":38436:38489   */\n      tag_979\n        /* \"#utility.yul\":38454:38488   */\n      tag_980\n        /* \"#utility.yul\":38463:38487   */\n      tag_981\n        /* \"#utility.yul\":38481:38486   */\n      dup5\n        /* \"#utility.yul\":38463:38487   */\n      tag_521\n      jump\t// in\n    tag_981:\n        /* \"#utility.yul\":38454:38488   */\n      tag_600\n      jump\t// in\n    tag_980:\n        /* \"#utility.yul\":38436:38489   */\n      tag_521\n      jump\t// in\n    tag_979:\n        /* \"#utility.yul\":38423:38489   */\n      swap1\n      pop\n        /* \"#utility.yul\":38353:38495   */\n      swap2\n      swap1\n      pop\n      jump\t// out\n        /* \"#utility.yul\":38501:38576   */\n    tag_615:\n        /* \"#utility.yul\":38544:38547   */\n      0x00\n        /* \"#utility.yul\":38565:38570   */\n      dup2\n        /* \"#utility.yul\":38558:38570   */\n      swap1\n      pop\n        /* \"#utility.yul\":38501:38576   */\n      swap2\n      swap1\n      pop\n      jump\t// out\n        /* \"#utility.yul\":38582:38851   */\n    tag_616:\n        /* \"#utility.yul\":38692:38731   */\n      tag_984\n        /* \"#utility.yul\":38723:38730   */\n      dup4\n        /* \"#utility.yul\":38692:38731   */\n      tag_614\n      jump\t// in\n    tag_984:\n        /* \"#utility.yul\":38753:38844   */\n      tag_985\n        /* \"#utility.yul\":38802:38843   */\n      tag_986\n        /* \"#utility.yul\":38826:38842   */\n      dup3\n        /* \"#utility.yul\":38802:38843   */\n      tag_615\n      jump\t// in\n    tag_986:\n        /* \"#utility.yul\":38794:38800   */\n      dup5\n        /* \"#utility.yul\":38787:38791   */\n      dup5\n        /* \"#utility.yul\":38781:38792   */\n      sload\n        /* \"#utility.yul\":38753:38844   */\n      tag_613\n      jump\t// in\n    tag_985:\n        /* \"#utility.yul\":38747:38751   */\n      dup3\n        /* \"#utility.yul\":38740:38845   */\n      sstore\n        /* \"#utility.yul\":38658:38851   */\n      pop\n        /* \"#utility.yul\":38582:38851   */\n      pop\n      pop\n      pop\n      jump\t// out\n        /* \"#utility.yul\":38857:38930   */\n    tag_617:\n        /* \"#utility.yul\":38902:38905   */\n      0x00\n        /* \"#utility.yul\":38857:38930   */\n      swap1\n      jump\t// out\n        /* \"#utility.yul\":38936:39125   */\n    tag_618:\n        /* \"#utility.yul\":39013:39045   */\n      tag_989\n      tag_617\n      jump\t// in\n    tag_989:\n        /* \"#utility.yul\":39054:39119   */\n      tag_990\n        /* \"#utility.yul\":39112:39118   */\n      dup2\n        /* \"#utility.yul\":39104:39110   */\n      dup5\n        /* \"#utility.yul\":39098:39102   */\n      dup5\n        /* \"#utility.yul\":39054:39119   */\n      tag_616\n      jump\t// in\n    tag_990:\n        /* \"#utility.yul\":38989:39125   */\n      pop\n        /* \"#utility.yul\":38936:39125   */\n      pop\n      pop\n      jump\t// out\n        /* \"#utility.yul\":39131:39317   */\n    tag_619:\n        /* \"#utility.yul\":39191:39311   */\n    tag_992:\n        /* \"#utility.yul\":39208:39211   */\n      dup2\n        /* \"#utility.yul\":39201:39206   */\n      dup2\n        /* \"#utility.yul\":39198:39212   */\n      lt\n        /* \"#utility.yul\":39191:39311   */\n      iszero\n      tag_994\n      jumpi\n        /* \"#utility.yul\":39262:39301   */\n      tag_995\n        /* \"#utility.yul\":39299:39300   */\n      0x00\n        /* \"#utility.yul\":39292:39297   */\n      dup3\n        /* \"#utility.yul\":39262:39301   */\n      tag_618\n      jump\t// in\n    tag_995:\n        /* \"#utility.yul\":39235:39236   */\n      0x01\n        /* \"#utility.yul\":39228:39233   */\n      dup2\n        /* \"#utility.yul\":39224:39237   */\n      add\n        /* \"#utility.yul\":39215:39237   */\n      swap1\n      pop\n        /* \"#utility.yul\":39191:39311   */\n      jump(tag_992)\n    tag_994:\n        /* \"#utility.yul\":39131:39317   */\n      pop\n      pop\n      jump\t// out\n        /* \"#utility.yul\":39323:39866   */\n    tag_620:\n        /* \"#utility.yul\":39424:39426   */\n      0x1f\n        /* \"#utility.yul\":39419:39422   */\n      dup3\n        /* \"#utility.yul\":39416:39427   */\n      gt\n        /* \"#utility.yul\":39413:39859   */\n      iszero\n      tag_997\n      jumpi\n        /* \"#utility.yul\":39458:39496   */\n      tag_998\n        /* \"#utility.yul\":39490:39495   */\n      dup2\n        /* \"#utility.yul\":39458:39496   */\n      tag_610\n      jump\t// in\n    tag_998:\n        /* \"#utility.yul\":39542:39571   */\n      tag_999\n        /* \"#utility.yul\":39560:39570   */\n      dup5\n        /* \"#utility.yul\":39542:39571   */\n      tag_611\n      jump\t// in\n    tag_999:\n        /* \"#utility.yul\":39532:39540   */\n      dup2\n        /* \"#utility.yul\":39528:39572   */\n      add\n        /* \"#utility.yul\":39725:39727   */\n      0x20\n        /* \"#utility.yul\":39713:39723   */\n      dup6\n        /* \"#utility.yul\":39710:39728   */\n      lt\n        /* \"#utility.yul\":39707:39756   */\n      iszero\n      tag_1000\n      jumpi\n        /* \"#utility.yul\":39746:39754   */\n      dup2\n        /* \"#utility.yul\":39731:39754   */\n      swap1\n      pop\n        /* \"#utility.yul\":39707:39756   */\n    tag_1000:\n        /* \"#utility.yul\":39769:39849   */\n      tag_1001\n        /* \"#utility.yul\":39825:39847   */\n      tag_1002\n        /* \"#utility.yul\":39843:39846   */\n      dup6\n        /* \"#utility.yul\":39825:39847   */\n      tag_611\n      jump\t// in\n    tag_1002:\n        /* \"#utility.yul\":39815:39823   */\n      dup4\n        /* \"#utility.yul\":39811:39848   */\n      add\n        /* \"#utility.yul\":39798:39809   */\n      dup3\n        /* \"#utility.yul\":39769:39849   */\n      tag_619\n      jump\t// in\n    tag_1001:\n        /* \"#utility.yul\":39428:39859   */\n      pop\n      pop\n        /* \"#utility.yul\":39413:39859   */\n    tag_997:\n        /* \"#utility.yul\":39323:39866   */\n      pop\n      pop\n      pop\n      jump\t// out\n        /* \"#utility.yul\":39872:39989   */\n    tag_621:\n        /* \"#utility.yul\":39926:39934   */\n      0x00\n        /* \"#utility.yul\":39976:39981   */\n      dup3\n        /* \"#utility.yul\":39970:39974   */\n      dup3\n        /* \"#utility.yul\":39966:39982   */\n      shr\n        /* \"#utility.yul\":39945:39982   */\n      swap1\n      pop\n        /* \"#utility.yul\":39872:39989   */\n      swap3\n      swap2\n      pop\n      pop\n      jump\t// out\n        /* \"#utility.yul\":39995:40164   */\n    tag_622:\n        /* \"#utility.yul\":40039:40045   */\n      0x00\n        /* \"#utility.yul\":40072:40123   */\n      tag_1005\n        /* \"#utility.yul\":40120:40121   */\n      0x00\n        /* \"#utility.yul\":40116:40122   */\n      not\n        /* \"#utility.yul\":40108:40113   */\n      dup5\n        /* \"#utility.yul\":40105:40106   */\n      0x08\n        /* \"#utility.yul\":40101:40114   */\n      mul\n        /* \"#utility.yul\":40072:40123   */\n      tag_621\n      jump\t// in\n    tag_1005:\n        /* \"#utility.yul\":40068:40124   */\n      not\n        /* \"#utility.yul\":40153:40157   */\n      dup1\n        /* \"#utility.yul\":40147:40151   */\n      dup4\n        /* \"#utility.yul\":40143:40158   */\n      and\n        /* \"#utility.yul\":40133:40158   */\n      swap2\n      pop\n        /* \"#utility.yul\":40046:40164   */\n      pop\n        /* \"#utility.yul\":39995:40164   */\n      swap3\n      swap2\n      pop\n      pop\n      jump\t// out\n        /* \"#utility.yul\":40169:40464   */\n    tag_623:\n        /* \"#utility.yul\":40245:40249   */\n      0x00\n        /* \"#utility.yul\":40391:40420   */\n      tag_1007\n        /* \"#utility.yul\":40416:40419   */\n      dup4\n        /* \"#utility.yul\":40410:40414   */\n      dup4\n        /* \"#utility.yul\":40391:40420   */\n      tag_622\n      jump\t// in\n    tag_1007:\n        /* \"#utility.yul\":40383:40420   */\n      swap2\n      pop\n        /* \"#utility.yul\":40453:40456   */\n      dup3\n        /* \"#utility.yul\":40450:40451   */\n      0x02\n        /* \"#utility.yul\":40446:40457   */\n      mul\n        /* \"#utility.yul\":40440:40444   */\n      dup3\n        /* \"#utility.yul\":40437:40458   */\n      or\n        /* \"#utility.yul\":40429:40458   */\n      swap1\n      pop\n        /* \"#utility.yul\":40169:40464   */\n      swap3\n      swap2\n      pop\n      pop\n      jump\t// out\n        /* \"#utility.yul\":40469:41864   */\n    tag_351:\n        /* \"#utility.yul\":40586:40623   */\n      tag_1009\n        /* \"#utility.yul\":40619:40622   */\n      dup3\n        /* \"#utility.yul\":40586:40623   */\n      tag_565\n      jump\t// in\n    tag_1009:\n        /* \"#utility.yul\":40688:40706   */\n      0xffffffffffffffff\n        /* \"#utility.yul\":40680:40686   */\n      dup2\n        /* \"#utility.yul\":40677:40707   */\n      gt\n        /* \"#utility.yul\":40674:40730   */\n      iszero\n      tag_1010\n      jumpi\n        /* \"#utility.yul\":40710:40728   */\n      tag_1011\n      tag_407\n      jump\t// in\n    tag_1011:\n        /* \"#utility.yul\":40674:40730   */\n    tag_1010:\n        /* \"#utility.yul\":40754:40792   */\n      tag_1012\n        /* \"#utility.yul\":40786:40790   */\n      dup3\n        /* \"#utility.yul\":40780:40791   */\n      sload\n        /* \"#utility.yul\":40754:40792   */\n      tag_471\n      jump\t// in\n    tag_1012:\n        /* \"#utility.yul\":40839:40906   */\n      tag_1013\n        /* \"#utility.yul\":40899:40905   */\n      dup3\n        /* \"#utility.yul\":40891:40897   */\n      dup3\n        /* \"#utility.yul\":40885:40889   */\n      dup6\n        /* \"#utility.yul\":40839:40906   */\n      tag_620\n      jump\t// in\n    tag_1013:\n        /* \"#utility.yul\":40933:40934   */\n      0x00\n        /* \"#utility.yul\":40957:40961   */\n      0x20\n        /* \"#utility.yul\":40944:40961   */\n      swap1\n      pop\n        /* \"#utility.yul\":40989:40991   */\n      0x1f\n        /* \"#utility.yul\":40981:40987   */\n      dup4\n        /* \"#utility.yul\":40978:40992   */\n      gt\n        /* \"#utility.yul\":41006:41007   */\n      0x01\n        /* \"#utility.yul\":41001:41619   */\n      dup2\n      eq\n      tag_1015\n      jumpi\n        /* \"#utility.yul\":41663:41664   */\n      0x00\n        /* \"#utility.yul\":41680:41686   */\n      dup5\n        /* \"#utility.yul\":41677:41754   */\n      iszero\n      tag_1016\n      jumpi\n        /* \"#utility.yul\":41729:41738   */\n      dup3\n        /* \"#utility.yul\":41724:41727   */\n      dup8\n        /* \"#utility.yul\":41720:41739   */\n      add\n        /* \"#utility.yul\":41714:41740   */\n      mload\n        /* \"#utility.yul\":41705:41740   */\n      swap1\n      pop\n        /* \"#utility.yul\":41677:41754   */\n    tag_1016:\n        /* \"#utility.yul\":41780:41847   */\n      tag_1017\n        /* \"#utility.yul\":41840:41846   */\n      dup6\n        /* \"#utility.yul\":41833:41838   */\n      dup3\n        /* \"#utility.yul\":41780:41847   */\n      tag_623\n      jump\t// in\n    tag_1017:\n        /* \"#utility.yul\":41774:41778   */\n      dup7\n        /* \"#utility.yul\":41767:41848   */\n      sstore\n        /* \"#utility.yul\":41636:41858   */\n      pop\n        /* \"#utility.yul\":40971:41858   */\n      jump(tag_1014)\n        /* \"#utility.yul\":41001:41619   */\n    tag_1015:\n        /* \"#utility.yul\":41053:41057   */\n      0x1f\n        /* \"#utility.yul\":41049:41058   */\n      not\n        /* \"#utility.yul\":41041:41047   */\n      dup5\n        /* \"#utility.yul\":41037:41059   */\n      and\n        /* \"#utility.yul\":41087:41124   */\n      tag_1018\n        /* \"#utility.yul\":41119:41123   */\n      dup7\n        /* \"#utility.yul\":41087:41124   */\n      tag_610\n      jump\t// in\n    tag_1018:\n        /* \"#utility.yul\":41146:41147   */\n      0x00\n        /* \"#utility.yul\":41160:41368   */\n    tag_1019:\n        /* \"#utility.yul\":41174:41181   */\n      dup3\n        /* \"#utility.yul\":41171:41172   */\n      dup2\n        /* \"#utility.yul\":41168:41182   */\n      lt\n        /* \"#utility.yul\":41160:41368   */\n      iszero\n      tag_1021\n      jumpi\n        /* \"#utility.yul\":41253:41262   */\n      dup5\n        /* \"#utility.yul\":41248:41251   */\n      dup10\n        /* \"#utility.yul\":41244:41263   */\n      add\n        /* \"#utility.yul\":41238:41264   */\n      mload\n        /* \"#utility.yul\":41230:41236   */\n      dup3\n        /* \"#utility.yul\":41223:41265   */\n      sstore\n        /* \"#utility.yul\":41304:41305   */\n      0x01\n        /* \"#utility.yul\":41296:41302   */\n      dup3\n        /* \"#utility.yul\":41292:41306   */\n      add\n        /* \"#utility.yul\":41282:41306   */\n      swap2\n      pop\n        /* \"#utility.yul\":41351:41353   */\n      0x20\n        /* \"#utility.yul\":41340:41349   */\n      dup6\n        /* \"#utility.yul\":41336:41354   */\n      add\n        /* \"#utility.yul\":41323:41354   */\n      swap5\n      pop\n        /* \"#utility.yul\":41197:41201   */\n      0x20\n        /* \"#utility.yul\":41194:41195   */\n      dup2\n        /* \"#utility.yul\":41190:41202   */\n      add\n        /* \"#utility.yul\":41185:41202   */\n      swap1\n      pop\n        /* \"#utility.yul\":41160:41368   */\n      jump(tag_1019)\n    tag_1021:\n        /* \"#utility.yul\":41396:41402   */\n      dup7\n        /* \"#utility.yul\":41387:41394   */\n      dup4\n        /* \"#utility.yul\":41384:41403   */\n      lt\n        /* \"#utility.yul\":41381:41560   */\n      iszero\n      tag_1022\n      jumpi\n        /* \"#utility.yul\":41454:41463   */\n      dup5\n        /* \"#utility.yul\":41449:41452   */\n      dup10\n        /* \"#utility.yul\":41445:41464   */\n      add\n        /* \"#utility.yul\":41439:41465   */\n      mload\n        /* \"#utility.yul\":41497:41545   */\n      tag_1023\n        /* \"#utility.yul\":41539:41543   */\n      0x1f\n        /* \"#utility.yul\":41531:41537   */\n      dup10\n        /* \"#utility.yul\":41527:41544   */\n      and\n        /* \"#utility.yul\":41516:41525   */\n      dup3\n        /* \"#utility.yul\":41497:41545   */\n      tag_622\n      jump\t// in\n    tag_1023:\n        /* \"#utility.yul\":41489:41495   */\n      dup4\n        /* \"#utility.yul\":41482:41546   */\n      sstore\n        /* \"#utility.yul\":41404:41560   */\n      pop\n        /* \"#utility.yul\":41381:41560   */\n    tag_1022:\n        /* \"#utility.yul\":41606:41607   */\n      0x01\n        /* \"#utility.yul\":41602:41603   */\n      0x02\n        /* \"#utility.yul\":41594:41600   */\n      dup9\n        /* \"#utility.yul\":41590:41604   */\n      mul\n        /* \"#utility.yul\":41586:41608   */\n      add\n        /* \"#utility.yul\":41580:41584   */\n      dup9\n        /* \"#utility.yul\":41573:41609   */\n      sstore\n        /* \"#utility.yul\":41008:41619   */\n      pop\n      pop\n      pop\n        /* \"#utility.yul\":40971:41858   */\n    tag_1014:\n      pop\n        /* \"#utility.yul\":40561:41864   */\n      pop\n      pop\n      pop\n        /* \"#utility.yul\":40469:41864   */\n      pop\n      pop\n      jump\t// out\n        /* \"#utility.yul\":41870:42293   */\n    tag_353:\n        /* \"#utility.yul\":42011:42015   */\n      0x00\n        /* \"#utility.yul\":42049:42051   */\n      0x40\n        /* \"#utility.yul\":42038:42047   */\n      dup3\n        /* \"#utility.yul\":42034:42052   */\n      add\n        /* \"#utility.yul\":42026:42052   */\n      swap1\n      pop\n        /* \"#utility.yul\":42062:42133   */\n      tag_1025\n        /* \"#utility.yul\":42130:42131   */\n      0x00\n        /* \"#utility.yul\":42119:42128   */\n      dup4\n        /* \"#utility.yul\":42115:42132   */\n      add\n        /* \"#utility.yul\":42106:42112   */\n      dup6\n        /* \"#utility.yul\":42062:42133   */\n      tag_582\n      jump\t// in\n    tag_1025:\n        /* \"#utility.yul\":42180:42189   */\n      dup2\n        /* \"#utility.yul\":42174:42178   */\n      dup2\n        /* \"#utility.yul\":42170:42190   */\n      sub\n        /* \"#utility.yul\":42165:42167   */\n      0x20\n        /* \"#utility.yul\":42154:42163   */\n      dup4\n        /* \"#utility.yul\":42150:42168   */\n      add\n        /* \"#utility.yul\":42143:42191   */\n      mstore\n        /* \"#utility.yul\":42208:42286   */\n      tag_1026\n        /* \"#utility.yul\":42281:42285   */\n      dup2\n        /* \"#utility.yul\":42272:42278   */\n      dup5\n        /* \"#utility.yul\":42208:42286   */\n      tag_574\n      jump\t// in\n    tag_1026:\n        /* \"#utility.yul\":42200:42286   */\n      swap1\n      pop\n        /* \"#utility.yul\":41870:42293   */\n      swap4\n      swap3\n      pop\n      pop\n      pop\n      jump\t// out\n        /* \"#utility.yul\":42299:42671   */\n    tag_356:\n        /* \"#utility.yul\":42338:42342   */\n      0x00\n        /* \"#utility.yul\":42358:42377   */\n      tag_1028\n        /* \"#utility.yul\":42375:42376   */\n      dup3\n        /* \"#utility.yul\":42358:42377   */\n      tag_548\n      jump\t// in\n    tag_1028:\n        /* \"#utility.yul\":42353:42377   */\n      swap2\n      pop\n        /* \"#utility.yul\":42391:42410   */\n      tag_1029\n        /* \"#utility.yul\":42408:42409   */\n      dup4\n        /* \"#utility.yul\":42391:42410   */\n      tag_548\n      jump\t// in\n    tag_1029:\n        /* \"#utility.yul\":42386:42410   */\n      swap3\n      pop\n        /* \"#utility.yul\":42434:42435   */\n      dup3\n        /* \"#utility.yul\":42431:42432   */\n      dup3\n        /* \"#utility.yul\":42427:42436   */\n      sub\n        /* \"#utility.yul\":42419:42436   */\n      swap1\n      pop\n        /* \"#utility.yul\":42628:42629   */\n      dup2\n        /* \"#utility.yul\":42622:42626   */\n      dup2\n        /* \"#utility.yul\":42618:42630   */\n      slt\n        /* \"#utility.yul\":42614:42615   */\n      0x00\n        /* \"#utility.yul\":42611:42612   */\n      dup5\n        /* \"#utility.yul\":42607:42616   */\n      slt\n        /* \"#utility.yul\":42603:42631   */\n      and\n        /* \"#utility.yul\":42586:42587   */\n      dup3\n        /* \"#utility.yul\":42580:42584   */\n      dup3\n        /* \"#utility.yul\":42576:42588   */\n      sgt\n        /* \"#utility.yul\":42571:42572   */\n      0x00\n        /* \"#utility.yul\":42568:42569   */\n      dup6\n        /* \"#utility.yul\":42564:42573   */\n      slt\n        /* \"#utility.yul\":42557:42574   */\n      iszero\n        /* \"#utility.yul\":42553:42589   */\n      and\n        /* \"#utility.yul\":42537:42641   */\n      or\n        /* \"#utility.yul\":42534:42664   */\n      iszero\n      tag_1030\n      jumpi\n        /* \"#utility.yul\":42644:42662   */\n      tag_1031\n      tag_581\n      jump\t// in\n    tag_1031:\n        /* \"#utility.yul\":42534:42664   */\n    tag_1030:\n        /* \"#utility.yul\":42299:42671   */\n      swap3\n      swap2\n      pop\n      pop\n      jump\t// out\n        /* \"#utility.yul\":42677:43062   */\n    tag_361:\n        /* \"#utility.yul\":42716:42717   */\n      0x00\n        /* \"#utility.yul\":42733:42752   */\n      tag_1033\n        /* \"#utility.yul\":42750:42751   */\n      dup3\n        /* \"#utility.yul\":42733:42752   */\n      tag_548\n      jump\t// in\n    tag_1033:\n        /* \"#utility.yul\":42728:42752   */\n      swap2\n      pop\n        /* \"#utility.yul\":42766:42785   */\n      tag_1034\n        /* \"#utility.yul\":42783:42784   */\n      dup4\n        /* \"#utility.yul\":42766:42785   */\n      tag_548\n      jump\t// in\n    tag_1034:\n        /* \"#utility.yul\":42761:42785   */\n      swap3\n      pop\n        /* \"#utility.yul\":42804:42805   */\n      dup3\n        /* \"#utility.yul\":42794:42829   */\n      tag_1035\n      jumpi\n        /* \"#utility.yul\":42809:42827   */\n      tag_1036\n      tag_583\n      jump\t// in\n    tag_1036:\n        /* \"#utility.yul\":42794:42829   */\n    tag_1035:\n        /* \"#utility.yul\":42995:42996   */\n      0x01\n        /* \"#utility.yul\":42992:42993   */\n      0x00\n        /* \"#utility.yul\":42988:42997   */\n      sub\n        /* \"#utility.yul\":42985:42986   */\n      dup4\n        /* \"#utility.yul\":42982:42998   */\n      eq\n        /* \"#utility.yul\":42901:42967   */\n      0x8000000000000000000000000000000000000000000000000000000000000000\n        /* \"#utility.yul\":42898:42899   */\n      dup4\n        /* \"#utility.yul\":42895:42968   */\n      eq\n        /* \"#utility.yul\":42878:43008   */\n      and\n        /* \"#utility.yul\":42875:43031   */\n      iszero\n      tag_1037\n      jumpi\n        /* \"#utility.yul\":43011:43029   */\n      tag_1038\n      tag_581\n      jump\t// in\n    tag_1038:\n        /* \"#utility.yul\":42875:43031   */\n    tag_1037:\n        /* \"#utility.yul\":43054:43055   */\n      dup3\n        /* \"#utility.yul\":43051:43052   */\n      dup3\n        /* \"#utility.yul\":43046:43056   */\n      sdiv\n        /* \"#utility.yul\":43041:43056   */\n      swap1\n      pop\n        /* \"#utility.yul\":42677:43062   */\n      swap3\n      swap2\n      pop\n      pop\n      jump\t// out\n        /* \"#utility.yul\":43068:43443   */\n    tag_363:\n        /* \"#utility.yul\":43107:43110   */\n      0x00\n        /* \"#utility.yul\":43126:43145   */\n      tag_1040\n        /* \"#utility.yul\":43143:43144   */\n      dup3\n        /* \"#utility.yul\":43126:43145   */\n      tag_548\n      jump\t// in\n    tag_1040:\n        /* \"#utility.yul\":43121:43145   */\n      swap2\n      pop\n        /* \"#utility.yul\":43159:43178   */\n      tag_1041\n        /* \"#utility.yul\":43176:43177   */\n      dup4\n        /* \"#utility.yul\":43159:43178   */\n      tag_548\n      jump\t// in\n    tag_1041:\n        /* \"#utility.yul\":43154:43178   */\n      swap3\n      pop\n        /* \"#utility.yul\":43201:43202   */\n      dup3\n        /* \"#utility.yul\":43198:43199   */\n      dup3\n        /* \"#utility.yul\":43194:43203   */\n      add\n        /* \"#utility.yul\":43187:43203   */\n      swap1\n      pop\n        /* \"#utility.yul\":43399:43400   */\n      dup3\n        /* \"#utility.yul\":43394:43397   */\n      dup2\n        /* \"#utility.yul\":43390:43401   */\n      slt\n        /* \"#utility.yul\":43383:43402   */\n      iszero\n        /* \"#utility.yul\":43379:43380   */\n      0x00\n        /* \"#utility.yul\":43376:43377   */\n      dup4\n        /* \"#utility.yul\":43372:43381   */\n      slt\n        /* \"#utility.yul\":43368:43403   */\n      and\n        /* \"#utility.yul\":43351:43352   */\n      dup4\n        /* \"#utility.yul\":43346:43349   */\n      dup3\n        /* \"#utility.yul\":43342:43353   */\n      slt\n        /* \"#utility.yul\":43337:43338   */\n      0x00\n        /* \"#utility.yul\":43334:43335   */\n      dup5\n        /* \"#utility.yul\":43330:43339   */\n      slt\n        /* \"#utility.yul\":43323:43340   */\n      iszero\n        /* \"#utility.yul\":43319:43354   */\n      and\n        /* \"#utility.yul\":43303:43413   */\n      or\n        /* \"#utility.yul\":43300:43436   */\n      iszero\n      tag_1042\n      jumpi\n        /* \"#utility.yul\":43416:43434   */\n      tag_1043\n      tag_581\n      jump\t// in\n    tag_1043:\n        /* \"#utility.yul\":43300:43436   */\n    tag_1042:\n        /* \"#utility.yul\":43068:43443   */\n      swap3\n      swap2\n      pop\n      pop\n      jump\t// out\n        /* \"#utility.yul\":43449:43597   */\n    tag_624:\n        /* \"#utility.yul\":43551:43562   */\n      0x00\n        /* \"#utility.yul\":43588:43591   */\n      dup2\n        /* \"#utility.yul\":43573:43591   */\n      swap1\n      pop\n        /* \"#utility.yul\":43449:43597   */\n      swap3\n      swap2\n      pop\n      pop\n      jump\t// out\n        /* \"#utility.yul\":43603:43993   */\n    tag_625:\n        /* \"#utility.yul\":43709:43712   */\n      0x00\n        /* \"#utility.yul\":43737:43776   */\n      tag_1046\n        /* \"#utility.yul\":43770:43775   */\n      dup3\n        /* \"#utility.yul\":43737:43776   */\n      tag_565\n      jump\t// in\n    tag_1046:\n        /* \"#utility.yul\":43792:43881   */\n      tag_1047\n        /* \"#utility.yul\":43874:43880   */\n      dup2\n        /* \"#utility.yul\":43869:43872   */\n      dup6\n        /* \"#utility.yul\":43792:43881   */\n      tag_624\n      jump\t// in\n    tag_1047:\n        /* \"#utility.yul\":43785:43881   */\n      swap4\n      pop\n        /* \"#utility.yul\":43890:43955   */\n      tag_1048\n        /* \"#utility.yul\":43948:43954   */\n      dup2\n        /* \"#utility.yul\":43943:43946   */\n      dup6\n        /* \"#utility.yul\":43936:43940   */\n      0x20\n        /* \"#utility.yul\":43929:43934   */\n      dup7\n        /* \"#utility.yul\":43925:43941   */\n      add\n        /* \"#utility.yul\":43890:43955   */\n      tag_567\n      jump\t// in\n    tag_1048:\n        /* \"#utility.yul\":43980:43986   */\n      dup1\n        /* \"#utility.yul\":43975:43978   */\n      dup5\n        /* \"#utility.yul\":43971:43987   */\n      add\n        /* \"#utility.yul\":43964:43987   */\n      swap2\n      pop\n        /* \"#utility.yul\":43713:43993   */\n      pop\n        /* \"#utility.yul\":43603:43993   */\n      swap3\n      swap2\n      pop\n      pop\n      jump\t// out\n        /* \"#utility.yul\":43999:44078   */\n    tag_626:\n        /* \"#utility.yul\":44038:44045   */\n      0x00\n        /* \"#utility.yul\":44067:44072   */\n      dup2\n        /* \"#utility.yul\":44056:44072   */\n      swap1\n      pop\n        /* \"#utility.yul\":43999:44078   */\n      swap2\n      swap1\n      pop\n      jump\t// out\n        /* \"#utility.yul\":44084:44241   */\n    tag_627:\n        /* \"#utility.yul\":44189:44234   */\n      tag_1051\n        /* \"#utility.yul\":44209:44233   */\n      tag_1052\n        /* \"#utility.yul\":44227:44232   */\n      dup3\n        /* \"#utility.yul\":44209:44233   */\n      tag_521\n      jump\t// in\n    tag_1052:\n        /* \"#utility.yul\":44189:44234   */\n      tag_626\n      jump\t// in\n    tag_1051:\n        /* \"#utility.yul\":44184:44187   */\n      dup3\n        /* \"#utility.yul\":44177:44235   */\n      mstore\n        /* \"#utility.yul\":44084:44241   */\n      pop\n      pop\n      jump\t// out\n        /* \"#utility.yul\":44247:44341   */\n    tag_628:\n        /* \"#utility.yul\":44280:44288   */\n      0x00\n        /* \"#utility.yul\":44328:44333   */\n      dup2\n        /* \"#utility.yul\":44324:44326   */\n      0x60\n        /* \"#utility.yul\":44320:44334   */\n      shl\n        /* \"#utility.yul\":44299:44334   */\n      swap1\n      pop\n        /* \"#utility.yul\":44247:44341   */\n      swap2\n      swap1\n      pop\n      jump\t// out\n        /* \"#utility.yul\":44347:44441   */\n    tag_629:\n        /* \"#utility.yul\":44386:44393   */\n      0x00\n        /* \"#utility.yul\":44415:44435   */\n      tag_1055\n        /* \"#utility.yul\":44429:44434   */\n      dup3\n        /* \"#utility.yul\":44415:44435   */\n      tag_628\n      jump\t// in\n    tag_1055:\n        /* \"#utility.yul\":44404:44435   */\n      swap1\n      pop\n        /* \"#utility.yul\":44347:44441   */\n      swap2\n      swap1\n      pop\n      jump\t// out\n        /* \"#utility.yul\":44447:44547   */\n    tag_630:\n        /* \"#utility.yul\":44486:44493   */\n      0x00\n        /* \"#utility.yul\":44515:44541   */\n      tag_1057\n        /* \"#utility.yul\":44535:44540   */\n      dup3\n        /* \"#utility.yul\":44515:44541   */\n      tag_629\n      jump\t// in\n    tag_1057:\n        /* \"#utility.yul\":44504:44541   */\n      swap1\n      pop\n        /* \"#utility.yul\":44447:44547   */\n      swap2\n      swap1\n      pop\n      jump\t// out\n        /* \"#utility.yul\":44553:44710   */\n    tag_631:\n        /* \"#utility.yul\":44658:44703   */\n      tag_1059\n        /* \"#utility.yul\":44678:44702   */\n      tag_1060\n        /* \"#utility.yul\":44696:44701   */\n      dup3\n        /* \"#utility.yul\":44678:44702   */\n      tag_528\n      jump\t// in\n    tag_1060:\n        /* \"#utility.yul\":44658:44703   */\n      tag_630\n      jump\t// in\n    tag_1059:\n        /* \"#utility.yul\":44653:44656   */\n      dup3\n        /* \"#utility.yul\":44646:44704   */\n      mstore\n        /* \"#utility.yul\":44553:44710   */\n      pop\n      pop\n      jump\t// out\n        /* \"#utility.yul\":44716:45433   */\n    tag_374:\n        /* \"#utility.yul\":44952:44955   */\n      0x00\n        /* \"#utility.yul\":44974:45069   */\n      tag_1062\n        /* \"#utility.yul\":45065:45068   */\n      dup3\n        /* \"#utility.yul\":45056:45062   */\n      dup8\n        /* \"#utility.yul\":44974:45069   */\n      tag_625\n      jump\t// in\n    tag_1062:\n        /* \"#utility.yul\":44967:45069   */\n      swap2\n      pop\n        /* \"#utility.yul\":45086:45181   */\n      tag_1063\n        /* \"#utility.yul\":45177:45180   */\n      dup3\n        /* \"#utility.yul\":45168:45174   */\n      dup7\n        /* \"#utility.yul\":45086:45181   */\n      tag_625\n      jump\t// in\n    tag_1063:\n        /* \"#utility.yul\":45079:45181   */\n      swap2\n      pop\n        /* \"#utility.yul\":45191:45266   */\n      tag_1064\n        /* \"#utility.yul\":45262:45265   */\n      dup3\n        /* \"#utility.yul\":45253:45259   */\n      dup6\n        /* \"#utility.yul\":45191:45266   */\n      tag_627\n      jump\t// in\n    tag_1064:\n        /* \"#utility.yul\":45291:45293   */\n      0x20\n        /* \"#utility.yul\":45286:45289   */\n      dup3\n        /* \"#utility.yul\":45282:45294   */\n      add\n        /* \"#utility.yul\":45275:45294   */\n      swap2\n      pop\n        /* \"#utility.yul\":45304:45379   */\n      tag_1065\n        /* \"#utility.yul\":45375:45378   */\n      dup3\n        /* \"#utility.yul\":45366:45372   */\n      dup5\n        /* \"#utility.yul\":45304:45379   */\n      tag_631\n      jump\t// in\n    tag_1065:\n        /* \"#utility.yul\":45404:45406   */\n      0x14\n        /* \"#utility.yul\":45399:45402   */\n      dup3\n        /* \"#utility.yul\":45395:45407   */\n      add\n        /* \"#utility.yul\":45388:45407   */\n      swap2\n      pop\n        /* \"#utility.yul\":45424:45427   */\n      dup2\n        /* \"#utility.yul\":45417:45427   */\n      swap1\n      pop\n        /* \"#utility.yul\":44716:45433   */\n      swap6\n      swap5\n      pop\n      pop\n      pop\n      pop\n      pop\n      jump\t// out\n        /* \"#utility.yul\":45439:46396   */\n    tag_391:\n        /* \"#utility.yul\":45712:45716   */\n      0x00\n        /* \"#utility.yul\":45750:45753   */\n      0xc0\n        /* \"#utility.yul\":45739:45748   */\n      dup3\n        /* \"#utility.yul\":45735:45754   */\n      add\n        /* \"#utility.yul\":45727:45754   */\n      swap1\n      pop\n        /* \"#utility.yul\":45764:45835   */\n      tag_1067\n        /* \"#utility.yul\":45832:45833   */\n      0x00\n        /* \"#utility.yul\":45821:45830   */\n      dup4\n        /* \"#utility.yul\":45817:45834   */\n      add\n        /* \"#utility.yul\":45808:45814   */\n      dup10\n        /* \"#utility.yul\":45764:45835   */\n      tag_582\n      jump\t// in\n    tag_1067:\n        /* \"#utility.yul\":45882:45891   */\n      dup2\n        /* \"#utility.yul\":45876:45880   */\n      dup2\n        /* \"#utility.yul\":45872:45892   */\n      sub\n        /* \"#utility.yul\":45867:45869   */\n      0x20\n        /* \"#utility.yul\":45856:45865   */\n      dup4\n        /* \"#utility.yul\":45852:45870   */\n      add\n        /* \"#utility.yul\":45845:45893   */\n      mstore\n        /* \"#utility.yul\":45910:45988   */\n      tag_1068\n        /* \"#utility.yul\":45983:45987   */\n      dup2\n        /* \"#utility.yul\":45974:45980   */\n      dup9\n        /* \"#utility.yul\":45910:45988   */\n      tag_574\n      jump\t// in\n    tag_1068:\n        /* \"#utility.yul\":45902:45988   */\n      swap1\n      pop\n        /* \"#utility.yul\":46035:46044   */\n      dup2\n        /* \"#utility.yul\":46029:46033   */\n      dup2\n        /* \"#utility.yul\":46025:46045   */\n      sub\n        /* \"#utility.yul\":46020:46022   */\n      0x40\n        /* \"#utility.yul\":46009:46018   */\n      dup4\n        /* \"#utility.yul\":46005:46023   */\n      add\n        /* \"#utility.yul\":45998:46046   */\n      mstore\n        /* \"#utility.yul\":46063:46141   */\n      tag_1069\n        /* \"#utility.yul\":46136:46140   */\n      dup2\n        /* \"#utility.yul\":46127:46133   */\n      dup8\n        /* \"#utility.yul\":46063:46141   */\n      tag_574\n      jump\t// in\n    tag_1069:\n        /* \"#utility.yul\":46055:46141   */\n      swap1\n      pop\n        /* \"#utility.yul\":46151:46223   */\n      tag_1070\n        /* \"#utility.yul\":46219:46221   */\n      0x60\n        /* \"#utility.yul\":46208:46217   */\n      dup4\n        /* \"#utility.yul\":46204:46222   */\n      add\n        /* \"#utility.yul\":46195:46201   */\n      dup7\n        /* \"#utility.yul\":46151:46223   */\n      tag_529\n      jump\t// in\n    tag_1070:\n        /* \"#utility.yul\":46233:46306   */\n      tag_1071\n        /* \"#utility.yul\":46301:46304   */\n      0x80\n        /* \"#utility.yul\":46290:46299   */\n      dup4\n        /* \"#utility.yul\":46286:46305   */\n      add\n        /* \"#utility.yul\":46277:46283   */\n      dup6\n        /* \"#utility.yul\":46233:46306   */\n      tag_532\n      jump\t// in\n    tag_1071:\n        /* \"#utility.yul\":46316:46389   */\n      tag_1072\n        /* \"#utility.yul\":46384:46387   */\n      0xa0\n        /* \"#utility.yul\":46373:46382   */\n      dup4\n        /* \"#utility.yul\":46369:46388   */\n      add\n        /* \"#utility.yul\":46360:46366   */\n      dup5\n        /* \"#utility.yul\":46316:46389   */\n      tag_532\n      jump\t// in\n    tag_1072:\n        /* \"#utility.yul\":45439:46396   */\n      swap8\n      swap7\n      pop\n      pop\n      pop\n      pop\n      pop\n      pop\n      pop\n      jump\t// out\n        /* \"#utility.yul\":46402:46812   */\n    tag_404:\n        /* \"#utility.yul\":46442:46449   */\n      0x00\n        /* \"#utility.yul\":46465:46485   */\n      tag_1074\n        /* \"#utility.yul\":46483:46484   */\n      dup3\n        /* \"#utility.yul\":46465:46485   */\n      tag_521\n      jump\t// in\n    tag_1074:\n        /* \"#utility.yul\":46460:46485   */\n      swap2\n      pop\n        /* \"#utility.yul\":46499:46519   */\n      tag_1075\n        /* \"#utility.yul\":46517:46518   */\n      dup4\n        /* \"#utility.yul\":46499:46519   */\n      tag_521\n      jump\t// in\n    tag_1075:\n        /* \"#utility.yul\":46494:46519   */\n      swap3\n      pop\n        /* \"#utility.yul\":46554:46555   */\n      dup3\n        /* \"#utility.yul\":46551:46552   */\n      dup3\n        /* \"#utility.yul\":46547:46556   */\n      mul\n        /* \"#utility.yul\":46576:46606   */\n      tag_1076\n        /* \"#utility.yul\":46594:46605   */\n      dup2\n        /* \"#utility.yul\":46576:46606   */\n      tag_521\n      jump\t// in\n    tag_1076:\n        /* \"#utility.yul\":46565:46606   */\n      swap2\n      pop\n        /* \"#utility.yul\":46755:46756   */\n      dup3\n        /* \"#utility.yul\":46746:46753   */\n      dup3\n        /* \"#utility.yul\":46742:46757   */\n      div\n        /* \"#utility.yul\":46739:46740   */\n      dup5\n        /* \"#utility.yul\":46736:46758   */\n      eq\n        /* \"#utility.yul\":46716:46717   */\n      dup4\n        /* \"#utility.yul\":46709:46718   */\n      iszero\n        /* \"#utility.yul\":46689:46772   */\n      or\n        /* \"#utility.yul\":46666:46805   */\n      tag_1077\n      jumpi\n        /* \"#utility.yul\":46785:46803   */\n      tag_1078\n      tag_581\n      jump\t// in\n    tag_1078:\n        /* \"#utility.yul\":46666:46805   */\n    tag_1077:\n        /* \"#utility.yul\":46450:46812   */\n      pop\n        /* \"#utility.yul\":46402:46812   */\n      swap3\n      swap2\n      pop\n      pop\n      jump\t// out\n        /* \"#utility.yul\":46818:47051   */\n    tag_410:\n        /* \"#utility.yul\":46857:46860   */\n      0x00\n        /* \"#utility.yul\":46880:46904   */\n      tag_1080\n        /* \"#utility.yul\":46898:46903   */\n      dup3\n        /* \"#utility.yul\":46880:46904   */\n      tag_521\n      jump\t// in\n    tag_1080:\n        /* \"#utility.yul\":46871:46904   */\n      swap2\n      pop\n        /* \"#utility.yul\":46926:46992   */\n      0xffffffffffffffffffffffffffffffffffffffffffffffffffffffffffffffff\n        /* \"#utility.yul\":46919:46924   */\n      dup3\n        /* \"#utility.yul\":46916:46993   */\n      sub\n        /* \"#utility.yul\":46913:47016   */\n      tag_1081\n      jumpi\n        /* \"#utility.yul\":46996:47014   */\n      tag_1082\n      tag_581\n      jump\t// in\n    tag_1082:\n        /* \"#utility.yul\":46913:47016   */\n    tag_1081:\n        /* \"#utility.yul\":47043:47044   */\n      0x01\n        /* \"#utility.yul\":47036:47041   */\n      dup3\n        /* \"#utility.yul\":47032:47045   */\n      add\n        /* \"#utility.yul\":47025:47045   */\n      swap1\n      pop\n        /* \"#utility.yul\":46818:47051   */\n      swap2\n      swap1\n      pop\n      jump\t// out\n        /* \"#utility.yul\":47057:47228   */\n    tag_420:\n        /* \"#utility.yul\":47096:47099   */\n      0x00\n        /* \"#utility.yul\":47119:47143   */\n      tag_1084\n        /* \"#utility.yul\":47137:47142   */\n      dup3\n        /* \"#utility.yul\":47119:47143   */\n      tag_521\n      jump\t// in\n    tag_1084:\n        /* \"#utility.yul\":47110:47143   */\n      swap2\n      pop\n        /* \"#utility.yul\":47165:47169   */\n      0x00\n        /* \"#utility.yul\":47158:47163   */\n      dup3\n        /* \"#utility.yul\":47155:47170   */\n      sub\n        /* \"#utility.yul\":47152:47193   */\n      tag_1085\n      jumpi\n        /* \"#utility.yul\":47173:47191   */\n      tag_1086\n      tag_581\n      jump\t// in\n    tag_1086:\n        /* \"#utility.yul\":47152:47193   */\n    tag_1085:\n        /* \"#utility.yul\":47220:47221   */\n      0x01\n        /* \"#utility.yul\":47213:47218   */\n      dup3\n        /* \"#utility.yul\":47209:47222   */\n      sub\n        /* \"#utility.yul\":47202:47222   */\n      swap1\n      pop\n        /* \"#utility.yul\":47057:47228   */\n      swap2\n      swap1\n      pop\n      jump\t// out\n\n    auxdata: 0xa264697066735822122065f1be307645663d51ce0c3188201d7e18748f3232a721b120c3c3b79c33962864736f6c634300081a0033\n}\n",
				"bytecode": {
					"linkReferences": {},
					"object": "60806040526101ea600155610122600255348015601a575f80fd5b50335f806101000a81548173ffffffffffffffffffffffffffffffffffffffff021916908373ffffffffffffffffffffffffffffffffffffffff160217905550613cea806100675f395ff3fe6080604052600436106101ba575f3560e01c806388559468116100eb578063c12483d411610089578063d874cf6411610063578063d874cf64146105ec578063ea4a873c14610614578063f08a64e614610650578063f88fb6cf1461067a576101c1565b8063c12483d41461054a578063d10797cf14610586578063d3d6a117146105c2576101c1565b8063a1bdae45116100c5578063a1bdae451461047e578063a81ae362146104ba578063bbdb284f146104f6578063bf6faedc14610520576101c1565b806388559468146103f257806389022ff31461041a57806394ba970914610456576101c1565b80633f4ba83a116101585780636e0ace70116101325780636e0ace70146103605780637b18d3e7146103885780638456cb59146103b257806385d79102146103c8576101c1565b80633f4ba83a146103065780634a83b2261461031c57806364088bb814610338576101c1565b80630f26bb9c116101945780630f26bb9c1461024f5780632f2fafcd1461028c57806338975895146102b45780633ccfd60b146102f0576101c1565b8063096a8ab7146101c35780630b207621146101eb5780630d93dab814610227576101c1565b366101c157005b005b3480156101ce575f80fd5b506101e960048036038101906101e49190612562565b6106bc565b005b3480156101f6575f80fd5b50610211600480360381019061020c91906125c0565b610753565b60405161021e919061262a565b60405180910390f35b348015610232575f80fd5b5061024d600480360381019061024891906125c0565b61078f565b005b34801561025a575f80fd5b506102756004803603810190610270919061266d565b610978565b6040516102839291906126d4565b60405180910390f35b348015610297575f80fd5b506102b260048036038101906102ad91906125c0565b610b28565b005b3480156102bf575f80fd5b506102da60048036038101906102d591906125c0565b610d3c565b6040516102e791906126fb565b60405180910390f35b3480156102fb575f80fd5b50610304610d66565b005b348015610311575f80fd5b5061031a610e72565b005b610336600480360381019061033191906125c0565b610f68565b005b348015610343575f80fd5b5061035e60048036038101906103599190612562565b6111df565b005b34801561036b575f80fd5b50610386600480360381019061038191906125c0565b611276565b005b348015610393575f80fd5b5061039c611464565b6040516103a99190612714565b60405180910390f35b3480156103bd575f80fd5b506103c661146a565b005b3480156103d3575f80fd5b506103dc611562565b6040516103e99190612714565b60405180910390f35b3480156103fd575f80fd5b5061041860048036038101906104139190612869565b61156b565b005b348015610425575f80fd5b50610440600480360381019061043b9190612987565b611730565b60405161044d91906129f9565b60405180910390f35b348015610461575f80fd5b5061047c60048036038101906104779190612a12565b611804565b005b348015610489575f80fd5b506104a4600480360381019061049f91906125c0565b611b39565b6040516104b19190612b21565b60405180910390f35b3480156104c5575f80fd5b506104e060048036038101906104db91906125c0565b611b62565b6040516104ed9190612714565b60405180910390f35b348015610501575f80fd5b5061050a611bbf565b6040516105179190612714565b60405180910390f35b34801561052b575f80fd5b50610534611bc8565b6040516105419190612714565b60405180910390f35b348015610555575f80fd5b50610570600480360381019061056b9190612b3a565b611bce565b60405161057d9190612c38565b60405180910390f35b348015610591575f80fd5b506105ac60048036038101906105a791906125c0565b611e1b565b6040516105b99190612b21565b60405180910390f35b3480156105cd575f80fd5b506105d6611e44565b6040516105e39190612714565b60405180910390f35b3480156105f7575f80fd5b50610612600480360381019061060d9190612c58565b611e50565b005b34801561061f575f80fd5b5061063a600480360381019061063591906125c0565b612027565b6040516106479190612e28565b60405180910390f35b34801561065b575f80fd5b5061066461212d565b6040516106719190612c38565b60405180910390f35b348015610685575f80fd5b506106a0600480360381019061069b91906125c0565b6121be565b6040516106b39796959493929190612e90565b60405180910390f35b5f8054906101000a900473ffffffffffffffffffffffffffffffffffffffff1673ffffffffffffffffffffffffffffffffffffffff163373ffffffffffffffffffffffffffffffffffffffff1614610749576040517f08c379a000000000000000000000000000000000000000000000000000000000815260040161074090612f55565b60405180910390fd5b8060028190555050565b5f60075f8381526020019081526020015f206002015f9054906101000a900473ffffffffffffffffffffffffffffffffffffffff169050919050565b61079881610d3c565b6107d7576040517f08c379a00000000000000000000000000000000000000000000000000000000081526004016107ce90612fbd565b60405180910390fd5b5f6107e182611e1b565b90506002808111156107f6576107f5612aae565b5b81600281111561080957610808612aae565b5b14610849576040517f08c379a000000000000000000000000000000000000000000000000000000000815260040161084090613025565b60405180910390fd5b5f60065f8481526020019081526020015f2090505f5b8180549050811015610972575f82828154811061087f5761087e613043565b5b905f5260205f2090600202015f015f9054906101000a900473ffffffffffffffffffffffffffffffffffffffff1690505f8383815481106108c3576108c2613043565b5b905f5260205f2090600202016001015490508060045f8473ffffffffffffffffffffffffffffffffffffffff1673ffffffffffffffffffffffffffffffffffffffff1681526020019081526020015f205f828254610921919061309d565b925050819055507ff8590cd6b8c44be7a2bc57131f10e203ec5f7d7f2f761e1508a8cc964ecb9eb786838360405161095b939291906130df565b60405180910390a15050808060010191505061085f565b50505050565b5f805f60065f8681526020019081526020015f2090505f808280549050036109a7575f80935093505050610b21565b5f600183805490506109b99190613114565b90505b808211610b17575f600283836109d29190613114565b6109dc9190613174565b836109e7919061309d565b90508673ffffffffffffffffffffffffffffffffffffffff16848281548110610a1357610a12613043565b5b905f5260205f2090600202015f015f9054906101000a900473ffffffffffffffffffffffffffffffffffffffff1673ffffffffffffffffffffffffffffffffffffffff1603610a6c578060019550955050505050610b21565b8673ffffffffffffffffffffffffffffffffffffffff16848281548110610a9657610a95613043565b5b905f5260205f2090600202015f015f9054906101000a900473ffffffffffffffffffffffffffffffffffffffff1673ffffffffffffffffffffffffffffffffffffffff161015610af457600181610aed919061309d565b9250610b11565b5f8103610b015750610b17565b600181610b0e9190613114565b91505b506109bc565b5f80945094505050505b9250929050565b610b3181610d3c565b610b70576040517f08c379a0000000000000000000000000000000000000000000000000000000008152600401610b6790612fbd565b60405180910390fd5b5f60075f8381526020019081526020015f2090505f6002811115610b9757610b96612aae565b5b816006015f9054906101000a900460ff166002811115610bba57610bb9612aae565b5b14610bfa576040517f08c379a0000000000000000000000000000000000000000000000000000000008152600401610bf1906131ee565b60405180910390fd5b80600501544210610cfd578060030154816004015410610c88576001816006015f6101000a81548160ff02191690836002811115610c3b57610c3a612aae565b5b02179055507f9429ffd66955b0a50202aef461a5c7cc17723d8735de36b6119776d3511d7c4f826001604051610c7292919061320c565b60405180910390a1610c8382611276565b610cf8565b6002816006015f6101000a81548160ff02191690836002811115610caf57610cae612aae565b5b02179055507f9429ffd66955b0a50202aef461a5c7cc17723d8735de36b6119776d3511d7c4f826001604051610ce692919061320c565b60405180910390a1610cf78261078f565b5b610d38565b6040517f08c379a0000000000000000000000000000000000000000000000000000000008152600401610d2f9061327d565b60405180910390fd5b5050565b5f60075f8381526020019081526020015f2060060160019054906101000a900460ff169050919050565b5f60045f3373ffffffffffffffffffffffffffffffffffffffff1673ffffffffffffffffffffffffffffffffffffffff1681526020019081526020015f205490505f8111610de9576040517f08c379a0000000000000000000000000000000000000000000000000000000008152600401610de0906132e5565b60405180910390fd5b5f60045f3373ffffffffffffffffffffffffffffffffffffffff1673ffffffffffffffffffffffffffffffffffffffff1681526020019081526020015f20819055503373ffffffffffffffffffffffffffffffffffffffff166108fc8290811502906040515f60405180830381858888f19350505050158015610e6e573d5f803e3d5ffd5b5050565b5f60149054906101000a900460ff16610ec0576040517f08c379a0000000000000000000000000000000000000000000000000000000008152600401610eb79061334d565b60405180910390fd5b5f8054906101000a900473ffffffffffffffffffffffffffffffffffffffff1673ffffffffffffffffffffffffffffffffffffffff163373ffffffffffffffffffffffffffffffffffffffff1614610f4d576040517f08c379a0000000000000000000000000000000000000000000000000000000008152600401610f4490612f55565b60405180910390fd5b5f8060146101000a81548160ff021916908315150217905550565b610f7181610d3c565b610fb0576040517f08c379a0000000000000000000000000000000000000000000000000000000008152600401610fa790612fbd565b60405180910390fd5b5f6002811115610fc357610fc2612aae565b5b610fcc82611b39565b6002811115610fde57610fdd612aae565b5b1461101e576040517f08c379a0000000000000000000000000000000000000000000000000000000008152600401611015906133b5565b60405180910390fd5b5f3411611060576040517f08c379a000000000000000000000000000000000000000000000000000000000815260040161105790613443565b60405180910390fd5b5f8061106c8333610978565b915091508061112c5760065f8481526020019081526020015f2060405180604001604052803373ffffffffffffffffffffffffffffffffffffffff16815260200134815250908060018154018082558091505060019003905f5260205f2090600202015f909190919091505f820151815f015f6101000a81548173ffffffffffffffffffffffffffffffffffffffff021916908373ffffffffffffffffffffffffffffffffffffffff160217905550602082015181600101555050611175565b3460065f8581526020019081526020015f2083815481106111505761114f613043565b5b905f5260205f2090600202016001015f82825461116d919061309d565b925050819055505b3460075f8581526020019081526020015f206004015f828254611198919061309d565b925050819055507fb736b18814da81a1581cd71e835c12a580034bd300493d2c7a455ce69a50f7a08333346040516111d2939291906130df565b60405180910390a1505050565b5f8054906101000a900473ffffffffffffffffffffffffffffffffffffffff1673ffffffffffffffffffffffffffffffffffffffff163373ffffffffffffffffffffffffffffffffffffffff161461126c576040517f08c379a000000000000000000000000000000000000000000000000000000000815260040161126390612f55565b60405180910390fd5b8060018190555050565b61127f81610d3c565b6112be576040517f08c379a00000000000000000000000000000000000000000000000000000000081526004016112b590612fbd565b60405180910390fd5b6112c781610753565b73ffffffffffffffffffffffffffffffffffffffff163373ffffffffffffffffffffffffffffffffffffffff1614611334576040517f08c379a000000000000000000000000000000000000000000000000000000000815260040161132b906134d1565b60405180910390fd5b6001600281111561134857611347612aae565b5b61135182611b39565b600281111561136357611362612aae565b5b146113a3576040517f08c379a000000000000000000000000000000000000000000000000000000000815260040161139a90613539565b60405180910390fd5b5f6113ad82610753565b90505f60075f8481526020019081526020015f206004015490505f60075f8581526020019081526020015f20600401819055508173ffffffffffffffffffffffffffffffffffffffff166108fc8290811502906040515f60405180830381858888f19350505050158015611423573d5f803e3d5ffd5b507f13e7ed68a0fe9e4bcafdde5f49381514a9ee7e34ff7d926eadab64c1e0e77f16838383604051611457939291906135b2565b60405180910390a1505050565b60015481565b5f60149054906101000a900460ff16156114b9576040517f08c379a00000000000000000000000000000000000000000000000000000000081526004016114b090613631565b60405180910390fd5b5f8054906101000a900473ffffffffffffffffffffffffffffffffffffffff1673ffffffffffffffffffffffffffffffffffffffff163373ffffffffffffffffffffffffffffffffffffffff1614611546576040517f08c379a000000000000000000000000000000000000000000000000000000000815260040161153d90612f55565b60405180910390fd5b60015f60146101000a81548160ff021916908315150217905550565b5f600254905090565b817fffffffffffffffffffffffffffffffffffffffffffffffffffffffffffffffff61162060035f3373ffffffffffffffffffffffffffffffffffffffff1673ffffffffffffffffffffffffffffffffffffffff1681526020019081526020015f2080548060200260200160405190810160405280929190818152602001828054801561161557602002820191905f5260205f20905b815481526020019060010190808311611601575b505050505083611730565b03611660576040517f08c379a0000000000000000000000000000000000000000000000000000000008152600401611657906136bf565b60405180910390fd5b825f600281111561167457611673612aae565b5b61167d82611b39565b600281111561168f5761168e612aae565b5b146116cf576040517f08c379a00000000000000000000000000000000000000000000000000000000081526004016116c6906133b5565b60405180910390fd5b8260075f8681526020019081526020015f2060010190816116f091906138ce565b507fd935f8055b4c9c830e03201fac6106c7f64b5402f80b169a44853f21974df942848460405161172292919061399d565b60405180910390a150505050565b5f805f90505f6001855161174491906139cb565b90505b8082136117d8575f6002838361175d91906139cb565b6117679190613a0b565b836117729190613a73565b90505f86828151811061178857611787613043565b5b602002602001015190508581036117a557819450505050506117fe565b858110156117c1576001826117ba9190613a73565b93506117d1565b6001826117ce91906139cb565b92505b5050611747565b7fffffffffffffffffffffffffffffffffffffffffffffffffffffffffffffffff925050505b92915050565b5f8484423360405160200161181c9493929190613b53565b60405160208183030381529060405280519060200120905061183c6124b5565b85815f018190525084816020018190525033816040019073ffffffffffffffffffffffffffffffffffffffff16908173ffffffffffffffffffffffffffffffffffffffff1681525050838160600181815250505f816080018181525050828160a00181815250505f8160c0019060028111156118bb576118ba612aae565b5b908160028111156118cf576118ce612aae565b5b8152505060018160e00190151590811515815250508060075f8481526020019081526020015f205f820151815f01908161190991906138ce565b50602082015181600101908161191f91906138ce565b506040820151816002015f6101000a81548173ffffffffffffffffffffffffffffffffffffffff021916908373ffffffffffffffffffffffffffffffffffffffff160217905550606082015181600301556080820151816004015560a0820151816005015560c0820151816006015f6101000a81548160ff021916908360028111156119ae576119ad612aae565b5b021790555060e08201518160060160016101000a81548160ff02191690831515021790555090505060035f3373ffffffffffffffffffffffffffffffffffffffff1673ffffffffffffffffffffffffffffffffffffffff1681526020019081526020015f2082908060018154018082558091505060019003905f5260205f20015f9091909190915055600882908060018154018082558091505060019003905f5260205f20015f9091909190915055611aef60035f3373ffffffffffffffffffffffffffffffffffffffff1673ffffffffffffffffffffffffffffffffffffffff1681526020019081526020015f20805480602002602001604051908101604052809291908181526020018280548015611ae557602002820191905f5260205f20905b815481526020019060010190808311611ad1575b5050505050611bce565b507f57697173c22831f367942a05f5c552c47d47a6585ddfd0836fb8dc3b08e5c331828787338888604051611b2996959493929190613b98565b60405180910390a1505050505050565b5f60075f8381526020019081526020015f206006015f9054906101000a900460ff169050919050565b5f805f611b6f8433610978565b9150915080611b82575f92505050611bba565b60065f8581526020019081526020015f208281548110611ba557611ba4613043565b5b905f5260205f20906002020160010154925050505b919050565b5f600154905090565b60025481565b60606001825111611be157819050611e16565b5f60028351611bf09190613c05565b67ffffffffffffffff811115611c0957611c08612745565b5b604051908082528060200260200182016040528015611c375781602001602082028036833780820191505090505b5090505f80828280611c4890613c46565b935081518110611c5b57611c5a613043565b5b60200260200101818152505060018451611c759190613114565b828280611c8190613c46565b935081518110611c9457611c93613043565b5b6020026020010181815250505b5f811115611e10575f8282611cb590613c8d565b92508281518110611cc957611cc8613043565b5b602002602001015190505f8383611cdf90613c8d565b93508381518110611cf357611cf2613043565b5b602002602001015190505f611d09878385612353565b90505f81118015611d25575081600182611d239190613114565b115b15611d8f5781858580611d3790613c46565b965081518110611d4a57611d49613043565b5b602002602001018181525050600181611d639190613114565b858580611d6f90613c46565b965081518110611d8257611d81613043565b5b6020026020010181815250505b82600182611d9d919061309d565b1015611e0857600181611db0919061309d565b858580611dbc90613c46565b965081518110611dcf57611dce613043565b5b60200260200101818152505082858580611de890613c46565b965081518110611dfb57611dfa613043565b5b6020026020010181815250505b505050611ca1565b83925050505b919050565b5f60075f8381526020019081526020015f206006015f9054906101000a900460ff169050919050565b5f600880549050905090565b827fffffffffffffffffffffffffffffffffffffffffffffffffffffffffffffffff611f0560035f3373ffffffffffffffffffffffffffffffffffffffff1673ffffffffffffffffffffffffffffffffffffffff1681526020019081526020015f20805480602002602001604051908101604052809291908181526020018280548015611efa57602002820191905f5260205f20905b815481526020019060010190808311611ee6575b505050505083611730565b03611f45576040517f08c379a0000000000000000000000000000000000000000000000000000000008152600401611f3c906136bf565b60405180910390fd5b835f6002811115611f5957611f58612aae565b5b611f6282611b39565b6002811115611f7457611f73612aae565b5b14611fb4576040517f08c379a0000000000000000000000000000000000000000000000000000000008152600401611fab906133b5565b60405180910390fd5b60055f8681526020019081526020015f20604051806040016040528086815260200185815250908060018154018082558091505060019003905f5260205f2090600202015f909190919091505f820151815f0155602082015181600101908161201d91906138ce565b5050505050505050565b606060055f8381526020019081526020015f20805480602002602001604051908101604052809291908181526020015f905b82821015612122578382905f5260205f2090600202016040518060400160405290815f82015481526020016001820180546120939061370a565b80601f01602080910402602001604051908101604052809291908181526020018280546120bf9061370a565b801561210a5780601f106120e15761010080835404028352916020019161210a565b820191905f5260205f20905b8154815290600101906020018083116120ed57829003601f168201915b50505050508152505081526020019060010190612059565b505050509050919050565b606060035f3373ffffffffffffffffffffffffffffffffffffffff1673ffffffffffffffffffffffffffffffffffffffff1681526020019081526020015f208054806020026020016040519081016040528092919081815260200182805480156121b457602002820191905f5260205f20905b8154815260200190600101908083116121a0575b5050505050905090565b6060805f805f805f8060075f8a81526020019081526020015f209050805f0181600101826002015f9054906101000a900473ffffffffffffffffffffffffffffffffffffffff16836003015484600401548560050154866006015f9054906101000a900460ff168680546122319061370a565b80601f016020809104026020016040519081016040528092919081815260200182805461225d9061370a565b80156122a85780601f1061227f576101008083540402835291602001916122a8565b820191905f5260205f20905b81548152906001019060200180831161228b57829003601f168201915b505050505096508580546122bb9061370a565b80601f01602080910402602001604051908101604052809291908181526020018280546122e79061370a565b80156123325780601f1061230957610100808354040283529160200191612332565b820191905f5260205f20905b81548152906001019060200180831161231557829003601f168201915b50505050509550975097509750975097509750975050919395979092949650565b5f8084838151811061236857612367613043565b5b602002602001015190505f8490505f8590505b84811015612434578287828151811061239757612396613043565b5b602002602001015111612427578681815181106123b7576123b6613043565b5b60200260200101518783815181106123d2576123d1613043565b5b60200260200101518884815181106123ed576123ec613043565b5b6020026020010189848151811061240757612406613043565b5b6020026020010182815250828152505050818061242390613c46565b9250505b808060010191505061237b565b5085848151811061244857612447613043565b5b602002602001015186828151811061246357612462613043565b5b602002602001015187838151811061247e5761247d613043565b5b6020026020010188878151811061249857612497613043565b5b602002602001018281525082815250505080925050509392505050565b60405180610100016040528060608152602001606081526020015f73ffffffffffffffffffffffffffffffffffffffff1681526020015f81526020015f81526020015f81526020015f60028111156125105761250f612aae565b5b81526020015f151581525090565b5f604051905090565b5f80fd5b5f80fd5b5f819050919050565b6125418161252f565b811461254b575f80fd5b50565b5f8135905061255c81612538565b92915050565b5f6020828403121561257757612576612527565b5b5f6125848482850161254e565b91505092915050565b5f819050919050565b61259f8161258d565b81146125a9575f80fd5b50565b5f813590506125ba81612596565b92915050565b5f602082840312156125d5576125d4612527565b5b5f6125e2848285016125ac565b91505092915050565b5f73ffffffffffffffffffffffffffffffffffffffff82169050919050565b5f612614826125eb565b9050919050565b6126248161260a565b82525050565b5f60208201905061263d5f83018461261b565b92915050565b61264c8161260a565b8114612656575f80fd5b50565b5f8135905061266781612643565b92915050565b5f806040838503121561268357612682612527565b5b5f612690858286016125ac565b92505060206126a185828601612659565b9150509250929050565b6126b48161252f565b82525050565b5f8115159050919050565b6126ce816126ba565b82525050565b5f6040820190506126e75f8301856126ab565b6126f460208301846126c5565b9392505050565b5f60208201905061270e5f8301846126c5565b92915050565b5f6020820190506127275f8301846126ab565b92915050565b5f80fd5b5f80fd5b5f601f19601f8301169050919050565b7f4e487b71000000000000000000000000000000000000000000000000000000005f52604160045260245ffd5b61277b82612735565b810181811067ffffffffffffffff8211171561279a57612799612745565b5b80604052505050565b5f6127ac61251e565b90506127b88282612772565b919050565b5f67ffffffffffffffff8211156127d7576127d6612745565b5b6127e082612735565b9050602081019050919050565b828183375f83830152505050565b5f61280d612808846127bd565b6127a3565b90508281526020810184848401111561282957612828612731565b5b6128348482856127ed565b509392505050565b5f82601f8301126128505761284f61272d565b5b81356128608482602086016127fb565b91505092915050565b5f806040838503121561287f5761287e612527565b5b5f61288c858286016125ac565b925050602083013567ffffffffffffffff8111156128ad576128ac61252b565b5b6128b98582860161283c565b9150509250929050565b5f67ffffffffffffffff8211156128dd576128dc612745565b5b602082029050602081019050919050565b5f80fd5b5f6129046128ff846128c3565b6127a3565b90508083825260208201905060208402830185811115612927576129266128ee565b5b835b81811015612950578061293c88826125ac565b845260208401935050602081019050612929565b5050509392505050565b5f82601f83011261296e5761296d61272d565b5b813561297e8482602086016128f2565b91505092915050565b5f806040838503121561299d5761299c612527565b5b5f83013567ffffffffffffffff8111156129ba576129b961252b565b5b6129c68582860161295a565b92505060206129d7858286016125ac565b9150509250929050565b5f819050919050565b6129f3816129e1565b82525050565b5f602082019050612a0c5f8301846129ea565b92915050565b5f805f8060808587031215612a2a57612a29612527565b5b5f85013567ffffffffffffffff811115612a4757612a4661252b565b5b612a538782880161283c565b945050602085013567ffffffffffffffff811115612a7457612a7361252b565b5b612a808782880161283c565b9350506040612a918782880161254e565b9250506060612aa28782880161254e565b91505092959194509250565b7f4e487b71000000000000000000000000000000000000000000000000000000005f52602160045260245ffd5b60038110612aec57612aeb612aae565b5b50565b5f819050612afc82612adb565b919050565b5f612b0b82612aef565b9050919050565b612b1b81612b01565b82525050565b5f602082019050612b345f830184612b12565b92915050565b5f60208284031215612b4f57612b4e612527565b5b5f82013567ffffffffffffffff811115612b6c57612b6b61252b565b5b612b788482850161295a565b91505092915050565b5f81519050919050565b5f82825260208201905092915050565b5f819050602082019050919050565b612bb38161258d565b82525050565b5f612bc48383612baa565b60208301905092915050565b5f602082019050919050565b5f612be682612b81565b612bf08185612b8b565b9350612bfb83612b9b565b805f5b83811015612c2b578151612c128882612bb9565b9750612c1d83612bd0565b925050600181019050612bfe565b5085935050505092915050565b5f6020820190508181035f830152612c508184612bdc565b905092915050565b5f805f60608486031215612c6f57612c6e612527565b5b5f612c7c868287016125ac565b9350506020612c8d8682870161254e565b925050604084013567ffffffffffffffff811115612cae57612cad61252b565b5b612cba8682870161283c565b9150509250925092565b5f81519050919050565b5f82825260208201905092915050565b5f819050602082019050919050565b612cf68161252f565b82525050565b5f81519050919050565b5f82825260208201905092915050565b8281835e5f83830152505050565b5f612d2e82612cfc565b612d388185612d06565b9350612d48818560208601612d16565b612d5181612735565b840191505092915050565b5f604083015f830151612d715f860182612ced565b5060208301518482036020860152612d898282612d24565b9150508091505092915050565b5f612da18383612d5c565b905092915050565b5f602082019050919050565b5f612dbf82612cc4565b612dc98185612cce565b935083602082028501612ddb85612cde565b805f5b85811015612e165784840389528151612df78582612d96565b9450612e0283612da9565b925060208a01995050600181019050612dde565b50829750879550505050505092915050565b5f6020820190508181035f830152612e408184612db5565b905092915050565b5f82825260208201905092915050565b5f612e6282612cfc565b612e6c8185612e48565b9350612e7c818560208601612d16565b612e8581612735565b840191505092915050565b5f60e0820190508181035f830152612ea8818a612e58565b90508181036020830152612ebc8189612e58565b9050612ecb604083018861261b565b612ed860608301876126ab565b612ee560808301866126ab565b612ef260a08301856126ab565b612eff60c0830184612b12565b98975050505050505050565b7f43616c6c6572206973206e6f7420746865206f776e65720000000000000000005f82015250565b5f612f3f601783612e48565b9150612f4a82612f0b565b602082019050919050565b5f6020820190508181035f830152612f6c81612f33565b9050919050565b7f50726f6a65637420646f6573206e6f74206578697374000000000000000000005f82015250565b5f612fa7601683612e48565b9150612fb282612f73565b602082019050919050565b5f6020820190508181035f830152612fd481612f9b565b9050919050565b7f50726f6a6563742069736e2774206661696c65640000000000000000000000005f82015250565b5f61300f601483612e48565b915061301a82612fdb565b602082019050919050565b5f6020820190508181035f83015261303c81613003565b9050919050565b7f4e487b71000000000000000000000000000000000000000000000000000000005f52603260045260245ffd5b7f4e487b71000000000000000000000000000000000000000000000000000000005f52601160045260245ffd5b5f6130a78261252f565b91506130b28361252f565b92508282019050808211156130ca576130c9613070565b5b92915050565b6130d98161258d565b82525050565b5f6060820190506130f25f8301866130d0565b6130ff602083018561261b565b61310c60408301846126ab565b949350505050565b5f61311e8261252f565b91506131298361252f565b925082820390508181111561314157613140613070565b5b92915050565b7f4e487b71000000000000000000000000000000000000000000000000000000005f52601260045260245ffd5b5f61317e8261252f565b91506131898361252f565b92508261319957613198613147565b5b828204905092915050565b7f50726f6a656374206973206e6f742061637469766500000000000000000000005f82015250565b5f6131d8601583612e48565b91506131e3826131a4565b602082019050919050565b5f6020820190508181035f830152613205816131cc565b9050919050565b5f60408201905061321f5f8301856130d0565b61322c6020830184612b12565b9392505050565b7f46756e64696e6720706572696f64206973206e6f74206f7665722079657400005f82015250565b5f613267601e83612e48565b915061327282613233565b602082019050919050565b5f6020820190508181035f8301526132948161325b565b9050919050565b7f4e6f7468696e6720746f207769746864726177000000000000000000000000005f82015250565b5f6132cf601383612e48565b91506132da8261329b565b602082019050919050565b5f6020820190508181035f8301526132fc816132c3565b9050919050565b7f436f6e7472616374206973206e6f7420706175736564000000000000000000005f82015250565b5f613337601683612e48565b915061334282613303565b602082019050919050565b5f6020820190508181035f8301526133648161332b565b9050919050565b7f50726f6a6563742069736e2774206163746976650000000000000000000000005f82015250565b5f61339f601483612e48565b91506133aa8261336b565b602082019050919050565b5f6020820190508181035f8301526133cc81613393565b9050919050565b7f436f6e747269627574696f6e206d7573742062652067726561746572207468615f8201527f6e207a65726f0000000000000000000000000000000000000000000000000000602082015250565b5f61342d602683612e48565b9150613438826133d3565b604082019050919050565b5f6020820190508181035f83015261345a81613421565b9050919050565b7f4f6e6c792070726f6a6563742063726561746f722063616e2073656e642066755f8201527f6e64730000000000000000000000000000000000000000000000000000000000602082015250565b5f6134bb602383612e48565b91506134c682613461565b604082019050919050565b5f6020820190508181035f8301526134e8816134af565b9050919050565b7f50726f6a656374206973206e6f742066756e64656400000000000000000000005f82015250565b5f613523601583612e48565b915061352e826134ef565b602082019050919050565b5f6020820190508181035f83015261355081613517565b9050919050565b5f819050919050565b5f61357a613575613570846125eb565b613557565b6125eb565b9050919050565b5f61358b82613560565b9050919050565b5f61359c82613581565b9050919050565b6135ac81613592565b82525050565b5f6060820190506135c55f8301866130d0565b6135d260208301856135a3565b6135df60408301846126ab565b949350505050565b7f436f6e74726163742069732070617573656400000000000000000000000000005f82015250565b5f61361b601283612e48565b9150613626826135e7565b602082019050919050565b5f6020820190508181035f8301526136488161360f565b9050919050565b7f546869732075736572206973206e6f742063726561746f72206f6620746869735f8201527f2070726f6a656374000000000000000000000000000000000000000000000000602082015250565b5f6136a9602883612e48565b91506136b48261364f565b604082019050919050565b5f6020820190508181035f8301526136d68161369d565b9050919050565b7f4e487b71000000000000000000000000000000000000000000000000000000005f52602260045260245ffd5b5f600282049050600182168061372157607f821691505b602082108103613734576137336136dd565b5b50919050565b5f819050815f5260205f209050919050565b5f6020601f8301049050919050565b5f82821b905092915050565b5f600883026137967fffffffffffffffffffffffffffffffffffffffffffffffffffffffffffffffff8261375b565b6137a0868361375b565b95508019841693508086168417925050509392505050565b5f6137d26137cd6137c88461252f565b613557565b61252f565b9050919050565b5f819050919050565b6137eb836137b8565b6137ff6137f7826137d9565b848454613767565b825550505050565b5f90565b613813613807565b61381e8184846137e2565b505050565b5b81811015613841576138365f8261380b565b600181019050613824565b5050565b601f821115613886576138578161373a565b6138608461374c565b8101602085101561386f578190505b61388361387b8561374c565b830182613823565b50505b505050565b5f82821c905092915050565b5f6138a65f198460080261388b565b1980831691505092915050565b5f6138be8383613897565b9150826002028217905092915050565b6138d782612cfc565b67ffffffffffffffff8111156138f0576138ef612745565b5b6138fa825461370a565b613905828285613845565b5f60209050601f831160018114613936575f8415613924578287015190505b61392e85826138b3565b865550613995565b601f1984166139448661373a565b5f5b8281101561396b57848901518255600182019150602085019450602081019050613946565b868310156139885784890151613984601f891682613897565b8355505b6001600288020188555050505b505050505050565b5f6040820190506139b05f8301856130d0565b81810360208301526139c28184612e58565b90509392505050565b5f6139d5826129e1565b91506139e0836129e1565b925082820390508181125f8412168282135f851215161715613a0557613a04613070565b5b92915050565b5f613a15826129e1565b9150613a20836129e1565b925082613a3057613a2f613147565b5b60015f0383147f800000000000000000000000000000000000000000000000000000000000000083141615613a6857613a67613070565b5b828205905092915050565b5f613a7d826129e1565b9150613a88836129e1565b92508282019050828112155f8312168382125f841215161715613aae57613aad613070565b5b92915050565b5f81905092915050565b5f613ac882612cfc565b613ad28185613ab4565b9350613ae2818560208601612d16565b80840191505092915050565b5f819050919050565b613b08613b038261252f565b613aee565b82525050565b5f8160601b9050919050565b5f613b2482613b0e565b9050919050565b5f613b3582613b1a565b9050919050565b613b4d613b488261260a565b613b2b565b82525050565b5f613b5e8287613abe565b9150613b6a8286613abe565b9150613b768285613af7565b602082019150613b868284613b3c565b60148201915081905095945050505050565b5f60c082019050613bab5f8301896130d0565b8181036020830152613bbd8188612e58565b90508181036040830152613bd18187612e58565b9050613be0606083018661261b565b613bed60808301856126ab565b613bfa60a08301846126ab565b979650505050505050565b5f613c0f8261252f565b9150613c1a8361252f565b9250828202613c288161252f565b91508282048414831517613c3f57613c3e613070565b5b5092915050565b5f613c508261252f565b91507fffffffffffffffffffffffffffffffffffffffffffffffffffffffffffffffff8203613c8257613c81613070565b5b600182019050919050565b5f613c978261252f565b91505f8203613ca957613ca8613070565b5b60018203905091905056fea264697066735822122065f1be307645663d51ce0c3188201d7e18748f3232a721b120c3c3b79c33962864736f6c634300081a0033",
					"opcodes": "PUSH1 0x80 PUSH1 0x40 MSTORE PUSH2 0x1EA PUSH1 0x1 SSTORE PUSH2 0x122 PUSH1 0x2 SSTORE CALLVALUE DUP1 ISZERO PUSH1 0x1A JUMPI PUSH0 DUP1 REVERT JUMPDEST POP CALLER PUSH0 DUP1 PUSH2 0x100 EXP DUP2 SLOAD DUP2 PUSH20 0xFFFFFFFFFFFFFFFFFFFFFFFFFFFFFFFFFFFFFFFF MUL NOT AND SWAP1 DUP4 PUSH20 0xFFFFFFFFFFFFFFFFFFFFFFFFFFFFFFFFFFFFFFFF AND MUL OR SWAP1 SSTORE POP PUSH2 0x3CEA DUP1 PUSH2 0x67 PUSH0 CODECOPY PUSH0 RETURN INVALID PUSH1 0x80 PUSH1 0x40 MSTORE PUSH1 0x4 CALLDATASIZE LT PUSH2 0x1BA JUMPI PUSH0 CALLDATALOAD PUSH1 0xE0 SHR DUP1 PUSH4 0x88559468 GT PUSH2 0xEB JUMPI DUP1 PUSH4 0xC12483D4 GT PUSH2 0x89 JUMPI DUP1 PUSH4 0xD874CF64 GT PUSH2 0x63 JUMPI DUP1 PUSH4 0xD874CF64 EQ PUSH2 0x5EC JUMPI DUP1 PUSH4 0xEA4A873C EQ PUSH2 0x614 JUMPI DUP1 PUSH4 0xF08A64E6 EQ PUSH2 0x650 JUMPI DUP1 PUSH4 0xF88FB6CF EQ PUSH2 0x67A JUMPI PUSH2 0x1C1 JUMP JUMPDEST DUP1 PUSH4 0xC12483D4 EQ PUSH2 0x54A JUMPI DUP1 PUSH4 0xD10797CF EQ PUSH2 0x586 JUMPI DUP1 PUSH4 0xD3D6A117 EQ PUSH2 0x5C2 JUMPI PUSH2 0x1C1 JUMP JUMPDEST DUP1 PUSH4 0xA1BDAE45 GT PUSH2 0xC5 JUMPI DUP1 PUSH4 0xA1BDAE45 EQ PUSH2 0x47E JUMPI DUP1 PUSH4 0xA81AE362 EQ PUSH2 0x4BA JUMPI DUP1 PUSH4 0xBBDB284F EQ PUSH2 0x4F6 JUMPI DUP1 PUSH4 0xBF6FAEDC EQ PUSH2 0x520 JUMPI PUSH2 0x1C1 JUMP JUMPDEST DUP1 PUSH4 0x88559468 EQ PUSH2 0x3F2 JUMPI DUP1 PUSH4 0x89022FF3 EQ PUSH2 0x41A JUMPI DUP1 PUSH4 0x94BA9709 EQ PUSH2 0x456 JUMPI PUSH2 0x1C1 JUMP JUMPDEST DUP1 PUSH4 0x3F4BA83A GT PUSH2 0x158 JUMPI DUP1 PUSH4 0x6E0ACE70 GT PUSH2 0x132 JUMPI DUP1 PUSH4 0x6E0ACE70 EQ PUSH2 0x360 JUMPI DUP1 PUSH4 0x7B18D3E7 EQ PUSH2 0x388 JUMPI DUP1 PUSH4 0x8456CB59 EQ PUSH2 0x3B2 JUMPI DUP1 PUSH4 0x85D79102 EQ PUSH2 0x3C8 JUMPI PUSH2 0x1C1 JUMP JUMPDEST DUP1 PUSH4 0x3F4BA83A EQ PUSH2 0x306 JUMPI DUP1 PUSH4 0x4A83B226 EQ PUSH2 0x31C JUMPI DUP1 PUSH4 0x64088BB8 EQ PUSH2 0x338 JUMPI PUSH2 0x1C1 JUMP JUMPDEST DUP1 PUSH4 0xF26BB9C GT PUSH2 0x194 JUMPI DUP1 PUSH4 0xF26BB9C EQ PUSH2 0x24F JUMPI DUP1 PUSH4 0x2F2FAFCD EQ PUSH2 0x28C JUMPI DUP1 PUSH4 0x38975895 EQ PUSH2 0x2B4 JUMPI DUP1 PUSH4 0x3CCFD60B EQ PUSH2 0x2F0 JUMPI PUSH2 0x1C1 JUMP JUMPDEST DUP1 PUSH4 0x96A8AB7 EQ PUSH2 0x1C3 JUMPI DUP1 PUSH4 0xB207621 EQ PUSH2 0x1EB JUMPI DUP1 PUSH4 0xD93DAB8 EQ PUSH2 0x227 JUMPI PUSH2 0x1C1 JUMP JUMPDEST CALLDATASIZE PUSH2 0x1C1 JUMPI STOP JUMPDEST STOP JUMPDEST CALLVALUE DUP1 ISZERO PUSH2 0x1CE JUMPI PUSH0 DUP1 REVERT JUMPDEST POP PUSH2 0x1E9 PUSH1 0x4 DUP1 CALLDATASIZE SUB DUP2 ADD SWAP1 PUSH2 0x1E4 SWAP2 SWAP1 PUSH2 0x2562 JUMP JUMPDEST PUSH2 0x6BC JUMP JUMPDEST STOP JUMPDEST CALLVALUE DUP1 ISZERO PUSH2 0x1F6 JUMPI PUSH0 DUP1 REVERT JUMPDEST POP PUSH2 0x211 PUSH1 0x4 DUP1 CALLDATASIZE SUB DUP2 ADD SWAP1 PUSH2 0x20C SWAP2 SWAP1 PUSH2 0x25C0 JUMP JUMPDEST PUSH2 0x753 JUMP JUMPDEST PUSH1 0x40 MLOAD PUSH2 0x21E SWAP2 SWAP1 PUSH2 0x262A JUMP JUMPDEST PUSH1 0x40 MLOAD DUP1 SWAP2 SUB SWAP1 RETURN JUMPDEST CALLVALUE DUP1 ISZERO PUSH2 0x232 JUMPI PUSH0 DUP1 REVERT JUMPDEST POP PUSH2 0x24D PUSH1 0x4 DUP1 CALLDATASIZE SUB DUP2 ADD SWAP1 PUSH2 0x248 SWAP2 SWAP1 PUSH2 0x25C0 JUMP JUMPDEST PUSH2 0x78F JUMP JUMPDEST STOP JUMPDEST CALLVALUE DUP1 ISZERO PUSH2 0x25A JUMPI PUSH0 DUP1 REVERT JUMPDEST POP PUSH2 0x275 PUSH1 0x4 DUP1 CALLDATASIZE SUB DUP2 ADD SWAP1 PUSH2 0x270 SWAP2 SWAP1 PUSH2 0x266D JUMP JUMPDEST PUSH2 0x978 JUMP JUMPDEST PUSH1 0x40 MLOAD PUSH2 0x283 SWAP3 SWAP2 SWAP1 PUSH2 0x26D4 JUMP JUMPDEST PUSH1 0x40 MLOAD DUP1 SWAP2 SUB SWAP1 RETURN JUMPDEST CALLVALUE DUP1 ISZERO PUSH2 0x297 JUMPI PUSH0 DUP1 REVERT JUMPDEST POP PUSH2 0x2B2 PUSH1 0x4 DUP1 CALLDATASIZE SUB DUP2 ADD SWAP1 PUSH2 0x2AD SWAP2 SWAP1 PUSH2 0x25C0 JUMP JUMPDEST PUSH2 0xB28 JUMP JUMPDEST STOP JUMPDEST CALLVALUE DUP1 ISZERO PUSH2 0x2BF JUMPI PUSH0 DUP1 REVERT JUMPDEST POP PUSH2 0x2DA PUSH1 0x4 DUP1 CALLDATASIZE SUB DUP2 ADD SWAP1 PUSH2 0x2D5 SWAP2 SWAP1 PUSH2 0x25C0 JUMP JUMPDEST PUSH2 0xD3C JUMP JUMPDEST PUSH1 0x40 MLOAD PUSH2 0x2E7 SWAP2 SWAP1 PUSH2 0x26FB JUMP JUMPDEST PUSH1 0x40 MLOAD DUP1 SWAP2 SUB SWAP1 RETURN JUMPDEST CALLVALUE DUP1 ISZERO PUSH2 0x2FB JUMPI PUSH0 DUP1 REVERT JUMPDEST POP PUSH2 0x304 PUSH2 0xD66 JUMP JUMPDEST STOP JUMPDEST CALLVALUE DUP1 ISZERO PUSH2 0x311 JUMPI PUSH0 DUP1 REVERT JUMPDEST POP PUSH2 0x31A PUSH2 0xE72 JUMP JUMPDEST STOP JUMPDEST PUSH2 0x336 PUSH1 0x4 DUP1 CALLDATASIZE SUB DUP2 ADD SWAP1 PUSH2 0x331 SWAP2 SWAP1 PUSH2 0x25C0 JUMP JUMPDEST PUSH2 0xF68 JUMP JUMPDEST STOP JUMPDEST CALLVALUE DUP1 ISZERO PUSH2 0x343 JUMPI PUSH0 DUP1 REVERT JUMPDEST POP PUSH2 0x35E PUSH1 0x4 DUP1 CALLDATASIZE SUB DUP2 ADD SWAP1 PUSH2 0x359 SWAP2 SWAP1 PUSH2 0x2562 JUMP JUMPDEST PUSH2 0x11DF JUMP JUMPDEST STOP JUMPDEST CALLVALUE DUP1 ISZERO PUSH2 0x36B JUMPI PUSH0 DUP1 REVERT JUMPDEST POP PUSH2 0x386 PUSH1 0x4 DUP1 CALLDATASIZE SUB DUP2 ADD SWAP1 PUSH2 0x381 SWAP2 SWAP1 PUSH2 0x25C0 JUMP JUMPDEST PUSH2 0x1276 JUMP JUMPDEST STOP JUMPDEST CALLVALUE DUP1 ISZERO PUSH2 0x393 JUMPI PUSH0 DUP1 REVERT JUMPDEST POP PUSH2 0x39C PUSH2 0x1464 JUMP JUMPDEST PUSH1 0x40 MLOAD PUSH2 0x3A9 SWAP2 SWAP1 PUSH2 0x2714 JUMP JUMPDEST PUSH1 0x40 MLOAD DUP1 SWAP2 SUB SWAP1 RETURN JUMPDEST CALLVALUE DUP1 ISZERO PUSH2 0x3BD JUMPI PUSH0 DUP1 REVERT JUMPDEST POP PUSH2 0x3C6 PUSH2 0x146A JUMP JUMPDEST STOP JUMPDEST CALLVALUE DUP1 ISZERO PUSH2 0x3D3 JUMPI PUSH0 DUP1 REVERT JUMPDEST POP PUSH2 0x3DC PUSH2 0x1562 JUMP JUMPDEST PUSH1 0x40 MLOAD PUSH2 0x3E9 SWAP2 SWAP1 PUSH2 0x2714 JUMP JUMPDEST PUSH1 0x40 MLOAD DUP1 SWAP2 SUB SWAP1 RETURN JUMPDEST CALLVALUE DUP1 ISZERO PUSH2 0x3FD JUMPI PUSH0 DUP1 REVERT JUMPDEST POP PUSH2 0x418 PUSH1 0x4 DUP1 CALLDATASIZE SUB DUP2 ADD SWAP1 PUSH2 0x413 SWAP2 SWAP1 PUSH2 0x2869 JUMP JUMPDEST PUSH2 0x156B JUMP JUMPDEST STOP JUMPDEST CALLVALUE DUP1 ISZERO PUSH2 0x425 JUMPI PUSH0 DUP1 REVERT JUMPDEST POP PUSH2 0x440 PUSH1 0x4 DUP1 CALLDATASIZE SUB DUP2 ADD SWAP1 PUSH2 0x43B SWAP2 SWAP1 PUSH2 0x2987 JUMP JUMPDEST PUSH2 0x1730 JUMP JUMPDEST PUSH1 0x40 MLOAD PUSH2 0x44D SWAP2 SWAP1 PUSH2 0x29F9 JUMP JUMPDEST PUSH1 0x40 MLOAD DUP1 SWAP2 SUB SWAP1 RETURN JUMPDEST CALLVALUE DUP1 ISZERO PUSH2 0x461 JUMPI PUSH0 DUP1 REVERT JUMPDEST POP PUSH2 0x47C PUSH1 0x4 DUP1 CALLDATASIZE SUB DUP2 ADD SWAP1 PUSH2 0x477 SWAP2 SWAP1 PUSH2 0x2A12 JUMP JUMPDEST PUSH2 0x1804 JUMP JUMPDEST STOP JUMPDEST CALLVALUE DUP1 ISZERO PUSH2 0x489 JUMPI PUSH0 DUP1 REVERT JUMPDEST POP PUSH2 0x4A4 PUSH1 0x4 DUP1 CALLDATASIZE SUB DUP2 ADD SWAP1 PUSH2 0x49F SWAP2 SWAP1 PUSH2 0x25C0 JUMP JUMPDEST PUSH2 0x1B39 JUMP JUMPDEST PUSH1 0x40 MLOAD PUSH2 0x4B1 SWAP2 SWAP1 PUSH2 0x2B21 JUMP JUMPDEST PUSH1 0x40 MLOAD DUP1 SWAP2 SUB SWAP1 RETURN JUMPDEST CALLVALUE DUP1 ISZERO PUSH2 0x4C5 JUMPI PUSH0 DUP1 REVERT JUMPDEST POP PUSH2 0x4E0 PUSH1 0x4 DUP1 CALLDATASIZE SUB DUP2 ADD SWAP1 PUSH2 0x4DB SWAP2 SWAP1 PUSH2 0x25C0 JUMP JUMPDEST PUSH2 0x1B62 JUMP JUMPDEST PUSH1 0x40 MLOAD PUSH2 0x4ED SWAP2 SWAP1 PUSH2 0x2714 JUMP JUMPDEST PUSH1 0x40 MLOAD DUP1 SWAP2 SUB SWAP1 RETURN JUMPDEST CALLVALUE DUP1 ISZERO PUSH2 0x501 JUMPI PUSH0 DUP1 REVERT JUMPDEST POP PUSH2 0x50A PUSH2 0x1BBF JUMP JUMPDEST PUSH1 0x40 MLOAD PUSH2 0x517 SWAP2 SWAP1 PUSH2 0x2714 JUMP JUMPDEST PUSH1 0x40 MLOAD DUP1 SWAP2 SUB SWAP1 RETURN JUMPDEST CALLVALUE DUP1 ISZERO PUSH2 0x52B JUMPI PUSH0 DUP1 REVERT JUMPDEST POP PUSH2 0x534 PUSH2 0x1BC8 JUMP JUMPDEST PUSH1 0x40 MLOAD PUSH2 0x541 SWAP2 SWAP1 PUSH2 0x2714 JUMP JUMPDEST PUSH1 0x40 MLOAD DUP1 SWAP2 SUB SWAP1 RETURN JUMPDEST CALLVALUE DUP1 ISZERO PUSH2 0x555 JUMPI PUSH0 DUP1 REVERT JUMPDEST POP PUSH2 0x570 PUSH1 0x4 DUP1 CALLDATASIZE SUB DUP2 ADD SWAP1 PUSH2 0x56B SWAP2 SWAP1 PUSH2 0x2B3A JUMP JUMPDEST PUSH2 0x1BCE JUMP JUMPDEST PUSH1 0x40 MLOAD PUSH2 0x57D SWAP2 SWAP1 PUSH2 0x2C38 JUMP JUMPDEST PUSH1 0x40 MLOAD DUP1 SWAP2 SUB SWAP1 RETURN JUMPDEST CALLVALUE DUP1 ISZERO PUSH2 0x591 JUMPI PUSH0 DUP1 REVERT JUMPDEST POP PUSH2 0x5AC PUSH1 0x4 DUP1 CALLDATASIZE SUB DUP2 ADD SWAP1 PUSH2 0x5A7 SWAP2 SWAP1 PUSH2 0x25C0 JUMP JUMPDEST PUSH2 0x1E1B JUMP JUMPDEST PUSH1 0x40 MLOAD PUSH2 0x5B9 SWAP2 SWAP1 PUSH2 0x2B21 JUMP JUMPDEST PUSH1 0x40 MLOAD DUP1 SWAP2 SUB SWAP1 RETURN JUMPDEST CALLVALUE DUP1 ISZERO PUSH2 0x5CD JUMPI PUSH0 DUP1 REVERT JUMPDEST POP PUSH2 0x5D6 PUSH2 0x1E44 JUMP JUMPDEST PUSH1 0x40 MLOAD PUSH2 0x5E3 SWAP2 SWAP1 PUSH2 0x2714 JUMP JUMPDEST PUSH1 0x40 MLOAD DUP1 SWAP2 SUB SWAP1 RETURN JUMPDEST CALLVALUE DUP1 ISZERO PUSH2 0x5F7 JUMPI PUSH0 DUP1 REVERT JUMPDEST POP PUSH2 0x612 PUSH1 0x4 DUP1 CALLDATASIZE SUB DUP2 ADD SWAP1 PUSH2 0x60D SWAP2 SWAP1 PUSH2 0x2C58 JUMP JUMPDEST PUSH2 0x1E50 JUMP JUMPDEST STOP JUMPDEST CALLVALUE DUP1 ISZERO PUSH2 0x61F JUMPI PUSH0 DUP1 REVERT JUMPDEST POP PUSH2 0x63A PUSH1 0x4 DUP1 CALLDATASIZE SUB DUP2 ADD SWAP1 PUSH2 0x635 SWAP2 SWAP1 PUSH2 0x25C0 JUMP JUMPDEST PUSH2 0x2027 JUMP JUMPDEST PUSH1 0x40 MLOAD PUSH2 0x647 SWAP2 SWAP1 PUSH2 0x2E28 JUMP JUMPDEST PUSH1 0x40 MLOAD DUP1 SWAP2 SUB SWAP1 RETURN JUMPDEST CALLVALUE DUP1 ISZERO PUSH2 0x65B JUMPI PUSH0 DUP1 REVERT JUMPDEST POP PUSH2 0x664 PUSH2 0x212D JUMP JUMPDEST PUSH1 0x40 MLOAD PUSH2 0x671 SWAP2 SWAP1 PUSH2 0x2C38 JUMP JUMPDEST PUSH1 0x40 MLOAD DUP1 SWAP2 SUB SWAP1 RETURN JUMPDEST CALLVALUE DUP1 ISZERO PUSH2 0x685 JUMPI PUSH0 DUP1 REVERT JUMPDEST POP PUSH2 0x6A0 PUSH1 0x4 DUP1 CALLDATASIZE SUB DUP2 ADD SWAP1 PUSH2 0x69B SWAP2 SWAP1 PUSH2 0x25C0 JUMP JUMPDEST PUSH2 0x21BE JUMP JUMPDEST PUSH1 0x40 MLOAD PUSH2 0x6B3 SWAP8 SWAP7 SWAP6 SWAP5 SWAP4 SWAP3 SWAP2 SWAP1 PUSH2 0x2E90 JUMP JUMPDEST PUSH1 0x40 MLOAD DUP1 SWAP2 SUB SWAP1 RETURN JUMPDEST PUSH0 DUP1 SLOAD SWAP1 PUSH2 0x100 EXP SWAP1 DIV PUSH20 0xFFFFFFFFFFFFFFFFFFFFFFFFFFFFFFFFFFFFFFFF AND PUSH20 0xFFFFFFFFFFFFFFFFFFFFFFFFFFFFFFFFFFFFFFFF AND CALLER PUSH20 0xFFFFFFFFFFFFFFFFFFFFFFFFFFFFFFFFFFFFFFFF AND EQ PUSH2 0x749 JUMPI PUSH1 0x40 MLOAD PUSH32 0x8C379A000000000000000000000000000000000000000000000000000000000 DUP2 MSTORE PUSH1 0x4 ADD PUSH2 0x740 SWAP1 PUSH2 0x2F55 JUMP JUMPDEST PUSH1 0x40 MLOAD DUP1 SWAP2 SUB SWAP1 REVERT JUMPDEST DUP1 PUSH1 0x2 DUP2 SWAP1 SSTORE POP POP JUMP JUMPDEST PUSH0 PUSH1 0x7 PUSH0 DUP4 DUP2 MSTORE PUSH1 0x20 ADD SWAP1 DUP2 MSTORE PUSH1 0x20 ADD PUSH0 KECCAK256 PUSH1 0x2 ADD PUSH0 SWAP1 SLOAD SWAP1 PUSH2 0x100 EXP SWAP1 DIV PUSH20 0xFFFFFFFFFFFFFFFFFFFFFFFFFFFFFFFFFFFFFFFF AND SWAP1 POP SWAP2 SWAP1 POP JUMP JUMPDEST PUSH2 0x798 DUP2 PUSH2 0xD3C JUMP JUMPDEST PUSH2 0x7D7 JUMPI PUSH1 0x40 MLOAD PUSH32 0x8C379A000000000000000000000000000000000000000000000000000000000 DUP2 MSTORE PUSH1 0x4 ADD PUSH2 0x7CE SWAP1 PUSH2 0x2FBD JUMP JUMPDEST PUSH1 0x40 MLOAD DUP1 SWAP2 SUB SWAP1 REVERT JUMPDEST PUSH0 PUSH2 0x7E1 DUP3 PUSH2 0x1E1B JUMP JUMPDEST SWAP1 POP PUSH1 0x2 DUP1 DUP2 GT ISZERO PUSH2 0x7F6 JUMPI PUSH2 0x7F5 PUSH2 0x2AAE JUMP JUMPDEST JUMPDEST DUP2 PUSH1 0x2 DUP2 GT ISZERO PUSH2 0x809 JUMPI PUSH2 0x808 PUSH2 0x2AAE JUMP JUMPDEST JUMPDEST EQ PUSH2 0x849 JUMPI PUSH1 0x40 MLOAD PUSH32 0x8C379A000000000000000000000000000000000000000000000000000000000 DUP2 MSTORE PUSH1 0x4 ADD PUSH2 0x840 SWAP1 PUSH2 0x3025 JUMP JUMPDEST PUSH1 0x40 MLOAD DUP1 SWAP2 SUB SWAP1 REVERT JUMPDEST PUSH0 PUSH1 0x6 PUSH0 DUP5 DUP2 MSTORE PUSH1 0x20 ADD SWAP1 DUP2 MSTORE PUSH1 0x20 ADD PUSH0 KECCAK256 SWAP1 POP PUSH0 JUMPDEST DUP2 DUP1 SLOAD SWAP1 POP DUP2 LT ISZERO PUSH2 0x972 JUMPI PUSH0 DUP3 DUP3 DUP2 SLOAD DUP2 LT PUSH2 0x87F JUMPI PUSH2 0x87E PUSH2 0x3043 JUMP JUMPDEST JUMPDEST SWAP1 PUSH0 MSTORE PUSH1 0x20 PUSH0 KECCAK256 SWAP1 PUSH1 0x2 MUL ADD PUSH0 ADD PUSH0 SWAP1 SLOAD SWAP1 PUSH2 0x100 EXP SWAP1 DIV PUSH20 0xFFFFFFFFFFFFFFFFFFFFFFFFFFFFFFFFFFFFFFFF AND SWAP1 POP PUSH0 DUP4 DUP4 DUP2 SLOAD DUP2 LT PUSH2 0x8C3 JUMPI PUSH2 0x8C2 PUSH2 0x3043 JUMP JUMPDEST JUMPDEST SWAP1 PUSH0 MSTORE PUSH1 0x20 PUSH0 KECCAK256 SWAP1 PUSH1 0x2 MUL ADD PUSH1 0x1 ADD SLOAD SWAP1 POP DUP1 PUSH1 0x4 PUSH0 DUP5 PUSH20 0xFFFFFFFFFFFFFFFFFFFFFFFFFFFFFFFFFFFFFFFF AND PUSH20 0xFFFFFFFFFFFFFFFFFFFFFFFFFFFFFFFFFFFFFFFF AND DUP2 MSTORE PUSH1 0x20 ADD SWAP1 DUP2 MSTORE PUSH1 0x20 ADD PUSH0 KECCAK256 PUSH0 DUP3 DUP3 SLOAD PUSH2 0x921 SWAP2 SWAP1 PUSH2 0x309D JUMP JUMPDEST SWAP3 POP POP DUP2 SWAP1 SSTORE POP PUSH32 0xF8590CD6B8C44BE7A2BC57131F10E203EC5F7D7F2F761E1508A8CC964ECB9EB7 DUP7 DUP4 DUP4 PUSH1 0x40 MLOAD PUSH2 0x95B SWAP4 SWAP3 SWAP2 SWAP1 PUSH2 0x30DF JUMP JUMPDEST PUSH1 0x40 MLOAD DUP1 SWAP2 SUB SWAP1 LOG1 POP POP DUP1 DUP1 PUSH1 0x1 ADD SWAP2 POP POP PUSH2 0x85F JUMP JUMPDEST POP POP POP POP JUMP JUMPDEST PUSH0 DUP1 PUSH0 PUSH1 0x6 PUSH0 DUP7 DUP2 MSTORE PUSH1 0x20 ADD SWAP1 DUP2 MSTORE PUSH1 0x20 ADD PUSH0 KECCAK256 SWAP1 POP PUSH0 DUP1 DUP3 DUP1 SLOAD SWAP1 POP SUB PUSH2 0x9A7 JUMPI PUSH0 DUP1 SWAP4 POP SWAP4 POP POP POP PUSH2 0xB21 JUMP JUMPDEST PUSH0 PUSH1 0x1 DUP4 DUP1 SLOAD SWAP1 POP PUSH2 0x9B9 SWAP2 SWAP1 PUSH2 0x3114 JUMP JUMPDEST SWAP1 POP JUMPDEST DUP1 DUP3 GT PUSH2 0xB17 JUMPI PUSH0 PUSH1 0x2 DUP4 DUP4 PUSH2 0x9D2 SWAP2 SWAP1 PUSH2 0x3114 JUMP JUMPDEST PUSH2 0x9DC SWAP2 SWAP1 PUSH2 0x3174 JUMP JUMPDEST DUP4 PUSH2 0x9E7 SWAP2 SWAP1 PUSH2 0x309D JUMP JUMPDEST SWAP1 POP DUP7 PUSH20 0xFFFFFFFFFFFFFFFFFFFFFFFFFFFFFFFFFFFFFFFF AND DUP5 DUP3 DUP2 SLOAD DUP2 LT PUSH2 0xA13 JUMPI PUSH2 0xA12 PUSH2 0x3043 JUMP JUMPDEST JUMPDEST SWAP1 PUSH0 MSTORE PUSH1 0x20 PUSH0 KECCAK256 SWAP1 PUSH1 0x2 MUL ADD PUSH0 ADD PUSH0 SWAP1 SLOAD SWAP1 PUSH2 0x100 EXP SWAP1 DIV PUSH20 0xFFFFFFFFFFFFFFFFFFFFFFFFFFFFFFFFFFFFFFFF AND PUSH20 0xFFFFFFFFFFFFFFFFFFFFFFFFFFFFFFFFFFFFFFFF AND SUB PUSH2 0xA6C JUMPI DUP1 PUSH1 0x1 SWAP6 POP SWAP6 POP POP POP POP POP PUSH2 0xB21 JUMP JUMPDEST DUP7 PUSH20 0xFFFFFFFFFFFFFFFFFFFFFFFFFFFFFFFFFFFFFFFF AND DUP5 DUP3 DUP2 SLOAD DUP2 LT PUSH2 0xA96 JUMPI PUSH2 0xA95 PUSH2 0x3043 JUMP JUMPDEST JUMPDEST SWAP1 PUSH0 MSTORE PUSH1 0x20 PUSH0 KECCAK256 SWAP1 PUSH1 0x2 MUL ADD PUSH0 ADD PUSH0 SWAP1 SLOAD SWAP1 PUSH2 0x100 EXP SWAP1 DIV PUSH20 0xFFFFFFFFFFFFFFFFFFFFFFFFFFFFFFFFFFFFFFFF AND PUSH20 0xFFFFFFFFFFFFFFFFFFFFFFFFFFFFFFFFFFFFFFFF AND LT ISZERO PUSH2 0xAF4 JUMPI PUSH1 0x1 DUP2 PUSH2 0xAED SWAP2 SWAP1 PUSH2 0x309D JUMP JUMPDEST SWAP3 POP PUSH2 0xB11 JUMP JUMPDEST PUSH0 DUP2 SUB PUSH2 0xB01 JUMPI POP PUSH2 0xB17 JUMP JUMPDEST PUSH1 0x1 DUP2 PUSH2 0xB0E SWAP2 SWAP1 PUSH2 0x3114 JUMP JUMPDEST SWAP2 POP JUMPDEST POP PUSH2 0x9BC JUMP JUMPDEST PUSH0 DUP1 SWAP5 POP SWAP5 POP POP POP POP JUMPDEST SWAP3 POP SWAP3 SWAP1 POP JUMP JUMPDEST PUSH2 0xB31 DUP2 PUSH2 0xD3C JUMP JUMPDEST PUSH2 0xB70 JUMPI PUSH1 0x40 MLOAD PUSH32 0x8C379A000000000000000000000000000000000000000000000000000000000 DUP2 MSTORE PUSH1 0x4 ADD PUSH2 0xB67 SWAP1 PUSH2 0x2FBD JUMP JUMPDEST PUSH1 0x40 MLOAD DUP1 SWAP2 SUB SWAP1 REVERT JUMPDEST PUSH0 PUSH1 0x7 PUSH0 DUP4 DUP2 MSTORE PUSH1 0x20 ADD SWAP1 DUP2 MSTORE PUSH1 0x20 ADD PUSH0 KECCAK256 SWAP1 POP PUSH0 PUSH1 0x2 DUP2 GT ISZERO PUSH2 0xB97 JUMPI PUSH2 0xB96 PUSH2 0x2AAE JUMP JUMPDEST JUMPDEST DUP2 PUSH1 0x6 ADD PUSH0 SWAP1 SLOAD SWAP1 PUSH2 0x100 EXP SWAP1 DIV PUSH1 0xFF AND PUSH1 0x2 DUP2 GT ISZERO PUSH2 0xBBA JUMPI PUSH2 0xBB9 PUSH2 0x2AAE JUMP JUMPDEST JUMPDEST EQ PUSH2 0xBFA JUMPI PUSH1 0x40 MLOAD PUSH32 0x8C379A000000000000000000000000000000000000000000000000000000000 DUP2 MSTORE PUSH1 0x4 ADD PUSH2 0xBF1 SWAP1 PUSH2 0x31EE JUMP JUMPDEST PUSH1 0x40 MLOAD DUP1 SWAP2 SUB SWAP1 REVERT JUMPDEST DUP1 PUSH1 0x5 ADD SLOAD TIMESTAMP LT PUSH2 0xCFD JUMPI DUP1 PUSH1 0x3 ADD SLOAD DUP2 PUSH1 0x4 ADD SLOAD LT PUSH2 0xC88 JUMPI PUSH1 0x1 DUP2 PUSH1 0x6 ADD PUSH0 PUSH2 0x100 EXP DUP2 SLOAD DUP2 PUSH1 0xFF MUL NOT AND SWAP1 DUP4 PUSH1 0x2 DUP2 GT ISZERO PUSH2 0xC3B JUMPI PUSH2 0xC3A PUSH2 0x2AAE JUMP JUMPDEST JUMPDEST MUL OR SWAP1 SSTORE POP PUSH32 0x9429FFD66955B0A50202AEF461A5C7CC17723D8735DE36B6119776D3511D7C4F DUP3 PUSH1 0x1 PUSH1 0x40 MLOAD PUSH2 0xC72 SWAP3 SWAP2 SWAP1 PUSH2 0x320C JUMP JUMPDEST PUSH1 0x40 MLOAD DUP1 SWAP2 SUB SWAP1 LOG1 PUSH2 0xC83 DUP3 PUSH2 0x1276 JUMP JUMPDEST PUSH2 0xCF8 JUMP JUMPDEST PUSH1 0x2 DUP2 PUSH1 0x6 ADD PUSH0 PUSH2 0x100 EXP DUP2 SLOAD DUP2 PUSH1 0xFF MUL NOT AND SWAP1 DUP4 PUSH1 0x2 DUP2 GT ISZERO PUSH2 0xCAF JUMPI PUSH2 0xCAE PUSH2 0x2AAE JUMP JUMPDEST JUMPDEST MUL OR SWAP1 SSTORE POP PUSH32 0x9429FFD66955B0A50202AEF461A5C7CC17723D8735DE36B6119776D3511D7C4F DUP3 PUSH1 0x1 PUSH1 0x40 MLOAD PUSH2 0xCE6 SWAP3 SWAP2 SWAP1 PUSH2 0x320C JUMP JUMPDEST PUSH1 0x40 MLOAD DUP1 SWAP2 SUB SWAP1 LOG1 PUSH2 0xCF7 DUP3 PUSH2 0x78F JUMP JUMPDEST JUMPDEST PUSH2 0xD38 JUMP JUMPDEST PUSH1 0x40 MLOAD PUSH32 0x8C379A000000000000000000000000000000000000000000000000000000000 DUP2 MSTORE PUSH1 0x4 ADD PUSH2 0xD2F SWAP1 PUSH2 0x327D JUMP JUMPDEST PUSH1 0x40 MLOAD DUP1 SWAP2 SUB SWAP1 REVERT JUMPDEST POP POP JUMP JUMPDEST PUSH0 PUSH1 0x7 PUSH0 DUP4 DUP2 MSTORE PUSH1 0x20 ADD SWAP1 DUP2 MSTORE PUSH1 0x20 ADD PUSH0 KECCAK256 PUSH1 0x6 ADD PUSH1 0x1 SWAP1 SLOAD SWAP1 PUSH2 0x100 EXP SWAP1 DIV PUSH1 0xFF AND SWAP1 POP SWAP2 SWAP1 POP JUMP JUMPDEST PUSH0 PUSH1 0x4 PUSH0 CALLER PUSH20 0xFFFFFFFFFFFFFFFFFFFFFFFFFFFFFFFFFFFFFFFF AND PUSH20 0xFFFFFFFFFFFFFFFFFFFFFFFFFFFFFFFFFFFFFFFF AND DUP2 MSTORE PUSH1 0x20 ADD SWAP1 DUP2 MSTORE PUSH1 0x20 ADD PUSH0 KECCAK256 SLOAD SWAP1 POP PUSH0 DUP2 GT PUSH2 0xDE9 JUMPI PUSH1 0x40 MLOAD PUSH32 0x8C379A000000000000000000000000000000000000000000000000000000000 DUP2 MSTORE PUSH1 0x4 ADD PUSH2 0xDE0 SWAP1 PUSH2 0x32E5 JUMP JUMPDEST PUSH1 0x40 MLOAD DUP1 SWAP2 SUB SWAP1 REVERT JUMPDEST PUSH0 PUSH1 0x4 PUSH0 CALLER PUSH20 0xFFFFFFFFFFFFFFFFFFFFFFFFFFFFFFFFFFFFFFFF AND PUSH20 0xFFFFFFFFFFFFFFFFFFFFFFFFFFFFFFFFFFFFFFFF AND DUP2 MSTORE PUSH1 0x20 ADD SWAP1 DUP2 MSTORE PUSH1 0x20 ADD PUSH0 KECCAK256 DUP2 SWAP1 SSTORE POP CALLER PUSH20 0xFFFFFFFFFFFFFFFFFFFFFFFFFFFFFFFFFFFFFFFF AND PUSH2 0x8FC DUP3 SWAP1 DUP2 ISZERO MUL SWAP1 PUSH1 0x40 MLOAD PUSH0 PUSH1 0x40 MLOAD DUP1 DUP4 SUB DUP2 DUP6 DUP9 DUP9 CALL SWAP4 POP POP POP POP ISZERO DUP1 ISZERO PUSH2 0xE6E JUMPI RETURNDATASIZE PUSH0 DUP1 RETURNDATACOPY RETURNDATASIZE PUSH0 REVERT JUMPDEST POP POP JUMP JUMPDEST PUSH0 PUSH1 0x14 SWAP1 SLOAD SWAP1 PUSH2 0x100 EXP SWAP1 DIV PUSH1 0xFF AND PUSH2 0xEC0 JUMPI PUSH1 0x40 MLOAD PUSH32 0x8C379A000000000000000000000000000000000000000000000000000000000 DUP2 MSTORE PUSH1 0x4 ADD PUSH2 0xEB7 SWAP1 PUSH2 0x334D JUMP JUMPDEST PUSH1 0x40 MLOAD DUP1 SWAP2 SUB SWAP1 REVERT JUMPDEST PUSH0 DUP1 SLOAD SWAP1 PUSH2 0x100 EXP SWAP1 DIV PUSH20 0xFFFFFFFFFFFFFFFFFFFFFFFFFFFFFFFFFFFFFFFF AND PUSH20 0xFFFFFFFFFFFFFFFFFFFFFFFFFFFFFFFFFFFFFFFF AND CALLER PUSH20 0xFFFFFFFFFFFFFFFFFFFFFFFFFFFFFFFFFFFFFFFF AND EQ PUSH2 0xF4D JUMPI PUSH1 0x40 MLOAD PUSH32 0x8C379A000000000000000000000000000000000000000000000000000000000 DUP2 MSTORE PUSH1 0x4 ADD PUSH2 0xF44 SWAP1 PUSH2 0x2F55 JUMP JUMPDEST PUSH1 0x40 MLOAD DUP1 SWAP2 SUB SWAP1 REVERT JUMPDEST PUSH0 DUP1 PUSH1 0x14 PUSH2 0x100 EXP DUP2 SLOAD DUP2 PUSH1 0xFF MUL NOT AND SWAP1 DUP4 ISZERO ISZERO MUL OR SWAP1 SSTORE POP JUMP JUMPDEST PUSH2 0xF71 DUP2 PUSH2 0xD3C JUMP JUMPDEST PUSH2 0xFB0 JUMPI PUSH1 0x40 MLOAD PUSH32 0x8C379A000000000000000000000000000000000000000000000000000000000 DUP2 MSTORE PUSH1 0x4 ADD PUSH2 0xFA7 SWAP1 PUSH2 0x2FBD JUMP JUMPDEST PUSH1 0x40 MLOAD DUP1 SWAP2 SUB SWAP1 REVERT JUMPDEST PUSH0 PUSH1 0x2 DUP2 GT ISZERO PUSH2 0xFC3 JUMPI PUSH2 0xFC2 PUSH2 0x2AAE JUMP JUMPDEST JUMPDEST PUSH2 0xFCC DUP3 PUSH2 0x1B39 JUMP JUMPDEST PUSH1 0x2 DUP2 GT ISZERO PUSH2 0xFDE JUMPI PUSH2 0xFDD PUSH2 0x2AAE JUMP JUMPDEST JUMPDEST EQ PUSH2 0x101E JUMPI PUSH1 0x40 MLOAD PUSH32 0x8C379A000000000000000000000000000000000000000000000000000000000 DUP2 MSTORE PUSH1 0x4 ADD PUSH2 0x1015 SWAP1 PUSH2 0x33B5 JUMP JUMPDEST PUSH1 0x40 MLOAD DUP1 SWAP2 SUB SWAP1 REVERT JUMPDEST PUSH0 CALLVALUE GT PUSH2 0x1060 JUMPI PUSH1 0x40 MLOAD PUSH32 0x8C379A000000000000000000000000000000000000000000000000000000000 DUP2 MSTORE PUSH1 0x4 ADD PUSH2 0x1057 SWAP1 PUSH2 0x3443 JUMP JUMPDEST PUSH1 0x40 MLOAD DUP1 SWAP2 SUB SWAP1 REVERT JUMPDEST PUSH0 DUP1 PUSH2 0x106C DUP4 CALLER PUSH2 0x978 JUMP JUMPDEST SWAP2 POP SWAP2 POP DUP1 PUSH2 0x112C JUMPI PUSH1 0x6 PUSH0 DUP5 DUP2 MSTORE PUSH1 0x20 ADD SWAP1 DUP2 MSTORE PUSH1 0x20 ADD PUSH0 KECCAK256 PUSH1 0x40 MLOAD DUP1 PUSH1 0x40 ADD PUSH1 0x40 MSTORE DUP1 CALLER PUSH20 0xFFFFFFFFFFFFFFFFFFFFFFFFFFFFFFFFFFFFFFFF AND DUP2 MSTORE PUSH1 0x20 ADD CALLVALUE DUP2 MSTORE POP SWAP1 DUP1 PUSH1 0x1 DUP2 SLOAD ADD DUP1 DUP3 SSTORE DUP1 SWAP2 POP POP PUSH1 0x1 SWAP1 SUB SWAP1 PUSH0 MSTORE PUSH1 0x20 PUSH0 KECCAK256 SWAP1 PUSH1 0x2 MUL ADD PUSH0 SWAP1 SWAP2 SWAP1 SWAP2 SWAP1 SWAP2 POP PUSH0 DUP3 ADD MLOAD DUP2 PUSH0 ADD PUSH0 PUSH2 0x100 EXP DUP2 SLOAD DUP2 PUSH20 0xFFFFFFFFFFFFFFFFFFFFFFFFFFFFFFFFFFFFFFFF MUL NOT AND SWAP1 DUP4 PUSH20 0xFFFFFFFFFFFFFFFFFFFFFFFFFFFFFFFFFFFFFFFF AND MUL OR SWAP1 SSTORE POP PUSH1 0x20 DUP3 ADD MLOAD DUP2 PUSH1 0x1 ADD SSTORE POP POP PUSH2 0x1175 JUMP JUMPDEST CALLVALUE PUSH1 0x6 PUSH0 DUP6 DUP2 MSTORE PUSH1 0x20 ADD SWAP1 DUP2 MSTORE PUSH1 0x20 ADD PUSH0 KECCAK256 DUP4 DUP2 SLOAD DUP2 LT PUSH2 0x1150 JUMPI PUSH2 0x114F PUSH2 0x3043 JUMP JUMPDEST JUMPDEST SWAP1 PUSH0 MSTORE PUSH1 0x20 PUSH0 KECCAK256 SWAP1 PUSH1 0x2 MUL ADD PUSH1 0x1 ADD PUSH0 DUP3 DUP3 SLOAD PUSH2 0x116D SWAP2 SWAP1 PUSH2 0x309D JUMP JUMPDEST SWAP3 POP POP DUP2 SWAP1 SSTORE POP JUMPDEST CALLVALUE PUSH1 0x7 PUSH0 DUP6 DUP2 MSTORE PUSH1 0x20 ADD SWAP1 DUP2 MSTORE PUSH1 0x20 ADD PUSH0 KECCAK256 PUSH1 0x4 ADD PUSH0 DUP3 DUP3 SLOAD PUSH2 0x1198 SWAP2 SWAP1 PUSH2 0x309D JUMP JUMPDEST SWAP3 POP POP DUP2 SWAP1 SSTORE POP PUSH32 0xB736B18814DA81A1581CD71E835C12A580034BD300493D2C7A455CE69A50F7A0 DUP4 CALLER CALLVALUE PUSH1 0x40 MLOAD PUSH2 0x11D2 SWAP4 SWAP3 SWAP2 SWAP1 PUSH2 0x30DF JUMP JUMPDEST PUSH1 0x40 MLOAD DUP1 SWAP2 SUB SWAP1 LOG1 POP POP POP JUMP JUMPDEST PUSH0 DUP1 SLOAD SWAP1 PUSH2 0x100 EXP SWAP1 DIV PUSH20 0xFFFFFFFFFFFFFFFFFFFFFFFFFFFFFFFFFFFFFFFF AND PUSH20 0xFFFFFFFFFFFFFFFFFFFFFFFFFFFFFFFFFFFFFFFF AND CALLER PUSH20 0xFFFFFFFFFFFFFFFFFFFFFFFFFFFFFFFFFFFFFFFF AND EQ PUSH2 0x126C JUMPI PUSH1 0x40 MLOAD PUSH32 0x8C379A000000000000000000000000000000000000000000000000000000000 DUP2 MSTORE PUSH1 0x4 ADD PUSH2 0x1263 SWAP1 PUSH2 0x2F55 JUMP JUMPDEST PUSH1 0x40 MLOAD DUP1 SWAP2 SUB SWAP1 REVERT JUMPDEST DUP1 PUSH1 0x1 DUP2 SWAP1 SSTORE POP POP JUMP JUMPDEST PUSH2 0x127F DUP2 PUSH2 0xD3C JUMP JUMPDEST PUSH2 0x12BE JUMPI PUSH1 0x40 MLOAD PUSH32 0x8C379A000000000000000000000000000000000000000000000000000000000 DUP2 MSTORE PUSH1 0x4 ADD PUSH2 0x12B5 SWAP1 PUSH2 0x2FBD JUMP JUMPDEST PUSH1 0x40 MLOAD DUP1 SWAP2 SUB SWAP1 REVERT JUMPDEST PUSH2 0x12C7 DUP2 PUSH2 0x753 JUMP JUMPDEST PUSH20 0xFFFFFFFFFFFFFFFFFFFFFFFFFFFFFFFFFFFFFFFF AND CALLER PUSH20 0xFFFFFFFFFFFFFFFFFFFFFFFFFFFFFFFFFFFFFFFF AND EQ PUSH2 0x1334 JUMPI PUSH1 0x40 MLOAD PUSH32 0x8C379A000000000000000000000000000000000000000000000000000000000 DUP2 MSTORE PUSH1 0x4 ADD PUSH2 0x132B SWAP1 PUSH2 0x34D1 JUMP JUMPDEST PUSH1 0x40 MLOAD DUP1 SWAP2 SUB SWAP1 REVERT JUMPDEST PUSH1 0x1 PUSH1 0x2 DUP2 GT ISZERO PUSH2 0x1348 JUMPI PUSH2 0x1347 PUSH2 0x2AAE JUMP JUMPDEST JUMPDEST PUSH2 0x1351 DUP3 PUSH2 0x1B39 JUMP JUMPDEST PUSH1 0x2 DUP2 GT ISZERO PUSH2 0x1363 JUMPI PUSH2 0x1362 PUSH2 0x2AAE JUMP JUMPDEST JUMPDEST EQ PUSH2 0x13A3 JUMPI PUSH1 0x40 MLOAD PUSH32 0x8C379A000000000000000000000000000000000000000000000000000000000 DUP2 MSTORE PUSH1 0x4 ADD PUSH2 0x139A SWAP1 PUSH2 0x3539 JUMP JUMPDEST PUSH1 0x40 MLOAD DUP1 SWAP2 SUB SWAP1 REVERT JUMPDEST PUSH0 PUSH2 0x13AD DUP3 PUSH2 0x753 JUMP JUMPDEST SWAP1 POP PUSH0 PUSH1 0x7 PUSH0 DUP5 DUP2 MSTORE PUSH1 0x20 ADD SWAP1 DUP2 MSTORE PUSH1 0x20 ADD PUSH0 KECCAK256 PUSH1 0x4 ADD SLOAD SWAP1 POP PUSH0 PUSH1 0x7 PUSH0 DUP6 DUP2 MSTORE PUSH1 0x20 ADD SWAP1 DUP2 MSTORE PUSH1 0x20 ADD PUSH0 KECCAK256 PUSH1 0x4 ADD DUP2 SWAP1 SSTORE POP DUP2 PUSH20 0xFFFFFFFFFFFFFFFFFFFFFFFFFFFFFFFFFFFFFFFF AND PUSH2 0x8FC DUP3 SWAP1 DUP2 ISZERO MUL SWAP1 PUSH1 0x40 MLOAD PUSH0 PUSH1 0x40 MLOAD DUP1 DUP4 SUB DUP2 DUP6 DUP9 DUP9 CALL SWAP4 POP POP POP POP ISZERO DUP1 ISZERO PUSH2 0x1423 JUMPI RETURNDATASIZE PUSH0 DUP1 RETURNDATACOPY RETURNDATASIZE PUSH0 REVERT JUMPDEST POP PUSH32 0x13E7ED68A0FE9E4BCAFDDE5F49381514A9EE7E34FF7D926EADAB64C1E0E77F16 DUP4 DUP4 DUP4 PUSH1 0x40 MLOAD PUSH2 0x1457 SWAP4 SWAP3 SWAP2 SWAP1 PUSH2 0x35B2 JUMP JUMPDEST PUSH1 0x40 MLOAD DUP1 SWAP2 SUB SWAP1 LOG1 POP POP POP JUMP JUMPDEST PUSH1 0x1 SLOAD DUP2 JUMP JUMPDEST PUSH0 PUSH1 0x14 SWAP1 SLOAD SWAP1 PUSH2 0x100 EXP SWAP1 DIV PUSH1 0xFF AND ISZERO PUSH2 0x14B9 JUMPI PUSH1 0x40 MLOAD PUSH32 0x8C379A000000000000000000000000000000000000000000000000000000000 DUP2 MSTORE PUSH1 0x4 ADD PUSH2 0x14B0 SWAP1 PUSH2 0x3631 JUMP JUMPDEST PUSH1 0x40 MLOAD DUP1 SWAP2 SUB SWAP1 REVERT JUMPDEST PUSH0 DUP1 SLOAD SWAP1 PUSH2 0x100 EXP SWAP1 DIV PUSH20 0xFFFFFFFFFFFFFFFFFFFFFFFFFFFFFFFFFFFFFFFF AND PUSH20 0xFFFFFFFFFFFFFFFFFFFFFFFFFFFFFFFFFFFFFFFF AND CALLER PUSH20 0xFFFFFFFFFFFFFFFFFFFFFFFFFFFFFFFFFFFFFFFF AND EQ PUSH2 0x1546 JUMPI PUSH1 0x40 MLOAD PUSH32 0x8C379A000000000000000000000000000000000000000000000000000000000 DUP2 MSTORE PUSH1 0x4 ADD PUSH2 0x153D SWAP1 PUSH2 0x2F55 JUMP JUMPDEST PUSH1 0x40 MLOAD DUP1 SWAP2 SUB SWAP1 REVERT JUMPDEST PUSH1 0x1 PUSH0 PUSH1 0x14 PUSH2 0x100 EXP DUP2 SLOAD DUP2 PUSH1 0xFF MUL NOT AND SWAP1 DUP4 ISZERO ISZERO MUL OR SWAP1 SSTORE POP JUMP JUMPDEST PUSH0 PUSH1 0x2 SLOAD SWAP1 POP SWAP1 JUMP JUMPDEST DUP2 PUSH32 0xFFFFFFFFFFFFFFFFFFFFFFFFFFFFFFFFFFFFFFFFFFFFFFFFFFFFFFFFFFFFFFFF PUSH2 0x1620 PUSH1 0x3 PUSH0 CALLER PUSH20 0xFFFFFFFFFFFFFFFFFFFFFFFFFFFFFFFFFFFFFFFF AND PUSH20 0xFFFFFFFFFFFFFFFFFFFFFFFFFFFFFFFFFFFFFFFF AND DUP2 MSTORE PUSH1 0x20 ADD SWAP1 DUP2 MSTORE PUSH1 0x20 ADD PUSH0 KECCAK256 DUP1 SLOAD DUP1 PUSH1 0x20 MUL PUSH1 0x20 ADD PUSH1 0x40 MLOAD SWAP1 DUP2 ADD PUSH1 0x40 MSTORE DUP1 SWAP3 SWAP2 SWAP1 DUP2 DUP2 MSTORE PUSH1 0x20 ADD DUP3 DUP1 SLOAD DUP1 ISZERO PUSH2 0x1615 JUMPI PUSH1 0x20 MUL DUP3 ADD SWAP2 SWAP1 PUSH0 MSTORE PUSH1 0x20 PUSH0 KECCAK256 SWAP1 JUMPDEST DUP2 SLOAD DUP2 MSTORE PUSH1 0x20 ADD SWAP1 PUSH1 0x1 ADD SWAP1 DUP1 DUP4 GT PUSH2 0x1601 JUMPI JUMPDEST POP POP POP POP POP DUP4 PUSH2 0x1730 JUMP JUMPDEST SUB PUSH2 0x1660 JUMPI PUSH1 0x40 MLOAD PUSH32 0x8C379A000000000000000000000000000000000000000000000000000000000 DUP2 MSTORE PUSH1 0x4 ADD PUSH2 0x1657 SWAP1 PUSH2 0x36BF JUMP JUMPDEST PUSH1 0x40 MLOAD DUP1 SWAP2 SUB SWAP1 REVERT JUMPDEST DUP3 PUSH0 PUSH1 0x2 DUP2 GT ISZERO PUSH2 0x1674 JUMPI PUSH2 0x1673 PUSH2 0x2AAE JUMP JUMPDEST JUMPDEST PUSH2 0x167D DUP3 PUSH2 0x1B39 JUMP JUMPDEST PUSH1 0x2 DUP2 GT ISZERO PUSH2 0x168F JUMPI PUSH2 0x168E PUSH2 0x2AAE JUMP JUMPDEST JUMPDEST EQ PUSH2 0x16CF JUMPI PUSH1 0x40 MLOAD PUSH32 0x8C379A000000000000000000000000000000000000000000000000000000000 DUP2 MSTORE PUSH1 0x4 ADD PUSH2 0x16C6 SWAP1 PUSH2 0x33B5 JUMP JUMPDEST PUSH1 0x40 MLOAD DUP1 SWAP2 SUB SWAP1 REVERT JUMPDEST DUP3 PUSH1 0x7 PUSH0 DUP7 DUP2 MSTORE PUSH1 0x20 ADD SWAP1 DUP2 MSTORE PUSH1 0x20 ADD PUSH0 KECCAK256 PUSH1 0x1 ADD SWAP1 DUP2 PUSH2 0x16F0 SWAP2 SWAP1 PUSH2 0x38CE JUMP JUMPDEST POP PUSH32 0xD935F8055B4C9C830E03201FAC6106C7F64B5402F80B169A44853F21974DF942 DUP5 DUP5 PUSH1 0x40 MLOAD PUSH2 0x1722 SWAP3 SWAP2 SWAP1 PUSH2 0x399D JUMP JUMPDEST PUSH1 0x40 MLOAD DUP1 SWAP2 SUB SWAP1 LOG1 POP POP POP POP JUMP JUMPDEST PUSH0 DUP1 PUSH0 SWAP1 POP PUSH0 PUSH1 0x1 DUP6 MLOAD PUSH2 0x1744 SWAP2 SWAP1 PUSH2 0x39CB JUMP JUMPDEST SWAP1 POP JUMPDEST DUP1 DUP3 SGT PUSH2 0x17D8 JUMPI PUSH0 PUSH1 0x2 DUP4 DUP4 PUSH2 0x175D SWAP2 SWAP1 PUSH2 0x39CB JUMP JUMPDEST PUSH2 0x1767 SWAP2 SWAP1 PUSH2 0x3A0B JUMP JUMPDEST DUP4 PUSH2 0x1772 SWAP2 SWAP1 PUSH2 0x3A73 JUMP JUMPDEST SWAP1 POP PUSH0 DUP7 DUP3 DUP2 MLOAD DUP2 LT PUSH2 0x1788 JUMPI PUSH2 0x1787 PUSH2 0x3043 JUMP JUMPDEST JUMPDEST PUSH1 0x20 MUL PUSH1 0x20 ADD ADD MLOAD SWAP1 POP DUP6 DUP2 SUB PUSH2 0x17A5 JUMPI DUP2 SWAP5 POP POP POP POP POP PUSH2 0x17FE JUMP JUMPDEST DUP6 DUP2 LT ISZERO PUSH2 0x17C1 JUMPI PUSH1 0x1 DUP3 PUSH2 0x17BA SWAP2 SWAP1 PUSH2 0x3A73 JUMP JUMPDEST SWAP4 POP PUSH2 0x17D1 JUMP JUMPDEST PUSH1 0x1 DUP3 PUSH2 0x17CE SWAP2 SWAP1 PUSH2 0x39CB JUMP JUMPDEST SWAP3 POP JUMPDEST POP POP PUSH2 0x1747 JUMP JUMPDEST PUSH32 0xFFFFFFFFFFFFFFFFFFFFFFFFFFFFFFFFFFFFFFFFFFFFFFFFFFFFFFFFFFFFFFFF SWAP3 POP POP POP JUMPDEST SWAP3 SWAP2 POP POP JUMP JUMPDEST PUSH0 DUP5 DUP5 TIMESTAMP CALLER PUSH1 0x40 MLOAD PUSH1 0x20 ADD PUSH2 0x181C SWAP5 SWAP4 SWAP3 SWAP2 SWAP1 PUSH2 0x3B53 JUMP JUMPDEST PUSH1 0x40 MLOAD PUSH1 0x20 DUP2 DUP4 SUB SUB DUP2 MSTORE SWAP1 PUSH1 0x40 MSTORE DUP1 MLOAD SWAP1 PUSH1 0x20 ADD KECCAK256 SWAP1 POP PUSH2 0x183C PUSH2 0x24B5 JUMP JUMPDEST DUP6 DUP2 PUSH0 ADD DUP2 SWAP1 MSTORE POP DUP5 DUP2 PUSH1 0x20 ADD DUP2 SWAP1 MSTORE POP CALLER DUP2 PUSH1 0x40 ADD SWAP1 PUSH20 0xFFFFFFFFFFFFFFFFFFFFFFFFFFFFFFFFFFFFFFFF AND SWAP1 DUP2 PUSH20 0xFFFFFFFFFFFFFFFFFFFFFFFFFFFFFFFFFFFFFFFF AND DUP2 MSTORE POP POP DUP4 DUP2 PUSH1 0x60 ADD DUP2 DUP2 MSTORE POP POP PUSH0 DUP2 PUSH1 0x80 ADD DUP2 DUP2 MSTORE POP POP DUP3 DUP2 PUSH1 0xA0 ADD DUP2 DUP2 MSTORE POP POP PUSH0 DUP2 PUSH1 0xC0 ADD SWAP1 PUSH1 0x2 DUP2 GT ISZERO PUSH2 0x18BB JUMPI PUSH2 0x18BA PUSH2 0x2AAE JUMP JUMPDEST JUMPDEST SWAP1 DUP2 PUSH1 0x2 DUP2 GT ISZERO PUSH2 0x18CF JUMPI PUSH2 0x18CE PUSH2 0x2AAE JUMP JUMPDEST JUMPDEST DUP2 MSTORE POP POP PUSH1 0x1 DUP2 PUSH1 0xE0 ADD SWAP1 ISZERO ISZERO SWAP1 DUP2 ISZERO ISZERO DUP2 MSTORE POP POP DUP1 PUSH1 0x7 PUSH0 DUP5 DUP2 MSTORE PUSH1 0x20 ADD SWAP1 DUP2 MSTORE PUSH1 0x20 ADD PUSH0 KECCAK256 PUSH0 DUP3 ADD MLOAD DUP2 PUSH0 ADD SWAP1 DUP2 PUSH2 0x1909 SWAP2 SWAP1 PUSH2 0x38CE JUMP JUMPDEST POP PUSH1 0x20 DUP3 ADD MLOAD DUP2 PUSH1 0x1 ADD SWAP1 DUP2 PUSH2 0x191F SWAP2 SWAP1 PUSH2 0x38CE JUMP JUMPDEST POP PUSH1 0x40 DUP3 ADD MLOAD DUP2 PUSH1 0x2 ADD PUSH0 PUSH2 0x100 EXP DUP2 SLOAD DUP2 PUSH20 0xFFFFFFFFFFFFFFFFFFFFFFFFFFFFFFFFFFFFFFFF MUL NOT AND SWAP1 DUP4 PUSH20 0xFFFFFFFFFFFFFFFFFFFFFFFFFFFFFFFFFFFFFFFF AND MUL OR SWAP1 SSTORE POP PUSH1 0x60 DUP3 ADD MLOAD DUP2 PUSH1 0x3 ADD SSTORE PUSH1 0x80 DUP3 ADD MLOAD DUP2 PUSH1 0x4 ADD SSTORE PUSH1 0xA0 DUP3 ADD MLOAD DUP2 PUSH1 0x5 ADD SSTORE PUSH1 0xC0 DUP3 ADD MLOAD DUP2 PUSH1 0x6 ADD PUSH0 PUSH2 0x100 EXP DUP2 SLOAD DUP2 PUSH1 0xFF MUL NOT AND SWAP1 DUP4 PUSH1 0x2 DUP2 GT ISZERO PUSH2 0x19AE JUMPI PUSH2 0x19AD PUSH2 0x2AAE JUMP JUMPDEST JUMPDEST MUL OR SWAP1 SSTORE POP PUSH1 0xE0 DUP3 ADD MLOAD DUP2 PUSH1 0x6 ADD PUSH1 0x1 PUSH2 0x100 EXP DUP2 SLOAD DUP2 PUSH1 0xFF MUL NOT AND SWAP1 DUP4 ISZERO ISZERO MUL OR SWAP1 SSTORE POP SWAP1 POP POP PUSH1 0x3 PUSH0 CALLER PUSH20 0xFFFFFFFFFFFFFFFFFFFFFFFFFFFFFFFFFFFFFFFF AND PUSH20 0xFFFFFFFFFFFFFFFFFFFFFFFFFFFFFFFFFFFFFFFF AND DUP2 MSTORE PUSH1 0x20 ADD SWAP1 DUP2 MSTORE PUSH1 0x20 ADD PUSH0 KECCAK256 DUP3 SWAP1 DUP1 PUSH1 0x1 DUP2 SLOAD ADD DUP1 DUP3 SSTORE DUP1 SWAP2 POP POP PUSH1 0x1 SWAP1 SUB SWAP1 PUSH0 MSTORE PUSH1 0x20 PUSH0 KECCAK256 ADD PUSH0 SWAP1 SWAP2 SWAP1 SWAP2 SWAP1 SWAP2 POP SSTORE PUSH1 0x8 DUP3 SWAP1 DUP1 PUSH1 0x1 DUP2 SLOAD ADD DUP1 DUP3 SSTORE DUP1 SWAP2 POP POP PUSH1 0x1 SWAP1 SUB SWAP1 PUSH0 MSTORE PUSH1 0x20 PUSH0 KECCAK256 ADD PUSH0 SWAP1 SWAP2 SWAP1 SWAP2 SWAP1 SWAP2 POP SSTORE PUSH2 0x1AEF PUSH1 0x3 PUSH0 CALLER PUSH20 0xFFFFFFFFFFFFFFFFFFFFFFFFFFFFFFFFFFFFFFFF AND PUSH20 0xFFFFFFFFFFFFFFFFFFFFFFFFFFFFFFFFFFFFFFFF AND DUP2 MSTORE PUSH1 0x20 ADD SWAP1 DUP2 MSTORE PUSH1 0x20 ADD PUSH0 KECCAK256 DUP1 SLOAD DUP1 PUSH1 0x20 MUL PUSH1 0x20 ADD PUSH1 0x40 MLOAD SWAP1 DUP2 ADD PUSH1 0x40 MSTORE DUP1 SWAP3 SWAP2 SWAP1 DUP2 DUP2 MSTORE PUSH1 0x20 ADD DUP3 DUP1 SLOAD DUP1 ISZERO PUSH2 0x1AE5 JUMPI PUSH1 0x20 MUL DUP3 ADD SWAP2 SWAP1 PUSH0 MSTORE PUSH1 0x20 PUSH0 KECCAK256 SWAP1 JUMPDEST DUP2 SLOAD DUP2 MSTORE PUSH1 0x20 ADD SWAP1 PUSH1 0x1 ADD SWAP1 DUP1 DUP4 GT PUSH2 0x1AD1 JUMPI JUMPDEST POP POP POP POP POP PUSH2 0x1BCE JUMP JUMPDEST POP PUSH32 0x57697173C22831F367942A05F5C552C47D47A6585DDFD0836FB8DC3B08E5C331 DUP3 DUP8 DUP8 CALLER DUP9 DUP9 PUSH1 0x40 MLOAD PUSH2 0x1B29 SWAP7 SWAP6 SWAP5 SWAP4 SWAP3 SWAP2 SWAP1 PUSH2 0x3B98 JUMP JUMPDEST PUSH1 0x40 MLOAD DUP1 SWAP2 SUB SWAP1 LOG1 POP POP POP POP POP POP JUMP JUMPDEST PUSH0 PUSH1 0x7 PUSH0 DUP4 DUP2 MSTORE PUSH1 0x20 ADD SWAP1 DUP2 MSTORE PUSH1 0x20 ADD PUSH0 KECCAK256 PUSH1 0x6 ADD PUSH0 SWAP1 SLOAD SWAP1 PUSH2 0x100 EXP SWAP1 DIV PUSH1 0xFF AND SWAP1 POP SWAP2 SWAP1 POP JUMP JUMPDEST PUSH0 DUP1 PUSH0 PUSH2 0x1B6F DUP5 CALLER PUSH2 0x978 JUMP JUMPDEST SWAP2 POP SWAP2 POP DUP1 PUSH2 0x1B82 JUMPI PUSH0 SWAP3 POP POP POP PUSH2 0x1BBA JUMP JUMPDEST PUSH1 0x6 PUSH0 DUP6 DUP2 MSTORE PUSH1 0x20 ADD SWAP1 DUP2 MSTORE PUSH1 0x20 ADD PUSH0 KECCAK256 DUP3 DUP2 SLOAD DUP2 LT PUSH2 0x1BA5 JUMPI PUSH2 0x1BA4 PUSH2 0x3043 JUMP JUMPDEST JUMPDEST SWAP1 PUSH0 MSTORE PUSH1 0x20 PUSH0 KECCAK256 SWAP1 PUSH1 0x2 MUL ADD PUSH1 0x1 ADD SLOAD SWAP3 POP POP POP JUMPDEST SWAP2 SWAP1 POP JUMP JUMPDEST PUSH0 PUSH1 0x1 SLOAD SWAP1 POP SWAP1 JUMP JUMPDEST PUSH1 0x2 SLOAD DUP2 JUMP JUMPDEST PUSH1 0x60 PUSH1 0x1 DUP3 MLOAD GT PUSH2 0x1BE1 JUMPI DUP2 SWAP1 POP PUSH2 0x1E16 JUMP JUMPDEST PUSH0 PUSH1 0x2 DUP4 MLOAD PUSH2 0x1BF0 SWAP2 SWAP1 PUSH2 0x3C05 JUMP JUMPDEST PUSH8 0xFFFFFFFFFFFFFFFF DUP2 GT ISZERO PUSH2 0x1C09 JUMPI PUSH2 0x1C08 PUSH2 0x2745 JUMP JUMPDEST JUMPDEST PUSH1 0x40 MLOAD SWAP1 DUP1 DUP3 MSTORE DUP1 PUSH1 0x20 MUL PUSH1 0x20 ADD DUP3 ADD PUSH1 0x40 MSTORE DUP1 ISZERO PUSH2 0x1C37 JUMPI DUP2 PUSH1 0x20 ADD PUSH1 0x20 DUP3 MUL DUP1 CALLDATASIZE DUP4 CALLDATACOPY DUP1 DUP3 ADD SWAP2 POP POP SWAP1 POP JUMPDEST POP SWAP1 POP PUSH0 DUP1 DUP3 DUP3 DUP1 PUSH2 0x1C48 SWAP1 PUSH2 0x3C46 JUMP JUMPDEST SWAP4 POP DUP2 MLOAD DUP2 LT PUSH2 0x1C5B JUMPI PUSH2 0x1C5A PUSH2 0x3043 JUMP JUMPDEST JUMPDEST PUSH1 0x20 MUL PUSH1 0x20 ADD ADD DUP2 DUP2 MSTORE POP POP PUSH1 0x1 DUP5 MLOAD PUSH2 0x1C75 SWAP2 SWAP1 PUSH2 0x3114 JUMP JUMPDEST DUP3 DUP3 DUP1 PUSH2 0x1C81 SWAP1 PUSH2 0x3C46 JUMP JUMPDEST SWAP4 POP DUP2 MLOAD DUP2 LT PUSH2 0x1C94 JUMPI PUSH2 0x1C93 PUSH2 0x3043 JUMP JUMPDEST JUMPDEST PUSH1 0x20 MUL PUSH1 0x20 ADD ADD DUP2 DUP2 MSTORE POP POP JUMPDEST PUSH0 DUP2 GT ISZERO PUSH2 0x1E10 JUMPI PUSH0 DUP3 DUP3 PUSH2 0x1CB5 SWAP1 PUSH2 0x3C8D JUMP JUMPDEST SWAP3 POP DUP3 DUP2 MLOAD DUP2 LT PUSH2 0x1CC9 JUMPI PUSH2 0x1CC8 PUSH2 0x3043 JUMP JUMPDEST JUMPDEST PUSH1 0x20 MUL PUSH1 0x20 ADD ADD MLOAD SWAP1 POP PUSH0 DUP4 DUP4 PUSH2 0x1CDF SWAP1 PUSH2 0x3C8D JUMP JUMPDEST SWAP4 POP DUP4 DUP2 MLOAD DUP2 LT PUSH2 0x1CF3 JUMPI PUSH2 0x1CF2 PUSH2 0x3043 JUMP JUMPDEST JUMPDEST PUSH1 0x20 MUL PUSH1 0x20 ADD ADD MLOAD SWAP1 POP PUSH0 PUSH2 0x1D09 DUP8 DUP4 DUP6 PUSH2 0x2353 JUMP JUMPDEST SWAP1 POP PUSH0 DUP2 GT DUP1 ISZERO PUSH2 0x1D25 JUMPI POP DUP2 PUSH1 0x1 DUP3 PUSH2 0x1D23 SWAP2 SWAP1 PUSH2 0x3114 JUMP JUMPDEST GT JUMPDEST ISZERO PUSH2 0x1D8F JUMPI DUP2 DUP6 DUP6 DUP1 PUSH2 0x1D37 SWAP1 PUSH2 0x3C46 JUMP JUMPDEST SWAP7 POP DUP2 MLOAD DUP2 LT PUSH2 0x1D4A JUMPI PUSH2 0x1D49 PUSH2 0x3043 JUMP JUMPDEST JUMPDEST PUSH1 0x20 MUL PUSH1 0x20 ADD ADD DUP2 DUP2 MSTORE POP POP PUSH1 0x1 DUP2 PUSH2 0x1D63 SWAP2 SWAP1 PUSH2 0x3114 JUMP JUMPDEST DUP6 DUP6 DUP1 PUSH2 0x1D6F SWAP1 PUSH2 0x3C46 JUMP JUMPDEST SWAP7 POP DUP2 MLOAD DUP2 LT PUSH2 0x1D82 JUMPI PUSH2 0x1D81 PUSH2 0x3043 JUMP JUMPDEST JUMPDEST PUSH1 0x20 MUL PUSH1 0x20 ADD ADD DUP2 DUP2 MSTORE POP POP JUMPDEST DUP3 PUSH1 0x1 DUP3 PUSH2 0x1D9D SWAP2 SWAP1 PUSH2 0x309D JUMP JUMPDEST LT ISZERO PUSH2 0x1E08 JUMPI PUSH1 0x1 DUP2 PUSH2 0x1DB0 SWAP2 SWAP1 PUSH2 0x309D JUMP JUMPDEST DUP6 DUP6 DUP1 PUSH2 0x1DBC SWAP1 PUSH2 0x3C46 JUMP JUMPDEST SWAP7 POP DUP2 MLOAD DUP2 LT PUSH2 0x1DCF JUMPI PUSH2 0x1DCE PUSH2 0x3043 JUMP JUMPDEST JUMPDEST PUSH1 0x20 MUL PUSH1 0x20 ADD ADD DUP2 DUP2 MSTORE POP POP DUP3 DUP6 DUP6 DUP1 PUSH2 0x1DE8 SWAP1 PUSH2 0x3C46 JUMP JUMPDEST SWAP7 POP DUP2 MLOAD DUP2 LT PUSH2 0x1DFB JUMPI PUSH2 0x1DFA PUSH2 0x3043 JUMP JUMPDEST JUMPDEST PUSH1 0x20 MUL PUSH1 0x20 ADD ADD DUP2 DUP2 MSTORE POP POP JUMPDEST POP POP POP PUSH2 0x1CA1 JUMP JUMPDEST DUP4 SWAP3 POP POP POP JUMPDEST SWAP2 SWAP1 POP JUMP JUMPDEST PUSH0 PUSH1 0x7 PUSH0 DUP4 DUP2 MSTORE PUSH1 0x20 ADD SWAP1 DUP2 MSTORE PUSH1 0x20 ADD PUSH0 KECCAK256 PUSH1 0x6 ADD PUSH0 SWAP1 SLOAD SWAP1 PUSH2 0x100 EXP SWAP1 DIV PUSH1 0xFF AND SWAP1 POP SWAP2 SWAP1 POP JUMP JUMPDEST PUSH0 PUSH1 0x8 DUP1 SLOAD SWAP1 POP SWAP1 POP SWAP1 JUMP JUMPDEST DUP3 PUSH32 0xFFFFFFFFFFFFFFFFFFFFFFFFFFFFFFFFFFFFFFFFFFFFFFFFFFFFFFFFFFFFFFFF PUSH2 0x1F05 PUSH1 0x3 PUSH0 CALLER PUSH20 0xFFFFFFFFFFFFFFFFFFFFFFFFFFFFFFFFFFFFFFFF AND PUSH20 0xFFFFFFFFFFFFFFFFFFFFFFFFFFFFFFFFFFFFFFFF AND DUP2 MSTORE PUSH1 0x20 ADD SWAP1 DUP2 MSTORE PUSH1 0x20 ADD PUSH0 KECCAK256 DUP1 SLOAD DUP1 PUSH1 0x20 MUL PUSH1 0x20 ADD PUSH1 0x40 MLOAD SWAP1 DUP2 ADD PUSH1 0x40 MSTORE DUP1 SWAP3 SWAP2 SWAP1 DUP2 DUP2 MSTORE PUSH1 0x20 ADD DUP3 DUP1 SLOAD DUP1 ISZERO PUSH2 0x1EFA JUMPI PUSH1 0x20 MUL DUP3 ADD SWAP2 SWAP1 PUSH0 MSTORE PUSH1 0x20 PUSH0 KECCAK256 SWAP1 JUMPDEST DUP2 SLOAD DUP2 MSTORE PUSH1 0x20 ADD SWAP1 PUSH1 0x1 ADD SWAP1 DUP1 DUP4 GT PUSH2 0x1EE6 JUMPI JUMPDEST POP POP POP POP POP DUP4 PUSH2 0x1730 JUMP JUMPDEST SUB PUSH2 0x1F45 JUMPI PUSH1 0x40 MLOAD PUSH32 0x8C379A000000000000000000000000000000000000000000000000000000000 DUP2 MSTORE PUSH1 0x4 ADD PUSH2 0x1F3C SWAP1 PUSH2 0x36BF JUMP JUMPDEST PUSH1 0x40 MLOAD DUP1 SWAP2 SUB SWAP1 REVERT JUMPDEST DUP4 PUSH0 PUSH1 0x2 DUP2 GT ISZERO PUSH2 0x1F59 JUMPI PUSH2 0x1F58 PUSH2 0x2AAE JUMP JUMPDEST JUMPDEST PUSH2 0x1F62 DUP3 PUSH2 0x1B39 JUMP JUMPDEST PUSH1 0x2 DUP2 GT ISZERO PUSH2 0x1F74 JUMPI PUSH2 0x1F73 PUSH2 0x2AAE JUMP JUMPDEST JUMPDEST EQ PUSH2 0x1FB4 JUMPI PUSH1 0x40 MLOAD PUSH32 0x8C379A000000000000000000000000000000000000000000000000000000000 DUP2 MSTORE PUSH1 0x4 ADD PUSH2 0x1FAB SWAP1 PUSH2 0x33B5 JUMP JUMPDEST PUSH1 0x40 MLOAD DUP1 SWAP2 SUB SWAP1 REVERT JUMPDEST PUSH1 0x5 PUSH0 DUP7 DUP2 MSTORE PUSH1 0x20 ADD SWAP1 DUP2 MSTORE PUSH1 0x20 ADD PUSH0 KECCAK256 PUSH1 0x40 MLOAD DUP1 PUSH1 0x40 ADD PUSH1 0x40 MSTORE DUP1 DUP7 DUP2 MSTORE PUSH1 0x20 ADD DUP6 DUP2 MSTORE POP SWAP1 DUP1 PUSH1 0x1 DUP2 SLOAD ADD DUP1 DUP3 SSTORE DUP1 SWAP2 POP POP PUSH1 0x1 SWAP1 SUB SWAP1 PUSH0 MSTORE PUSH1 0x20 PUSH0 KECCAK256 SWAP1 PUSH1 0x2 MUL ADD PUSH0 SWAP1 SWAP2 SWAP1 SWAP2 SWAP1 SWAP2 POP PUSH0 DUP3 ADD MLOAD DUP2 PUSH0 ADD SSTORE PUSH1 0x20 DUP3 ADD MLOAD DUP2 PUSH1 0x1 ADD SWAP1 DUP2 PUSH2 0x201D SWAP2 SWAP1 PUSH2 0x38CE JUMP JUMPDEST POP POP POP POP POP POP POP POP JUMP JUMPDEST PUSH1 0x60 PUSH1 0x5 PUSH0 DUP4 DUP2 MSTORE PUSH1 0x20 ADD SWAP1 DUP2 MSTORE PUSH1 0x20 ADD PUSH0 KECCAK256 DUP1 SLOAD DUP1 PUSH1 0x20 MUL PUSH1 0x20 ADD PUSH1 0x40 MLOAD SWAP1 DUP2 ADD PUSH1 0x40 MSTORE DUP1 SWAP3 SWAP2 SWAP1 DUP2 DUP2 MSTORE PUSH1 0x20 ADD PUSH0 SWAP1 JUMPDEST DUP3 DUP3 LT ISZERO PUSH2 0x2122 JUMPI DUP4 DUP3 SWAP1 PUSH0 MSTORE PUSH1 0x20 PUSH0 KECCAK256 SWAP1 PUSH1 0x2 MUL ADD PUSH1 0x40 MLOAD DUP1 PUSH1 0x40 ADD PUSH1 0x40 MSTORE SWAP1 DUP2 PUSH0 DUP3 ADD SLOAD DUP2 MSTORE PUSH1 0x20 ADD PUSH1 0x1 DUP3 ADD DUP1 SLOAD PUSH2 0x2093 SWAP1 PUSH2 0x370A JUMP JUMPDEST DUP1 PUSH1 0x1F ADD PUSH1 0x20 DUP1 SWAP2 DIV MUL PUSH1 0x20 ADD PUSH1 0x40 MLOAD SWAP1 DUP2 ADD PUSH1 0x40 MSTORE DUP1 SWAP3 SWAP2 SWAP1 DUP2 DUP2 MSTORE PUSH1 0x20 ADD DUP3 DUP1 SLOAD PUSH2 0x20BF SWAP1 PUSH2 0x370A JUMP JUMPDEST DUP1 ISZERO PUSH2 0x210A JUMPI DUP1 PUSH1 0x1F LT PUSH2 0x20E1 JUMPI PUSH2 0x100 DUP1 DUP4 SLOAD DIV MUL DUP4 MSTORE SWAP2 PUSH1 0x20 ADD SWAP2 PUSH2 0x210A JUMP JUMPDEST DUP3 ADD SWAP2 SWAP1 PUSH0 MSTORE PUSH1 0x20 PUSH0 KECCAK256 SWAP1 JUMPDEST DUP2 SLOAD DUP2 MSTORE SWAP1 PUSH1 0x1 ADD SWAP1 PUSH1 0x20 ADD DUP1 DUP4 GT PUSH2 0x20ED JUMPI DUP3 SWAP1 SUB PUSH1 0x1F AND DUP3 ADD SWAP2 JUMPDEST POP POP POP POP POP DUP2 MSTORE POP POP DUP2 MSTORE PUSH1 0x20 ADD SWAP1 PUSH1 0x1 ADD SWAP1 PUSH2 0x2059 JUMP JUMPDEST POP POP POP POP SWAP1 POP SWAP2 SWAP1 POP JUMP JUMPDEST PUSH1 0x60 PUSH1 0x3 PUSH0 CALLER PUSH20 0xFFFFFFFFFFFFFFFFFFFFFFFFFFFFFFFFFFFFFFFF AND PUSH20 0xFFFFFFFFFFFFFFFFFFFFFFFFFFFFFFFFFFFFFFFF AND DUP2 MSTORE PUSH1 0x20 ADD SWAP1 DUP2 MSTORE PUSH1 0x20 ADD PUSH0 KECCAK256 DUP1 SLOAD DUP1 PUSH1 0x20 MUL PUSH1 0x20 ADD PUSH1 0x40 MLOAD SWAP1 DUP2 ADD PUSH1 0x40 MSTORE DUP1 SWAP3 SWAP2 SWAP1 DUP2 DUP2 MSTORE PUSH1 0x20 ADD DUP3 DUP1 SLOAD DUP1 ISZERO PUSH2 0x21B4 JUMPI PUSH1 0x20 MUL DUP3 ADD SWAP2 SWAP1 PUSH0 MSTORE PUSH1 0x20 PUSH0 KECCAK256 SWAP1 JUMPDEST DUP2 SLOAD DUP2 MSTORE PUSH1 0x20 ADD SWAP1 PUSH1 0x1 ADD SWAP1 DUP1 DUP4 GT PUSH2 0x21A0 JUMPI JUMPDEST POP POP POP POP POP SWAP1 POP SWAP1 JUMP JUMPDEST PUSH1 0x60 DUP1 PUSH0 DUP1 PUSH0 DUP1 PUSH0 DUP1 PUSH1 0x7 PUSH0 DUP11 DUP2 MSTORE PUSH1 0x20 ADD SWAP1 DUP2 MSTORE PUSH1 0x20 ADD PUSH0 KECCAK256 SWAP1 POP DUP1 PUSH0 ADD DUP2 PUSH1 0x1 ADD DUP3 PUSH1 0x2 ADD PUSH0 SWAP1 SLOAD SWAP1 PUSH2 0x100 EXP SWAP1 DIV PUSH20 0xFFFFFFFFFFFFFFFFFFFFFFFFFFFFFFFFFFFFFFFF AND DUP4 PUSH1 0x3 ADD SLOAD DUP5 PUSH1 0x4 ADD SLOAD DUP6 PUSH1 0x5 ADD SLOAD DUP7 PUSH1 0x6 ADD PUSH0 SWAP1 SLOAD SWAP1 PUSH2 0x100 EXP SWAP1 DIV PUSH1 0xFF AND DUP7 DUP1 SLOAD PUSH2 0x2231 SWAP1 PUSH2 0x370A JUMP JUMPDEST DUP1 PUSH1 0x1F ADD PUSH1 0x20 DUP1 SWAP2 DIV MUL PUSH1 0x20 ADD PUSH1 0x40 MLOAD SWAP1 DUP2 ADD PUSH1 0x40 MSTORE DUP1 SWAP3 SWAP2 SWAP1 DUP2 DUP2 MSTORE PUSH1 0x20 ADD DUP3 DUP1 SLOAD PUSH2 0x225D SWAP1 PUSH2 0x370A JUMP JUMPDEST DUP1 ISZERO PUSH2 0x22A8 JUMPI DUP1 PUSH1 0x1F LT PUSH2 0x227F JUMPI PUSH2 0x100 DUP1 DUP4 SLOAD DIV MUL DUP4 MSTORE SWAP2 PUSH1 0x20 ADD SWAP2 PUSH2 0x22A8 JUMP JUMPDEST DUP3 ADD SWAP2 SWAP1 PUSH0 MSTORE PUSH1 0x20 PUSH0 KECCAK256 SWAP1 JUMPDEST DUP2 SLOAD DUP2 MSTORE SWAP1 PUSH1 0x1 ADD SWAP1 PUSH1 0x20 ADD DUP1 DUP4 GT PUSH2 0x228B JUMPI DUP3 SWAP1 SUB PUSH1 0x1F AND DUP3 ADD SWAP2 JUMPDEST POP POP POP POP POP SWAP7 POP DUP6 DUP1 SLOAD PUSH2 0x22BB SWAP1 PUSH2 0x370A JUMP JUMPDEST DUP1 PUSH1 0x1F ADD PUSH1 0x20 DUP1 SWAP2 DIV MUL PUSH1 0x20 ADD PUSH1 0x40 MLOAD SWAP1 DUP2 ADD PUSH1 0x40 MSTORE DUP1 SWAP3 SWAP2 SWAP1 DUP2 DUP2 MSTORE PUSH1 0x20 ADD DUP3 DUP1 SLOAD PUSH2 0x22E7 SWAP1 PUSH2 0x370A JUMP JUMPDEST DUP1 ISZERO PUSH2 0x2332 JUMPI DUP1 PUSH1 0x1F LT PUSH2 0x2309 JUMPI PUSH2 0x100 DUP1 DUP4 SLOAD DIV MUL DUP4 MSTORE SWAP2 PUSH1 0x20 ADD SWAP2 PUSH2 0x2332 JUMP JUMPDEST DUP3 ADD SWAP2 SWAP1 PUSH0 MSTORE PUSH1 0x20 PUSH0 KECCAK256 SWAP1 JUMPDEST DUP2 SLOAD DUP2 MSTORE SWAP1 PUSH1 0x1 ADD SWAP1 PUSH1 0x20 ADD DUP1 DUP4 GT PUSH2 0x2315 JUMPI DUP3 SWAP1 SUB PUSH1 0x1F AND DUP3 ADD SWAP2 JUMPDEST POP POP POP POP POP SWAP6 POP SWAP8 POP SWAP8 POP SWAP8 POP SWAP8 POP SWAP8 POP SWAP8 POP SWAP8 POP POP SWAP2 SWAP4 SWAP6 SWAP8 SWAP1 SWAP3 SWAP5 SWAP7 POP JUMP JUMPDEST PUSH0 DUP1 DUP5 DUP4 DUP2 MLOAD DUP2 LT PUSH2 0x2368 JUMPI PUSH2 0x2367 PUSH2 0x3043 JUMP JUMPDEST JUMPDEST PUSH1 0x20 MUL PUSH1 0x20 ADD ADD MLOAD SWAP1 POP PUSH0 DUP5 SWAP1 POP PUSH0 DUP6 SWAP1 POP JUMPDEST DUP5 DUP2 LT ISZERO PUSH2 0x2434 JUMPI DUP3 DUP8 DUP3 DUP2 MLOAD DUP2 LT PUSH2 0x2397 JUMPI PUSH2 0x2396 PUSH2 0x3043 JUMP JUMPDEST JUMPDEST PUSH1 0x20 MUL PUSH1 0x20 ADD ADD MLOAD GT PUSH2 0x2427 JUMPI DUP7 DUP2 DUP2 MLOAD DUP2 LT PUSH2 0x23B7 JUMPI PUSH2 0x23B6 PUSH2 0x3043 JUMP JUMPDEST JUMPDEST PUSH1 0x20 MUL PUSH1 0x20 ADD ADD MLOAD DUP8 DUP4 DUP2 MLOAD DUP2 LT PUSH2 0x23D2 JUMPI PUSH2 0x23D1 PUSH2 0x3043 JUMP JUMPDEST JUMPDEST PUSH1 0x20 MUL PUSH1 0x20 ADD ADD MLOAD DUP9 DUP5 DUP2 MLOAD DUP2 LT PUSH2 0x23ED JUMPI PUSH2 0x23EC PUSH2 0x3043 JUMP JUMPDEST JUMPDEST PUSH1 0x20 MUL PUSH1 0x20 ADD ADD DUP10 DUP5 DUP2 MLOAD DUP2 LT PUSH2 0x2407 JUMPI PUSH2 0x2406 PUSH2 0x3043 JUMP JUMPDEST JUMPDEST PUSH1 0x20 MUL PUSH1 0x20 ADD ADD DUP3 DUP2 MSTORE POP DUP3 DUP2 MSTORE POP POP POP DUP2 DUP1 PUSH2 0x2423 SWAP1 PUSH2 0x3C46 JUMP JUMPDEST SWAP3 POP POP JUMPDEST DUP1 DUP1 PUSH1 0x1 ADD SWAP2 POP POP PUSH2 0x237B JUMP JUMPDEST POP DUP6 DUP5 DUP2 MLOAD DUP2 LT PUSH2 0x2448 JUMPI PUSH2 0x2447 PUSH2 0x3043 JUMP JUMPDEST JUMPDEST PUSH1 0x20 MUL PUSH1 0x20 ADD ADD MLOAD DUP7 DUP3 DUP2 MLOAD DUP2 LT PUSH2 0x2463 JUMPI PUSH2 0x2462 PUSH2 0x3043 JUMP JUMPDEST JUMPDEST PUSH1 0x20 MUL PUSH1 0x20 ADD ADD MLOAD DUP8 DUP4 DUP2 MLOAD DUP2 LT PUSH2 0x247E JUMPI PUSH2 0x247D PUSH2 0x3043 JUMP JUMPDEST JUMPDEST PUSH1 0x20 MUL PUSH1 0x20 ADD ADD DUP9 DUP8 DUP2 MLOAD DUP2 LT PUSH2 0x2498 JUMPI PUSH2 0x2497 PUSH2 0x3043 JUMP JUMPDEST JUMPDEST PUSH1 0x20 MUL PUSH1 0x20 ADD ADD DUP3 DUP2 MSTORE POP DUP3 DUP2 MSTORE POP POP POP DUP1 SWAP3 POP POP POP SWAP4 SWAP3 POP POP POP JUMP JUMPDEST PUSH1 0x40 MLOAD DUP1 PUSH2 0x100 ADD PUSH1 0x40 MSTORE DUP1 PUSH1 0x60 DUP2 MSTORE PUSH1 0x20 ADD PUSH1 0x60 DUP2 MSTORE PUSH1 0x20 ADD PUSH0 PUSH20 0xFFFFFFFFFFFFFFFFFFFFFFFFFFFFFFFFFFFFFFFF AND DUP2 MSTORE PUSH1 0x20 ADD PUSH0 DUP2 MSTORE PUSH1 0x20 ADD PUSH0 DUP2 MSTORE PUSH1 0x20 ADD PUSH0 DUP2 MSTORE PUSH1 0x20 ADD PUSH0 PUSH1 0x2 DUP2 GT ISZERO PUSH2 0x2510 JUMPI PUSH2 0x250F PUSH2 0x2AAE JUMP JUMPDEST JUMPDEST DUP2 MSTORE PUSH1 0x20 ADD PUSH0 ISZERO ISZERO DUP2 MSTORE POP SWAP1 JUMP JUMPDEST PUSH0 PUSH1 0x40 MLOAD SWAP1 POP SWAP1 JUMP JUMPDEST PUSH0 DUP1 REVERT JUMPDEST PUSH0 DUP1 REVERT JUMPDEST PUSH0 DUP2 SWAP1 POP SWAP2 SWAP1 POP JUMP JUMPDEST PUSH2 0x2541 DUP2 PUSH2 0x252F JUMP JUMPDEST DUP2 EQ PUSH2 0x254B JUMPI PUSH0 DUP1 REVERT JUMPDEST POP JUMP JUMPDEST PUSH0 DUP2 CALLDATALOAD SWAP1 POP PUSH2 0x255C DUP2 PUSH2 0x2538 JUMP JUMPDEST SWAP3 SWAP2 POP POP JUMP JUMPDEST PUSH0 PUSH1 0x20 DUP3 DUP5 SUB SLT ISZERO PUSH2 0x2577 JUMPI PUSH2 0x2576 PUSH2 0x2527 JUMP JUMPDEST JUMPDEST PUSH0 PUSH2 0x2584 DUP5 DUP3 DUP6 ADD PUSH2 0x254E JUMP JUMPDEST SWAP2 POP POP SWAP3 SWAP2 POP POP JUMP JUMPDEST PUSH0 DUP2 SWAP1 POP SWAP2 SWAP1 POP JUMP JUMPDEST PUSH2 0x259F DUP2 PUSH2 0x258D JUMP JUMPDEST DUP2 EQ PUSH2 0x25A9 JUMPI PUSH0 DUP1 REVERT JUMPDEST POP JUMP JUMPDEST PUSH0 DUP2 CALLDATALOAD SWAP1 POP PUSH2 0x25BA DUP2 PUSH2 0x2596 JUMP JUMPDEST SWAP3 SWAP2 POP POP JUMP JUMPDEST PUSH0 PUSH1 0x20 DUP3 DUP5 SUB SLT ISZERO PUSH2 0x25D5 JUMPI PUSH2 0x25D4 PUSH2 0x2527 JUMP JUMPDEST JUMPDEST PUSH0 PUSH2 0x25E2 DUP5 DUP3 DUP6 ADD PUSH2 0x25AC JUMP JUMPDEST SWAP2 POP POP SWAP3 SWAP2 POP POP JUMP JUMPDEST PUSH0 PUSH20 0xFFFFFFFFFFFFFFFFFFFFFFFFFFFFFFFFFFFFFFFF DUP3 AND SWAP1 POP SWAP2 SWAP1 POP JUMP JUMPDEST PUSH0 PUSH2 0x2614 DUP3 PUSH2 0x25EB JUMP JUMPDEST SWAP1 POP SWAP2 SWAP1 POP JUMP JUMPDEST PUSH2 0x2624 DUP2 PUSH2 0x260A JUMP JUMPDEST DUP3 MSTORE POP POP JUMP JUMPDEST PUSH0 PUSH1 0x20 DUP3 ADD SWAP1 POP PUSH2 0x263D PUSH0 DUP4 ADD DUP5 PUSH2 0x261B JUMP JUMPDEST SWAP3 SWAP2 POP POP JUMP JUMPDEST PUSH2 0x264C DUP2 PUSH2 0x260A JUMP JUMPDEST DUP2 EQ PUSH2 0x2656 JUMPI PUSH0 DUP1 REVERT JUMPDEST POP JUMP JUMPDEST PUSH0 DUP2 CALLDATALOAD SWAP1 POP PUSH2 0x2667 DUP2 PUSH2 0x2643 JUMP JUMPDEST SWAP3 SWAP2 POP POP JUMP JUMPDEST PUSH0 DUP1 PUSH1 0x40 DUP4 DUP6 SUB SLT ISZERO PUSH2 0x2683 JUMPI PUSH2 0x2682 PUSH2 0x2527 JUMP JUMPDEST JUMPDEST PUSH0 PUSH2 0x2690 DUP6 DUP3 DUP7 ADD PUSH2 0x25AC JUMP JUMPDEST SWAP3 POP POP PUSH1 0x20 PUSH2 0x26A1 DUP6 DUP3 DUP7 ADD PUSH2 0x2659 JUMP JUMPDEST SWAP2 POP POP SWAP3 POP SWAP3 SWAP1 POP JUMP JUMPDEST PUSH2 0x26B4 DUP2 PUSH2 0x252F JUMP JUMPDEST DUP3 MSTORE POP POP JUMP JUMPDEST PUSH0 DUP2 ISZERO ISZERO SWAP1 POP SWAP2 SWAP1 POP JUMP JUMPDEST PUSH2 0x26CE DUP2 PUSH2 0x26BA JUMP JUMPDEST DUP3 MSTORE POP POP JUMP JUMPDEST PUSH0 PUSH1 0x40 DUP3 ADD SWAP1 POP PUSH2 0x26E7 PUSH0 DUP4 ADD DUP6 PUSH2 0x26AB JUMP JUMPDEST PUSH2 0x26F4 PUSH1 0x20 DUP4 ADD DUP5 PUSH2 0x26C5 JUMP JUMPDEST SWAP4 SWAP3 POP POP POP JUMP JUMPDEST PUSH0 PUSH1 0x20 DUP3 ADD SWAP1 POP PUSH2 0x270E PUSH0 DUP4 ADD DUP5 PUSH2 0x26C5 JUMP JUMPDEST SWAP3 SWAP2 POP POP JUMP JUMPDEST PUSH0 PUSH1 0x20 DUP3 ADD SWAP1 POP PUSH2 0x2727 PUSH0 DUP4 ADD DUP5 PUSH2 0x26AB JUMP JUMPDEST SWAP3 SWAP2 POP POP JUMP JUMPDEST PUSH0 DUP1 REVERT JUMPDEST PUSH0 DUP1 REVERT JUMPDEST PUSH0 PUSH1 0x1F NOT PUSH1 0x1F DUP4 ADD AND SWAP1 POP SWAP2 SWAP1 POP JUMP JUMPDEST PUSH32 0x4E487B7100000000000000000000000000000000000000000000000000000000 PUSH0 MSTORE PUSH1 0x41 PUSH1 0x4 MSTORE PUSH1 0x24 PUSH0 REVERT JUMPDEST PUSH2 0x277B DUP3 PUSH2 0x2735 JUMP JUMPDEST DUP2 ADD DUP2 DUP2 LT PUSH8 0xFFFFFFFFFFFFFFFF DUP3 GT OR ISZERO PUSH2 0x279A JUMPI PUSH2 0x2799 PUSH2 0x2745 JUMP JUMPDEST JUMPDEST DUP1 PUSH1 0x40 MSTORE POP POP POP JUMP JUMPDEST PUSH0 PUSH2 0x27AC PUSH2 0x251E JUMP JUMPDEST SWAP1 POP PUSH2 0x27B8 DUP3 DUP3 PUSH2 0x2772 JUMP JUMPDEST SWAP2 SWAP1 POP JUMP JUMPDEST PUSH0 PUSH8 0xFFFFFFFFFFFFFFFF DUP3 GT ISZERO PUSH2 0x27D7 JUMPI PUSH2 0x27D6 PUSH2 0x2745 JUMP JUMPDEST JUMPDEST PUSH2 0x27E0 DUP3 PUSH2 0x2735 JUMP JUMPDEST SWAP1 POP PUSH1 0x20 DUP2 ADD SWAP1 POP SWAP2 SWAP1 POP JUMP JUMPDEST DUP3 DUP2 DUP4 CALLDATACOPY PUSH0 DUP4 DUP4 ADD MSTORE POP POP POP JUMP JUMPDEST PUSH0 PUSH2 0x280D PUSH2 0x2808 DUP5 PUSH2 0x27BD JUMP JUMPDEST PUSH2 0x27A3 JUMP JUMPDEST SWAP1 POP DUP3 DUP2 MSTORE PUSH1 0x20 DUP2 ADD DUP5 DUP5 DUP5 ADD GT ISZERO PUSH2 0x2829 JUMPI PUSH2 0x2828 PUSH2 0x2731 JUMP JUMPDEST JUMPDEST PUSH2 0x2834 DUP5 DUP3 DUP6 PUSH2 0x27ED JUMP JUMPDEST POP SWAP4 SWAP3 POP POP POP JUMP JUMPDEST PUSH0 DUP3 PUSH1 0x1F DUP4 ADD SLT PUSH2 0x2850 JUMPI PUSH2 0x284F PUSH2 0x272D JUMP JUMPDEST JUMPDEST DUP2 CALLDATALOAD PUSH2 0x2860 DUP5 DUP3 PUSH1 0x20 DUP7 ADD PUSH2 0x27FB JUMP JUMPDEST SWAP2 POP POP SWAP3 SWAP2 POP POP JUMP JUMPDEST PUSH0 DUP1 PUSH1 0x40 DUP4 DUP6 SUB SLT ISZERO PUSH2 0x287F JUMPI PUSH2 0x287E PUSH2 0x2527 JUMP JUMPDEST JUMPDEST PUSH0 PUSH2 0x288C DUP6 DUP3 DUP7 ADD PUSH2 0x25AC JUMP JUMPDEST SWAP3 POP POP PUSH1 0x20 DUP4 ADD CALLDATALOAD PUSH8 0xFFFFFFFFFFFFFFFF DUP2 GT ISZERO PUSH2 0x28AD JUMPI PUSH2 0x28AC PUSH2 0x252B JUMP JUMPDEST JUMPDEST PUSH2 0x28B9 DUP6 DUP3 DUP7 ADD PUSH2 0x283C JUMP JUMPDEST SWAP2 POP POP SWAP3 POP SWAP3 SWAP1 POP JUMP JUMPDEST PUSH0 PUSH8 0xFFFFFFFFFFFFFFFF DUP3 GT ISZERO PUSH2 0x28DD JUMPI PUSH2 0x28DC PUSH2 0x2745 JUMP JUMPDEST JUMPDEST PUSH1 0x20 DUP3 MUL SWAP1 POP PUSH1 0x20 DUP2 ADD SWAP1 POP SWAP2 SWAP1 POP JUMP JUMPDEST PUSH0 DUP1 REVERT JUMPDEST PUSH0 PUSH2 0x2904 PUSH2 0x28FF DUP5 PUSH2 0x28C3 JUMP JUMPDEST PUSH2 0x27A3 JUMP JUMPDEST SWAP1 POP DUP1 DUP4 DUP3 MSTORE PUSH1 0x20 DUP3 ADD SWAP1 POP PUSH1 0x20 DUP5 MUL DUP4 ADD DUP6 DUP2 GT ISZERO PUSH2 0x2927 JUMPI PUSH2 0x2926 PUSH2 0x28EE JUMP JUMPDEST JUMPDEST DUP4 JUMPDEST DUP2 DUP2 LT ISZERO PUSH2 0x2950 JUMPI DUP1 PUSH2 0x293C DUP9 DUP3 PUSH2 0x25AC JUMP JUMPDEST DUP5 MSTORE PUSH1 0x20 DUP5 ADD SWAP4 POP POP PUSH1 0x20 DUP2 ADD SWAP1 POP PUSH2 0x2929 JUMP JUMPDEST POP POP POP SWAP4 SWAP3 POP POP POP JUMP JUMPDEST PUSH0 DUP3 PUSH1 0x1F DUP4 ADD SLT PUSH2 0x296E JUMPI PUSH2 0x296D PUSH2 0x272D JUMP JUMPDEST JUMPDEST DUP2 CALLDATALOAD PUSH2 0x297E DUP5 DUP3 PUSH1 0x20 DUP7 ADD PUSH2 0x28F2 JUMP JUMPDEST SWAP2 POP POP SWAP3 SWAP2 POP POP JUMP JUMPDEST PUSH0 DUP1 PUSH1 0x40 DUP4 DUP6 SUB SLT ISZERO PUSH2 0x299D JUMPI PUSH2 0x299C PUSH2 0x2527 JUMP JUMPDEST JUMPDEST PUSH0 DUP4 ADD CALLDATALOAD PUSH8 0xFFFFFFFFFFFFFFFF DUP2 GT ISZERO PUSH2 0x29BA JUMPI PUSH2 0x29B9 PUSH2 0x252B JUMP JUMPDEST JUMPDEST PUSH2 0x29C6 DUP6 DUP3 DUP7 ADD PUSH2 0x295A JUMP JUMPDEST SWAP3 POP POP PUSH1 0x20 PUSH2 0x29D7 DUP6 DUP3 DUP7 ADD PUSH2 0x25AC JUMP JUMPDEST SWAP2 POP POP SWAP3 POP SWAP3 SWAP1 POP JUMP JUMPDEST PUSH0 DUP2 SWAP1 POP SWAP2 SWAP1 POP JUMP JUMPDEST PUSH2 0x29F3 DUP2 PUSH2 0x29E1 JUMP JUMPDEST DUP3 MSTORE POP POP JUMP JUMPDEST PUSH0 PUSH1 0x20 DUP3 ADD SWAP1 POP PUSH2 0x2A0C PUSH0 DUP4 ADD DUP5 PUSH2 0x29EA JUMP JUMPDEST SWAP3 SWAP2 POP POP JUMP JUMPDEST PUSH0 DUP1 PUSH0 DUP1 PUSH1 0x80 DUP6 DUP8 SUB SLT ISZERO PUSH2 0x2A2A JUMPI PUSH2 0x2A29 PUSH2 0x2527 JUMP JUMPDEST JUMPDEST PUSH0 DUP6 ADD CALLDATALOAD PUSH8 0xFFFFFFFFFFFFFFFF DUP2 GT ISZERO PUSH2 0x2A47 JUMPI PUSH2 0x2A46 PUSH2 0x252B JUMP JUMPDEST JUMPDEST PUSH2 0x2A53 DUP8 DUP3 DUP9 ADD PUSH2 0x283C JUMP JUMPDEST SWAP5 POP POP PUSH1 0x20 DUP6 ADD CALLDATALOAD PUSH8 0xFFFFFFFFFFFFFFFF DUP2 GT ISZERO PUSH2 0x2A74 JUMPI PUSH2 0x2A73 PUSH2 0x252B JUMP JUMPDEST JUMPDEST PUSH2 0x2A80 DUP8 DUP3 DUP9 ADD PUSH2 0x283C JUMP JUMPDEST SWAP4 POP POP PUSH1 0x40 PUSH2 0x2A91 DUP8 DUP3 DUP9 ADD PUSH2 0x254E JUMP JUMPDEST SWAP3 POP POP PUSH1 0x60 PUSH2 0x2AA2 DUP8 DUP3 DUP9 ADD PUSH2 0x254E JUMP JUMPDEST SWAP2 POP POP SWAP3 SWAP6 SWAP2 SWAP5 POP SWAP3 POP JUMP JUMPDEST PUSH32 0x4E487B7100000000000000000000000000000000000000000000000000000000 PUSH0 MSTORE PUSH1 0x21 PUSH1 0x4 MSTORE PUSH1 0x24 PUSH0 REVERT JUMPDEST PUSH1 0x3 DUP2 LT PUSH2 0x2AEC JUMPI PUSH2 0x2AEB PUSH2 0x2AAE JUMP JUMPDEST JUMPDEST POP JUMP JUMPDEST PUSH0 DUP2 SWAP1 POP PUSH2 0x2AFC DUP3 PUSH2 0x2ADB JUMP JUMPDEST SWAP2 SWAP1 POP JUMP JUMPDEST PUSH0 PUSH2 0x2B0B DUP3 PUSH2 0x2AEF JUMP JUMPDEST SWAP1 POP SWAP2 SWAP1 POP JUMP JUMPDEST PUSH2 0x2B1B DUP2 PUSH2 0x2B01 JUMP JUMPDEST DUP3 MSTORE POP POP JUMP JUMPDEST PUSH0 PUSH1 0x20 DUP3 ADD SWAP1 POP PUSH2 0x2B34 PUSH0 DUP4 ADD DUP5 PUSH2 0x2B12 JUMP JUMPDEST SWAP3 SWAP2 POP POP JUMP JUMPDEST PUSH0 PUSH1 0x20 DUP3 DUP5 SUB SLT ISZERO PUSH2 0x2B4F JUMPI PUSH2 0x2B4E PUSH2 0x2527 JUMP JUMPDEST JUMPDEST PUSH0 DUP3 ADD CALLDATALOAD PUSH8 0xFFFFFFFFFFFFFFFF DUP2 GT ISZERO PUSH2 0x2B6C JUMPI PUSH2 0x2B6B PUSH2 0x252B JUMP JUMPDEST JUMPDEST PUSH2 0x2B78 DUP5 DUP3 DUP6 ADD PUSH2 0x295A JUMP JUMPDEST SWAP2 POP POP SWAP3 SWAP2 POP POP JUMP JUMPDEST PUSH0 DUP2 MLOAD SWAP1 POP SWAP2 SWAP1 POP JUMP JUMPDEST PUSH0 DUP3 DUP3 MSTORE PUSH1 0x20 DUP3 ADD SWAP1 POP SWAP3 SWAP2 POP POP JUMP JUMPDEST PUSH0 DUP2 SWAP1 POP PUSH1 0x20 DUP3 ADD SWAP1 POP SWAP2 SWAP1 POP JUMP JUMPDEST PUSH2 0x2BB3 DUP2 PUSH2 0x258D JUMP JUMPDEST DUP3 MSTORE POP POP JUMP JUMPDEST PUSH0 PUSH2 0x2BC4 DUP4 DUP4 PUSH2 0x2BAA JUMP JUMPDEST PUSH1 0x20 DUP4 ADD SWAP1 POP SWAP3 SWAP2 POP POP JUMP JUMPDEST PUSH0 PUSH1 0x20 DUP3 ADD SWAP1 POP SWAP2 SWAP1 POP JUMP JUMPDEST PUSH0 PUSH2 0x2BE6 DUP3 PUSH2 0x2B81 JUMP JUMPDEST PUSH2 0x2BF0 DUP2 DUP6 PUSH2 0x2B8B JUMP JUMPDEST SWAP4 POP PUSH2 0x2BFB DUP4 PUSH2 0x2B9B JUMP JUMPDEST DUP1 PUSH0 JUMPDEST DUP4 DUP2 LT ISZERO PUSH2 0x2C2B JUMPI DUP2 MLOAD PUSH2 0x2C12 DUP9 DUP3 PUSH2 0x2BB9 JUMP JUMPDEST SWAP8 POP PUSH2 0x2C1D DUP4 PUSH2 0x2BD0 JUMP JUMPDEST SWAP3 POP POP PUSH1 0x1 DUP2 ADD SWAP1 POP PUSH2 0x2BFE JUMP JUMPDEST POP DUP6 SWAP4 POP POP POP POP SWAP3 SWAP2 POP POP JUMP JUMPDEST PUSH0 PUSH1 0x20 DUP3 ADD SWAP1 POP DUP2 DUP2 SUB PUSH0 DUP4 ADD MSTORE PUSH2 0x2C50 DUP2 DUP5 PUSH2 0x2BDC JUMP JUMPDEST SWAP1 POP SWAP3 SWAP2 POP POP JUMP JUMPDEST PUSH0 DUP1 PUSH0 PUSH1 0x60 DUP5 DUP7 SUB SLT ISZERO PUSH2 0x2C6F JUMPI PUSH2 0x2C6E PUSH2 0x2527 JUMP JUMPDEST JUMPDEST PUSH0 PUSH2 0x2C7C DUP7 DUP3 DUP8 ADD PUSH2 0x25AC JUMP JUMPDEST SWAP4 POP POP PUSH1 0x20 PUSH2 0x2C8D DUP7 DUP3 DUP8 ADD PUSH2 0x254E JUMP JUMPDEST SWAP3 POP POP PUSH1 0x40 DUP5 ADD CALLDATALOAD PUSH8 0xFFFFFFFFFFFFFFFF DUP2 GT ISZERO PUSH2 0x2CAE JUMPI PUSH2 0x2CAD PUSH2 0x252B JUMP JUMPDEST JUMPDEST PUSH2 0x2CBA DUP7 DUP3 DUP8 ADD PUSH2 0x283C JUMP JUMPDEST SWAP2 POP POP SWAP3 POP SWAP3 POP SWAP3 JUMP JUMPDEST PUSH0 DUP2 MLOAD SWAP1 POP SWAP2 SWAP1 POP JUMP JUMPDEST PUSH0 DUP3 DUP3 MSTORE PUSH1 0x20 DUP3 ADD SWAP1 POP SWAP3 SWAP2 POP POP JUMP JUMPDEST PUSH0 DUP2 SWAP1 POP PUSH1 0x20 DUP3 ADD SWAP1 POP SWAP2 SWAP1 POP JUMP JUMPDEST PUSH2 0x2CF6 DUP2 PUSH2 0x252F JUMP JUMPDEST DUP3 MSTORE POP POP JUMP JUMPDEST PUSH0 DUP2 MLOAD SWAP1 POP SWAP2 SWAP1 POP JUMP JUMPDEST PUSH0 DUP3 DUP3 MSTORE PUSH1 0x20 DUP3 ADD SWAP1 POP SWAP3 SWAP2 POP POP JUMP JUMPDEST DUP3 DUP2 DUP4 MCOPY PUSH0 DUP4 DUP4 ADD MSTORE POP POP POP JUMP JUMPDEST PUSH0 PUSH2 0x2D2E DUP3 PUSH2 0x2CFC JUMP JUMPDEST PUSH2 0x2D38 DUP2 DUP6 PUSH2 0x2D06 JUMP JUMPDEST SWAP4 POP PUSH2 0x2D48 DUP2 DUP6 PUSH1 0x20 DUP7 ADD PUSH2 0x2D16 JUMP JUMPDEST PUSH2 0x2D51 DUP2 PUSH2 0x2735 JUMP JUMPDEST DUP5 ADD SWAP2 POP POP SWAP3 SWAP2 POP POP JUMP JUMPDEST PUSH0 PUSH1 0x40 DUP4 ADD PUSH0 DUP4 ADD MLOAD PUSH2 0x2D71 PUSH0 DUP7 ADD DUP3 PUSH2 0x2CED JUMP JUMPDEST POP PUSH1 0x20 DUP4 ADD MLOAD DUP5 DUP3 SUB PUSH1 0x20 DUP7 ADD MSTORE PUSH2 0x2D89 DUP3 DUP3 PUSH2 0x2D24 JUMP JUMPDEST SWAP2 POP POP DUP1 SWAP2 POP POP SWAP3 SWAP2 POP POP JUMP JUMPDEST PUSH0 PUSH2 0x2DA1 DUP4 DUP4 PUSH2 0x2D5C JUMP JUMPDEST SWAP1 POP SWAP3 SWAP2 POP POP JUMP JUMPDEST PUSH0 PUSH1 0x20 DUP3 ADD SWAP1 POP SWAP2 SWAP1 POP JUMP JUMPDEST PUSH0 PUSH2 0x2DBF DUP3 PUSH2 0x2CC4 JUMP JUMPDEST PUSH2 0x2DC9 DUP2 DUP6 PUSH2 0x2CCE JUMP JUMPDEST SWAP4 POP DUP4 PUSH1 0x20 DUP3 MUL DUP6 ADD PUSH2 0x2DDB DUP6 PUSH2 0x2CDE JUMP JUMPDEST DUP1 PUSH0 JUMPDEST DUP6 DUP2 LT ISZERO PUSH2 0x2E16 JUMPI DUP5 DUP5 SUB DUP10 MSTORE DUP2 MLOAD PUSH2 0x2DF7 DUP6 DUP3 PUSH2 0x2D96 JUMP JUMPDEST SWAP5 POP PUSH2 0x2E02 DUP4 PUSH2 0x2DA9 JUMP JUMPDEST SWAP3 POP PUSH1 0x20 DUP11 ADD SWAP10 POP POP PUSH1 0x1 DUP2 ADD SWAP1 POP PUSH2 0x2DDE JUMP JUMPDEST POP DUP3 SWAP8 POP DUP8 SWAP6 POP POP POP POP POP POP SWAP3 SWAP2 POP POP JUMP JUMPDEST PUSH0 PUSH1 0x20 DUP3 ADD SWAP1 POP DUP2 DUP2 SUB PUSH0 DUP4 ADD MSTORE PUSH2 0x2E40 DUP2 DUP5 PUSH2 0x2DB5 JUMP JUMPDEST SWAP1 POP SWAP3 SWAP2 POP POP JUMP JUMPDEST PUSH0 DUP3 DUP3 MSTORE PUSH1 0x20 DUP3 ADD SWAP1 POP SWAP3 SWAP2 POP POP JUMP JUMPDEST PUSH0 PUSH2 0x2E62 DUP3 PUSH2 0x2CFC JUMP JUMPDEST PUSH2 0x2E6C DUP2 DUP6 PUSH2 0x2E48 JUMP JUMPDEST SWAP4 POP PUSH2 0x2E7C DUP2 DUP6 PUSH1 0x20 DUP7 ADD PUSH2 0x2D16 JUMP JUMPDEST PUSH2 0x2E85 DUP2 PUSH2 0x2735 JUMP JUMPDEST DUP5 ADD SWAP2 POP POP SWAP3 SWAP2 POP POP JUMP JUMPDEST PUSH0 PUSH1 0xE0 DUP3 ADD SWAP1 POP DUP2 DUP2 SUB PUSH0 DUP4 ADD MSTORE PUSH2 0x2EA8 DUP2 DUP11 PUSH2 0x2E58 JUMP JUMPDEST SWAP1 POP DUP2 DUP2 SUB PUSH1 0x20 DUP4 ADD MSTORE PUSH2 0x2EBC DUP2 DUP10 PUSH2 0x2E58 JUMP JUMPDEST SWAP1 POP PUSH2 0x2ECB PUSH1 0x40 DUP4 ADD DUP9 PUSH2 0x261B JUMP JUMPDEST PUSH2 0x2ED8 PUSH1 0x60 DUP4 ADD DUP8 PUSH2 0x26AB JUMP JUMPDEST PUSH2 0x2EE5 PUSH1 0x80 DUP4 ADD DUP7 PUSH2 0x26AB JUMP JUMPDEST PUSH2 0x2EF2 PUSH1 0xA0 DUP4 ADD DUP6 PUSH2 0x26AB JUMP JUMPDEST PUSH2 0x2EFF PUSH1 0xC0 DUP4 ADD DUP5 PUSH2 0x2B12 JUMP JUMPDEST SWAP9 SWAP8 POP POP POP POP POP POP POP POP JUMP JUMPDEST PUSH32 0x43616C6C6572206973206E6F7420746865206F776E6572000000000000000000 PUSH0 DUP3 ADD MSTORE POP JUMP JUMPDEST PUSH0 PUSH2 0x2F3F PUSH1 0x17 DUP4 PUSH2 0x2E48 JUMP JUMPDEST SWAP2 POP PUSH2 0x2F4A DUP3 PUSH2 0x2F0B JUMP JUMPDEST PUSH1 0x20 DUP3 ADD SWAP1 POP SWAP2 SWAP1 POP JUMP JUMPDEST PUSH0 PUSH1 0x20 DUP3 ADD SWAP1 POP DUP2 DUP2 SUB PUSH0 DUP4 ADD MSTORE PUSH2 0x2F6C DUP2 PUSH2 0x2F33 JUMP JUMPDEST SWAP1 POP SWAP2 SWAP1 POP JUMP JUMPDEST PUSH32 0x50726F6A65637420646F6573206E6F7420657869737400000000000000000000 PUSH0 DUP3 ADD MSTORE POP JUMP JUMPDEST PUSH0 PUSH2 0x2FA7 PUSH1 0x16 DUP4 PUSH2 0x2E48 JUMP JUMPDEST SWAP2 POP PUSH2 0x2FB2 DUP3 PUSH2 0x2F73 JUMP JUMPDEST PUSH1 0x20 DUP3 ADD SWAP1 POP SWAP2 SWAP1 POP JUMP JUMPDEST PUSH0 PUSH1 0x20 DUP3 ADD SWAP1 POP DUP2 DUP2 SUB PUSH0 DUP4 ADD MSTORE PUSH2 0x2FD4 DUP2 PUSH2 0x2F9B JUMP JUMPDEST SWAP1 POP SWAP2 SWAP1 POP JUMP JUMPDEST PUSH32 0x50726F6A6563742069736E2774206661696C6564000000000000000000000000 PUSH0 DUP3 ADD MSTORE POP JUMP JUMPDEST PUSH0 PUSH2 0x300F PUSH1 0x14 DUP4 PUSH2 0x2E48 JUMP JUMPDEST SWAP2 POP PUSH2 0x301A DUP3 PUSH2 0x2FDB JUMP JUMPDEST PUSH1 0x20 DUP3 ADD SWAP1 POP SWAP2 SWAP1 POP JUMP JUMPDEST PUSH0 PUSH1 0x20 DUP3 ADD SWAP1 POP DUP2 DUP2 SUB PUSH0 DUP4 ADD MSTORE PUSH2 0x303C DUP2 PUSH2 0x3003 JUMP JUMPDEST SWAP1 POP SWAP2 SWAP1 POP JUMP JUMPDEST PUSH32 0x4E487B7100000000000000000000000000000000000000000000000000000000 PUSH0 MSTORE PUSH1 0x32 PUSH1 0x4 MSTORE PUSH1 0x24 PUSH0 REVERT JUMPDEST PUSH32 0x4E487B7100000000000000000000000000000000000000000000000000000000 PUSH0 MSTORE PUSH1 0x11 PUSH1 0x4 MSTORE PUSH1 0x24 PUSH0 REVERT JUMPDEST PUSH0 PUSH2 0x30A7 DUP3 PUSH2 0x252F JUMP JUMPDEST SWAP2 POP PUSH2 0x30B2 DUP4 PUSH2 0x252F JUMP JUMPDEST SWAP3 POP DUP3 DUP3 ADD SWAP1 POP DUP1 DUP3 GT ISZERO PUSH2 0x30CA JUMPI PUSH2 0x30C9 PUSH2 0x3070 JUMP JUMPDEST JUMPDEST SWAP3 SWAP2 POP POP JUMP JUMPDEST PUSH2 0x30D9 DUP2 PUSH2 0x258D JUMP JUMPDEST DUP3 MSTORE POP POP JUMP JUMPDEST PUSH0 PUSH1 0x60 DUP3 ADD SWAP1 POP PUSH2 0x30F2 PUSH0 DUP4 ADD DUP7 PUSH2 0x30D0 JUMP JUMPDEST PUSH2 0x30FF PUSH1 0x20 DUP4 ADD DUP6 PUSH2 0x261B JUMP JUMPDEST PUSH2 0x310C PUSH1 0x40 DUP4 ADD DUP5 PUSH2 0x26AB JUMP JUMPDEST SWAP5 SWAP4 POP POP POP POP JUMP JUMPDEST PUSH0 PUSH2 0x311E DUP3 PUSH2 0x252F JUMP JUMPDEST SWAP2 POP PUSH2 0x3129 DUP4 PUSH2 0x252F JUMP JUMPDEST SWAP3 POP DUP3 DUP3 SUB SWAP1 POP DUP2 DUP2 GT ISZERO PUSH2 0x3141 JUMPI PUSH2 0x3140 PUSH2 0x3070 JUMP JUMPDEST JUMPDEST SWAP3 SWAP2 POP POP JUMP JUMPDEST PUSH32 0x4E487B7100000000000000000000000000000000000000000000000000000000 PUSH0 MSTORE PUSH1 0x12 PUSH1 0x4 MSTORE PUSH1 0x24 PUSH0 REVERT JUMPDEST PUSH0 PUSH2 0x317E DUP3 PUSH2 0x252F JUMP JUMPDEST SWAP2 POP PUSH2 0x3189 DUP4 PUSH2 0x252F JUMP JUMPDEST SWAP3 POP DUP3 PUSH2 0x3199 JUMPI PUSH2 0x3198 PUSH2 0x3147 JUMP JUMPDEST JUMPDEST DUP3 DUP3 DIV SWAP1 POP SWAP3 SWAP2 POP POP JUMP JUMPDEST PUSH32 0x50726F6A656374206973206E6F74206163746976650000000000000000000000 PUSH0 DUP3 ADD MSTORE POP JUMP JUMPDEST PUSH0 PUSH2 0x31D8 PUSH1 0x15 DUP4 PUSH2 0x2E48 JUMP JUMPDEST SWAP2 POP PUSH2 0x31E3 DUP3 PUSH2 0x31A4 JUMP JUMPDEST PUSH1 0x20 DUP3 ADD SWAP1 POP SWAP2 SWAP1 POP JUMP JUMPDEST PUSH0 PUSH1 0x20 DUP3 ADD SWAP1 POP DUP2 DUP2 SUB PUSH0 DUP4 ADD MSTORE PUSH2 0x3205 DUP2 PUSH2 0x31CC JUMP JUMPDEST SWAP1 POP SWAP2 SWAP1 POP JUMP JUMPDEST PUSH0 PUSH1 0x40 DUP3 ADD SWAP1 POP PUSH2 0x321F PUSH0 DUP4 ADD DUP6 PUSH2 0x30D0 JUMP JUMPDEST PUSH2 0x322C PUSH1 0x20 DUP4 ADD DUP5 PUSH2 0x2B12 JUMP JUMPDEST SWAP4 SWAP3 POP POP POP JUMP JUMPDEST PUSH32 0x46756E64696E6720706572696F64206973206E6F74206F766572207965740000 PUSH0 DUP3 ADD MSTORE POP JUMP JUMPDEST PUSH0 PUSH2 0x3267 PUSH1 0x1E DUP4 PUSH2 0x2E48 JUMP JUMPDEST SWAP2 POP PUSH2 0x3272 DUP3 PUSH2 0x3233 JUMP JUMPDEST PUSH1 0x20 DUP3 ADD SWAP1 POP SWAP2 SWAP1 POP JUMP JUMPDEST PUSH0 PUSH1 0x20 DUP3 ADD SWAP1 POP DUP2 DUP2 SUB PUSH0 DUP4 ADD MSTORE PUSH2 0x3294 DUP2 PUSH2 0x325B JUMP JUMPDEST SWAP1 POP SWAP2 SWAP1 POP JUMP JUMPDEST PUSH32 0x4E6F7468696E6720746F20776974686472617700000000000000000000000000 PUSH0 DUP3 ADD MSTORE POP JUMP JUMPDEST PUSH0 PUSH2 0x32CF PUSH1 0x13 DUP4 PUSH2 0x2E48 JUMP JUMPDEST SWAP2 POP PUSH2 0x32DA DUP3 PUSH2 0x329B JUMP JUMPDEST PUSH1 0x20 DUP3 ADD SWAP1 POP SWAP2 SWAP1 POP JUMP JUMPDEST PUSH0 PUSH1 0x20 DUP3 ADD SWAP1 POP DUP2 DUP2 SUB PUSH0 DUP4 ADD MSTORE PUSH2 0x32FC DUP2 PUSH2 0x32C3 JUMP JUMPDEST SWAP1 POP SWAP2 SWAP1 POP JUMP JUMPDEST PUSH32 0x436F6E7472616374206973206E6F742070617573656400000000000000000000 PUSH0 DUP3 ADD MSTORE POP JUMP JUMPDEST PUSH0 PUSH2 0x3337 PUSH1 0x16 DUP4 PUSH2 0x2E48 JUMP JUMPDEST SWAP2 POP PUSH2 0x3342 DUP3 PUSH2 0x3303 JUMP JUMPDEST PUSH1 0x20 DUP3 ADD SWAP1 POP SWAP2 SWAP1 POP JUMP JUMPDEST PUSH0 PUSH1 0x20 DUP3 ADD SWAP1 POP DUP2 DUP2 SUB PUSH0 DUP4 ADD MSTORE PUSH2 0x3364 DUP2 PUSH2 0x332B JUMP JUMPDEST SWAP1 POP SWAP2 SWAP1 POP JUMP JUMPDEST PUSH32 0x50726F6A6563742069736E277420616374697665000000000000000000000000 PUSH0 DUP3 ADD MSTORE POP JUMP JUMPDEST PUSH0 PUSH2 0x339F PUSH1 0x14 DUP4 PUSH2 0x2E48 JUMP JUMPDEST SWAP2 POP PUSH2 0x33AA DUP3 PUSH2 0x336B JUMP JUMPDEST PUSH1 0x20 DUP3 ADD SWAP1 POP SWAP2 SWAP1 POP JUMP JUMPDEST PUSH0 PUSH1 0x20 DUP3 ADD SWAP1 POP DUP2 DUP2 SUB PUSH0 DUP4 ADD MSTORE PUSH2 0x33CC DUP2 PUSH2 0x3393 JUMP JUMPDEST SWAP1 POP SWAP2 SWAP1 POP JUMP JUMPDEST PUSH32 0x436F6E747269627574696F6E206D757374206265206772656174657220746861 PUSH0 DUP3 ADD MSTORE PUSH32 0x6E207A65726F0000000000000000000000000000000000000000000000000000 PUSH1 0x20 DUP3 ADD MSTORE POP JUMP JUMPDEST PUSH0 PUSH2 0x342D PUSH1 0x26 DUP4 PUSH2 0x2E48 JUMP JUMPDEST SWAP2 POP PUSH2 0x3438 DUP3 PUSH2 0x33D3 JUMP JUMPDEST PUSH1 0x40 DUP3 ADD SWAP1 POP SWAP2 SWAP1 POP JUMP JUMPDEST PUSH0 PUSH1 0x20 DUP3 ADD SWAP1 POP DUP2 DUP2 SUB PUSH0 DUP4 ADD MSTORE PUSH2 0x345A DUP2 PUSH2 0x3421 JUMP JUMPDEST SWAP1 POP SWAP2 SWAP1 POP JUMP JUMPDEST PUSH32 0x4F6E6C792070726F6A6563742063726561746F722063616E2073656E64206675 PUSH0 DUP3 ADD MSTORE PUSH32 0x6E64730000000000000000000000000000000000000000000000000000000000 PUSH1 0x20 DUP3 ADD MSTORE POP JUMP JUMPDEST PUSH0 PUSH2 0x34BB PUSH1 0x23 DUP4 PUSH2 0x2E48 JUMP JUMPDEST SWAP2 POP PUSH2 0x34C6 DUP3 PUSH2 0x3461 JUMP JUMPDEST PUSH1 0x40 DUP3 ADD SWAP1 POP SWAP2 SWAP1 POP JUMP JUMPDEST PUSH0 PUSH1 0x20 DUP3 ADD SWAP1 POP DUP2 DUP2 SUB PUSH0 DUP4 ADD MSTORE PUSH2 0x34E8 DUP2 PUSH2 0x34AF JUMP JUMPDEST SWAP1 POP SWAP2 SWAP1 POP JUMP JUMPDEST PUSH32 0x50726F6A656374206973206E6F742066756E6465640000000000000000000000 PUSH0 DUP3 ADD MSTORE POP JUMP JUMPDEST PUSH0 PUSH2 0x3523 PUSH1 0x15 DUP4 PUSH2 0x2E48 JUMP JUMPDEST SWAP2 POP PUSH2 0x352E DUP3 PUSH2 0x34EF JUMP JUMPDEST PUSH1 0x20 DUP3 ADD SWAP1 POP SWAP2 SWAP1 POP JUMP JUMPDEST PUSH0 PUSH1 0x20 DUP3 ADD SWAP1 POP DUP2 DUP2 SUB PUSH0 DUP4 ADD MSTORE PUSH2 0x3550 DUP2 PUSH2 0x3517 JUMP JUMPDEST SWAP1 POP SWAP2 SWAP1 POP JUMP JUMPDEST PUSH0 DUP2 SWAP1 POP SWAP2 SWAP1 POP JUMP JUMPDEST PUSH0 PUSH2 0x357A PUSH2 0x3575 PUSH2 0x3570 DUP5 PUSH2 0x25EB JUMP JUMPDEST PUSH2 0x3557 JUMP JUMPDEST PUSH2 0x25EB JUMP JUMPDEST SWAP1 POP SWAP2 SWAP1 POP JUMP JUMPDEST PUSH0 PUSH2 0x358B DUP3 PUSH2 0x3560 JUMP JUMPDEST SWAP1 POP SWAP2 SWAP1 POP JUMP JUMPDEST PUSH0 PUSH2 0x359C DUP3 PUSH2 0x3581 JUMP JUMPDEST SWAP1 POP SWAP2 SWAP1 POP JUMP JUMPDEST PUSH2 0x35AC DUP2 PUSH2 0x3592 JUMP JUMPDEST DUP3 MSTORE POP POP JUMP JUMPDEST PUSH0 PUSH1 0x60 DUP3 ADD SWAP1 POP PUSH2 0x35C5 PUSH0 DUP4 ADD DUP7 PUSH2 0x30D0 JUMP JUMPDEST PUSH2 0x35D2 PUSH1 0x20 DUP4 ADD DUP6 PUSH2 0x35A3 JUMP JUMPDEST PUSH2 0x35DF PUSH1 0x40 DUP4 ADD DUP5 PUSH2 0x26AB JUMP JUMPDEST SWAP5 SWAP4 POP POP POP POP JUMP JUMPDEST PUSH32 0x436F6E7472616374206973207061757365640000000000000000000000000000 PUSH0 DUP3 ADD MSTORE POP JUMP JUMPDEST PUSH0 PUSH2 0x361B PUSH1 0x12 DUP4 PUSH2 0x2E48 JUMP JUMPDEST SWAP2 POP PUSH2 0x3626 DUP3 PUSH2 0x35E7 JUMP JUMPDEST PUSH1 0x20 DUP3 ADD SWAP1 POP SWAP2 SWAP1 POP JUMP JUMPDEST PUSH0 PUSH1 0x20 DUP3 ADD SWAP1 POP DUP2 DUP2 SUB PUSH0 DUP4 ADD MSTORE PUSH2 0x3648 DUP2 PUSH2 0x360F JUMP JUMPDEST SWAP1 POP SWAP2 SWAP1 POP JUMP JUMPDEST PUSH32 0x546869732075736572206973206E6F742063726561746F72206F662074686973 PUSH0 DUP3 ADD MSTORE PUSH32 0x2070726F6A656374000000000000000000000000000000000000000000000000 PUSH1 0x20 DUP3 ADD MSTORE POP JUMP JUMPDEST PUSH0 PUSH2 0x36A9 PUSH1 0x28 DUP4 PUSH2 0x2E48 JUMP JUMPDEST SWAP2 POP PUSH2 0x36B4 DUP3 PUSH2 0x364F JUMP JUMPDEST PUSH1 0x40 DUP3 ADD SWAP1 POP SWAP2 SWAP1 POP JUMP JUMPDEST PUSH0 PUSH1 0x20 DUP3 ADD SWAP1 POP DUP2 DUP2 SUB PUSH0 DUP4 ADD MSTORE PUSH2 0x36D6 DUP2 PUSH2 0x369D JUMP JUMPDEST SWAP1 POP SWAP2 SWAP1 POP JUMP JUMPDEST PUSH32 0x4E487B7100000000000000000000000000000000000000000000000000000000 PUSH0 MSTORE PUSH1 0x22 PUSH1 0x4 MSTORE PUSH1 0x24 PUSH0 REVERT JUMPDEST PUSH0 PUSH1 0x2 DUP3 DIV SWAP1 POP PUSH1 0x1 DUP3 AND DUP1 PUSH2 0x3721 JUMPI PUSH1 0x7F DUP3 AND SWAP2 POP JUMPDEST PUSH1 0x20 DUP3 LT DUP2 SUB PUSH2 0x3734 JUMPI PUSH2 0x3733 PUSH2 0x36DD JUMP JUMPDEST JUMPDEST POP SWAP2 SWAP1 POP JUMP JUMPDEST PUSH0 DUP2 SWAP1 POP DUP2 PUSH0 MSTORE PUSH1 0x20 PUSH0 KECCAK256 SWAP1 POP SWAP2 SWAP1 POP JUMP JUMPDEST PUSH0 PUSH1 0x20 PUSH1 0x1F DUP4 ADD DIV SWAP1 POP SWAP2 SWAP1 POP JUMP JUMPDEST PUSH0 DUP3 DUP3 SHL SWAP1 POP SWAP3 SWAP2 POP POP JUMP JUMPDEST PUSH0 PUSH1 0x8 DUP4 MUL PUSH2 0x3796 PUSH32 0xFFFFFFFFFFFFFFFFFFFFFFFFFFFFFFFFFFFFFFFFFFFFFFFFFFFFFFFFFFFFFFFF DUP3 PUSH2 0x375B JUMP JUMPDEST PUSH2 0x37A0 DUP7 DUP4 PUSH2 0x375B JUMP JUMPDEST SWAP6 POP DUP1 NOT DUP5 AND SWAP4 POP DUP1 DUP7 AND DUP5 OR SWAP3 POP POP POP SWAP4 SWAP3 POP POP POP JUMP JUMPDEST PUSH0 PUSH2 0x37D2 PUSH2 0x37CD PUSH2 0x37C8 DUP5 PUSH2 0x252F JUMP JUMPDEST PUSH2 0x3557 JUMP JUMPDEST PUSH2 0x252F JUMP JUMPDEST SWAP1 POP SWAP2 SWAP1 POP JUMP JUMPDEST PUSH0 DUP2 SWAP1 POP SWAP2 SWAP1 POP JUMP JUMPDEST PUSH2 0x37EB DUP4 PUSH2 0x37B8 JUMP JUMPDEST PUSH2 0x37FF PUSH2 0x37F7 DUP3 PUSH2 0x37D9 JUMP JUMPDEST DUP5 DUP5 SLOAD PUSH2 0x3767 JUMP JUMPDEST DUP3 SSTORE POP POP POP POP JUMP JUMPDEST PUSH0 SWAP1 JUMP JUMPDEST PUSH2 0x3813 PUSH2 0x3807 JUMP JUMPDEST PUSH2 0x381E DUP2 DUP5 DUP5 PUSH2 0x37E2 JUMP JUMPDEST POP POP POP JUMP JUMPDEST JUMPDEST DUP2 DUP2 LT ISZERO PUSH2 0x3841 JUMPI PUSH2 0x3836 PUSH0 DUP3 PUSH2 0x380B JUMP JUMPDEST PUSH1 0x1 DUP2 ADD SWAP1 POP PUSH2 0x3824 JUMP JUMPDEST POP POP JUMP JUMPDEST PUSH1 0x1F DUP3 GT ISZERO PUSH2 0x3886 JUMPI PUSH2 0x3857 DUP2 PUSH2 0x373A JUMP JUMPDEST PUSH2 0x3860 DUP5 PUSH2 0x374C JUMP JUMPDEST DUP2 ADD PUSH1 0x20 DUP6 LT ISZERO PUSH2 0x386F JUMPI DUP2 SWAP1 POP JUMPDEST PUSH2 0x3883 PUSH2 0x387B DUP6 PUSH2 0x374C JUMP JUMPDEST DUP4 ADD DUP3 PUSH2 0x3823 JUMP JUMPDEST POP POP JUMPDEST POP POP POP JUMP JUMPDEST PUSH0 DUP3 DUP3 SHR SWAP1 POP SWAP3 SWAP2 POP POP JUMP JUMPDEST PUSH0 PUSH2 0x38A6 PUSH0 NOT DUP5 PUSH1 0x8 MUL PUSH2 0x388B JUMP JUMPDEST NOT DUP1 DUP4 AND SWAP2 POP POP SWAP3 SWAP2 POP POP JUMP JUMPDEST PUSH0 PUSH2 0x38BE DUP4 DUP4 PUSH2 0x3897 JUMP JUMPDEST SWAP2 POP DUP3 PUSH1 0x2 MUL DUP3 OR SWAP1 POP SWAP3 SWAP2 POP POP JUMP JUMPDEST PUSH2 0x38D7 DUP3 PUSH2 0x2CFC JUMP JUMPDEST PUSH8 0xFFFFFFFFFFFFFFFF DUP2 GT ISZERO PUSH2 0x38F0 JUMPI PUSH2 0x38EF PUSH2 0x2745 JUMP JUMPDEST JUMPDEST PUSH2 0x38FA DUP3 SLOAD PUSH2 0x370A JUMP JUMPDEST PUSH2 0x3905 DUP3 DUP3 DUP6 PUSH2 0x3845 JUMP JUMPDEST PUSH0 PUSH1 0x20 SWAP1 POP PUSH1 0x1F DUP4 GT PUSH1 0x1 DUP2 EQ PUSH2 0x3936 JUMPI PUSH0 DUP5 ISZERO PUSH2 0x3924 JUMPI DUP3 DUP8 ADD MLOAD SWAP1 POP JUMPDEST PUSH2 0x392E DUP6 DUP3 PUSH2 0x38B3 JUMP JUMPDEST DUP7 SSTORE POP PUSH2 0x3995 JUMP JUMPDEST PUSH1 0x1F NOT DUP5 AND PUSH2 0x3944 DUP7 PUSH2 0x373A JUMP JUMPDEST PUSH0 JUMPDEST DUP3 DUP2 LT ISZERO PUSH2 0x396B JUMPI DUP5 DUP10 ADD MLOAD DUP3 SSTORE PUSH1 0x1 DUP3 ADD SWAP2 POP PUSH1 0x20 DUP6 ADD SWAP5 POP PUSH1 0x20 DUP2 ADD SWAP1 POP PUSH2 0x3946 JUMP JUMPDEST DUP7 DUP4 LT ISZERO PUSH2 0x3988 JUMPI DUP5 DUP10 ADD MLOAD PUSH2 0x3984 PUSH1 0x1F DUP10 AND DUP3 PUSH2 0x3897 JUMP JUMPDEST DUP4 SSTORE POP JUMPDEST PUSH1 0x1 PUSH1 0x2 DUP9 MUL ADD DUP9 SSTORE POP POP POP JUMPDEST POP POP POP POP POP POP JUMP JUMPDEST PUSH0 PUSH1 0x40 DUP3 ADD SWAP1 POP PUSH2 0x39B0 PUSH0 DUP4 ADD DUP6 PUSH2 0x30D0 JUMP JUMPDEST DUP2 DUP2 SUB PUSH1 0x20 DUP4 ADD MSTORE PUSH2 0x39C2 DUP2 DUP5 PUSH2 0x2E58 JUMP JUMPDEST SWAP1 POP SWAP4 SWAP3 POP POP POP JUMP JUMPDEST PUSH0 PUSH2 0x39D5 DUP3 PUSH2 0x29E1 JUMP JUMPDEST SWAP2 POP PUSH2 0x39E0 DUP4 PUSH2 0x29E1 JUMP JUMPDEST SWAP3 POP DUP3 DUP3 SUB SWAP1 POP DUP2 DUP2 SLT PUSH0 DUP5 SLT AND DUP3 DUP3 SGT PUSH0 DUP6 SLT ISZERO AND OR ISZERO PUSH2 0x3A05 JUMPI PUSH2 0x3A04 PUSH2 0x3070 JUMP JUMPDEST JUMPDEST SWAP3 SWAP2 POP POP JUMP JUMPDEST PUSH0 PUSH2 0x3A15 DUP3 PUSH2 0x29E1 JUMP JUMPDEST SWAP2 POP PUSH2 0x3A20 DUP4 PUSH2 0x29E1 JUMP JUMPDEST SWAP3 POP DUP3 PUSH2 0x3A30 JUMPI PUSH2 0x3A2F PUSH2 0x3147 JUMP JUMPDEST JUMPDEST PUSH1 0x1 PUSH0 SUB DUP4 EQ PUSH32 0x8000000000000000000000000000000000000000000000000000000000000000 DUP4 EQ AND ISZERO PUSH2 0x3A68 JUMPI PUSH2 0x3A67 PUSH2 0x3070 JUMP JUMPDEST JUMPDEST DUP3 DUP3 SDIV SWAP1 POP SWAP3 SWAP2 POP POP JUMP JUMPDEST PUSH0 PUSH2 0x3A7D DUP3 PUSH2 0x29E1 JUMP JUMPDEST SWAP2 POP PUSH2 0x3A88 DUP4 PUSH2 0x29E1 JUMP JUMPDEST SWAP3 POP DUP3 DUP3 ADD SWAP1 POP DUP3 DUP2 SLT ISZERO PUSH0 DUP4 SLT AND DUP4 DUP3 SLT PUSH0 DUP5 SLT ISZERO AND OR ISZERO PUSH2 0x3AAE JUMPI PUSH2 0x3AAD PUSH2 0x3070 JUMP JUMPDEST JUMPDEST SWAP3 SWAP2 POP POP JUMP JUMPDEST PUSH0 DUP2 SWAP1 POP SWAP3 SWAP2 POP POP JUMP JUMPDEST PUSH0 PUSH2 0x3AC8 DUP3 PUSH2 0x2CFC JUMP JUMPDEST PUSH2 0x3AD2 DUP2 DUP6 PUSH2 0x3AB4 JUMP JUMPDEST SWAP4 POP PUSH2 0x3AE2 DUP2 DUP6 PUSH1 0x20 DUP7 ADD PUSH2 0x2D16 JUMP JUMPDEST DUP1 DUP5 ADD SWAP2 POP POP SWAP3 SWAP2 POP POP JUMP JUMPDEST PUSH0 DUP2 SWAP1 POP SWAP2 SWAP1 POP JUMP JUMPDEST PUSH2 0x3B08 PUSH2 0x3B03 DUP3 PUSH2 0x252F JUMP JUMPDEST PUSH2 0x3AEE JUMP JUMPDEST DUP3 MSTORE POP POP JUMP JUMPDEST PUSH0 DUP2 PUSH1 0x60 SHL SWAP1 POP SWAP2 SWAP1 POP JUMP JUMPDEST PUSH0 PUSH2 0x3B24 DUP3 PUSH2 0x3B0E JUMP JUMPDEST SWAP1 POP SWAP2 SWAP1 POP JUMP JUMPDEST PUSH0 PUSH2 0x3B35 DUP3 PUSH2 0x3B1A JUMP JUMPDEST SWAP1 POP SWAP2 SWAP1 POP JUMP JUMPDEST PUSH2 0x3B4D PUSH2 0x3B48 DUP3 PUSH2 0x260A JUMP JUMPDEST PUSH2 0x3B2B JUMP JUMPDEST DUP3 MSTORE POP POP JUMP JUMPDEST PUSH0 PUSH2 0x3B5E DUP3 DUP8 PUSH2 0x3ABE JUMP JUMPDEST SWAP2 POP PUSH2 0x3B6A DUP3 DUP7 PUSH2 0x3ABE JUMP JUMPDEST SWAP2 POP PUSH2 0x3B76 DUP3 DUP6 PUSH2 0x3AF7 JUMP JUMPDEST PUSH1 0x20 DUP3 ADD SWAP2 POP PUSH2 0x3B86 DUP3 DUP5 PUSH2 0x3B3C JUMP JUMPDEST PUSH1 0x14 DUP3 ADD SWAP2 POP DUP2 SWAP1 POP SWAP6 SWAP5 POP POP POP POP POP JUMP JUMPDEST PUSH0 PUSH1 0xC0 DUP3 ADD SWAP1 POP PUSH2 0x3BAB PUSH0 DUP4 ADD DUP10 PUSH2 0x30D0 JUMP JUMPDEST DUP2 DUP2 SUB PUSH1 0x20 DUP4 ADD MSTORE PUSH2 0x3BBD DUP2 DUP9 PUSH2 0x2E58 JUMP JUMPDEST SWAP1 POP DUP2 DUP2 SUB PUSH1 0x40 DUP4 ADD MSTORE PUSH2 0x3BD1 DUP2 DUP8 PUSH2 0x2E58 JUMP JUMPDEST SWAP1 POP PUSH2 0x3BE0 PUSH1 0x60 DUP4 ADD DUP7 PUSH2 0x261B JUMP JUMPDEST PUSH2 0x3BED PUSH1 0x80 DUP4 ADD DUP6 PUSH2 0x26AB JUMP JUMPDEST PUSH2 0x3BFA PUSH1 0xA0 DUP4 ADD DUP5 PUSH2 0x26AB JUMP JUMPDEST SWAP8 SWAP7 POP POP POP POP POP POP POP JUMP JUMPDEST PUSH0 PUSH2 0x3C0F DUP3 PUSH2 0x252F JUMP JUMPDEST SWAP2 POP PUSH2 0x3C1A DUP4 PUSH2 0x252F JUMP JUMPDEST SWAP3 POP DUP3 DUP3 MUL PUSH2 0x3C28 DUP2 PUSH2 0x252F JUMP JUMPDEST SWAP2 POP DUP3 DUP3 DIV DUP5 EQ DUP4 ISZERO OR PUSH2 0x3C3F JUMPI PUSH2 0x3C3E PUSH2 0x3070 JUMP JUMPDEST JUMPDEST POP SWAP3 SWAP2 POP POP JUMP JUMPDEST PUSH0 PUSH2 0x3C50 DUP3 PUSH2 0x252F JUMP JUMPDEST SWAP2 POP PUSH32 0xFFFFFFFFFFFFFFFFFFFFFFFFFFFFFFFFFFFFFFFFFFFFFFFFFFFFFFFFFFFFFFFF DUP3 SUB PUSH2 0x3C82 JUMPI PUSH2 0x3C81 PUSH2 0x3070 JUMP JUMPDEST JUMPDEST PUSH1 0x1 DUP3 ADD SWAP1 POP SWAP2 SWAP1 POP JUMP JUMPDEST PUSH0 PUSH2 0x3C97 DUP3 PUSH2 0x252F JUMP JUMPDEST SWAP2 POP PUSH0 DUP3 SUB PUSH2 0x3CA9 JUMPI PUSH2 0x3CA8 PUSH2 0x3070 JUMP JUMPDEST JUMPDEST PUSH1 0x1 DUP3 SUB SWAP1 POP SWAP2 SWAP1 POP JUMP INVALID LOG2 PUSH5 0x6970667358 0x22 SLT KECCAK256 PUSH6 0xF1BE30764566 RETURNDATASIZE MLOAD 0xCE 0xC BALANCE DUP9 KECCAK256 SAR PUSH31 0x18748F3232A721B120C3C3B79C33962864736F6C634300081A003300000000 "
				},
				"gasEstimates": {
					"creation": {
						"codeDepositCost": "3118800",
						"executionCost": "71919",
						"totalCost": "3190719"
					},
					"external": {
						"": "197",
						"CONTRIBUTION_COMMISSION_RATE()": "2492",
						"TRANSACTION_COMMISSION_RATE()": "2536",
						"binarySearchContributor(bytes32,address)": "infinite",
						"checkIfFundingComplete(bytes32)": "infinite",
						"createProject(string,string,uint256,uint256)": "infinite",
						"fundProject(bytes32)": "infinite",
						"getAmountOfProjects()": "2529",
						"getContributionFee()": "2521",
						"getMilestones(bytes32)": "infinite",
						"getProjectCreator(bytes32)": "2927",
						"getProjectDetails(bytes32)": "infinite",
						"getProjectStatus(bytes32)": "2971",
						"getTransactionFee()": "2543",
						"getUserContribution(bytes32)": "infinite",
						"getUserProjects()": "infinite",
						"idSearch(bytes32[],bytes32)": "infinite",
						"makeRefund(bytes32)": "infinite",
						"pause()": "28919",
						"projectExists(bytes32)": "2957",
						"projectIsActive(bytes32)": "2949",
						"quickSort(bytes32[])": "infinite",
						"sendFunds(bytes32)": "infinite",
						"setContributionFee(uint256)": "24771",
						"setMilestone(bytes32,uint256,string)": "infinite",
						"setProjectDescription(bytes32,string)": "infinite",
						"setTransactionFee(uint256)": "24728",
						"unpause()": "28873",
						"withdraw()": "infinite"
					},
					"internal": {
						"partition(bytes32[] memory,uint256,uint256)": "infinite"
					}
				},
				"methodIdentifiers": {
					"CONTRIBUTION_COMMISSION_RATE()": "7b18d3e7",
					"TRANSACTION_COMMISSION_RATE()": "bf6faedc",
					"binarySearchContributor(bytes32,address)": "0f26bb9c",
					"checkIfFundingComplete(bytes32)": "2f2fafcd",
					"createProject(string,string,uint256,uint256)": "94ba9709",
					"fundProject(bytes32)": "4a83b226",
					"getAmountOfProjects()": "d3d6a117",
					"getContributionFee()": "bbdb284f",
					"getMilestones(bytes32)": "ea4a873c",
					"getProjectCreator(bytes32)": "0b207621",
					"getProjectDetails(bytes32)": "f88fb6cf",
					"getProjectStatus(bytes32)": "d10797cf",
					"getTransactionFee()": "85d79102",
					"getUserContribution(bytes32)": "a81ae362",
					"getUserProjects()": "f08a64e6",
					"idSearch(bytes32[],bytes32)": "89022ff3",
					"makeRefund(bytes32)": "0d93dab8",
					"pause()": "8456cb59",
					"projectExists(bytes32)": "38975895",
					"projectIsActive(bytes32)": "a1bdae45",
					"quickSort(bytes32[])": "c12483d4",
					"sendFunds(bytes32)": "6e0ace70",
					"setContributionFee(uint256)": "64088bb8",
					"setMilestone(bytes32,uint256,string)": "d874cf64",
					"setProjectDescription(bytes32,string)": "88559468",
					"setTransactionFee(uint256)": "096a8ab7",
					"unpause()": "3f4ba83a",
					"withdraw()": "3ccfd60b"
				}
			},
			"storageLayout": {
				"storage": [
					{
						"astId": 3,
						"contract": "contracts/fund.sol:Fund",
						"label": "owner",
						"offset": 0,
						"slot": "0",
						"type": "t_address"
					},
					{
						"astId": 5,
						"contract": "contracts/fund.sol:Fund",
						"label": "paused",
						"offset": 20,
						"slot": "0",
						"type": "t_bool"
					},
					{
						"astId": 8,
						"contract": "contracts/fund.sol:Fund",
						"label": "CONTRIBUTION_COMMISSION_RATE",
						"offset": 0,
						"slot": "1",
						"type": "t_uint256"
					},
					{
						"astId": 11,
						"contract": "contracts/fund.sol:Fund",
						"label": "TRANSACTION_COMMISSION_RATE",
						"offset": 0,
						"slot": "2",
						"type": "t_uint256"
					},
					{
						"astId": 48,
						"contract": "contracts/fund.sol:Fund",
						"label": "users_projects",
						"offset": 0,
						"slot": "3",
						"type": "t_mapping(t_address,t_array(t_bytes32)dyn_storage)"
					},
					{
						"astId": 52,
						"contract": "contracts/fund.sol:Fund",
						"label": "users_withdraw",
						"offset": 0,
						"slot": "4",
						"type": "t_mapping(t_address,t_uint256)"
					},
					{
						"astId": 58,
						"contract": "contracts/fund.sol:Fund",
						"label": "projects_milestones",
						"offset": 0,
						"slot": "5",
						"type": "t_mapping(t_bytes32,t_array(t_struct(Milestone)20_storage)dyn_storage)"
					},
					{
						"astId": 64,
						"contract": "contracts/fund.sol:Fund",
						"label": "projects_contributors",
						"offset": 0,
						"slot": "6",
						"type": "t_mapping(t_bytes32,t_array(t_struct(Contributor)25_storage)dyn_storage)"
					},
					{
						"astId": 69,
						"contract": "contracts/fund.sol:Fund",
						"label": "projects",
						"offset": 0,
						"slot": "7",
						"type": "t_mapping(t_bytes32,t_struct(Project)43_storage)"
					},
					{
						"astId": 72,
						"contract": "contracts/fund.sol:Fund",
						"label": "projects_list",
						"offset": 0,
						"slot": "8",
						"type": "t_array(t_bytes32)dyn_storage"
					}
				],
				"types": {
					"t_address": {
						"encoding": "inplace",
						"label": "address",
						"numberOfBytes": "20"
					},
					"t_array(t_bytes32)dyn_storage": {
						"base": "t_bytes32",
						"encoding": "dynamic_array",
						"label": "bytes32[]",
						"numberOfBytes": "32"
					},
					"t_array(t_struct(Contributor)25_storage)dyn_storage": {
						"base": "t_struct(Contributor)25_storage",
						"encoding": "dynamic_array",
						"label": "struct Fund.Contributor[]",
						"numberOfBytes": "32"
					},
					"t_array(t_struct(Milestone)20_storage)dyn_storage": {
						"base": "t_struct(Milestone)20_storage",
						"encoding": "dynamic_array",
						"label": "struct Fund.Milestone[]",
						"numberOfBytes": "32"
					},
					"t_bool": {
						"encoding": "inplace",
						"label": "bool",
						"numberOfBytes": "1"
					},
					"t_bytes32": {
						"encoding": "inplace",
						"label": "bytes32",
						"numberOfBytes": "32"
					},
					"t_enum(ProjectStatus)15": {
						"encoding": "inplace",
						"label": "enum Fund.ProjectStatus",
						"numberOfBytes": "1"
					},
					"t_mapping(t_address,t_array(t_bytes32)dyn_storage)": {
						"encoding": "mapping",
						"key": "t_address",
						"label": "mapping(address => bytes32[])",
						"numberOfBytes": "32",
						"value": "t_array(t_bytes32)dyn_storage"
					},
					"t_mapping(t_address,t_uint256)": {
						"encoding": "mapping",
						"key": "t_address",
						"label": "mapping(address => uint256)",
						"numberOfBytes": "32",
						"value": "t_uint256"
					},
					"t_mapping(t_bytes32,t_array(t_struct(Contributor)25_storage)dyn_storage)": {
						"encoding": "mapping",
						"key": "t_bytes32",
						"label": "mapping(bytes32 => struct Fund.Contributor[])",
						"numberOfBytes": "32",
						"value": "t_array(t_struct(Contributor)25_storage)dyn_storage"
					},
					"t_mapping(t_bytes32,t_array(t_struct(Milestone)20_storage)dyn_storage)": {
						"encoding": "mapping",
						"key": "t_bytes32",
						"label": "mapping(bytes32 => struct Fund.Milestone[])",
						"numberOfBytes": "32",
						"value": "t_array(t_struct(Milestone)20_storage)dyn_storage"
					},
					"t_mapping(t_bytes32,t_struct(Project)43_storage)": {
						"encoding": "mapping",
						"key": "t_bytes32",
						"label": "mapping(bytes32 => struct Fund.Project)",
						"numberOfBytes": "32",
						"value": "t_struct(Project)43_storage"
					},
					"t_string_storage": {
						"encoding": "bytes",
						"label": "string",
						"numberOfBytes": "32"
					},
					"t_struct(Contributor)25_storage": {
						"encoding": "inplace",
						"label": "struct Fund.Contributor",
						"members": [
							{
								"astId": 22,
								"contract": "contracts/fund.sol:Fund",
								"label": "contributor_address",
								"offset": 0,
								"slot": "0",
								"type": "t_address"
							},
							{
								"astId": 24,
								"contract": "contracts/fund.sol:Fund",
								"label": "contribution",
								"offset": 0,
								"slot": "1",
								"type": "t_uint256"
							}
						],
						"numberOfBytes": "64"
					},
					"t_struct(Milestone)20_storage": {
						"encoding": "inplace",
						"label": "struct Fund.Milestone",
						"members": [
							{
								"astId": 17,
								"contract": "contracts/fund.sol:Fund",
								"label": "milestone_sum",
								"offset": 0,
								"slot": "0",
								"type": "t_uint256"
							},
							{
								"astId": 19,
								"contract": "contracts/fund.sol:Fund",
								"label": "milestone_description",
								"offset": 0,
								"slot": "1",
								"type": "t_string_storage"
							}
						],
						"numberOfBytes": "64"
					},
					"t_struct(Project)43_storage": {
						"encoding": "inplace",
						"label": "struct Fund.Project",
						"members": [
							{
								"astId": 27,
								"contract": "contracts/fund.sol:Fund",
								"label": "project_name",
								"offset": 0,
								"slot": "0",
								"type": "t_string_storage"
							},
							{
								"astId": 29,
								"contract": "contracts/fund.sol:Fund",
								"label": "project_description",
								"offset": 0,
								"slot": "1",
								"type": "t_string_storage"
							},
							{
								"astId": 31,
								"contract": "contracts/fund.sol:Fund",
								"label": "project_creator",
								"offset": 0,
								"slot": "2",
								"type": "t_address"
							},
							{
								"astId": 33,
								"contract": "contracts/fund.sol:Fund",
								"label": "final_goal",
								"offset": 0,
								"slot": "3",
								"type": "t_uint256"
							},
							{
								"astId": 35,
								"contract": "contracts/fund.sol:Fund",
								"label": "funded",
								"offset": 0,
								"slot": "4",
								"type": "t_uint256"
							},
							{
								"astId": 37,
								"contract": "contracts/fund.sol:Fund",
								"label": "deadline",
								"offset": 0,
								"slot": "5",
								"type": "t_uint256"
							},
							{
								"astId": 40,
								"contract": "contracts/fund.sol:Fund",
								"label": "projectStatus",
								"offset": 0,
								"slot": "6",
								"type": "t_enum(ProjectStatus)15"
							},
							{
								"astId": 42,
								"contract": "contracts/fund.sol:Fund",
								"label": "exist",
								"offset": 1,
								"slot": "6",
								"type": "t_bool"
							}
						],
						"numberOfBytes": "224"
					},
					"t_uint256": {
						"encoding": "inplace",
						"label": "uint256",
						"numberOfBytes": "32"
					}
				}
			},
			"userdoc": {
				"kind": "user",
				"methods": {},
				"version": 1
			}
		}
	}
}