{
	"data": {
		"bytecode": {
			"linkReferences": {},
			"object": "60806040526101ea600155610122600255348015601a575f80fd5b50335f806101000a81548173ffffffffffffffffffffffffffffffffffffffff021916908373ffffffffffffffffffffffffffffffffffffffff160217905550613cea806100675f395ff3fe6080604052600436106101ba575f3560e01c806388559468116100eb578063c12483d411610089578063d874cf6411610063578063d874cf64146105ec578063ea4a873c14610614578063f08a64e614610650578063f88fb6cf1461067a576101c1565b8063c12483d41461054a578063d10797cf14610586578063d3d6a117146105c2576101c1565b8063a1bdae45116100c5578063a1bdae451461047e578063a81ae362146104ba578063bbdb284f146104f6578063bf6faedc14610520576101c1565b806388559468146103f257806389022ff31461041a57806394ba970914610456576101c1565b80633f4ba83a116101585780636e0ace70116101325780636e0ace70146103605780637b18d3e7146103885780638456cb59146103b257806385d79102146103c8576101c1565b80633f4ba83a146103065780634a83b2261461031c57806364088bb814610338576101c1565b80630f26bb9c116101945780630f26bb9c1461024f5780632f2fafcd1461028c57806338975895146102b45780633ccfd60b146102f0576101c1565b8063096a8ab7146101c35780630b207621146101eb5780630d93dab814610227576101c1565b366101c157005b005b3480156101ce575f80fd5b506101e960048036038101906101e49190612562565b6106bc565b005b3480156101f6575f80fd5b50610211600480360381019061020c91906125c0565b610753565b60405161021e919061262a565b60405180910390f35b348015610232575f80fd5b5061024d600480360381019061024891906125c0565b61078f565b005b34801561025a575f80fd5b506102756004803603810190610270919061266d565b610978565b6040516102839291906126d4565b60405180910390f35b348015610297575f80fd5b506102b260048036038101906102ad91906125c0565b610b28565b005b3480156102bf575f80fd5b506102da60048036038101906102d591906125c0565b610d3c565b6040516102e791906126fb565b60405180910390f35b3480156102fb575f80fd5b50610304610d66565b005b348015610311575f80fd5b5061031a610e72565b005b610336600480360381019061033191906125c0565b610f68565b005b348015610343575f80fd5b5061035e60048036038101906103599190612562565b6111df565b005b34801561036b575f80fd5b50610386600480360381019061038191906125c0565b611276565b005b348015610393575f80fd5b5061039c611464565b6040516103a99190612714565b60405180910390f35b3480156103bd575f80fd5b506103c661146a565b005b3480156103d3575f80fd5b506103dc611562565b6040516103e99190612714565b60405180910390f35b3480156103fd575f80fd5b5061041860048036038101906104139190612869565b61156b565b005b348015610425575f80fd5b50610440600480360381019061043b9190612987565b611730565b60405161044d91906129f9565b60405180910390f35b348015610461575f80fd5b5061047c60048036038101906104779190612a12565b611804565b005b348015610489575f80fd5b506104a4600480360381019061049f91906125c0565b611b39565b6040516104b19190612b21565b60405180910390f35b3480156104c5575f80fd5b506104e060048036038101906104db91906125c0565b611b62565b6040516104ed9190612714565b60405180910390f35b348015610501575f80fd5b5061050a611bbf565b6040516105179190612714565b60405180910390f35b34801561052b575f80fd5b50610534611bc8565b6040516105419190612714565b60405180910390f35b348015610555575f80fd5b50610570600480360381019061056b9190612b3a565b611bce565b60405161057d9190612c38565b60405180910390f35b348015610591575f80fd5b506105ac60048036038101906105a791906125c0565b611e1b565b6040516105b99190612b21565b60405180910390f35b3480156105cd575f80fd5b506105d6611e44565b6040516105e39190612714565b60405180910390f35b3480156105f7575f80fd5b50610612600480360381019061060d9190612c58565b611e50565b005b34801561061f575f80fd5b5061063a600480360381019061063591906125c0565b612027565b6040516106479190612e28565b60405180910390f35b34801561065b575f80fd5b5061066461212d565b6040516106719190612c38565b60405180910390f35b348015610685575f80fd5b506106a0600480360381019061069b91906125c0565b6121be565b6040516106b39796959493929190612e90565b60405180910390f35b5f8054906101000a900473ffffffffffffffffffffffffffffffffffffffff1673ffffffffffffffffffffffffffffffffffffffff163373ffffffffffffffffffffffffffffffffffffffff1614610749576040517f08c379a000000000000000000000000000000000000000000000000000000000815260040161074090612f55565b60405180910390fd5b8060028190555050565b5f60075f8381526020019081526020015f206002015f9054906101000a900473ffffffffffffffffffffffffffffffffffffffff169050919050565b61079881610d3c565b6107d7576040517f08c379a00000000000000000000000000000000000000000000000000000000081526004016107ce90612fbd565b60405180910390fd5b5f6107e182611e1b565b90506002808111156107f6576107f5612aae565b5b81600281111561080957610808612aae565b5b14610849576040517f08c379a000000000000000000000000000000000000000000000000000000000815260040161084090613025565b60405180910390fd5b5f60065f8481526020019081526020015f2090505f5b8180549050811015610972575f82828154811061087f5761087e613043565b5b905f5260205f2090600202015f015f9054906101000a900473ffffffffffffffffffffffffffffffffffffffff1690505f8383815481106108c3576108c2613043565b5b905f5260205f2090600202016001015490508060045f8473ffffffffffffffffffffffffffffffffffffffff1673ffffffffffffffffffffffffffffffffffffffff1681526020019081526020015f205f828254610921919061309d565b925050819055507ff8590cd6b8c44be7a2bc57131f10e203ec5f7d7f2f761e1508a8cc964ecb9eb786838360405161095b939291906130df565b60405180910390a15050808060010191505061085f565b50505050565b5f805f60065f8681526020019081526020015f2090505f808280549050036109a7575f80935093505050610b21565b5f600183805490506109b99190613114565b90505b808211610b17575f600283836109d29190613114565b6109dc9190613174565b836109e7919061309d565b90508673ffffffffffffffffffffffffffffffffffffffff16848281548110610a1357610a12613043565b5b905f5260205f2090600202015f015f9054906101000a900473ffffffffffffffffffffffffffffffffffffffff1673ffffffffffffffffffffffffffffffffffffffff1603610a6c578060019550955050505050610b21565b8673ffffffffffffffffffffffffffffffffffffffff16848281548110610a9657610a95613043565b5b905f5260205f2090600202015f015f9054906101000a900473ffffffffffffffffffffffffffffffffffffffff1673ffffffffffffffffffffffffffffffffffffffff161015610af457600181610aed919061309d565b9250610b11565b5f8103610b015750610b17565b600181610b0e9190613114565b91505b506109bc565b5f80945094505050505b9250929050565b610b3181610d3c565b610b70576040517f08c379a0000000000000000000000000000000000000000000000000000000008152600401610b6790612fbd565b60405180910390fd5b5f60075f8381526020019081526020015f2090505f6002811115610b9757610b96612aae565b5b816006015f9054906101000a900460ff166002811115610bba57610bb9612aae565b5b14610bfa576040517f08c379a0000000000000000000000000000000000000000000000000000000008152600401610bf1906131ee565b60405180910390fd5b80600501544210610cfd578060030154816004015410610c88576001816006015f6101000a81548160ff02191690836002811115610c3b57610c3a612aae565b5b02179055507f9429ffd66955b0a50202aef461a5c7cc17723d8735de36b6119776d3511d7c4f826001604051610c7292919061320c565b60405180910390a1610c8382611276565b610cf8565b6002816006015f6101000a81548160ff02191690836002811115610caf57610cae612aae565b5b02179055507f9429ffd66955b0a50202aef461a5c7cc17723d8735de36b6119776d3511d7c4f826001604051610ce692919061320c565b60405180910390a1610cf78261078f565b5b610d38565b6040517f08c379a0000000000000000000000000000000000000000000000000000000008152600401610d2f9061327d565b60405180910390fd5b5050565b5f60075f8381526020019081526020015f2060060160019054906101000a900460ff169050919050565b5f60045f3373ffffffffffffffffffffffffffffffffffffffff1673ffffffffffffffffffffffffffffffffffffffff1681526020019081526020015f205490505f8111610de9576040517f08c379a0000000000000000000000000000000000000000000000000000000008152600401610de0906132e5565b60405180910390fd5b5f60045f3373ffffffffffffffffffffffffffffffffffffffff1673ffffffffffffffffffffffffffffffffffffffff1681526020019081526020015f20819055503373ffffffffffffffffffffffffffffffffffffffff166108fc8290811502906040515f60405180830381858888f19350505050158015610e6e573d5f803e3d5ffd5b5050565b5f60149054906101000a900460ff16610ec0576040517f08c379a0000000000000000000000000000000000000000000000000000000008152600401610eb79061334d565b60405180910390fd5b5f8054906101000a900473ffffffffffffffffffffffffffffffffffffffff1673ffffffffffffffffffffffffffffffffffffffff163373ffffffffffffffffffffffffffffffffffffffff1614610f4d576040517f08c379a0000000000000000000000000000000000000000000000000000000008152600401610f4490612f55565b60405180910390fd5b5f8060146101000a81548160ff021916908315150217905550565b610f7181610d3c565b610fb0576040517f08c379a0000000000000000000000000000000000000000000000000000000008152600401610fa790612fbd565b60405180910390fd5b5f6002811115610fc357610fc2612aae565b5b610fcc82611b39565b6002811115610fde57610fdd612aae565b5b1461101e576040517f08c379a0000000000000000000000000000000000000000000000000000000008152600401611015906133b5565b60405180910390fd5b5f3411611060576040517f08c379a000000000000000000000000000000000000000000000000000000000815260040161105790613443565b60405180910390fd5b5f8061106c8333610978565b915091508061112c5760065f8481526020019081526020015f2060405180604001604052803373ffffffffffffffffffffffffffffffffffffffff16815260200134815250908060018154018082558091505060019003905f5260205f2090600202015f909190919091505f820151815f015f6101000a81548173ffffffffffffffffffffffffffffffffffffffff021916908373ffffffffffffffffffffffffffffffffffffffff160217905550602082015181600101555050611175565b3460065f8581526020019081526020015f2083815481106111505761114f613043565b5b905f5260205f2090600202016001015f82825461116d919061309d565b925050819055505b3460075f8581526020019081526020015f206004015f828254611198919061309d565b925050819055507fb736b18814da81a1581cd71e835c12a580034bd300493d2c7a455ce69a50f7a08333346040516111d2939291906130df565b60405180910390a1505050565b5f8054906101000a900473ffffffffffffffffffffffffffffffffffffffff1673ffffffffffffffffffffffffffffffffffffffff163373ffffffffffffffffffffffffffffffffffffffff161461126c576040517f08c379a000000000000000000000000000000000000000000000000000000000815260040161126390612f55565b60405180910390fd5b8060018190555050565b61127f81610d3c565b6112be576040517f08c379a00000000000000000000000000000000000000000000000000000000081526004016112b590612fbd565b60405180910390fd5b6112c781610753565b73ffffffffffffffffffffffffffffffffffffffff163373ffffffffffffffffffffffffffffffffffffffff1614611334576040517f08c379a000000000000000000000000000000000000000000000000000000000815260040161132b906134d1565b60405180910390fd5b6001600281111561134857611347612aae565b5b61135182611b39565b600281111561136357611362612aae565b5b146113a3576040517f08c379a000000000000000000000000000000000000000000000000000000000815260040161139a90613539565b60405180910390fd5b5f6113ad82610753565b90505f60075f8481526020019081526020015f206004015490505f60075f8581526020019081526020015f20600401819055508173ffffffffffffffffffffffffffffffffffffffff166108fc8290811502906040515f60405180830381858888f19350505050158015611423573d5f803e3d5ffd5b507f13e7ed68a0fe9e4bcafdde5f49381514a9ee7e34ff7d926eadab64c1e0e77f16838383604051611457939291906135b2565b60405180910390a1505050565b60015481565b5f60149054906101000a900460ff16156114b9576040517f08c379a00000000000000000000000000000000000000000000000000000000081526004016114b090613631565b60405180910390fd5b5f8054906101000a900473ffffffffffffffffffffffffffffffffffffffff1673ffffffffffffffffffffffffffffffffffffffff163373ffffffffffffffffffffffffffffffffffffffff1614611546576040517f08c379a000000000000000000000000000000000000000000000000000000000815260040161153d90612f55565b60405180910390fd5b60015f60146101000a81548160ff021916908315150217905550565b5f600254905090565b817fffffffffffffffffffffffffffffffffffffffffffffffffffffffffffffffff61162060035f3373ffffffffffffffffffffffffffffffffffffffff1673ffffffffffffffffffffffffffffffffffffffff1681526020019081526020015f2080548060200260200160405190810160405280929190818152602001828054801561161557602002820191905f5260205f20905b815481526020019060010190808311611601575b505050505083611730565b03611660576040517f08c379a0000000000000000000000000000000000000000000000000000000008152600401611657906136bf565b60405180910390fd5b825f600281111561167457611673612aae565b5b61167d82611b39565b600281111561168f5761168e612aae565b5b146116cf576040517f08c379a00000000000000000000000000000000000000000000000000000000081526004016116c6906133b5565b60405180910390fd5b8260075f8681526020019081526020015f2060010190816116f091906138ce565b507fd935f8055b4c9c830e03201fac6106c7f64b5402f80b169a44853f21974df942848460405161172292919061399d565b60405180910390a150505050565b5f805f90505f6001855161174491906139cb565b90505b8082136117d8575f6002838361175d91906139cb565b6117679190613a0b565b836117729190613a73565b90505f86828151811061178857611787613043565b5b602002602001015190508581036117a557819450505050506117fe565b858110156117c1576001826117ba9190613a73565b93506117d1565b6001826117ce91906139cb565b92505b5050611747565b7fffffffffffffffffffffffffffffffffffffffffffffffffffffffffffffffff925050505b92915050565b5f8484423360405160200161181c9493929190613b53565b60405160208183030381529060405280519060200120905061183c6124b5565b85815f018190525084816020018190525033816040019073ffffffffffffffffffffffffffffffffffffffff16908173ffffffffffffffffffffffffffffffffffffffff1681525050838160600181815250505f816080018181525050828160a00181815250505f8160c0019060028111156118bb576118ba612aae565b5b908160028111156118cf576118ce612aae565b5b8152505060018160e00190151590811515815250508060075f8481526020019081526020015f205f820151815f01908161190991906138ce565b50602082015181600101908161191f91906138ce565b506040820151816002015f6101000a81548173ffffffffffffffffffffffffffffffffffffffff021916908373ffffffffffffffffffffffffffffffffffffffff160217905550606082015181600301556080820151816004015560a0820151816005015560c0820151816006015f6101000a81548160ff021916908360028111156119ae576119ad612aae565b5b021790555060e08201518160060160016101000a81548160ff02191690831515021790555090505060035f3373ffffffffffffffffffffffffffffffffffffffff1673ffffffffffffffffffffffffffffffffffffffff1681526020019081526020015f2082908060018154018082558091505060019003905f5260205f20015f9091909190915055600882908060018154018082558091505060019003905f5260205f20015f9091909190915055611aef60035f3373ffffffffffffffffffffffffffffffffffffffff1673ffffffffffffffffffffffffffffffffffffffff1681526020019081526020015f20805480602002602001604051908101604052809291908181526020018280548015611ae557602002820191905f5260205f20905b815481526020019060010190808311611ad1575b5050505050611bce565b507f57697173c22831f367942a05f5c552c47d47a6585ddfd0836fb8dc3b08e5c331828787338888604051611b2996959493929190613b98565b60405180910390a1505050505050565b5f60075f8381526020019081526020015f206006015f9054906101000a900460ff169050919050565b5f805f611b6f8433610978565b9150915080611b82575f92505050611bba565b60065f8581526020019081526020015f208281548110611ba557611ba4613043565b5b905f5260205f20906002020160010154925050505b919050565b5f600154905090565b60025481565b60606001825111611be157819050611e16565b5f60028351611bf09190613c05565b67ffffffffffffffff811115611c0957611c08612745565b5b604051908082528060200260200182016040528015611c375781602001602082028036833780820191505090505b5090505f80828280611c4890613c46565b935081518110611c5b57611c5a613043565b5b60200260200101818152505060018451611c759190613114565b828280611c8190613c46565b935081518110611c9457611c93613043565b5b6020026020010181815250505b5f811115611e10575f8282611cb590613c8d565b92508281518110611cc957611cc8613043565b5b602002602001015190505f8383611cdf90613c8d565b93508381518110611cf357611cf2613043565b5b602002602001015190505f611d09878385612353565b90505f81118015611d25575081600182611d239190613114565b115b15611d8f5781858580611d3790613c46565b965081518110611d4a57611d49613043565b5b602002602001018181525050600181611d639190613114565b858580611d6f90613c46565b965081518110611d8257611d81613043565b5b6020026020010181815250505b82600182611d9d919061309d565b1015611e0857600181611db0919061309d565b858580611dbc90613c46565b965081518110611dcf57611dce613043565b5b60200260200101818152505082858580611de890613c46565b965081518110611dfb57611dfa613043565b5b6020026020010181815250505b505050611ca1565b83925050505b919050565b5f60075f8381526020019081526020015f206006015f9054906101000a900460ff169050919050565b5f600880549050905090565b827fffffffffffffffffffffffffffffffffffffffffffffffffffffffffffffffff611f0560035f3373ffffffffffffffffffffffffffffffffffffffff1673ffffffffffffffffffffffffffffffffffffffff1681526020019081526020015f20805480602002602001604051908101604052809291908181526020018280548015611efa57602002820191905f5260205f20905b815481526020019060010190808311611ee6575b505050505083611730565b03611f45576040517f08c379a0000000000000000000000000000000000000000000000000000000008152600401611f3c906136bf565b60405180910390fd5b835f6002811115611f5957611f58612aae565b5b611f6282611b39565b6002811115611f7457611f73612aae565b5b14611fb4576040517f08c379a0000000000000000000000000000000000000000000000000000000008152600401611fab906133b5565b60405180910390fd5b60055f8681526020019081526020015f20604051806040016040528086815260200185815250908060018154018082558091505060019003905f5260205f2090600202015f909190919091505f820151815f0155602082015181600101908161201d91906138ce565b5050505050505050565b606060055f8381526020019081526020015f20805480602002602001604051908101604052809291908181526020015f905b82821015612122578382905f5260205f2090600202016040518060400160405290815f82015481526020016001820180546120939061370a565b80601f01602080910402602001604051908101604052809291908181526020018280546120bf9061370a565b801561210a5780601f106120e15761010080835404028352916020019161210a565b820191905f5260205f20905b8154815290600101906020018083116120ed57829003601f168201915b50505050508152505081526020019060010190612059565b505050509050919050565b606060035f3373ffffffffffffffffffffffffffffffffffffffff1673ffffffffffffffffffffffffffffffffffffffff1681526020019081526020015f208054806020026020016040519081016040528092919081815260200182805480156121b457602002820191905f5260205f20905b8154815260200190600101908083116121a0575b5050505050905090565b6060805f805f805f8060075f8a81526020019081526020015f209050805f0181600101826002015f9054906101000a900473ffffffffffffffffffffffffffffffffffffffff16836003015484600401548560050154866006015f9054906101000a900460ff168680546122319061370a565b80601f016020809104026020016040519081016040528092919081815260200182805461225d9061370a565b80156122a85780601f1061227f576101008083540402835291602001916122a8565b820191905f5260205f20905b81548152906001019060200180831161228b57829003601f168201915b505050505096508580546122bb9061370a565b80601f01602080910402602001604051908101604052809291908181526020018280546122e79061370a565b80156123325780601f1061230957610100808354040283529160200191612332565b820191905f5260205f20905b81548152906001019060200180831161231557829003601f168201915b50505050509550975097509750975097509750975050919395979092949650565b5f8084838151811061236857612367613043565b5b602002602001015190505f8490505f8590505b84811015612434578287828151811061239757612396613043565b5b602002602001015111612427578681815181106123b7576123b6613043565b5b60200260200101518783815181106123d2576123d1613043565b5b60200260200101518884815181106123ed576123ec613043565b5b6020026020010189848151811061240757612406613043565b5b6020026020010182815250828152505050818061242390613c46565b9250505b808060010191505061237b565b5085848151811061244857612447613043565b5b602002602001015186828151811061246357612462613043565b5b602002602001015187838151811061247e5761247d613043565b5b6020026020010188878151811061249857612497613043565b5b602002602001018281525082815250505080925050509392505050565b60405180610100016040528060608152602001606081526020015f73ffffffffffffffffffffffffffffffffffffffff1681526020015f81526020015f81526020015f81526020015f60028111156125105761250f612aae565b5b81526020015f151581525090565b5f604051905090565b5f80fd5b5f80fd5b5f819050919050565b6125418161252f565b811461254b575f80fd5b50565b5f8135905061255c81612538565b92915050565b5f6020828403121561257757612576612527565b5b5f6125848482850161254e565b91505092915050565b5f819050919050565b61259f8161258d565b81146125a9575f80fd5b50565b5f813590506125ba81612596565b92915050565b5f602082840312156125d5576125d4612527565b5b5f6125e2848285016125ac565b91505092915050565b5f73ffffffffffffffffffffffffffffffffffffffff82169050919050565b5f612614826125eb565b9050919050565b6126248161260a565b82525050565b5f60208201905061263d5f83018461261b565b92915050565b61264c8161260a565b8114612656575f80fd5b50565b5f8135905061266781612643565b92915050565b5f806040838503121561268357612682612527565b5b5f612690858286016125ac565b92505060206126a185828601612659565b9150509250929050565b6126b48161252f565b82525050565b5f8115159050919050565b6126ce816126ba565b82525050565b5f6040820190506126e75f8301856126ab565b6126f460208301846126c5565b9392505050565b5f60208201905061270e5f8301846126c5565b92915050565b5f6020820190506127275f8301846126ab565b92915050565b5f80fd5b5f80fd5b5f601f19601f8301169050919050565b7f4e487b71000000000000000000000000000000000000000000000000000000005f52604160045260245ffd5b61277b82612735565b810181811067ffffffffffffffff8211171561279a57612799612745565b5b80604052505050565b5f6127ac61251e565b90506127b88282612772565b919050565b5f67ffffffffffffffff8211156127d7576127d6612745565b5b6127e082612735565b9050602081019050919050565b828183375f83830152505050565b5f61280d612808846127bd565b6127a3565b90508281526020810184848401111561282957612828612731565b5b6128348482856127ed565b509392505050565b5f82601f8301126128505761284f61272d565b5b81356128608482602086016127fb565b91505092915050565b5f806040838503121561287f5761287e612527565b5b5f61288c858286016125ac565b925050602083013567ffffffffffffffff8111156128ad576128ac61252b565b5b6128b98582860161283c565b9150509250929050565b5f67ffffffffffffffff8211156128dd576128dc612745565b5b602082029050602081019050919050565b5f80fd5b5f6129046128ff846128c3565b6127a3565b90508083825260208201905060208402830185811115612927576129266128ee565b5b835b81811015612950578061293c88826125ac565b845260208401935050602081019050612929565b5050509392505050565b5f82601f83011261296e5761296d61272d565b5b813561297e8482602086016128f2565b91505092915050565b5f806040838503121561299d5761299c612527565b5b5f83013567ffffffffffffffff8111156129ba576129b961252b565b5b6129c68582860161295a565b92505060206129d7858286016125ac565b9150509250929050565b5f819050919050565b6129f3816129e1565b82525050565b5f602082019050612a0c5f8301846129ea565b92915050565b5f805f8060808587031215612a2a57612a29612527565b5b5f85013567ffffffffffffffff811115612a4757612a4661252b565b5b612a538782880161283c565b945050602085013567ffffffffffffffff811115612a7457612a7361252b565b5b612a808782880161283c565b9350506040612a918782880161254e565b9250506060612aa28782880161254e565b91505092959194509250565b7f4e487b71000000000000000000000000000000000000000000000000000000005f52602160045260245ffd5b60038110612aec57612aeb612aae565b5b50565b5f819050612afc82612adb565b919050565b5f612b0b82612aef565b9050919050565b612b1b81612b01565b82525050565b5f602082019050612b345f830184612b12565b92915050565b5f60208284031215612b4f57612b4e612527565b5b5f82013567ffffffffffffffff811115612b6c57612b6b61252b565b5b612b788482850161295a565b91505092915050565b5f81519050919050565b5f82825260208201905092915050565b5f819050602082019050919050565b612bb38161258d565b82525050565b5f612bc48383612baa565b60208301905092915050565b5f602082019050919050565b5f612be682612b81565b612bf08185612b8b565b9350612bfb83612b9b565b805f5b83811015612c2b578151612c128882612bb9565b9750612c1d83612bd0565b925050600181019050612bfe565b5085935050505092915050565b5f6020820190508181035f830152612c508184612bdc565b905092915050565b5f805f60608486031215612c6f57612c6e612527565b5b5f612c7c868287016125ac565b9350506020612c8d8682870161254e565b925050604084013567ffffffffffffffff811115612cae57612cad61252b565b5b612cba8682870161283c565b9150509250925092565b5f81519050919050565b5f82825260208201905092915050565b5f819050602082019050919050565b612cf68161252f565b82525050565b5f81519050919050565b5f82825260208201905092915050565b8281835e5f83830152505050565b5f612d2e82612cfc565b612d388185612d06565b9350612d48818560208601612d16565b612d5181612735565b840191505092915050565b5f604083015f830151612d715f860182612ced565b5060208301518482036020860152612d898282612d24565b9150508091505092915050565b5f612da18383612d5c565b905092915050565b5f602082019050919050565b5f612dbf82612cc4565b612dc98185612cce565b935083602082028501612ddb85612cde565b805f5b85811015612e165784840389528151612df78582612d96565b9450612e0283612da9565b925060208a01995050600181019050612dde565b50829750879550505050505092915050565b5f6020820190508181035f830152612e408184612db5565b905092915050565b5f82825260208201905092915050565b5f612e6282612cfc565b612e6c8185612e48565b9350612e7c818560208601612d16565b612e8581612735565b840191505092915050565b5f60e0820190508181035f830152612ea8818a612e58565b90508181036020830152612ebc8189612e58565b9050612ecb604083018861261b565b612ed860608301876126ab565b612ee560808301866126ab565b612ef260a08301856126ab565b612eff60c0830184612b12565b98975050505050505050565b7f43616c6c6572206973206e6f7420746865206f776e65720000000000000000005f82015250565b5f612f3f601783612e48565b9150612f4a82612f0b565b602082019050919050565b5f6020820190508181035f830152612f6c81612f33565b9050919050565b7f50726f6a65637420646f6573206e6f74206578697374000000000000000000005f82015250565b5f612fa7601683612e48565b9150612fb282612f73565b602082019050919050565b5f6020820190508181035f830152612fd481612f9b565b9050919050565b7f50726f6a6563742069736e2774206661696c65640000000000000000000000005f82015250565b5f61300f601483612e48565b915061301a82612fdb565b602082019050919050565b5f6020820190508181035f83015261303c81613003565b9050919050565b7f4e487b71000000000000000000000000000000000000000000000000000000005f52603260045260245ffd5b7f4e487b71000000000000000000000000000000000000000000000000000000005f52601160045260245ffd5b5f6130a78261252f565b91506130b28361252f565b92508282019050808211156130ca576130c9613070565b5b92915050565b6130d98161258d565b82525050565b5f6060820190506130f25f8301866130d0565b6130ff602083018561261b565b61310c60408301846126ab565b949350505050565b5f61311e8261252f565b91506131298361252f565b925082820390508181111561314157613140613070565b5b92915050565b7f4e487b71000000000000000000000000000000000000000000000000000000005f52601260045260245ffd5b5f61317e8261252f565b91506131898361252f565b92508261319957613198613147565b5b828204905092915050565b7f50726f6a656374206973206e6f742061637469766500000000000000000000005f82015250565b5f6131d8601583612e48565b91506131e3826131a4565b602082019050919050565b5f6020820190508181035f830152613205816131cc565b9050919050565b5f60408201905061321f5f8301856130d0565b61322c6020830184612b12565b9392505050565b7f46756e64696e6720706572696f64206973206e6f74206f7665722079657400005f82015250565b5f613267601e83612e48565b915061327282613233565b602082019050919050565b5f6020820190508181035f8301526132948161325b565b9050919050565b7f4e6f7468696e6720746f207769746864726177000000000000000000000000005f82015250565b5f6132cf601383612e48565b91506132da8261329b565b602082019050919050565b5f6020820190508181035f8301526132fc816132c3565b9050919050565b7f436f6e7472616374206973206e6f7420706175736564000000000000000000005f82015250565b5f613337601683612e48565b915061334282613303565b602082019050919050565b5f6020820190508181035f8301526133648161332b565b9050919050565b7f50726f6a6563742069736e2774206163746976650000000000000000000000005f82015250565b5f61339f601483612e48565b91506133aa8261336b565b602082019050919050565b5f6020820190508181035f8301526133cc81613393565b9050919050565b7f436f6e747269627574696f6e206d7573742062652067726561746572207468615f8201527f6e207a65726f0000000000000000000000000000000000000000000000000000602082015250565b5f61342d602683612e48565b9150613438826133d3565b604082019050919050565b5f6020820190508181035f83015261345a81613421565b9050919050565b7f4f6e6c792070726f6a6563742063726561746f722063616e2073656e642066755f8201527f6e64730000000000000000000000000000000000000000000000000000000000602082015250565b5f6134bb602383612e48565b91506134c682613461565b604082019050919050565b5f6020820190508181035f8301526134e8816134af565b9050919050565b7f50726f6a656374206973206e6f742066756e64656400000000000000000000005f82015250565b5f613523601583612e48565b915061352e826134ef565b602082019050919050565b5f6020820190508181035f83015261355081613517565b9050919050565b5f819050919050565b5f61357a613575613570846125eb565b613557565b6125eb565b9050919050565b5f61358b82613560565b9050919050565b5f61359c82613581565b9050919050565b6135ac81613592565b82525050565b5f6060820190506135c55f8301866130d0565b6135d260208301856135a3565b6135df60408301846126ab565b949350505050565b7f436f6e74726163742069732070617573656400000000000000000000000000005f82015250565b5f61361b601283612e48565b9150613626826135e7565b602082019050919050565b5f6020820190508181035f8301526136488161360f565b9050919050565b7f546869732075736572206973206e6f742063726561746f72206f6620746869735f8201527f2070726f6a656374000000000000000000000000000000000000000000000000602082015250565b5f6136a9602883612e48565b91506136b48261364f565b604082019050919050565b5f6020820190508181035f8301526136d68161369d565b9050919050565b7f4e487b71000000000000000000000000000000000000000000000000000000005f52602260045260245ffd5b5f600282049050600182168061372157607f821691505b602082108103613734576137336136dd565b5b50919050565b5f819050815f5260205f209050919050565b5f6020601f8301049050919050565b5f82821b905092915050565b5f600883026137967fffffffffffffffffffffffffffffffffffffffffffffffffffffffffffffffff8261375b565b6137a0868361375b565b95508019841693508086168417925050509392505050565b5f6137d26137cd6137c88461252f565b613557565b61252f565b9050919050565b5f819050919050565b6137eb836137b8565b6137ff6137f7826137d9565b848454613767565b825550505050565b5f90565b613813613807565b61381e8184846137e2565b505050565b5b81811015613841576138365f8261380b565b600181019050613824565b5050565b601f821115613886576138578161373a565b6138608461374c565b8101602085101561386f578190505b61388361387b8561374c565b830182613823565b50505b505050565b5f82821c905092915050565b5f6138a65f198460080261388b565b1980831691505092915050565b5f6138be8383613897565b9150826002028217905092915050565b6138d782612cfc565b67ffffffffffffffff8111156138f0576138ef612745565b5b6138fa825461370a565b613905828285613845565b5f60209050601f831160018114613936575f8415613924578287015190505b61392e85826138b3565b865550613995565b601f1984166139448661373a565b5f5b8281101561396b57848901518255600182019150602085019450602081019050613946565b868310156139885784890151613984601f891682613897565b8355505b6001600288020188555050505b505050505050565b5f6040820190506139b05f8301856130d0565b81810360208301526139c28184612e58565b90509392505050565b5f6139d5826129e1565b91506139e0836129e1565b925082820390508181125f8412168282135f851215161715613a0557613a04613070565b5b92915050565b5f613a15826129e1565b9150613a20836129e1565b925082613a3057613a2f613147565b5b60015f0383147f800000000000000000000000000000000000000000000000000000000000000083141615613a6857613a67613070565b5b828205905092915050565b5f613a7d826129e1565b9150613a88836129e1565b92508282019050828112155f8312168382125f841215161715613aae57613aad613070565b5b92915050565b5f81905092915050565b5f613ac882612cfc565b613ad28185613ab4565b9350613ae2818560208601612d16565b80840191505092915050565b5f819050919050565b613b08613b038261252f565b613aee565b82525050565b5f8160601b9050919050565b5f613b2482613b0e565b9050919050565b5f613b3582613b1a565b9050919050565b613b4d613b488261260a565b613b2b565b82525050565b5f613b5e8287613abe565b9150613b6a8286613abe565b9150613b768285613af7565b602082019150613b868284613b3c565b60148201915081905095945050505050565b5f60c082019050613bab5f8301896130d0565b8181036020830152613bbd8188612e58565b90508181036040830152613bd18187612e58565b9050613be0606083018661261b565b613bed60808301856126ab565b613bfa60a08301846126ab565b979650505050505050565b5f613c0f8261252f565b9150613c1a8361252f565b9250828202613c288161252f565b91508282048414831517613c3f57613c3e613070565b5b5092915050565b5f613c508261252f565b91507fffffffffffffffffffffffffffffffffffffffffffffffffffffffffffffffff8203613c8257613c81613070565b5b600182019050919050565b5f613c978261252f565b91505f8203613ca957613ca8613070565b5b60018203905091905056fea264697066735822122065f1be307645663d51ce0c3188201d7e18748f3232a721b120c3c3b79c33962864736f6c634300081a0033",
			"opcodes": "PUSH1 0x80 PUSH1 0x40 MSTORE PUSH2 0x1EA PUSH1 0x1 SSTORE PUSH2 0x122 PUSH1 0x2 SSTORE CALLVALUE DUP1 ISZERO PUSH1 0x1A JUMPI PUSH0 DUP1 REVERT JUMPDEST POP CALLER PUSH0 DUP1 PUSH2 0x100 EXP DUP2 SLOAD DUP2 PUSH20 0xFFFFFFFFFFFFFFFFFFFFFFFFFFFFFFFFFFFFFFFF MUL NOT AND SWAP1 DUP4 PUSH20 0xFFFFFFFFFFFFFFFFFFFFFFFFFFFFFFFFFFFFFFFF AND MUL OR SWAP1 SSTORE POP PUSH2 0x3CEA DUP1 PUSH2 0x67 PUSH0 CODECOPY PUSH0 RETURN INVALID PUSH1 0x80 PUSH1 0x40 MSTORE PUSH1 0x4 CALLDATASIZE LT PUSH2 0x1BA JUMPI PUSH0 CALLDATALOAD PUSH1 0xE0 SHR DUP1 PUSH4 0x88559468 GT PUSH2 0xEB JUMPI DUP1 PUSH4 0xC12483D4 GT PUSH2 0x89 JUMPI DUP1 PUSH4 0xD874CF64 GT PUSH2 0x63 JUMPI DUP1 PUSH4 0xD874CF64 EQ PUSH2 0x5EC JUMPI DUP1 PUSH4 0xEA4A873C EQ PUSH2 0x614 JUMPI DUP1 PUSH4 0xF08A64E6 EQ PUSH2 0x650 JUMPI DUP1 PUSH4 0xF88FB6CF EQ PUSH2 0x67A JUMPI PUSH2 0x1C1 JUMP JUMPDEST DUP1 PUSH4 0xC12483D4 EQ PUSH2 0x54A JUMPI DUP1 PUSH4 0xD10797CF EQ PUSH2 0x586 JUMPI DUP1 PUSH4 0xD3D6A117 EQ PUSH2 0x5C2 JUMPI PUSH2 0x1C1 JUMP JUMPDEST DUP1 PUSH4 0xA1BDAE45 GT PUSH2 0xC5 JUMPI DUP1 PUSH4 0xA1BDAE45 EQ PUSH2 0x47E JUMPI DUP1 PUSH4 0xA81AE362 EQ PUSH2 0x4BA JUMPI DUP1 PUSH4 0xBBDB284F EQ PUSH2 0x4F6 JUMPI DUP1 PUSH4 0xBF6FAEDC EQ PUSH2 0x520 JUMPI PUSH2 0x1C1 JUMP JUMPDEST DUP1 PUSH4 0x88559468 EQ PUSH2 0x3F2 JUMPI DUP1 PUSH4 0x89022FF3 EQ PUSH2 0x41A JUMPI DUP1 PUSH4 0x94BA9709 EQ PUSH2 0x456 JUMPI PUSH2 0x1C1 JUMP JUMPDEST DUP1 PUSH4 0x3F4BA83A GT PUSH2 0x158 JUMPI DUP1 PUSH4 0x6E0ACE70 GT PUSH2 0x132 JUMPI DUP1 PUSH4 0x6E0ACE70 EQ PUSH2 0x360 JUMPI DUP1 PUSH4 0x7B18D3E7 EQ PUSH2 0x388 JUMPI DUP1 PUSH4 0x8456CB59 EQ PUSH2 0x3B2 JUMPI DUP1 PUSH4 0x85D79102 EQ PUSH2 0x3C8 JUMPI PUSH2 0x1C1 JUMP JUMPDEST DUP1 PUSH4 0x3F4BA83A EQ PUSH2 0x306 JUMPI DUP1 PUSH4 0x4A83B226 EQ PUSH2 0x31C JUMPI DUP1 PUSH4 0x64088BB8 EQ PUSH2 0x338 JUMPI PUSH2 0x1C1 JUMP JUMPDEST DUP1 PUSH4 0xF26BB9C GT PUSH2 0x194 JUMPI DUP1 PUSH4 0xF26BB9C EQ PUSH2 0x24F JUMPI DUP1 PUSH4 0x2F2FAFCD EQ PUSH2 0x28C JUMPI DUP1 PUSH4 0x38975895 EQ PUSH2 0x2B4 JUMPI DUP1 PUSH4 0x3CCFD60B EQ PUSH2 0x2F0 JUMPI PUSH2 0x1C1 JUMP JUMPDEST DUP1 PUSH4 0x96A8AB7 EQ PUSH2 0x1C3 JUMPI DUP1 PUSH4 0xB207621 EQ PUSH2 0x1EB JUMPI DUP1 PUSH4 0xD93DAB8 EQ PUSH2 0x227 JUMPI PUSH2 0x1C1 JUMP JUMPDEST CALLDATASIZE PUSH2 0x1C1 JUMPI STOP JUMPDEST STOP JUMPDEST CALLVALUE DUP1 ISZERO PUSH2 0x1CE JUMPI PUSH0 DUP1 REVERT JUMPDEST POP PUSH2 0x1E9 PUSH1 0x4 DUP1 CALLDATASIZE SUB DUP2 ADD SWAP1 PUSH2 0x1E4 SWAP2 SWAP1 PUSH2 0x2562 JUMP JUMPDEST PUSH2 0x6BC JUMP JUMPDEST STOP JUMPDEST CALLVALUE DUP1 ISZERO PUSH2 0x1F6 JUMPI PUSH0 DUP1 REVERT JUMPDEST POP PUSH2 0x211 PUSH1 0x4 DUP1 CALLDATASIZE SUB DUP2 ADD SWAP1 PUSH2 0x20C SWAP2 SWAP1 PUSH2 0x25C0 JUMP JUMPDEST PUSH2 0x753 JUMP JUMPDEST PUSH1 0x40 MLOAD PUSH2 0x21E SWAP2 SWAP1 PUSH2 0x262A JUMP JUMPDEST PUSH1 0x40 MLOAD DUP1 SWAP2 SUB SWAP1 RETURN JUMPDEST CALLVALUE DUP1 ISZERO PUSH2 0x232 JUMPI PUSH0 DUP1 REVERT JUMPDEST POP PUSH2 0x24D PUSH1 0x4 DUP1 CALLDATASIZE SUB DUP2 ADD SWAP1 PUSH2 0x248 SWAP2 SWAP1 PUSH2 0x25C0 JUMP JUMPDEST PUSH2 0x78F JUMP JUMPDEST STOP JUMPDEST CALLVALUE DUP1 ISZERO PUSH2 0x25A JUMPI PUSH0 DUP1 REVERT JUMPDEST POP PUSH2 0x275 PUSH1 0x4 DUP1 CALLDATASIZE SUB DUP2 ADD SWAP1 PUSH2 0x270 SWAP2 SWAP1 PUSH2 0x266D JUMP JUMPDEST PUSH2 0x978 JUMP JUMPDEST PUSH1 0x40 MLOAD PUSH2 0x283 SWAP3 SWAP2 SWAP1 PUSH2 0x26D4 JUMP JUMPDEST PUSH1 0x40 MLOAD DUP1 SWAP2 SUB SWAP1 RETURN JUMPDEST CALLVALUE DUP1 ISZERO PUSH2 0x297 JUMPI PUSH0 DUP1 REVERT JUMPDEST POP PUSH2 0x2B2 PUSH1 0x4 DUP1 CALLDATASIZE SUB DUP2 ADD SWAP1 PUSH2 0x2AD SWAP2 SWAP1 PUSH2 0x25C0 JUMP JUMPDEST PUSH2 0xB28 JUMP JUMPDEST STOP JUMPDEST CALLVALUE DUP1 ISZERO PUSH2 0x2BF JUMPI PUSH0 DUP1 REVERT JUMPDEST POP PUSH2 0x2DA PUSH1 0x4 DUP1 CALLDATASIZE SUB DUP2 ADD SWAP1 PUSH2 0x2D5 SWAP2 SWAP1 PUSH2 0x25C0 JUMP JUMPDEST PUSH2 0xD3C JUMP JUMPDEST PUSH1 0x40 MLOAD PUSH2 0x2E7 SWAP2 SWAP1 PUSH2 0x26FB JUMP JUMPDEST PUSH1 0x40 MLOAD DUP1 SWAP2 SUB SWAP1 RETURN JUMPDEST CALLVALUE DUP1 ISZERO PUSH2 0x2FB JUMPI PUSH0 DUP1 REVERT JUMPDEST POP PUSH2 0x304 PUSH2 0xD66 JUMP JUMPDEST STOP JUMPDEST CALLVALUE DUP1 ISZERO PUSH2 0x311 JUMPI PUSH0 DUP1 REVERT JUMPDEST POP PUSH2 0x31A PUSH2 0xE72 JUMP JUMPDEST STOP JUMPDEST PUSH2 0x336 PUSH1 0x4 DUP1 CALLDATASIZE SUB DUP2 ADD SWAP1 PUSH2 0x331 SWAP2 SWAP1 PUSH2 0x25C0 JUMP JUMPDEST PUSH2 0xF68 JUMP JUMPDEST STOP JUMPDEST CALLVALUE DUP1 ISZERO PUSH2 0x343 JUMPI PUSH0 DUP1 REVERT JUMPDEST POP PUSH2 0x35E PUSH1 0x4 DUP1 CALLDATASIZE SUB DUP2 ADD SWAP1 PUSH2 0x359 SWAP2 SWAP1 PUSH2 0x2562 JUMP JUMPDEST PUSH2 0x11DF JUMP JUMPDEST STOP JUMPDEST CALLVALUE DUP1 ISZERO PUSH2 0x36B JUMPI PUSH0 DUP1 REVERT JUMPDEST POP PUSH2 0x386 PUSH1 0x4 DUP1 CALLDATASIZE SUB DUP2 ADD SWAP1 PUSH2 0x381 SWAP2 SWAP1 PUSH2 0x25C0 JUMP JUMPDEST PUSH2 0x1276 JUMP JUMPDEST STOP JUMPDEST CALLVALUE DUP1 ISZERO PUSH2 0x393 JUMPI PUSH0 DUP1 REVERT JUMPDEST POP PUSH2 0x39C PUSH2 0x1464 JUMP JUMPDEST PUSH1 0x40 MLOAD PUSH2 0x3A9 SWAP2 SWAP1 PUSH2 0x2714 JUMP JUMPDEST PUSH1 0x40 MLOAD DUP1 SWAP2 SUB SWAP1 RETURN JUMPDEST CALLVALUE DUP1 ISZERO PUSH2 0x3BD JUMPI PUSH0 DUP1 REVERT JUMPDEST POP PUSH2 0x3C6 PUSH2 0x146A JUMP JUMPDEST STOP JUMPDEST CALLVALUE DUP1 ISZERO PUSH2 0x3D3 JUMPI PUSH0 DUP1 REVERT JUMPDEST POP PUSH2 0x3DC PUSH2 0x1562 JUMP JUMPDEST PUSH1 0x40 MLOAD PUSH2 0x3E9 SWAP2 SWAP1 PUSH2 0x2714 JUMP JUMPDEST PUSH1 0x40 MLOAD DUP1 SWAP2 SUB SWAP1 RETURN JUMPDEST CALLVALUE DUP1 ISZERO PUSH2 0x3FD JUMPI PUSH0 DUP1 REVERT JUMPDEST POP PUSH2 0x418 PUSH1 0x4 DUP1 CALLDATASIZE SUB DUP2 ADD SWAP1 PUSH2 0x413 SWAP2 SWAP1 PUSH2 0x2869 JUMP JUMPDEST PUSH2 0x156B JUMP JUMPDEST STOP JUMPDEST CALLVALUE DUP1 ISZERO PUSH2 0x425 JUMPI PUSH0 DUP1 REVERT JUMPDEST POP PUSH2 0x440 PUSH1 0x4 DUP1 CALLDATASIZE SUB DUP2 ADD SWAP1 PUSH2 0x43B SWAP2 SWAP1 PUSH2 0x2987 JUMP JUMPDEST PUSH2 0x1730 JUMP JUMPDEST PUSH1 0x40 MLOAD PUSH2 0x44D SWAP2 SWAP1 PUSH2 0x29F9 JUMP JUMPDEST PUSH1 0x40 MLOAD DUP1 SWAP2 SUB SWAP1 RETURN JUMPDEST CALLVALUE DUP1 ISZERO PUSH2 0x461 JUMPI PUSH0 DUP1 REVERT JUMPDEST POP PUSH2 0x47C PUSH1 0x4 DUP1 CALLDATASIZE SUB DUP2 ADD SWAP1 PUSH2 0x477 SWAP2 SWAP1 PUSH2 0x2A12 JUMP JUMPDEST PUSH2 0x1804 JUMP JUMPDEST STOP JUMPDEST CALLVALUE DUP1 ISZERO PUSH2 0x489 JUMPI PUSH0 DUP1 REVERT JUMPDEST POP PUSH2 0x4A4 PUSH1 0x4 DUP1 CALLDATASIZE SUB DUP2 ADD SWAP1 PUSH2 0x49F SWAP2 SWAP1 PUSH2 0x25C0 JUMP JUMPDEST PUSH2 0x1B39 JUMP JUMPDEST PUSH1 0x40 MLOAD PUSH2 0x4B1 SWAP2 SWAP1 PUSH2 0x2B21 JUMP JUMPDEST PUSH1 0x40 MLOAD DUP1 SWAP2 SUB SWAP1 RETURN JUMPDEST CALLVALUE DUP1 ISZERO PUSH2 0x4C5 JUMPI PUSH0 DUP1 REVERT JUMPDEST POP PUSH2 0x4E0 PUSH1 0x4 DUP1 CALLDATASIZE SUB DUP2 ADD SWAP1 PUSH2 0x4DB SWAP2 SWAP1 PUSH2 0x25C0 JUMP JUMPDEST PUSH2 0x1B62 JUMP JUMPDEST PUSH1 0x40 MLOAD PUSH2 0x4ED SWAP2 SWAP1 PUSH2 0x2714 JUMP JUMPDEST PUSH1 0x40 MLOAD DUP1 SWAP2 SUB SWAP1 RETURN JUMPDEST CALLVALUE DUP1 ISZERO PUSH2 0x501 JUMPI PUSH0 DUP1 REVERT JUMPDEST POP PUSH2 0x50A PUSH2 0x1BBF JUMP JUMPDEST PUSH1 0x40 MLOAD PUSH2 0x517 SWAP2 SWAP1 PUSH2 0x2714 JUMP JUMPDEST PUSH1 0x40 MLOAD DUP1 SWAP2 SUB SWAP1 RETURN JUMPDEST CALLVALUE DUP1 ISZERO PUSH2 0x52B JUMPI PUSH0 DUP1 REVERT JUMPDEST POP PUSH2 0x534 PUSH2 0x1BC8 JUMP JUMPDEST PUSH1 0x40 MLOAD PUSH2 0x541 SWAP2 SWAP1 PUSH2 0x2714 JUMP JUMPDEST PUSH1 0x40 MLOAD DUP1 SWAP2 SUB SWAP1 RETURN JUMPDEST CALLVALUE DUP1 ISZERO PUSH2 0x555 JUMPI PUSH0 DUP1 REVERT JUMPDEST POP PUSH2 0x570 PUSH1 0x4 DUP1 CALLDATASIZE SUB DUP2 ADD SWAP1 PUSH2 0x56B SWAP2 SWAP1 PUSH2 0x2B3A JUMP JUMPDEST PUSH2 0x1BCE JUMP JUMPDEST PUSH1 0x40 MLOAD PUSH2 0x57D SWAP2 SWAP1 PUSH2 0x2C38 JUMP JUMPDEST PUSH1 0x40 MLOAD DUP1 SWAP2 SUB SWAP1 RETURN JUMPDEST CALLVALUE DUP1 ISZERO PUSH2 0x591 JUMPI PUSH0 DUP1 REVERT JUMPDEST POP PUSH2 0x5AC PUSH1 0x4 DUP1 CALLDATASIZE SUB DUP2 ADD SWAP1 PUSH2 0x5A7 SWAP2 SWAP1 PUSH2 0x25C0 JUMP JUMPDEST PUSH2 0x1E1B JUMP JUMPDEST PUSH1 0x40 MLOAD PUSH2 0x5B9 SWAP2 SWAP1 PUSH2 0x2B21 JUMP JUMPDEST PUSH1 0x40 MLOAD DUP1 SWAP2 SUB SWAP1 RETURN JUMPDEST CALLVALUE DUP1 ISZERO PUSH2 0x5CD JUMPI PUSH0 DUP1 REVERT JUMPDEST POP PUSH2 0x5D6 PUSH2 0x1E44 JUMP JUMPDEST PUSH1 0x40 MLOAD PUSH2 0x5E3 SWAP2 SWAP1 PUSH2 0x2714 JUMP JUMPDEST PUSH1 0x40 MLOAD DUP1 SWAP2 SUB SWAP1 RETURN JUMPDEST CALLVALUE DUP1 ISZERO PUSH2 0x5F7 JUMPI PUSH0 DUP1 REVERT JUMPDEST POP PUSH2 0x612 PUSH1 0x4 DUP1 CALLDATASIZE SUB DUP2 ADD SWAP1 PUSH2 0x60D SWAP2 SWAP1 PUSH2 0x2C58 JUMP JUMPDEST PUSH2 0x1E50 JUMP JUMPDEST STOP JUMPDEST CALLVALUE DUP1 ISZERO PUSH2 0x61F JUMPI PUSH0 DUP1 REVERT JUMPDEST POP PUSH2 0x63A PUSH1 0x4 DUP1 CALLDATASIZE SUB DUP2 ADD SWAP1 PUSH2 0x635 SWAP2 SWAP1 PUSH2 0x25C0 JUMP JUMPDEST PUSH2 0x2027 JUMP JUMPDEST PUSH1 0x40 MLOAD PUSH2 0x647 SWAP2 SWAP1 PUSH2 0x2E28 JUMP JUMPDEST PUSH1 0x40 MLOAD DUP1 SWAP2 SUB SWAP1 RETURN JUMPDEST CALLVALUE DUP1 ISZERO PUSH2 0x65B JUMPI PUSH0 DUP1 REVERT JUMPDEST POP PUSH2 0x664 PUSH2 0x212D JUMP JUMPDEST PUSH1 0x40 MLOAD PUSH2 0x671 SWAP2 SWAP1 PUSH2 0x2C38 JUMP JUMPDEST PUSH1 0x40 MLOAD DUP1 SWAP2 SUB SWAP1 RETURN JUMPDEST CALLVALUE DUP1 ISZERO PUSH2 0x685 JUMPI PUSH0 DUP1 REVERT JUMPDEST POP PUSH2 0x6A0 PUSH1 0x4 DUP1 CALLDATASIZE SUB DUP2 ADD SWAP1 PUSH2 0x69B SWAP2 SWAP1 PUSH2 0x25C0 JUMP JUMPDEST PUSH2 0x21BE JUMP JUMPDEST PUSH1 0x40 MLOAD PUSH2 0x6B3 SWAP8 SWAP7 SWAP6 SWAP5 SWAP4 SWAP3 SWAP2 SWAP1 PUSH2 0x2E90 JUMP JUMPDEST PUSH1 0x40 MLOAD DUP1 SWAP2 SUB SWAP1 RETURN JUMPDEST PUSH0 DUP1 SLOAD SWAP1 PUSH2 0x100 EXP SWAP1 DIV PUSH20 0xFFFFFFFFFFFFFFFFFFFFFFFFFFFFFFFFFFFFFFFF AND PUSH20 0xFFFFFFFFFFFFFFFFFFFFFFFFFFFFFFFFFFFFFFFF AND CALLER PUSH20 0xFFFFFFFFFFFFFFFFFFFFFFFFFFFFFFFFFFFFFFFF AND EQ PUSH2 0x749 JUMPI PUSH1 0x40 MLOAD PUSH32 0x8C379A000000000000000000000000000000000000000000000000000000000 DUP2 MSTORE PUSH1 0x4 ADD PUSH2 0x740 SWAP1 PUSH2 0x2F55 JUMP JUMPDEST PUSH1 0x40 MLOAD DUP1 SWAP2 SUB SWAP1 REVERT JUMPDEST DUP1 PUSH1 0x2 DUP2 SWAP1 SSTORE POP POP JUMP JUMPDEST PUSH0 PUSH1 0x7 PUSH0 DUP4 DUP2 MSTORE PUSH1 0x20 ADD SWAP1 DUP2 MSTORE PUSH1 0x20 ADD PUSH0 KECCAK256 PUSH1 0x2 ADD PUSH0 SWAP1 SLOAD SWAP1 PUSH2 0x100 EXP SWAP1 DIV PUSH20 0xFFFFFFFFFFFFFFFFFFFFFFFFFFFFFFFFFFFFFFFF AND SWAP1 POP SWAP2 SWAP1 POP JUMP JUMPDEST PUSH2 0x798 DUP2 PUSH2 0xD3C JUMP JUMPDEST PUSH2 0x7D7 JUMPI PUSH1 0x40 MLOAD PUSH32 0x8C379A000000000000000000000000000000000000000000000000000000000 DUP2 MSTORE PUSH1 0x4 ADD PUSH2 0x7CE SWAP1 PUSH2 0x2FBD JUMP JUMPDEST PUSH1 0x40 MLOAD DUP1 SWAP2 SUB SWAP1 REVERT JUMPDEST PUSH0 PUSH2 0x7E1 DUP3 PUSH2 0x1E1B JUMP JUMPDEST SWAP1 POP PUSH1 0x2 DUP1 DUP2 GT ISZERO PUSH2 0x7F6 JUMPI PUSH2 0x7F5 PUSH2 0x2AAE JUMP JUMPDEST JUMPDEST DUP2 PUSH1 0x2 DUP2 GT ISZERO PUSH2 0x809 JUMPI PUSH2 0x808 PUSH2 0x2AAE JUMP JUMPDEST JUMPDEST EQ PUSH2 0x849 JUMPI PUSH1 0x40 MLOAD PUSH32 0x8C379A000000000000000000000000000000000000000000000000000000000 DUP2 MSTORE PUSH1 0x4 ADD PUSH2 0x840 SWAP1 PUSH2 0x3025 JUMP JUMPDEST PUSH1 0x40 MLOAD DUP1 SWAP2 SUB SWAP1 REVERT JUMPDEST PUSH0 PUSH1 0x6 PUSH0 DUP5 DUP2 MSTORE PUSH1 0x20 ADD SWAP1 DUP2 MSTORE PUSH1 0x20 ADD PUSH0 KECCAK256 SWAP1 POP PUSH0 JUMPDEST DUP2 DUP1 SLOAD SWAP1 POP DUP2 LT ISZERO PUSH2 0x972 JUMPI PUSH0 DUP3 DUP3 DUP2 SLOAD DUP2 LT PUSH2 0x87F JUMPI PUSH2 0x87E PUSH2 0x3043 JUMP JUMPDEST JUMPDEST SWAP1 PUSH0 MSTORE PUSH1 0x20 PUSH0 KECCAK256 SWAP1 PUSH1 0x2 MUL ADD PUSH0 ADD PUSH0 SWAP1 SLOAD SWAP1 PUSH2 0x100 EXP SWAP1 DIV PUSH20 0xFFFFFFFFFFFFFFFFFFFFFFFFFFFFFFFFFFFFFFFF AND SWAP1 POP PUSH0 DUP4 DUP4 DUP2 SLOAD DUP2 LT PUSH2 0x8C3 JUMPI PUSH2 0x8C2 PUSH2 0x3043 JUMP JUMPDEST JUMPDEST SWAP1 PUSH0 MSTORE PUSH1 0x20 PUSH0 KECCAK256 SWAP1 PUSH1 0x2 MUL ADD PUSH1 0x1 ADD SLOAD SWAP1 POP DUP1 PUSH1 0x4 PUSH0 DUP5 PUSH20 0xFFFFFFFFFFFFFFFFFFFFFFFFFFFFFFFFFFFFFFFF AND PUSH20 0xFFFFFFFFFFFFFFFFFFFFFFFFFFFFFFFFFFFFFFFF AND DUP2 MSTORE PUSH1 0x20 ADD SWAP1 DUP2 MSTORE PUSH1 0x20 ADD PUSH0 KECCAK256 PUSH0 DUP3 DUP3 SLOAD PUSH2 0x921 SWAP2 SWAP1 PUSH2 0x309D JUMP JUMPDEST SWAP3 POP POP DUP2 SWAP1 SSTORE POP PUSH32 0xF8590CD6B8C44BE7A2BC57131F10E203EC5F7D7F2F761E1508A8CC964ECB9EB7 DUP7 DUP4 DUP4 PUSH1 0x40 MLOAD PUSH2 0x95B SWAP4 SWAP3 SWAP2 SWAP1 PUSH2 0x30DF JUMP JUMPDEST PUSH1 0x40 MLOAD DUP1 SWAP2 SUB SWAP1 LOG1 POP POP DUP1 DUP1 PUSH1 0x1 ADD SWAP2 POP POP PUSH2 0x85F JUMP JUMPDEST POP POP POP POP JUMP JUMPDEST PUSH0 DUP1 PUSH0 PUSH1 0x6 PUSH0 DUP7 DUP2 MSTORE PUSH1 0x20 ADD SWAP1 DUP2 MSTORE PUSH1 0x20 ADD PUSH0 KECCAK256 SWAP1 POP PUSH0 DUP1 DUP3 DUP1 SLOAD SWAP1 POP SUB PUSH2 0x9A7 JUMPI PUSH0 DUP1 SWAP4 POP SWAP4 POP POP POP PUSH2 0xB21 JUMP JUMPDEST PUSH0 PUSH1 0x1 DUP4 DUP1 SLOAD SWAP1 POP PUSH2 0x9B9 SWAP2 SWAP1 PUSH2 0x3114 JUMP JUMPDEST SWAP1 POP JUMPDEST DUP1 DUP3 GT PUSH2 0xB17 JUMPI PUSH0 PUSH1 0x2 DUP4 DUP4 PUSH2 0x9D2 SWAP2 SWAP1 PUSH2 0x3114 JUMP JUMPDEST PUSH2 0x9DC SWAP2 SWAP1 PUSH2 0x3174 JUMP JUMPDEST DUP4 PUSH2 0x9E7 SWAP2 SWAP1 PUSH2 0x309D JUMP JUMPDEST SWAP1 POP DUP7 PUSH20 0xFFFFFFFFFFFFFFFFFFFFFFFFFFFFFFFFFFFFFFFF AND DUP5 DUP3 DUP2 SLOAD DUP2 LT PUSH2 0xA13 JUMPI PUSH2 0xA12 PUSH2 0x3043 JUMP JUMPDEST JUMPDEST SWAP1 PUSH0 MSTORE PUSH1 0x20 PUSH0 KECCAK256 SWAP1 PUSH1 0x2 MUL ADD PUSH0 ADD PUSH0 SWAP1 SLOAD SWAP1 PUSH2 0x100 EXP SWAP1 DIV PUSH20 0xFFFFFFFFFFFFFFFFFFFFFFFFFFFFFFFFFFFFFFFF AND PUSH20 0xFFFFFFFFFFFFFFFFFFFFFFFFFFFFFFFFFFFFFFFF AND SUB PUSH2 0xA6C JUMPI DUP1 PUSH1 0x1 SWAP6 POP SWAP6 POP POP POP POP POP PUSH2 0xB21 JUMP JUMPDEST DUP7 PUSH20 0xFFFFFFFFFFFFFFFFFFFFFFFFFFFFFFFFFFFFFFFF AND DUP5 DUP3 DUP2 SLOAD DUP2 LT PUSH2 0xA96 JUMPI PUSH2 0xA95 PUSH2 0x3043 JUMP JUMPDEST JUMPDEST SWAP1 PUSH0 MSTORE PUSH1 0x20 PUSH0 KECCAK256 SWAP1 PUSH1 0x2 MUL ADD PUSH0 ADD PUSH0 SWAP1 SLOAD SWAP1 PUSH2 0x100 EXP SWAP1 DIV PUSH20 0xFFFFFFFFFFFFFFFFFFFFFFFFFFFFFFFFFFFFFFFF AND PUSH20 0xFFFFFFFFFFFFFFFFFFFFFFFFFFFFFFFFFFFFFFFF AND LT ISZERO PUSH2 0xAF4 JUMPI PUSH1 0x1 DUP2 PUSH2 0xAED SWAP2 SWAP1 PUSH2 0x309D JUMP JUMPDEST SWAP3 POP PUSH2 0xB11 JUMP JUMPDEST PUSH0 DUP2 SUB PUSH2 0xB01 JUMPI POP PUSH2 0xB17 JUMP JUMPDEST PUSH1 0x1 DUP2 PUSH2 0xB0E SWAP2 SWAP1 PUSH2 0x3114 JUMP JUMPDEST SWAP2 POP JUMPDEST POP PUSH2 0x9BC JUMP JUMPDEST PUSH0 DUP1 SWAP5 POP SWAP5 POP POP POP POP JUMPDEST SWAP3 POP SWAP3 SWAP1 POP JUMP JUMPDEST PUSH2 0xB31 DUP2 PUSH2 0xD3C JUMP JUMPDEST PUSH2 0xB70 JUMPI PUSH1 0x40 MLOAD PUSH32 0x8C379A000000000000000000000000000000000000000000000000000000000 DUP2 MSTORE PUSH1 0x4 ADD PUSH2 0xB67 SWAP1 PUSH2 0x2FBD JUMP JUMPDEST PUSH1 0x40 MLOAD DUP1 SWAP2 SUB SWAP1 REVERT JUMPDEST PUSH0 PUSH1 0x7 PUSH0 DUP4 DUP2 MSTORE PUSH1 0x20 ADD SWAP1 DUP2 MSTORE PUSH1 0x20 ADD PUSH0 KECCAK256 SWAP1 POP PUSH0 PUSH1 0x2 DUP2 GT ISZERO PUSH2 0xB97 JUMPI PUSH2 0xB96 PUSH2 0x2AAE JUMP JUMPDEST JUMPDEST DUP2 PUSH1 0x6 ADD PUSH0 SWAP1 SLOAD SWAP1 PUSH2 0x100 EXP SWAP1 DIV PUSH1 0xFF AND PUSH1 0x2 DUP2 GT ISZERO PUSH2 0xBBA JUMPI PUSH2 0xBB9 PUSH2 0x2AAE JUMP JUMPDEST JUMPDEST EQ PUSH2 0xBFA JUMPI PUSH1 0x40 MLOAD PUSH32 0x8C379A000000000000000000000000000000000000000000000000000000000 DUP2 MSTORE PUSH1 0x4 ADD PUSH2 0xBF1 SWAP1 PUSH2 0x31EE JUMP JUMPDEST PUSH1 0x40 MLOAD DUP1 SWAP2 SUB SWAP1 REVERT JUMPDEST DUP1 PUSH1 0x5 ADD SLOAD TIMESTAMP LT PUSH2 0xCFD JUMPI DUP1 PUSH1 0x3 ADD SLOAD DUP2 PUSH1 0x4 ADD SLOAD LT PUSH2 0xC88 JUMPI PUSH1 0x1 DUP2 PUSH1 0x6 ADD PUSH0 PUSH2 0x100 EXP DUP2 SLOAD DUP2 PUSH1 0xFF MUL NOT AND SWAP1 DUP4 PUSH1 0x2 DUP2 GT ISZERO PUSH2 0xC3B JUMPI PUSH2 0xC3A PUSH2 0x2AAE JUMP JUMPDEST JUMPDEST MUL OR SWAP1 SSTORE POP PUSH32 0x9429FFD66955B0A50202AEF461A5C7CC17723D8735DE36B6119776D3511D7C4F DUP3 PUSH1 0x1 PUSH1 0x40 MLOAD PUSH2 0xC72 SWAP3 SWAP2 SWAP1 PUSH2 0x320C JUMP JUMPDEST PUSH1 0x40 MLOAD DUP1 SWAP2 SUB SWAP1 LOG1 PUSH2 0xC83 DUP3 PUSH2 0x1276 JUMP JUMPDEST PUSH2 0xCF8 JUMP JUMPDEST PUSH1 0x2 DUP2 PUSH1 0x6 ADD PUSH0 PUSH2 0x100 EXP DUP2 SLOAD DUP2 PUSH1 0xFF MUL NOT AND SWAP1 DUP4 PUSH1 0x2 DUP2 GT ISZERO PUSH2 0xCAF JUMPI PUSH2 0xCAE PUSH2 0x2AAE JUMP JUMPDEST JUMPDEST MUL OR SWAP1 SSTORE POP PUSH32 0x9429FFD66955B0A50202AEF461A5C7CC17723D8735DE36B6119776D3511D7C4F DUP3 PUSH1 0x1 PUSH1 0x40 MLOAD PUSH2 0xCE6 SWAP3 SWAP2 SWAP1 PUSH2 0x320C JUMP JUMPDEST PUSH1 0x40 MLOAD DUP1 SWAP2 SUB SWAP1 LOG1 PUSH2 0xCF7 DUP3 PUSH2 0x78F JUMP JUMPDEST JUMPDEST PUSH2 0xD38 JUMP JUMPDEST PUSH1 0x40 MLOAD PUSH32 0x8C379A000000000000000000000000000000000000000000000000000000000 DUP2 MSTORE PUSH1 0x4 ADD PUSH2 0xD2F SWAP1 PUSH2 0x327D JUMP JUMPDEST PUSH1 0x40 MLOAD DUP1 SWAP2 SUB SWAP1 REVERT JUMPDEST POP POP JUMP JUMPDEST PUSH0 PUSH1 0x7 PUSH0 DUP4 DUP2 MSTORE PUSH1 0x20 ADD SWAP1 DUP2 MSTORE PUSH1 0x20 ADD PUSH0 KECCAK256 PUSH1 0x6 ADD PUSH1 0x1 SWAP1 SLOAD SWAP1 PUSH2 0x100 EXP SWAP1 DIV PUSH1 0xFF AND SWAP1 POP SWAP2 SWAP1 POP JUMP JUMPDEST PUSH0 PUSH1 0x4 PUSH0 CALLER PUSH20 0xFFFFFFFFFFFFFFFFFFFFFFFFFFFFFFFFFFFFFFFF AND PUSH20 0xFFFFFFFFFFFFFFFFFFFFFFFFFFFFFFFFFFFFFFFF AND DUP2 MSTORE PUSH1 0x20 ADD SWAP1 DUP2 MSTORE PUSH1 0x20 ADD PUSH0 KECCAK256 SLOAD SWAP1 POP PUSH0 DUP2 GT PUSH2 0xDE9 JUMPI PUSH1 0x40 MLOAD PUSH32 0x8C379A000000000000000000000000000000000000000000000000000000000 DUP2 MSTORE PUSH1 0x4 ADD PUSH2 0xDE0 SWAP1 PUSH2 0x32E5 JUMP JUMPDEST PUSH1 0x40 MLOAD DUP1 SWAP2 SUB SWAP1 REVERT JUMPDEST PUSH0 PUSH1 0x4 PUSH0 CALLER PUSH20 0xFFFFFFFFFFFFFFFFFFFFFFFFFFFFFFFFFFFFFFFF AND PUSH20 0xFFFFFFFFFFFFFFFFFFFFFFFFFFFFFFFFFFFFFFFF AND DUP2 MSTORE PUSH1 0x20 ADD SWAP1 DUP2 MSTORE PUSH1 0x20 ADD PUSH0 KECCAK256 DUP2 SWAP1 SSTORE POP CALLER PUSH20 0xFFFFFFFFFFFFFFFFFFFFFFFFFFFFFFFFFFFFFFFF AND PUSH2 0x8FC DUP3 SWAP1 DUP2 ISZERO MUL SWAP1 PUSH1 0x40 MLOAD PUSH0 PUSH1 0x40 MLOAD DUP1 DUP4 SUB DUP2 DUP6 DUP9 DUP9 CALL SWAP4 POP POP POP POP ISZERO DUP1 ISZERO PUSH2 0xE6E JUMPI RETURNDATASIZE PUSH0 DUP1 RETURNDATACOPY RETURNDATASIZE PUSH0 REVERT JUMPDEST POP POP JUMP JUMPDEST PUSH0 PUSH1 0x14 SWAP1 SLOAD SWAP1 PUSH2 0x100 EXP SWAP1 DIV PUSH1 0xFF AND PUSH2 0xEC0 JUMPI PUSH1 0x40 MLOAD PUSH32 0x8C379A000000000000000000000000000000000000000000000000000000000 DUP2 MSTORE PUSH1 0x4 ADD PUSH2 0xEB7 SWAP1 PUSH2 0x334D JUMP JUMPDEST PUSH1 0x40 MLOAD DUP1 SWAP2 SUB SWAP1 REVERT JUMPDEST PUSH0 DUP1 SLOAD SWAP1 PUSH2 0x100 EXP SWAP1 DIV PUSH20 0xFFFFFFFFFFFFFFFFFFFFFFFFFFFFFFFFFFFFFFFF AND PUSH20 0xFFFFFFFFFFFFFFFFFFFFFFFFFFFFFFFFFFFFFFFF AND CALLER PUSH20 0xFFFFFFFFFFFFFFFFFFFFFFFFFFFFFFFFFFFFFFFF AND EQ PUSH2 0xF4D JUMPI PUSH1 0x40 MLOAD PUSH32 0x8C379A000000000000000000000000000000000000000000000000000000000 DUP2 MSTORE PUSH1 0x4 ADD PUSH2 0xF44 SWAP1 PUSH2 0x2F55 JUMP JUMPDEST PUSH1 0x40 MLOAD DUP1 SWAP2 SUB SWAP1 REVERT JUMPDEST PUSH0 DUP1 PUSH1 0x14 PUSH2 0x100 EXP DUP2 SLOAD DUP2 PUSH1 0xFF MUL NOT AND SWAP1 DUP4 ISZERO ISZERO MUL OR SWAP1 SSTORE POP JUMP JUMPDEST PUSH2 0xF71 DUP2 PUSH2 0xD3C JUMP JUMPDEST PUSH2 0xFB0 JUMPI PUSH1 0x40 MLOAD PUSH32 0x8C379A000000000000000000000000000000000000000000000000000000000 DUP2 MSTORE PUSH1 0x4 ADD PUSH2 0xFA7 SWAP1 PUSH2 0x2FBD JUMP JUMPDEST PUSH1 0x40 MLOAD DUP1 SWAP2 SUB SWAP1 REVERT JUMPDEST PUSH0 PUSH1 0x2 DUP2 GT ISZERO PUSH2 0xFC3 JUMPI PUSH2 0xFC2 PUSH2 0x2AAE JUMP JUMPDEST JUMPDEST PUSH2 0xFCC DUP3 PUSH2 0x1B39 JUMP JUMPDEST PUSH1 0x2 DUP2 GT ISZERO PUSH2 0xFDE JUMPI PUSH2 0xFDD PUSH2 0x2AAE JUMP JUMPDEST JUMPDEST EQ PUSH2 0x101E JUMPI PUSH1 0x40 MLOAD PUSH32 0x8C379A000000000000000000000000000000000000000000000000000000000 DUP2 MSTORE PUSH1 0x4 ADD PUSH2 0x1015 SWAP1 PUSH2 0x33B5 JUMP JUMPDEST PUSH1 0x40 MLOAD DUP1 SWAP2 SUB SWAP1 REVERT JUMPDEST PUSH0 CALLVALUE GT PUSH2 0x1060 JUMPI PUSH1 0x40 MLOAD PUSH32 0x8C379A000000000000000000000000000000000000000000000000000000000 DUP2 MSTORE PUSH1 0x4 ADD PUSH2 0x1057 SWAP1 PUSH2 0x3443 JUMP JUMPDEST PUSH1 0x40 MLOAD DUP1 SWAP2 SUB SWAP1 REVERT JUMPDEST PUSH0 DUP1 PUSH2 0x106C DUP4 CALLER PUSH2 0x978 JUMP JUMPDEST SWAP2 POP SWAP2 POP DUP1 PUSH2 0x112C JUMPI PUSH1 0x6 PUSH0 DUP5 DUP2 MSTORE PUSH1 0x20 ADD SWAP1 DUP2 MSTORE PUSH1 0x20 ADD PUSH0 KECCAK256 PUSH1 0x40 MLOAD DUP1 PUSH1 0x40 ADD PUSH1 0x40 MSTORE DUP1 CALLER PUSH20 0xFFFFFFFFFFFFFFFFFFFFFFFFFFFFFFFFFFFFFFFF AND DUP2 MSTORE PUSH1 0x20 ADD CALLVALUE DUP2 MSTORE POP SWAP1 DUP1 PUSH1 0x1 DUP2 SLOAD ADD DUP1 DUP3 SSTORE DUP1 SWAP2 POP POP PUSH1 0x1 SWAP1 SUB SWAP1 PUSH0 MSTORE PUSH1 0x20 PUSH0 KECCAK256 SWAP1 PUSH1 0x2 MUL ADD PUSH0 SWAP1 SWAP2 SWAP1 SWAP2 SWAP1 SWAP2 POP PUSH0 DUP3 ADD MLOAD DUP2 PUSH0 ADD PUSH0 PUSH2 0x100 EXP DUP2 SLOAD DUP2 PUSH20 0xFFFFFFFFFFFFFFFFFFFFFFFFFFFFFFFFFFFFFFFF MUL NOT AND SWAP1 DUP4 PUSH20 0xFFFFFFFFFFFFFFFFFFFFFFFFFFFFFFFFFFFFFFFF AND MUL OR SWAP1 SSTORE POP PUSH1 0x20 DUP3 ADD MLOAD DUP2 PUSH1 0x1 ADD SSTORE POP POP PUSH2 0x1175 JUMP JUMPDEST CALLVALUE PUSH1 0x6 PUSH0 DUP6 DUP2 MSTORE PUSH1 0x20 ADD SWAP1 DUP2 MSTORE PUSH1 0x20 ADD PUSH0 KECCAK256 DUP4 DUP2 SLOAD DUP2 LT PUSH2 0x1150 JUMPI PUSH2 0x114F PUSH2 0x3043 JUMP JUMPDEST JUMPDEST SWAP1 PUSH0 MSTORE PUSH1 0x20 PUSH0 KECCAK256 SWAP1 PUSH1 0x2 MUL ADD PUSH1 0x1 ADD PUSH0 DUP3 DUP3 SLOAD PUSH2 0x116D SWAP2 SWAP1 PUSH2 0x309D JUMP JUMPDEST SWAP3 POP POP DUP2 SWAP1 SSTORE POP JUMPDEST CALLVALUE PUSH1 0x7 PUSH0 DUP6 DUP2 MSTORE PUSH1 0x20 ADD SWAP1 DUP2 MSTORE PUSH1 0x20 ADD PUSH0 KECCAK256 PUSH1 0x4 ADD PUSH0 DUP3 DUP3 SLOAD PUSH2 0x1198 SWAP2 SWAP1 PUSH2 0x309D JUMP JUMPDEST SWAP3 POP POP DUP2 SWAP1 SSTORE POP PUSH32 0xB736B18814DA81A1581CD71E835C12A580034BD300493D2C7A455CE69A50F7A0 DUP4 CALLER CALLVALUE PUSH1 0x40 MLOAD PUSH2 0x11D2 SWAP4 SWAP3 SWAP2 SWAP1 PUSH2 0x30DF JUMP JUMPDEST PUSH1 0x40 MLOAD DUP1 SWAP2 SUB SWAP1 LOG1 POP POP POP JUMP JUMPDEST PUSH0 DUP1 SLOAD SWAP1 PUSH2 0x100 EXP SWAP1 DIV PUSH20 0xFFFFFFFFFFFFFFFFFFFFFFFFFFFFFFFFFFFFFFFF AND PUSH20 0xFFFFFFFFFFFFFFFFFFFFFFFFFFFFFFFFFFFFFFFF AND CALLER PUSH20 0xFFFFFFFFFFFFFFFFFFFFFFFFFFFFFFFFFFFFFFFF AND EQ PUSH2 0x126C JUMPI PUSH1 0x40 MLOAD PUSH32 0x8C379A000000000000000000000000000000000000000000000000000000000 DUP2 MSTORE PUSH1 0x4 ADD PUSH2 0x1263 SWAP1 PUSH2 0x2F55 JUMP JUMPDEST PUSH1 0x40 MLOAD DUP1 SWAP2 SUB SWAP1 REVERT JUMPDEST DUP1 PUSH1 0x1 DUP2 SWAP1 SSTORE POP POP JUMP JUMPDEST PUSH2 0x127F DUP2 PUSH2 0xD3C JUMP JUMPDEST PUSH2 0x12BE JUMPI PUSH1 0x40 MLOAD PUSH32 0x8C379A000000000000000000000000000000000000000000000000000000000 DUP2 MSTORE PUSH1 0x4 ADD PUSH2 0x12B5 SWAP1 PUSH2 0x2FBD JUMP JUMPDEST PUSH1 0x40 MLOAD DUP1 SWAP2 SUB SWAP1 REVERT JUMPDEST PUSH2 0x12C7 DUP2 PUSH2 0x753 JUMP JUMPDEST PUSH20 0xFFFFFFFFFFFFFFFFFFFFFFFFFFFFFFFFFFFFFFFF AND CALLER PUSH20 0xFFFFFFFFFFFFFFFFFFFFFFFFFFFFFFFFFFFFFFFF AND EQ PUSH2 0x1334 JUMPI PUSH1 0x40 MLOAD PUSH32 0x8C379A000000000000000000000000000000000000000000000000000000000 DUP2 MSTORE PUSH1 0x4 ADD PUSH2 0x132B SWAP1 PUSH2 0x34D1 JUMP JUMPDEST PUSH1 0x40 MLOAD DUP1 SWAP2 SUB SWAP1 REVERT JUMPDEST PUSH1 0x1 PUSH1 0x2 DUP2 GT ISZERO PUSH2 0x1348 JUMPI PUSH2 0x1347 PUSH2 0x2AAE JUMP JUMPDEST JUMPDEST PUSH2 0x1351 DUP3 PUSH2 0x1B39 JUMP JUMPDEST PUSH1 0x2 DUP2 GT ISZERO PUSH2 0x1363 JUMPI PUSH2 0x1362 PUSH2 0x2AAE JUMP JUMPDEST JUMPDEST EQ PUSH2 0x13A3 JUMPI PUSH1 0x40 MLOAD PUSH32 0x8C379A000000000000000000000000000000000000000000000000000000000 DUP2 MSTORE PUSH1 0x4 ADD PUSH2 0x139A SWAP1 PUSH2 0x3539 JUMP JUMPDEST PUSH1 0x40 MLOAD DUP1 SWAP2 SUB SWAP1 REVERT JUMPDEST PUSH0 PUSH2 0x13AD DUP3 PUSH2 0x753 JUMP JUMPDEST SWAP1 POP PUSH0 PUSH1 0x7 PUSH0 DUP5 DUP2 MSTORE PUSH1 0x20 ADD SWAP1 DUP2 MSTORE PUSH1 0x20 ADD PUSH0 KECCAK256 PUSH1 0x4 ADD SLOAD SWAP1 POP PUSH0 PUSH1 0x7 PUSH0 DUP6 DUP2 MSTORE PUSH1 0x20 ADD SWAP1 DUP2 MSTORE PUSH1 0x20 ADD PUSH0 KECCAK256 PUSH1 0x4 ADD DUP2 SWAP1 SSTORE POP DUP2 PUSH20 0xFFFFFFFFFFFFFFFFFFFFFFFFFFFFFFFFFFFFFFFF AND PUSH2 0x8FC DUP3 SWAP1 DUP2 ISZERO MUL SWAP1 PUSH1 0x40 MLOAD PUSH0 PUSH1 0x40 MLOAD DUP1 DUP4 SUB DUP2 DUP6 DUP9 DUP9 CALL SWAP4 POP POP POP POP ISZERO DUP1 ISZERO PUSH2 0x1423 JUMPI RETURNDATASIZE PUSH0 DUP1 RETURNDATACOPY RETURNDATASIZE PUSH0 REVERT JUMPDEST POP PUSH32 0x13E7ED68A0FE9E4BCAFDDE5F49381514A9EE7E34FF7D926EADAB64C1E0E77F16 DUP4 DUP4 DUP4 PUSH1 0x40 MLOAD PUSH2 0x1457 SWAP4 SWAP3 SWAP2 SWAP1 PUSH2 0x35B2 JUMP JUMPDEST PUSH1 0x40 MLOAD DUP1 SWAP2 SUB SWAP1 LOG1 POP POP POP JUMP JUMPDEST PUSH1 0x1 SLOAD DUP2 JUMP JUMPDEST PUSH0 PUSH1 0x14 SWAP1 SLOAD SWAP1 PUSH2 0x100 EXP SWAP1 DIV PUSH1 0xFF AND ISZERO PUSH2 0x14B9 JUMPI PUSH1 0x40 MLOAD PUSH32 0x8C379A000000000000000000000000000000000000000000000000000000000 DUP2 MSTORE PUSH1 0x4 ADD PUSH2 0x14B0 SWAP1 PUSH2 0x3631 JUMP JUMPDEST PUSH1 0x40 MLOAD DUP1 SWAP2 SUB SWAP1 REVERT JUMPDEST PUSH0 DUP1 SLOAD SWAP1 PUSH2 0x100 EXP SWAP1 DIV PUSH20 0xFFFFFFFFFFFFFFFFFFFFFFFFFFFFFFFFFFFFFFFF AND PUSH20 0xFFFFFFFFFFFFFFFFFFFFFFFFFFFFFFFFFFFFFFFF AND CALLER PUSH20 0xFFFFFFFFFFFFFFFFFFFFFFFFFFFFFFFFFFFFFFFF AND EQ PUSH2 0x1546 JUMPI PUSH1 0x40 MLOAD PUSH32 0x8C379A000000000000000000000000000000000000000000000000000000000 DUP2 MSTORE PUSH1 0x4 ADD PUSH2 0x153D SWAP1 PUSH2 0x2F55 JUMP JUMPDEST PUSH1 0x40 MLOAD DUP1 SWAP2 SUB SWAP1 REVERT JUMPDEST PUSH1 0x1 PUSH0 PUSH1 0x14 PUSH2 0x100 EXP DUP2 SLOAD DUP2 PUSH1 0xFF MUL NOT AND SWAP1 DUP4 ISZERO ISZERO MUL OR SWAP1 SSTORE POP JUMP JUMPDEST PUSH0 PUSH1 0x2 SLOAD SWAP1 POP SWAP1 JUMP JUMPDEST DUP2 PUSH32 0xFFFFFFFFFFFFFFFFFFFFFFFFFFFFFFFFFFFFFFFFFFFFFFFFFFFFFFFFFFFFFFFF PUSH2 0x1620 PUSH1 0x3 PUSH0 CALLER PUSH20 0xFFFFFFFFFFFFFFFFFFFFFFFFFFFFFFFFFFFFFFFF AND PUSH20 0xFFFFFFFFFFFFFFFFFFFFFFFFFFFFFFFFFFFFFFFF AND DUP2 MSTORE PUSH1 0x20 ADD SWAP1 DUP2 MSTORE PUSH1 0x20 ADD PUSH0 KECCAK256 DUP1 SLOAD DUP1 PUSH1 0x20 MUL PUSH1 0x20 ADD PUSH1 0x40 MLOAD SWAP1 DUP2 ADD PUSH1 0x40 MSTORE DUP1 SWAP3 SWAP2 SWAP1 DUP2 DUP2 MSTORE PUSH1 0x20 ADD DUP3 DUP1 SLOAD DUP1 ISZERO PUSH2 0x1615 JUMPI PUSH1 0x20 MUL DUP3 ADD SWAP2 SWAP1 PUSH0 MSTORE PUSH1 0x20 PUSH0 KECCAK256 SWAP1 JUMPDEST DUP2 SLOAD DUP2 MSTORE PUSH1 0x20 ADD SWAP1 PUSH1 0x1 ADD SWAP1 DUP1 DUP4 GT PUSH2 0x1601 JUMPI JUMPDEST POP POP POP POP POP DUP4 PUSH2 0x1730 JUMP JUMPDEST SUB PUSH2 0x1660 JUMPI PUSH1 0x40 MLOAD PUSH32 0x8C379A000000000000000000000000000000000000000000000000000000000 DUP2 MSTORE PUSH1 0x4 ADD PUSH2 0x1657 SWAP1 PUSH2 0x36BF JUMP JUMPDEST PUSH1 0x40 MLOAD DUP1 SWAP2 SUB SWAP1 REVERT JUMPDEST DUP3 PUSH0 PUSH1 0x2 DUP2 GT ISZERO PUSH2 0x1674 JUMPI PUSH2 0x1673 PUSH2 0x2AAE JUMP JUMPDEST JUMPDEST PUSH2 0x167D DUP3 PUSH2 0x1B39 JUMP JUMPDEST PUSH1 0x2 DUP2 GT ISZERO PUSH2 0x168F JUMPI PUSH2 0x168E PUSH2 0x2AAE JUMP JUMPDEST JUMPDEST EQ PUSH2 0x16CF JUMPI PUSH1 0x40 MLOAD PUSH32 0x8C379A000000000000000000000000000000000000000000000000000000000 DUP2 MSTORE PUSH1 0x4 ADD PUSH2 0x16C6 SWAP1 PUSH2 0x33B5 JUMP JUMPDEST PUSH1 0x40 MLOAD DUP1 SWAP2 SUB SWAP1 REVERT JUMPDEST DUP3 PUSH1 0x7 PUSH0 DUP7 DUP2 MSTORE PUSH1 0x20 ADD SWAP1 DUP2 MSTORE PUSH1 0x20 ADD PUSH0 KECCAK256 PUSH1 0x1 ADD SWAP1 DUP2 PUSH2 0x16F0 SWAP2 SWAP1 PUSH2 0x38CE JUMP JUMPDEST POP PUSH32 0xD935F8055B4C9C830E03201FAC6106C7F64B5402F80B169A44853F21974DF942 DUP5 DUP5 PUSH1 0x40 MLOAD PUSH2 0x1722 SWAP3 SWAP2 SWAP1 PUSH2 0x399D JUMP JUMPDEST PUSH1 0x40 MLOAD DUP1 SWAP2 SUB SWAP1 LOG1 POP POP POP POP JUMP JUMPDEST PUSH0 DUP1 PUSH0 SWAP1 POP PUSH0 PUSH1 0x1 DUP6 MLOAD PUSH2 0x1744 SWAP2 SWAP1 PUSH2 0x39CB JUMP JUMPDEST SWAP1 POP JUMPDEST DUP1 DUP3 SGT PUSH2 0x17D8 JUMPI PUSH0 PUSH1 0x2 DUP4 DUP4 PUSH2 0x175D SWAP2 SWAP1 PUSH2 0x39CB JUMP JUMPDEST PUSH2 0x1767 SWAP2 SWAP1 PUSH2 0x3A0B JUMP JUMPDEST DUP4 PUSH2 0x1772 SWAP2 SWAP1 PUSH2 0x3A73 JUMP JUMPDEST SWAP1 POP PUSH0 DUP7 DUP3 DUP2 MLOAD DUP2 LT PUSH2 0x1788 JUMPI PUSH2 0x1787 PUSH2 0x3043 JUMP JUMPDEST JUMPDEST PUSH1 0x20 MUL PUSH1 0x20 ADD ADD MLOAD SWAP1 POP DUP6 DUP2 SUB PUSH2 0x17A5 JUMPI DUP2 SWAP5 POP POP POP POP POP PUSH2 0x17FE JUMP JUMPDEST DUP6 DUP2 LT ISZERO PUSH2 0x17C1 JUMPI PUSH1 0x1 DUP3 PUSH2 0x17BA SWAP2 SWAP1 PUSH2 0x3A73 JUMP JUMPDEST SWAP4 POP PUSH2 0x17D1 JUMP JUMPDEST PUSH1 0x1 DUP3 PUSH2 0x17CE SWAP2 SWAP1 PUSH2 0x39CB JUMP JUMPDEST SWAP3 POP JUMPDEST POP POP PUSH2 0x1747 JUMP JUMPDEST PUSH32 0xFFFFFFFFFFFFFFFFFFFFFFFFFFFFFFFFFFFFFFFFFFFFFFFFFFFFFFFFFFFFFFFF SWAP3 POP POP POP JUMPDEST SWAP3 SWAP2 POP POP JUMP JUMPDEST PUSH0 DUP5 DUP5 TIMESTAMP CALLER PUSH1 0x40 MLOAD PUSH1 0x20 ADD PUSH2 0x181C SWAP5 SWAP4 SWAP3 SWAP2 SWAP1 PUSH2 0x3B53 JUMP JUMPDEST PUSH1 0x40 MLOAD PUSH1 0x20 DUP2 DUP4 SUB SUB DUP2 MSTORE SWAP1 PUSH1 0x40 MSTORE DUP1 MLOAD SWAP1 PUSH1 0x20 ADD KECCAK256 SWAP1 POP PUSH2 0x183C PUSH2 0x24B5 JUMP JUMPDEST DUP6 DUP2 PUSH0 ADD DUP2 SWAP1 MSTORE POP DUP5 DUP2 PUSH1 0x20 ADD DUP2 SWAP1 MSTORE POP CALLER DUP2 PUSH1 0x40 ADD SWAP1 PUSH20 0xFFFFFFFFFFFFFFFFFFFFFFFFFFFFFFFFFFFFFFFF AND SWAP1 DUP2 PUSH20 0xFFFFFFFFFFFFFFFFFFFFFFFFFFFFFFFFFFFFFFFF AND DUP2 MSTORE POP POP DUP4 DUP2 PUSH1 0x60 ADD DUP2 DUP2 MSTORE POP POP PUSH0 DUP2 PUSH1 0x80 ADD DUP2 DUP2 MSTORE POP POP DUP3 DUP2 PUSH1 0xA0 ADD DUP2 DUP2 MSTORE POP POP PUSH0 DUP2 PUSH1 0xC0 ADD SWAP1 PUSH1 0x2 DUP2 GT ISZERO PUSH2 0x18BB JUMPI PUSH2 0x18BA PUSH2 0x2AAE JUMP JUMPDEST JUMPDEST SWAP1 DUP2 PUSH1 0x2 DUP2 GT ISZERO PUSH2 0x18CF JUMPI PUSH2 0x18CE PUSH2 0x2AAE JUMP JUMPDEST JUMPDEST DUP2 MSTORE POP POP PUSH1 0x1 DUP2 PUSH1 0xE0 ADD SWAP1 ISZERO ISZERO SWAP1 DUP2 ISZERO ISZERO DUP2 MSTORE POP POP DUP1 PUSH1 0x7 PUSH0 DUP5 DUP2 MSTORE PUSH1 0x20 ADD SWAP1 DUP2 MSTORE PUSH1 0x20 ADD PUSH0 KECCAK256 PUSH0 DUP3 ADD MLOAD DUP2 PUSH0 ADD SWAP1 DUP2 PUSH2 0x1909 SWAP2 SWAP1 PUSH2 0x38CE JUMP JUMPDEST POP PUSH1 0x20 DUP3 ADD MLOAD DUP2 PUSH1 0x1 ADD SWAP1 DUP2 PUSH2 0x191F SWAP2 SWAP1 PUSH2 0x38CE JUMP JUMPDEST POP PUSH1 0x40 DUP3 ADD MLOAD DUP2 PUSH1 0x2 ADD PUSH0 PUSH2 0x100 EXP DUP2 SLOAD DUP2 PUSH20 0xFFFFFFFFFFFFFFFFFFFFFFFFFFFFFFFFFFFFFFFF MUL NOT AND SWAP1 DUP4 PUSH20 0xFFFFFFFFFFFFFFFFFFFFFFFFFFFFFFFFFFFFFFFF AND MUL OR SWAP1 SSTORE POP PUSH1 0x60 DUP3 ADD MLOAD DUP2 PUSH1 0x3 ADD SSTORE PUSH1 0x80 DUP3 ADD MLOAD DUP2 PUSH1 0x4 ADD SSTORE PUSH1 0xA0 DUP3 ADD MLOAD DUP2 PUSH1 0x5 ADD SSTORE PUSH1 0xC0 DUP3 ADD MLOAD DUP2 PUSH1 0x6 ADD PUSH0 PUSH2 0x100 EXP DUP2 SLOAD DUP2 PUSH1 0xFF MUL NOT AND SWAP1 DUP4 PUSH1 0x2 DUP2 GT ISZERO PUSH2 0x19AE JUMPI PUSH2 0x19AD PUSH2 0x2AAE JUMP JUMPDEST JUMPDEST MUL OR SWAP1 SSTORE POP PUSH1 0xE0 DUP3 ADD MLOAD DUP2 PUSH1 0x6 ADD PUSH1 0x1 PUSH2 0x100 EXP DUP2 SLOAD DUP2 PUSH1 0xFF MUL NOT AND SWAP1 DUP4 ISZERO ISZERO MUL OR SWAP1 SSTORE POP SWAP1 POP POP PUSH1 0x3 PUSH0 CALLER PUSH20 0xFFFFFFFFFFFFFFFFFFFFFFFFFFFFFFFFFFFFFFFF AND PUSH20 0xFFFFFFFFFFFFFFFFFFFFFFFFFFFFFFFFFFFFFFFF AND DUP2 MSTORE PUSH1 0x20 ADD SWAP1 DUP2 MSTORE PUSH1 0x20 ADD PUSH0 KECCAK256 DUP3 SWAP1 DUP1 PUSH1 0x1 DUP2 SLOAD ADD DUP1 DUP3 SSTORE DUP1 SWAP2 POP POP PUSH1 0x1 SWAP1 SUB SWAP1 PUSH0 MSTORE PUSH1 0x20 PUSH0 KECCAK256 ADD PUSH0 SWAP1 SWAP2 SWAP1 SWAP2 SWAP1 SWAP2 POP SSTORE PUSH1 0x8 DUP3 SWAP1 DUP1 PUSH1 0x1 DUP2 SLOAD ADD DUP1 DUP3 SSTORE DUP1 SWAP2 POP POP PUSH1 0x1 SWAP1 SUB SWAP1 PUSH0 MSTORE PUSH1 0x20 PUSH0 KECCAK256 ADD PUSH0 SWAP1 SWAP2 SWAP1 SWAP2 SWAP1 SWAP2 POP SSTORE PUSH2 0x1AEF PUSH1 0x3 PUSH0 CALLER PUSH20 0xFFFFFFFFFFFFFFFFFFFFFFFFFFFFFFFFFFFFFFFF AND PUSH20 0xFFFFFFFFFFFFFFFFFFFFFFFFFFFFFFFFFFFFFFFF AND DUP2 MSTORE PUSH1 0x20 ADD SWAP1 DUP2 MSTORE PUSH1 0x20 ADD PUSH0 KECCAK256 DUP1 SLOAD DUP1 PUSH1 0x20 MUL PUSH1 0x20 ADD PUSH1 0x40 MLOAD SWAP1 DUP2 ADD PUSH1 0x40 MSTORE DUP1 SWAP3 SWAP2 SWAP1 DUP2 DUP2 MSTORE PUSH1 0x20 ADD DUP3 DUP1 SLOAD DUP1 ISZERO PUSH2 0x1AE5 JUMPI PUSH1 0x20 MUL DUP3 ADD SWAP2 SWAP1 PUSH0 MSTORE PUSH1 0x20 PUSH0 KECCAK256 SWAP1 JUMPDEST DUP2 SLOAD DUP2 MSTORE PUSH1 0x20 ADD SWAP1 PUSH1 0x1 ADD SWAP1 DUP1 DUP4 GT PUSH2 0x1AD1 JUMPI JUMPDEST POP POP POP POP POP PUSH2 0x1BCE JUMP JUMPDEST POP PUSH32 0x57697173C22831F367942A05F5C552C47D47A6585DDFD0836FB8DC3B08E5C331 DUP3 DUP8 DUP8 CALLER DUP9 DUP9 PUSH1 0x40 MLOAD PUSH2 0x1B29 SWAP7 SWAP6 SWAP5 SWAP4 SWAP3 SWAP2 SWAP1 PUSH2 0x3B98 JUMP JUMPDEST PUSH1 0x40 MLOAD DUP1 SWAP2 SUB SWAP1 LOG1 POP POP POP POP POP POP JUMP JUMPDEST PUSH0 PUSH1 0x7 PUSH0 DUP4 DUP2 MSTORE PUSH1 0x20 ADD SWAP1 DUP2 MSTORE PUSH1 0x20 ADD PUSH0 KECCAK256 PUSH1 0x6 ADD PUSH0 SWAP1 SLOAD SWAP1 PUSH2 0x100 EXP SWAP1 DIV PUSH1 0xFF AND SWAP1 POP SWAP2 SWAP1 POP JUMP JUMPDEST PUSH0 DUP1 PUSH0 PUSH2 0x1B6F DUP5 CALLER PUSH2 0x978 JUMP JUMPDEST SWAP2 POP SWAP2 POP DUP1 PUSH2 0x1B82 JUMPI PUSH0 SWAP3 POP POP POP PUSH2 0x1BBA JUMP JUMPDEST PUSH1 0x6 PUSH0 DUP6 DUP2 MSTORE PUSH1 0x20 ADD SWAP1 DUP2 MSTORE PUSH1 0x20 ADD PUSH0 KECCAK256 DUP3 DUP2 SLOAD DUP2 LT PUSH2 0x1BA5 JUMPI PUSH2 0x1BA4 PUSH2 0x3043 JUMP JUMPDEST JUMPDEST SWAP1 PUSH0 MSTORE PUSH1 0x20 PUSH0 KECCAK256 SWAP1 PUSH1 0x2 MUL ADD PUSH1 0x1 ADD SLOAD SWAP3 POP POP POP JUMPDEST SWAP2 SWAP1 POP JUMP JUMPDEST PUSH0 PUSH1 0x1 SLOAD SWAP1 POP SWAP1 JUMP JUMPDEST PUSH1 0x2 SLOAD DUP2 JUMP JUMPDEST PUSH1 0x60 PUSH1 0x1 DUP3 MLOAD GT PUSH2 0x1BE1 JUMPI DUP2 SWAP1 POP PUSH2 0x1E16 JUMP JUMPDEST PUSH0 PUSH1 0x2 DUP4 MLOAD PUSH2 0x1BF0 SWAP2 SWAP1 PUSH2 0x3C05 JUMP JUMPDEST PUSH8 0xFFFFFFFFFFFFFFFF DUP2 GT ISZERO PUSH2 0x1C09 JUMPI PUSH2 0x1C08 PUSH2 0x2745 JUMP JUMPDEST JUMPDEST PUSH1 0x40 MLOAD SWAP1 DUP1 DUP3 MSTORE DUP1 PUSH1 0x20 MUL PUSH1 0x20 ADD DUP3 ADD PUSH1 0x40 MSTORE DUP1 ISZERO PUSH2 0x1C37 JUMPI DUP2 PUSH1 0x20 ADD PUSH1 0x20 DUP3 MUL DUP1 CALLDATASIZE DUP4 CALLDATACOPY DUP1 DUP3 ADD SWAP2 POP POP SWAP1 POP JUMPDEST POP SWAP1 POP PUSH0 DUP1 DUP3 DUP3 DUP1 PUSH2 0x1C48 SWAP1 PUSH2 0x3C46 JUMP JUMPDEST SWAP4 POP DUP2 MLOAD DUP2 LT PUSH2 0x1C5B JUMPI PUSH2 0x1C5A PUSH2 0x3043 JUMP JUMPDEST JUMPDEST PUSH1 0x20 MUL PUSH1 0x20 ADD ADD DUP2 DUP2 MSTORE POP POP PUSH1 0x1 DUP5 MLOAD PUSH2 0x1C75 SWAP2 SWAP1 PUSH2 0x3114 JUMP JUMPDEST DUP3 DUP3 DUP1 PUSH2 0x1C81 SWAP1 PUSH2 0x3C46 JUMP JUMPDEST SWAP4 POP DUP2 MLOAD DUP2 LT PUSH2 0x1C94 JUMPI PUSH2 0x1C93 PUSH2 0x3043 JUMP JUMPDEST JUMPDEST PUSH1 0x20 MUL PUSH1 0x20 ADD ADD DUP2 DUP2 MSTORE POP POP JUMPDEST PUSH0 DUP2 GT ISZERO PUSH2 0x1E10 JUMPI PUSH0 DUP3 DUP3 PUSH2 0x1CB5 SWAP1 PUSH2 0x3C8D JUMP JUMPDEST SWAP3 POP DUP3 DUP2 MLOAD DUP2 LT PUSH2 0x1CC9 JUMPI PUSH2 0x1CC8 PUSH2 0x3043 JUMP JUMPDEST JUMPDEST PUSH1 0x20 MUL PUSH1 0x20 ADD ADD MLOAD SWAP1 POP PUSH0 DUP4 DUP4 PUSH2 0x1CDF SWAP1 PUSH2 0x3C8D JUMP JUMPDEST SWAP4 POP DUP4 DUP2 MLOAD DUP2 LT PUSH2 0x1CF3 JUMPI PUSH2 0x1CF2 PUSH2 0x3043 JUMP JUMPDEST JUMPDEST PUSH1 0x20 MUL PUSH1 0x20 ADD ADD MLOAD SWAP1 POP PUSH0 PUSH2 0x1D09 DUP8 DUP4 DUP6 PUSH2 0x2353 JUMP JUMPDEST SWAP1 POP PUSH0 DUP2 GT DUP1 ISZERO PUSH2 0x1D25 JUMPI POP DUP2 PUSH1 0x1 DUP3 PUSH2 0x1D23 SWAP2 SWAP1 PUSH2 0x3114 JUMP JUMPDEST GT JUMPDEST ISZERO PUSH2 0x1D8F JUMPI DUP2 DUP6 DUP6 DUP1 PUSH2 0x1D37 SWAP1 PUSH2 0x3C46 JUMP JUMPDEST SWAP7 POP DUP2 MLOAD DUP2 LT PUSH2 0x1D4A JUMPI PUSH2 0x1D49 PUSH2 0x3043 JUMP JUMPDEST JUMPDEST PUSH1 0x20 MUL PUSH1 0x20 ADD ADD DUP2 DUP2 MSTORE POP POP PUSH1 0x1 DUP2 PUSH2 0x1D63 SWAP2 SWAP1 PUSH2 0x3114 JUMP JUMPDEST DUP6 DUP6 DUP1 PUSH2 0x1D6F SWAP1 PUSH2 0x3C46 JUMP JUMPDEST SWAP7 POP DUP2 MLOAD DUP2 LT PUSH2 0x1D82 JUMPI PUSH2 0x1D81 PUSH2 0x3043 JUMP JUMPDEST JUMPDEST PUSH1 0x20 MUL PUSH1 0x20 ADD ADD DUP2 DUP2 MSTORE POP POP JUMPDEST DUP3 PUSH1 0x1 DUP3 PUSH2 0x1D9D SWAP2 SWAP1 PUSH2 0x309D JUMP JUMPDEST LT ISZERO PUSH2 0x1E08 JUMPI PUSH1 0x1 DUP2 PUSH2 0x1DB0 SWAP2 SWAP1 PUSH2 0x309D JUMP JUMPDEST DUP6 DUP6 DUP1 PUSH2 0x1DBC SWAP1 PUSH2 0x3C46 JUMP JUMPDEST SWAP7 POP DUP2 MLOAD DUP2 LT PUSH2 0x1DCF JUMPI PUSH2 0x1DCE PUSH2 0x3043 JUMP JUMPDEST JUMPDEST PUSH1 0x20 MUL PUSH1 0x20 ADD ADD DUP2 DUP2 MSTORE POP POP DUP3 DUP6 DUP6 DUP1 PUSH2 0x1DE8 SWAP1 PUSH2 0x3C46 JUMP JUMPDEST SWAP7 POP DUP2 MLOAD DUP2 LT PUSH2 0x1DFB JUMPI PUSH2 0x1DFA PUSH2 0x3043 JUMP JUMPDEST JUMPDEST PUSH1 0x20 MUL PUSH1 0x20 ADD ADD DUP2 DUP2 MSTORE POP POP JUMPDEST POP POP POP PUSH2 0x1CA1 JUMP JUMPDEST DUP4 SWAP3 POP POP POP JUMPDEST SWAP2 SWAP1 POP JUMP JUMPDEST PUSH0 PUSH1 0x7 PUSH0 DUP4 DUP2 MSTORE PUSH1 0x20 ADD SWAP1 DUP2 MSTORE PUSH1 0x20 ADD PUSH0 KECCAK256 PUSH1 0x6 ADD PUSH0 SWAP1 SLOAD SWAP1 PUSH2 0x100 EXP SWAP1 DIV PUSH1 0xFF AND SWAP1 POP SWAP2 SWAP1 POP JUMP JUMPDEST PUSH0 PUSH1 0x8 DUP1 SLOAD SWAP1 POP SWAP1 POP SWAP1 JUMP JUMPDEST DUP3 PUSH32 0xFFFFFFFFFFFFFFFFFFFFFFFFFFFFFFFFFFFFFFFFFFFFFFFFFFFFFFFFFFFFFFFF PUSH2 0x1F05 PUSH1 0x3 PUSH0 CALLER PUSH20 0xFFFFFFFFFFFFFFFFFFFFFFFFFFFFFFFFFFFFFFFF AND PUSH20 0xFFFFFFFFFFFFFFFFFFFFFFFFFFFFFFFFFFFFFFFF AND DUP2 MSTORE PUSH1 0x20 ADD SWAP1 DUP2 MSTORE PUSH1 0x20 ADD PUSH0 KECCAK256 DUP1 SLOAD DUP1 PUSH1 0x20 MUL PUSH1 0x20 ADD PUSH1 0x40 MLOAD SWAP1 DUP2 ADD PUSH1 0x40 MSTORE DUP1 SWAP3 SWAP2 SWAP1 DUP2 DUP2 MSTORE PUSH1 0x20 ADD DUP3 DUP1 SLOAD DUP1 ISZERO PUSH2 0x1EFA JUMPI PUSH1 0x20 MUL DUP3 ADD SWAP2 SWAP1 PUSH0 MSTORE PUSH1 0x20 PUSH0 KECCAK256 SWAP1 JUMPDEST DUP2 SLOAD DUP2 MSTORE PUSH1 0x20 ADD SWAP1 PUSH1 0x1 ADD SWAP1 DUP1 DUP4 GT PUSH2 0x1EE6 JUMPI JUMPDEST POP POP POP POP POP DUP4 PUSH2 0x1730 JUMP JUMPDEST SUB PUSH2 0x1F45 JUMPI PUSH1 0x40 MLOAD PUSH32 0x8C379A000000000000000000000000000000000000000000000000000000000 DUP2 MSTORE PUSH1 0x4 ADD PUSH2 0x1F3C SWAP1 PUSH2 0x36BF JUMP JUMPDEST PUSH1 0x40 MLOAD DUP1 SWAP2 SUB SWAP1 REVERT JUMPDEST DUP4 PUSH0 PUSH1 0x2 DUP2 GT ISZERO PUSH2 0x1F59 JUMPI PUSH2 0x1F58 PUSH2 0x2AAE JUMP JUMPDEST JUMPDEST PUSH2 0x1F62 DUP3 PUSH2 0x1B39 JUMP JUMPDEST PUSH1 0x2 DUP2 GT ISZERO PUSH2 0x1F74 JUMPI PUSH2 0x1F73 PUSH2 0x2AAE JUMP JUMPDEST JUMPDEST EQ PUSH2 0x1FB4 JUMPI PUSH1 0x40 MLOAD PUSH32 0x8C379A000000000000000000000000000000000000000000000000000000000 DUP2 MSTORE PUSH1 0x4 ADD PUSH2 0x1FAB SWAP1 PUSH2 0x33B5 JUMP JUMPDEST PUSH1 0x40 MLOAD DUP1 SWAP2 SUB SWAP1 REVERT JUMPDEST PUSH1 0x5 PUSH0 DUP7 DUP2 MSTORE PUSH1 0x20 ADD SWAP1 DUP2 MSTORE PUSH1 0x20 ADD PUSH0 KECCAK256 PUSH1 0x40 MLOAD DUP1 PUSH1 0x40 ADD PUSH1 0x40 MSTORE DUP1 DUP7 DUP2 MSTORE PUSH1 0x20 ADD DUP6 DUP2 MSTORE POP SWAP1 DUP1 PUSH1 0x1 DUP2 SLOAD ADD DUP1 DUP3 SSTORE DUP1 SWAP2 POP POP PUSH1 0x1 SWAP1 SUB SWAP1 PUSH0 MSTORE PUSH1 0x20 PUSH0 KECCAK256 SWAP1 PUSH1 0x2 MUL ADD PUSH0 SWAP1 SWAP2 SWAP1 SWAP2 SWAP1 SWAP2 POP PUSH0 DUP3 ADD MLOAD DUP2 PUSH0 ADD SSTORE PUSH1 0x20 DUP3 ADD MLOAD DUP2 PUSH1 0x1 ADD SWAP1 DUP2 PUSH2 0x201D SWAP2 SWAP1 PUSH2 0x38CE JUMP JUMPDEST POP POP POP POP POP POP POP POP JUMP JUMPDEST PUSH1 0x60 PUSH1 0x5 PUSH0 DUP4 DUP2 MSTORE PUSH1 0x20 ADD SWAP1 DUP2 MSTORE PUSH1 0x20 ADD PUSH0 KECCAK256 DUP1 SLOAD DUP1 PUSH1 0x20 MUL PUSH1 0x20 ADD PUSH1 0x40 MLOAD SWAP1 DUP2 ADD PUSH1 0x40 MSTORE DUP1 SWAP3 SWAP2 SWAP1 DUP2 DUP2 MSTORE PUSH1 0x20 ADD PUSH0 SWAP1 JUMPDEST DUP3 DUP3 LT ISZERO PUSH2 0x2122 JUMPI DUP4 DUP3 SWAP1 PUSH0 MSTORE PUSH1 0x20 PUSH0 KECCAK256 SWAP1 PUSH1 0x2 MUL ADD PUSH1 0x40 MLOAD DUP1 PUSH1 0x40 ADD PUSH1 0x40 MSTORE SWAP1 DUP2 PUSH0 DUP3 ADD SLOAD DUP2 MSTORE PUSH1 0x20 ADD PUSH1 0x1 DUP3 ADD DUP1 SLOAD PUSH2 0x2093 SWAP1 PUSH2 0x370A JUMP JUMPDEST DUP1 PUSH1 0x1F ADD PUSH1 0x20 DUP1 SWAP2 DIV MUL PUSH1 0x20 ADD PUSH1 0x40 MLOAD SWAP1 DUP2 ADD PUSH1 0x40 MSTORE DUP1 SWAP3 SWAP2 SWAP1 DUP2 DUP2 MSTORE PUSH1 0x20 ADD DUP3 DUP1 SLOAD PUSH2 0x20BF SWAP1 PUSH2 0x370A JUMP JUMPDEST DUP1 ISZERO PUSH2 0x210A JUMPI DUP1 PUSH1 0x1F LT PUSH2 0x20E1 JUMPI PUSH2 0x100 DUP1 DUP4 SLOAD DIV MUL DUP4 MSTORE SWAP2 PUSH1 0x20 ADD SWAP2 PUSH2 0x210A JUMP JUMPDEST DUP3 ADD SWAP2 SWAP1 PUSH0 MSTORE PUSH1 0x20 PUSH0 KECCAK256 SWAP1 JUMPDEST DUP2 SLOAD DUP2 MSTORE SWAP1 PUSH1 0x1 ADD SWAP1 PUSH1 0x20 ADD DUP1 DUP4 GT PUSH2 0x20ED JUMPI DUP3 SWAP1 SUB PUSH1 0x1F AND DUP3 ADD SWAP2 JUMPDEST POP POP POP POP POP DUP2 MSTORE POP POP DUP2 MSTORE PUSH1 0x20 ADD SWAP1 PUSH1 0x1 ADD SWAP1 PUSH2 0x2059 JUMP JUMPDEST POP POP POP POP SWAP1 POP SWAP2 SWAP1 POP JUMP JUMPDEST PUSH1 0x60 PUSH1 0x3 PUSH0 CALLER PUSH20 0xFFFFFFFFFFFFFFFFFFFFFFFFFFFFFFFFFFFFFFFF AND PUSH20 0xFFFFFFFFFFFFFFFFFFFFFFFFFFFFFFFFFFFFFFFF AND DUP2 MSTORE PUSH1 0x20 ADD SWAP1 DUP2 MSTORE PUSH1 0x20 ADD PUSH0 KECCAK256 DUP1 SLOAD DUP1 PUSH1 0x20 MUL PUSH1 0x20 ADD PUSH1 0x40 MLOAD SWAP1 DUP2 ADD PUSH1 0x40 MSTORE DUP1 SWAP3 SWAP2 SWAP1 DUP2 DUP2 MSTORE PUSH1 0x20 ADD DUP3 DUP1 SLOAD DUP1 ISZERO PUSH2 0x21B4 JUMPI PUSH1 0x20 MUL DUP3 ADD SWAP2 SWAP1 PUSH0 MSTORE PUSH1 0x20 PUSH0 KECCAK256 SWAP1 JUMPDEST DUP2 SLOAD DUP2 MSTORE PUSH1 0x20 ADD SWAP1 PUSH1 0x1 ADD SWAP1 DUP1 DUP4 GT PUSH2 0x21A0 JUMPI JUMPDEST POP POP POP POP POP SWAP1 POP SWAP1 JUMP JUMPDEST PUSH1 0x60 DUP1 PUSH0 DUP1 PUSH0 DUP1 PUSH0 DUP1 PUSH1 0x7 PUSH0 DUP11 DUP2 MSTORE PUSH1 0x20 ADD SWAP1 DUP2 MSTORE PUSH1 0x20 ADD PUSH0 KECCAK256 SWAP1 POP DUP1 PUSH0 ADD DUP2 PUSH1 0x1 ADD DUP3 PUSH1 0x2 ADD PUSH0 SWAP1 SLOAD SWAP1 PUSH2 0x100 EXP SWAP1 DIV PUSH20 0xFFFFFFFFFFFFFFFFFFFFFFFFFFFFFFFFFFFFFFFF AND DUP4 PUSH1 0x3 ADD SLOAD DUP5 PUSH1 0x4 ADD SLOAD DUP6 PUSH1 0x5 ADD SLOAD DUP7 PUSH1 0x6 ADD PUSH0 SWAP1 SLOAD SWAP1 PUSH2 0x100 EXP SWAP1 DIV PUSH1 0xFF AND DUP7 DUP1 SLOAD PUSH2 0x2231 SWAP1 PUSH2 0x370A JUMP JUMPDEST DUP1 PUSH1 0x1F ADD PUSH1 0x20 DUP1 SWAP2 DIV MUL PUSH1 0x20 ADD PUSH1 0x40 MLOAD SWAP1 DUP2 ADD PUSH1 0x40 MSTORE DUP1 SWAP3 SWAP2 SWAP1 DUP2 DUP2 MSTORE PUSH1 0x20 ADD DUP3 DUP1 SLOAD PUSH2 0x225D SWAP1 PUSH2 0x370A JUMP JUMPDEST DUP1 ISZERO PUSH2 0x22A8 JUMPI DUP1 PUSH1 0x1F LT PUSH2 0x227F JUMPI PUSH2 0x100 DUP1 DUP4 SLOAD DIV MUL DUP4 MSTORE SWAP2 PUSH1 0x20 ADD SWAP2 PUSH2 0x22A8 JUMP JUMPDEST DUP3 ADD SWAP2 SWAP1 PUSH0 MSTORE PUSH1 0x20 PUSH0 KECCAK256 SWAP1 JUMPDEST DUP2 SLOAD DUP2 MSTORE SWAP1 PUSH1 0x1 ADD SWAP1 PUSH1 0x20 ADD DUP1 DUP4 GT PUSH2 0x228B JUMPI DUP3 SWAP1 SUB PUSH1 0x1F AND DUP3 ADD SWAP2 JUMPDEST POP POP POP POP POP SWAP7 POP DUP6 DUP1 SLOAD PUSH2 0x22BB SWAP1 PUSH2 0x370A JUMP JUMPDEST DUP1 PUSH1 0x1F ADD PUSH1 0x20 DUP1 SWAP2 DIV MUL PUSH1 0x20 ADD PUSH1 0x40 MLOAD SWAP1 DUP2 ADD PUSH1 0x40 MSTORE DUP1 SWAP3 SWAP2 SWAP1 DUP2 DUP2 MSTORE PUSH1 0x20 ADD DUP3 DUP1 SLOAD PUSH2 0x22E7 SWAP1 PUSH2 0x370A JUMP JUMPDEST DUP1 ISZERO PUSH2 0x2332 JUMPI DUP1 PUSH1 0x1F LT PUSH2 0x2309 JUMPI PUSH2 0x100 DUP1 DUP4 SLOAD DIV MUL DUP4 MSTORE SWAP2 PUSH1 0x20 ADD SWAP2 PUSH2 0x2332 JUMP JUMPDEST DUP3 ADD SWAP2 SWAP1 PUSH0 MSTORE PUSH1 0x20 PUSH0 KECCAK256 SWAP1 JUMPDEST DUP2 SLOAD DUP2 MSTORE SWAP1 PUSH1 0x1 ADD SWAP1 PUSH1 0x20 ADD DUP1 DUP4 GT PUSH2 0x2315 JUMPI DUP3 SWAP1 SUB PUSH1 0x1F AND DUP3 ADD SWAP2 JUMPDEST POP POP POP POP POP SWAP6 POP SWAP8 POP SWAP8 POP SWAP8 POP SWAP8 POP SWAP8 POP SWAP8 POP SWAP8 POP POP SWAP2 SWAP4 SWAP6 SWAP8 SWAP1 SWAP3 SWAP5 SWAP7 POP JUMP JUMPDEST PUSH0 DUP1 DUP5 DUP4 DUP2 MLOAD DUP2 LT PUSH2 0x2368 JUMPI PUSH2 0x2367 PUSH2 0x3043 JUMP JUMPDEST JUMPDEST PUSH1 0x20 MUL PUSH1 0x20 ADD ADD MLOAD SWAP1 POP PUSH0 DUP5 SWAP1 POP PUSH0 DUP6 SWAP1 POP JUMPDEST DUP5 DUP2 LT ISZERO PUSH2 0x2434 JUMPI DUP3 DUP8 DUP3 DUP2 MLOAD DUP2 LT PUSH2 0x2397 JUMPI PUSH2 0x2396 PUSH2 0x3043 JUMP JUMPDEST JUMPDEST PUSH1 0x20 MUL PUSH1 0x20 ADD ADD MLOAD GT PUSH2 0x2427 JUMPI DUP7 DUP2 DUP2 MLOAD DUP2 LT PUSH2 0x23B7 JUMPI PUSH2 0x23B6 PUSH2 0x3043 JUMP JUMPDEST JUMPDEST PUSH1 0x20 MUL PUSH1 0x20 ADD ADD MLOAD DUP8 DUP4 DUP2 MLOAD DUP2 LT PUSH2 0x23D2 JUMPI PUSH2 0x23D1 PUSH2 0x3043 JUMP JUMPDEST JUMPDEST PUSH1 0x20 MUL PUSH1 0x20 ADD ADD MLOAD DUP9 DUP5 DUP2 MLOAD DUP2 LT PUSH2 0x23ED JUMPI PUSH2 0x23EC PUSH2 0x3043 JUMP JUMPDEST JUMPDEST PUSH1 0x20 MUL PUSH1 0x20 ADD ADD DUP10 DUP5 DUP2 MLOAD DUP2 LT PUSH2 0x2407 JUMPI PUSH2 0x2406 PUSH2 0x3043 JUMP JUMPDEST JUMPDEST PUSH1 0x20 MUL PUSH1 0x20 ADD ADD DUP3 DUP2 MSTORE POP DUP3 DUP2 MSTORE POP POP POP DUP2 DUP1 PUSH2 0x2423 SWAP1 PUSH2 0x3C46 JUMP JUMPDEST SWAP3 POP POP JUMPDEST DUP1 DUP1 PUSH1 0x1 ADD SWAP2 POP POP PUSH2 0x237B JUMP JUMPDEST POP DUP6 DUP5 DUP2 MLOAD DUP2 LT PUSH2 0x2448 JUMPI PUSH2 0x2447 PUSH2 0x3043 JUMP JUMPDEST JUMPDEST PUSH1 0x20 MUL PUSH1 0x20 ADD ADD MLOAD DUP7 DUP3 DUP2 MLOAD DUP2 LT PUSH2 0x2463 JUMPI PUSH2 0x2462 PUSH2 0x3043 JUMP JUMPDEST JUMPDEST PUSH1 0x20 MUL PUSH1 0x20 ADD ADD MLOAD DUP8 DUP4 DUP2 MLOAD DUP2 LT PUSH2 0x247E JUMPI PUSH2 0x247D PUSH2 0x3043 JUMP JUMPDEST JUMPDEST PUSH1 0x20 MUL PUSH1 0x20 ADD ADD DUP9 DUP8 DUP2 MLOAD DUP2 LT PUSH2 0x2498 JUMPI PUSH2 0x2497 PUSH2 0x3043 JUMP JUMPDEST JUMPDEST PUSH1 0x20 MUL PUSH1 0x20 ADD ADD DUP3 DUP2 MSTORE POP DUP3 DUP2 MSTORE POP POP POP DUP1 SWAP3 POP POP POP SWAP4 SWAP3 POP POP POP JUMP JUMPDEST PUSH1 0x40 MLOAD DUP1 PUSH2 0x100 ADD PUSH1 0x40 MSTORE DUP1 PUSH1 0x60 DUP2 MSTORE PUSH1 0x20 ADD PUSH1 0x60 DUP2 MSTORE PUSH1 0x20 ADD PUSH0 PUSH20 0xFFFFFFFFFFFFFFFFFFFFFFFFFFFFFFFFFFFFFFFF AND DUP2 MSTORE PUSH1 0x20 ADD PUSH0 DUP2 MSTORE PUSH1 0x20 ADD PUSH0 DUP2 MSTORE PUSH1 0x20 ADD PUSH0 DUP2 MSTORE PUSH1 0x20 ADD PUSH0 PUSH1 0x2 DUP2 GT ISZERO PUSH2 0x2510 JUMPI PUSH2 0x250F PUSH2 0x2AAE JUMP JUMPDEST JUMPDEST DUP2 MSTORE PUSH1 0x20 ADD PUSH0 ISZERO ISZERO DUP2 MSTORE POP SWAP1 JUMP JUMPDEST PUSH0 PUSH1 0x40 MLOAD SWAP1 POP SWAP1 JUMP JUMPDEST PUSH0 DUP1 REVERT JUMPDEST PUSH0 DUP1 REVERT JUMPDEST PUSH0 DUP2 SWAP1 POP SWAP2 SWAP1 POP JUMP JUMPDEST PUSH2 0x2541 DUP2 PUSH2 0x252F JUMP JUMPDEST DUP2 EQ PUSH2 0x254B JUMPI PUSH0 DUP1 REVERT JUMPDEST POP JUMP JUMPDEST PUSH0 DUP2 CALLDATALOAD SWAP1 POP PUSH2 0x255C DUP2 PUSH2 0x2538 JUMP JUMPDEST SWAP3 SWAP2 POP POP JUMP JUMPDEST PUSH0 PUSH1 0x20 DUP3 DUP5 SUB SLT ISZERO PUSH2 0x2577 JUMPI PUSH2 0x2576 PUSH2 0x2527 JUMP JUMPDEST JUMPDEST PUSH0 PUSH2 0x2584 DUP5 DUP3 DUP6 ADD PUSH2 0x254E JUMP JUMPDEST SWAP2 POP POP SWAP3 SWAP2 POP POP JUMP JUMPDEST PUSH0 DUP2 SWAP1 POP SWAP2 SWAP1 POP JUMP JUMPDEST PUSH2 0x259F DUP2 PUSH2 0x258D JUMP JUMPDEST DUP2 EQ PUSH2 0x25A9 JUMPI PUSH0 DUP1 REVERT JUMPDEST POP JUMP JUMPDEST PUSH0 DUP2 CALLDATALOAD SWAP1 POP PUSH2 0x25BA DUP2 PUSH2 0x2596 JUMP JUMPDEST SWAP3 SWAP2 POP POP JUMP JUMPDEST PUSH0 PUSH1 0x20 DUP3 DUP5 SUB SLT ISZERO PUSH2 0x25D5 JUMPI PUSH2 0x25D4 PUSH2 0x2527 JUMP JUMPDEST JUMPDEST PUSH0 PUSH2 0x25E2 DUP5 DUP3 DUP6 ADD PUSH2 0x25AC JUMP JUMPDEST SWAP2 POP POP SWAP3 SWAP2 POP POP JUMP JUMPDEST PUSH0 PUSH20 0xFFFFFFFFFFFFFFFFFFFFFFFFFFFFFFFFFFFFFFFF DUP3 AND SWAP1 POP SWAP2 SWAP1 POP JUMP JUMPDEST PUSH0 PUSH2 0x2614 DUP3 PUSH2 0x25EB JUMP JUMPDEST SWAP1 POP SWAP2 SWAP1 POP JUMP JUMPDEST PUSH2 0x2624 DUP2 PUSH2 0x260A JUMP JUMPDEST DUP3 MSTORE POP POP JUMP JUMPDEST PUSH0 PUSH1 0x20 DUP3 ADD SWAP1 POP PUSH2 0x263D PUSH0 DUP4 ADD DUP5 PUSH2 0x261B JUMP JUMPDEST SWAP3 SWAP2 POP POP JUMP JUMPDEST PUSH2 0x264C DUP2 PUSH2 0x260A JUMP JUMPDEST DUP2 EQ PUSH2 0x2656 JUMPI PUSH0 DUP1 REVERT JUMPDEST POP JUMP JUMPDEST PUSH0 DUP2 CALLDATALOAD SWAP1 POP PUSH2 0x2667 DUP2 PUSH2 0x2643 JUMP JUMPDEST SWAP3 SWAP2 POP POP JUMP JUMPDEST PUSH0 DUP1 PUSH1 0x40 DUP4 DUP6 SUB SLT ISZERO PUSH2 0x2683 JUMPI PUSH2 0x2682 PUSH2 0x2527 JUMP JUMPDEST JUMPDEST PUSH0 PUSH2 0x2690 DUP6 DUP3 DUP7 ADD PUSH2 0x25AC JUMP JUMPDEST SWAP3 POP POP PUSH1 0x20 PUSH2 0x26A1 DUP6 DUP3 DUP7 ADD PUSH2 0x2659 JUMP JUMPDEST SWAP2 POP POP SWAP3 POP SWAP3 SWAP1 POP JUMP JUMPDEST PUSH2 0x26B4 DUP2 PUSH2 0x252F JUMP JUMPDEST DUP3 MSTORE POP POP JUMP JUMPDEST PUSH0 DUP2 ISZERO ISZERO SWAP1 POP SWAP2 SWAP1 POP JUMP JUMPDEST PUSH2 0x26CE DUP2 PUSH2 0x26BA JUMP JUMPDEST DUP3 MSTORE POP POP JUMP JUMPDEST PUSH0 PUSH1 0x40 DUP3 ADD SWAP1 POP PUSH2 0x26E7 PUSH0 DUP4 ADD DUP6 PUSH2 0x26AB JUMP JUMPDEST PUSH2 0x26F4 PUSH1 0x20 DUP4 ADD DUP5 PUSH2 0x26C5 JUMP JUMPDEST SWAP4 SWAP3 POP POP POP JUMP JUMPDEST PUSH0 PUSH1 0x20 DUP3 ADD SWAP1 POP PUSH2 0x270E PUSH0 DUP4 ADD DUP5 PUSH2 0x26C5 JUMP JUMPDEST SWAP3 SWAP2 POP POP JUMP JUMPDEST PUSH0 PUSH1 0x20 DUP3 ADD SWAP1 POP PUSH2 0x2727 PUSH0 DUP4 ADD DUP5 PUSH2 0x26AB JUMP JUMPDEST SWAP3 SWAP2 POP POP JUMP JUMPDEST PUSH0 DUP1 REVERT JUMPDEST PUSH0 DUP1 REVERT JUMPDEST PUSH0 PUSH1 0x1F NOT PUSH1 0x1F DUP4 ADD AND SWAP1 POP SWAP2 SWAP1 POP JUMP JUMPDEST PUSH32 0x4E487B7100000000000000000000000000000000000000000000000000000000 PUSH0 MSTORE PUSH1 0x41 PUSH1 0x4 MSTORE PUSH1 0x24 PUSH0 REVERT JUMPDEST PUSH2 0x277B DUP3 PUSH2 0x2735 JUMP JUMPDEST DUP2 ADD DUP2 DUP2 LT PUSH8 0xFFFFFFFFFFFFFFFF DUP3 GT OR ISZERO PUSH2 0x279A JUMPI PUSH2 0x2799 PUSH2 0x2745 JUMP JUMPDEST JUMPDEST DUP1 PUSH1 0x40 MSTORE POP POP POP JUMP JUMPDEST PUSH0 PUSH2 0x27AC PUSH2 0x251E JUMP JUMPDEST SWAP1 POP PUSH2 0x27B8 DUP3 DUP3 PUSH2 0x2772 JUMP JUMPDEST SWAP2 SWAP1 POP JUMP JUMPDEST PUSH0 PUSH8 0xFFFFFFFFFFFFFFFF DUP3 GT ISZERO PUSH2 0x27D7 JUMPI PUSH2 0x27D6 PUSH2 0x2745 JUMP JUMPDEST JUMPDEST PUSH2 0x27E0 DUP3 PUSH2 0x2735 JUMP JUMPDEST SWAP1 POP PUSH1 0x20 DUP2 ADD SWAP1 POP SWAP2 SWAP1 POP JUMP JUMPDEST DUP3 DUP2 DUP4 CALLDATACOPY PUSH0 DUP4 DUP4 ADD MSTORE POP POP POP JUMP JUMPDEST PUSH0 PUSH2 0x280D PUSH2 0x2808 DUP5 PUSH2 0x27BD JUMP JUMPDEST PUSH2 0x27A3 JUMP JUMPDEST SWAP1 POP DUP3 DUP2 MSTORE PUSH1 0x20 DUP2 ADD DUP5 DUP5 DUP5 ADD GT ISZERO PUSH2 0x2829 JUMPI PUSH2 0x2828 PUSH2 0x2731 JUMP JUMPDEST JUMPDEST PUSH2 0x2834 DUP5 DUP3 DUP6 PUSH2 0x27ED JUMP JUMPDEST POP SWAP4 SWAP3 POP POP POP JUMP JUMPDEST PUSH0 DUP3 PUSH1 0x1F DUP4 ADD SLT PUSH2 0x2850 JUMPI PUSH2 0x284F PUSH2 0x272D JUMP JUMPDEST JUMPDEST DUP2 CALLDATALOAD PUSH2 0x2860 DUP5 DUP3 PUSH1 0x20 DUP7 ADD PUSH2 0x27FB JUMP JUMPDEST SWAP2 POP POP SWAP3 SWAP2 POP POP JUMP JUMPDEST PUSH0 DUP1 PUSH1 0x40 DUP4 DUP6 SUB SLT ISZERO PUSH2 0x287F JUMPI PUSH2 0x287E PUSH2 0x2527 JUMP JUMPDEST JUMPDEST PUSH0 PUSH2 0x288C DUP6 DUP3 DUP7 ADD PUSH2 0x25AC JUMP JUMPDEST SWAP3 POP POP PUSH1 0x20 DUP4 ADD CALLDATALOAD PUSH8 0xFFFFFFFFFFFFFFFF DUP2 GT ISZERO PUSH2 0x28AD JUMPI PUSH2 0x28AC PUSH2 0x252B JUMP JUMPDEST JUMPDEST PUSH2 0x28B9 DUP6 DUP3 DUP7 ADD PUSH2 0x283C JUMP JUMPDEST SWAP2 POP POP SWAP3 POP SWAP3 SWAP1 POP JUMP JUMPDEST PUSH0 PUSH8 0xFFFFFFFFFFFFFFFF DUP3 GT ISZERO PUSH2 0x28DD JUMPI PUSH2 0x28DC PUSH2 0x2745 JUMP JUMPDEST JUMPDEST PUSH1 0x20 DUP3 MUL SWAP1 POP PUSH1 0x20 DUP2 ADD SWAP1 POP SWAP2 SWAP1 POP JUMP JUMPDEST PUSH0 DUP1 REVERT JUMPDEST PUSH0 PUSH2 0x2904 PUSH2 0x28FF DUP5 PUSH2 0x28C3 JUMP JUMPDEST PUSH2 0x27A3 JUMP JUMPDEST SWAP1 POP DUP1 DUP4 DUP3 MSTORE PUSH1 0x20 DUP3 ADD SWAP1 POP PUSH1 0x20 DUP5 MUL DUP4 ADD DUP6 DUP2 GT ISZERO PUSH2 0x2927 JUMPI PUSH2 0x2926 PUSH2 0x28EE JUMP JUMPDEST JUMPDEST DUP4 JUMPDEST DUP2 DUP2 LT ISZERO PUSH2 0x2950 JUMPI DUP1 PUSH2 0x293C DUP9 DUP3 PUSH2 0x25AC JUMP JUMPDEST DUP5 MSTORE PUSH1 0x20 DUP5 ADD SWAP4 POP POP PUSH1 0x20 DUP2 ADD SWAP1 POP PUSH2 0x2929 JUMP JUMPDEST POP POP POP SWAP4 SWAP3 POP POP POP JUMP JUMPDEST PUSH0 DUP3 PUSH1 0x1F DUP4 ADD SLT PUSH2 0x296E JUMPI PUSH2 0x296D PUSH2 0x272D JUMP JUMPDEST JUMPDEST DUP2 CALLDATALOAD PUSH2 0x297E DUP5 DUP3 PUSH1 0x20 DUP7 ADD PUSH2 0x28F2 JUMP JUMPDEST SWAP2 POP POP SWAP3 SWAP2 POP POP JUMP JUMPDEST PUSH0 DUP1 PUSH1 0x40 DUP4 DUP6 SUB SLT ISZERO PUSH2 0x299D JUMPI PUSH2 0x299C PUSH2 0x2527 JUMP JUMPDEST JUMPDEST PUSH0 DUP4 ADD CALLDATALOAD PUSH8 0xFFFFFFFFFFFFFFFF DUP2 GT ISZERO PUSH2 0x29BA JUMPI PUSH2 0x29B9 PUSH2 0x252B JUMP JUMPDEST JUMPDEST PUSH2 0x29C6 DUP6 DUP3 DUP7 ADD PUSH2 0x295A JUMP JUMPDEST SWAP3 POP POP PUSH1 0x20 PUSH2 0x29D7 DUP6 DUP3 DUP7 ADD PUSH2 0x25AC JUMP JUMPDEST SWAP2 POP POP SWAP3 POP SWAP3 SWAP1 POP JUMP JUMPDEST PUSH0 DUP2 SWAP1 POP SWAP2 SWAP1 POP JUMP JUMPDEST PUSH2 0x29F3 DUP2 PUSH2 0x29E1 JUMP JUMPDEST DUP3 MSTORE POP POP JUMP JUMPDEST PUSH0 PUSH1 0x20 DUP3 ADD SWAP1 POP PUSH2 0x2A0C PUSH0 DUP4 ADD DUP5 PUSH2 0x29EA JUMP JUMPDEST SWAP3 SWAP2 POP POP JUMP JUMPDEST PUSH0 DUP1 PUSH0 DUP1 PUSH1 0x80 DUP6 DUP8 SUB SLT ISZERO PUSH2 0x2A2A JUMPI PUSH2 0x2A29 PUSH2 0x2527 JUMP JUMPDEST JUMPDEST PUSH0 DUP6 ADD CALLDATALOAD PUSH8 0xFFFFFFFFFFFFFFFF DUP2 GT ISZERO PUSH2 0x2A47 JUMPI PUSH2 0x2A46 PUSH2 0x252B JUMP JUMPDEST JUMPDEST PUSH2 0x2A53 DUP8 DUP3 DUP9 ADD PUSH2 0x283C JUMP JUMPDEST SWAP5 POP POP PUSH1 0x20 DUP6 ADD CALLDATALOAD PUSH8 0xFFFFFFFFFFFFFFFF DUP2 GT ISZERO PUSH2 0x2A74 JUMPI PUSH2 0x2A73 PUSH2 0x252B JUMP JUMPDEST JUMPDEST PUSH2 0x2A80 DUP8 DUP3 DUP9 ADD PUSH2 0x283C JUMP JUMPDEST SWAP4 POP POP PUSH1 0x40 PUSH2 0x2A91 DUP8 DUP3 DUP9 ADD PUSH2 0x254E JUMP JUMPDEST SWAP3 POP POP PUSH1 0x60 PUSH2 0x2AA2 DUP8 DUP3 DUP9 ADD PUSH2 0x254E JUMP JUMPDEST SWAP2 POP POP SWAP3 SWAP6 SWAP2 SWAP5 POP SWAP3 POP JUMP JUMPDEST PUSH32 0x4E487B7100000000000000000000000000000000000000000000000000000000 PUSH0 MSTORE PUSH1 0x21 PUSH1 0x4 MSTORE PUSH1 0x24 PUSH0 REVERT JUMPDEST PUSH1 0x3 DUP2 LT PUSH2 0x2AEC JUMPI PUSH2 0x2AEB PUSH2 0x2AAE JUMP JUMPDEST JUMPDEST POP JUMP JUMPDEST PUSH0 DUP2 SWAP1 POP PUSH2 0x2AFC DUP3 PUSH2 0x2ADB JUMP JUMPDEST SWAP2 SWAP1 POP JUMP JUMPDEST PUSH0 PUSH2 0x2B0B DUP3 PUSH2 0x2AEF JUMP JUMPDEST SWAP1 POP SWAP2 SWAP1 POP JUMP JUMPDEST PUSH2 0x2B1B DUP2 PUSH2 0x2B01 JUMP JUMPDEST DUP3 MSTORE POP POP JUMP JUMPDEST PUSH0 PUSH1 0x20 DUP3 ADD SWAP1 POP PUSH2 0x2B34 PUSH0 DUP4 ADD DUP5 PUSH2 0x2B12 JUMP JUMPDEST SWAP3 SWAP2 POP POP JUMP JUMPDEST PUSH0 PUSH1 0x20 DUP3 DUP5 SUB SLT ISZERO PUSH2 0x2B4F JUMPI PUSH2 0x2B4E PUSH2 0x2527 JUMP JUMPDEST JUMPDEST PUSH0 DUP3 ADD CALLDATALOAD PUSH8 0xFFFFFFFFFFFFFFFF DUP2 GT ISZERO PUSH2 0x2B6C JUMPI PUSH2 0x2B6B PUSH2 0x252B JUMP JUMPDEST JUMPDEST PUSH2 0x2B78 DUP5 DUP3 DUP6 ADD PUSH2 0x295A JUMP JUMPDEST SWAP2 POP POP SWAP3 SWAP2 POP POP JUMP JUMPDEST PUSH0 DUP2 MLOAD SWAP1 POP SWAP2 SWAP1 POP JUMP JUMPDEST PUSH0 DUP3 DUP3 MSTORE PUSH1 0x20 DUP3 ADD SWAP1 POP SWAP3 SWAP2 POP POP JUMP JUMPDEST PUSH0 DUP2 SWAP1 POP PUSH1 0x20 DUP3 ADD SWAP1 POP SWAP2 SWAP1 POP JUMP JUMPDEST PUSH2 0x2BB3 DUP2 PUSH2 0x258D JUMP JUMPDEST DUP3 MSTORE POP POP JUMP JUMPDEST PUSH0 PUSH2 0x2BC4 DUP4 DUP4 PUSH2 0x2BAA JUMP JUMPDEST PUSH1 0x20 DUP4 ADD SWAP1 POP SWAP3 SWAP2 POP POP JUMP JUMPDEST PUSH0 PUSH1 0x20 DUP3 ADD SWAP1 POP SWAP2 SWAP1 POP JUMP JUMPDEST PUSH0 PUSH2 0x2BE6 DUP3 PUSH2 0x2B81 JUMP JUMPDEST PUSH2 0x2BF0 DUP2 DUP6 PUSH2 0x2B8B JUMP JUMPDEST SWAP4 POP PUSH2 0x2BFB DUP4 PUSH2 0x2B9B JUMP JUMPDEST DUP1 PUSH0 JUMPDEST DUP4 DUP2 LT ISZERO PUSH2 0x2C2B JUMPI DUP2 MLOAD PUSH2 0x2C12 DUP9 DUP3 PUSH2 0x2BB9 JUMP JUMPDEST SWAP8 POP PUSH2 0x2C1D DUP4 PUSH2 0x2BD0 JUMP JUMPDEST SWAP3 POP POP PUSH1 0x1 DUP2 ADD SWAP1 POP PUSH2 0x2BFE JUMP JUMPDEST POP DUP6 SWAP4 POP POP POP POP SWAP3 SWAP2 POP POP JUMP JUMPDEST PUSH0 PUSH1 0x20 DUP3 ADD SWAP1 POP DUP2 DUP2 SUB PUSH0 DUP4 ADD MSTORE PUSH2 0x2C50 DUP2 DUP5 PUSH2 0x2BDC JUMP JUMPDEST SWAP1 POP SWAP3 SWAP2 POP POP JUMP JUMPDEST PUSH0 DUP1 PUSH0 PUSH1 0x60 DUP5 DUP7 SUB SLT ISZERO PUSH2 0x2C6F JUMPI PUSH2 0x2C6E PUSH2 0x2527 JUMP JUMPDEST JUMPDEST PUSH0 PUSH2 0x2C7C DUP7 DUP3 DUP8 ADD PUSH2 0x25AC JUMP JUMPDEST SWAP4 POP POP PUSH1 0x20 PUSH2 0x2C8D DUP7 DUP3 DUP8 ADD PUSH2 0x254E JUMP JUMPDEST SWAP3 POP POP PUSH1 0x40 DUP5 ADD CALLDATALOAD PUSH8 0xFFFFFFFFFFFFFFFF DUP2 GT ISZERO PUSH2 0x2CAE JUMPI PUSH2 0x2CAD PUSH2 0x252B JUMP JUMPDEST JUMPDEST PUSH2 0x2CBA DUP7 DUP3 DUP8 ADD PUSH2 0x283C JUMP JUMPDEST SWAP2 POP POP SWAP3 POP SWAP3 POP SWAP3 JUMP JUMPDEST PUSH0 DUP2 MLOAD SWAP1 POP SWAP2 SWAP1 POP JUMP JUMPDEST PUSH0 DUP3 DUP3 MSTORE PUSH1 0x20 DUP3 ADD SWAP1 POP SWAP3 SWAP2 POP POP JUMP JUMPDEST PUSH0 DUP2 SWAP1 POP PUSH1 0x20 DUP3 ADD SWAP1 POP SWAP2 SWAP1 POP JUMP JUMPDEST PUSH2 0x2CF6 DUP2 PUSH2 0x252F JUMP JUMPDEST DUP3 MSTORE POP POP JUMP JUMPDEST PUSH0 DUP2 MLOAD SWAP1 POP SWAP2 SWAP1 POP JUMP JUMPDEST PUSH0 DUP3 DUP3 MSTORE PUSH1 0x20 DUP3 ADD SWAP1 POP SWAP3 SWAP2 POP POP JUMP JUMPDEST DUP3 DUP2 DUP4 MCOPY PUSH0 DUP4 DUP4 ADD MSTORE POP POP POP JUMP JUMPDEST PUSH0 PUSH2 0x2D2E DUP3 PUSH2 0x2CFC JUMP JUMPDEST PUSH2 0x2D38 DUP2 DUP6 PUSH2 0x2D06 JUMP JUMPDEST SWAP4 POP PUSH2 0x2D48 DUP2 DUP6 PUSH1 0x20 DUP7 ADD PUSH2 0x2D16 JUMP JUMPDEST PUSH2 0x2D51 DUP2 PUSH2 0x2735 JUMP JUMPDEST DUP5 ADD SWAP2 POP POP SWAP3 SWAP2 POP POP JUMP JUMPDEST PUSH0 PUSH1 0x40 DUP4 ADD PUSH0 DUP4 ADD MLOAD PUSH2 0x2D71 PUSH0 DUP7 ADD DUP3 PUSH2 0x2CED JUMP JUMPDEST POP PUSH1 0x20 DUP4 ADD MLOAD DUP5 DUP3 SUB PUSH1 0x20 DUP7 ADD MSTORE PUSH2 0x2D89 DUP3 DUP3 PUSH2 0x2D24 JUMP JUMPDEST SWAP2 POP POP DUP1 SWAP2 POP POP SWAP3 SWAP2 POP POP JUMP JUMPDEST PUSH0 PUSH2 0x2DA1 DUP4 DUP4 PUSH2 0x2D5C JUMP JUMPDEST SWAP1 POP SWAP3 SWAP2 POP POP JUMP JUMPDEST PUSH0 PUSH1 0x20 DUP3 ADD SWAP1 POP SWAP2 SWAP1 POP JUMP JUMPDEST PUSH0 PUSH2 0x2DBF DUP3 PUSH2 0x2CC4 JUMP JUMPDEST PUSH2 0x2DC9 DUP2 DUP6 PUSH2 0x2CCE JUMP JUMPDEST SWAP4 POP DUP4 PUSH1 0x20 DUP3 MUL DUP6 ADD PUSH2 0x2DDB DUP6 PUSH2 0x2CDE JUMP JUMPDEST DUP1 PUSH0 JUMPDEST DUP6 DUP2 LT ISZERO PUSH2 0x2E16 JUMPI DUP5 DUP5 SUB DUP10 MSTORE DUP2 MLOAD PUSH2 0x2DF7 DUP6 DUP3 PUSH2 0x2D96 JUMP JUMPDEST SWAP5 POP PUSH2 0x2E02 DUP4 PUSH2 0x2DA9 JUMP JUMPDEST SWAP3 POP PUSH1 0x20 DUP11 ADD SWAP10 POP POP PUSH1 0x1 DUP2 ADD SWAP1 POP PUSH2 0x2DDE JUMP JUMPDEST POP DUP3 SWAP8 POP DUP8 SWAP6 POP POP POP POP POP POP SWAP3 SWAP2 POP POP JUMP JUMPDEST PUSH0 PUSH1 0x20 DUP3 ADD SWAP1 POP DUP2 DUP2 SUB PUSH0 DUP4 ADD MSTORE PUSH2 0x2E40 DUP2 DUP5 PUSH2 0x2DB5 JUMP JUMPDEST SWAP1 POP SWAP3 SWAP2 POP POP JUMP JUMPDEST PUSH0 DUP3 DUP3 MSTORE PUSH1 0x20 DUP3 ADD SWAP1 POP SWAP3 SWAP2 POP POP JUMP JUMPDEST PUSH0 PUSH2 0x2E62 DUP3 PUSH2 0x2CFC JUMP JUMPDEST PUSH2 0x2E6C DUP2 DUP6 PUSH2 0x2E48 JUMP JUMPDEST SWAP4 POP PUSH2 0x2E7C DUP2 DUP6 PUSH1 0x20 DUP7 ADD PUSH2 0x2D16 JUMP JUMPDEST PUSH2 0x2E85 DUP2 PUSH2 0x2735 JUMP JUMPDEST DUP5 ADD SWAP2 POP POP SWAP3 SWAP2 POP POP JUMP JUMPDEST PUSH0 PUSH1 0xE0 DUP3 ADD SWAP1 POP DUP2 DUP2 SUB PUSH0 DUP4 ADD MSTORE PUSH2 0x2EA8 DUP2 DUP11 PUSH2 0x2E58 JUMP JUMPDEST SWAP1 POP DUP2 DUP2 SUB PUSH1 0x20 DUP4 ADD MSTORE PUSH2 0x2EBC DUP2 DUP10 PUSH2 0x2E58 JUMP JUMPDEST SWAP1 POP PUSH2 0x2ECB PUSH1 0x40 DUP4 ADD DUP9 PUSH2 0x261B JUMP JUMPDEST PUSH2 0x2ED8 PUSH1 0x60 DUP4 ADD DUP8 PUSH2 0x26AB JUMP JUMPDEST PUSH2 0x2EE5 PUSH1 0x80 DUP4 ADD DUP7 PUSH2 0x26AB JUMP JUMPDEST PUSH2 0x2EF2 PUSH1 0xA0 DUP4 ADD DUP6 PUSH2 0x26AB JUMP JUMPDEST PUSH2 0x2EFF PUSH1 0xC0 DUP4 ADD DUP5 PUSH2 0x2B12 JUMP JUMPDEST SWAP9 SWAP8 POP POP POP POP POP POP POP POP JUMP JUMPDEST PUSH32 0x43616C6C6572206973206E6F7420746865206F776E6572000000000000000000 PUSH0 DUP3 ADD MSTORE POP JUMP JUMPDEST PUSH0 PUSH2 0x2F3F PUSH1 0x17 DUP4 PUSH2 0x2E48 JUMP JUMPDEST SWAP2 POP PUSH2 0x2F4A DUP3 PUSH2 0x2F0B JUMP JUMPDEST PUSH1 0x20 DUP3 ADD SWAP1 POP SWAP2 SWAP1 POP JUMP JUMPDEST PUSH0 PUSH1 0x20 DUP3 ADD SWAP1 POP DUP2 DUP2 SUB PUSH0 DUP4 ADD MSTORE PUSH2 0x2F6C DUP2 PUSH2 0x2F33 JUMP JUMPDEST SWAP1 POP SWAP2 SWAP1 POP JUMP JUMPDEST PUSH32 0x50726F6A65637420646F6573206E6F7420657869737400000000000000000000 PUSH0 DUP3 ADD MSTORE POP JUMP JUMPDEST PUSH0 PUSH2 0x2FA7 PUSH1 0x16 DUP4 PUSH2 0x2E48 JUMP JUMPDEST SWAP2 POP PUSH2 0x2FB2 DUP3 PUSH2 0x2F73 JUMP JUMPDEST PUSH1 0x20 DUP3 ADD SWAP1 POP SWAP2 SWAP1 POP JUMP JUMPDEST PUSH0 PUSH1 0x20 DUP3 ADD SWAP1 POP DUP2 DUP2 SUB PUSH0 DUP4 ADD MSTORE PUSH2 0x2FD4 DUP2 PUSH2 0x2F9B JUMP JUMPDEST SWAP1 POP SWAP2 SWAP1 POP JUMP JUMPDEST PUSH32 0x50726F6A6563742069736E2774206661696C6564000000000000000000000000 PUSH0 DUP3 ADD MSTORE POP JUMP JUMPDEST PUSH0 PUSH2 0x300F PUSH1 0x14 DUP4 PUSH2 0x2E48 JUMP JUMPDEST SWAP2 POP PUSH2 0x301A DUP3 PUSH2 0x2FDB JUMP JUMPDEST PUSH1 0x20 DUP3 ADD SWAP1 POP SWAP2 SWAP1 POP JUMP JUMPDEST PUSH0 PUSH1 0x20 DUP3 ADD SWAP1 POP DUP2 DUP2 SUB PUSH0 DUP4 ADD MSTORE PUSH2 0x303C DUP2 PUSH2 0x3003 JUMP JUMPDEST SWAP1 POP SWAP2 SWAP1 POP JUMP JUMPDEST PUSH32 0x4E487B7100000000000000000000000000000000000000000000000000000000 PUSH0 MSTORE PUSH1 0x32 PUSH1 0x4 MSTORE PUSH1 0x24 PUSH0 REVERT JUMPDEST PUSH32 0x4E487B7100000000000000000000000000000000000000000000000000000000 PUSH0 MSTORE PUSH1 0x11 PUSH1 0x4 MSTORE PUSH1 0x24 PUSH0 REVERT JUMPDEST PUSH0 PUSH2 0x30A7 DUP3 PUSH2 0x252F JUMP JUMPDEST SWAP2 POP PUSH2 0x30B2 DUP4 PUSH2 0x252F JUMP JUMPDEST SWAP3 POP DUP3 DUP3 ADD SWAP1 POP DUP1 DUP3 GT ISZERO PUSH2 0x30CA JUMPI PUSH2 0x30C9 PUSH2 0x3070 JUMP JUMPDEST JUMPDEST SWAP3 SWAP2 POP POP JUMP JUMPDEST PUSH2 0x30D9 DUP2 PUSH2 0x258D JUMP JUMPDEST DUP3 MSTORE POP POP JUMP JUMPDEST PUSH0 PUSH1 0x60 DUP3 ADD SWAP1 POP PUSH2 0x30F2 PUSH0 DUP4 ADD DUP7 PUSH2 0x30D0 JUMP JUMPDEST PUSH2 0x30FF PUSH1 0x20 DUP4 ADD DUP6 PUSH2 0x261B JUMP JUMPDEST PUSH2 0x310C PUSH1 0x40 DUP4 ADD DUP5 PUSH2 0x26AB JUMP JUMPDEST SWAP5 SWAP4 POP POP POP POP JUMP JUMPDEST PUSH0 PUSH2 0x311E DUP3 PUSH2 0x252F JUMP JUMPDEST SWAP2 POP PUSH2 0x3129 DUP4 PUSH2 0x252F JUMP JUMPDEST SWAP3 POP DUP3 DUP3 SUB SWAP1 POP DUP2 DUP2 GT ISZERO PUSH2 0x3141 JUMPI PUSH2 0x3140 PUSH2 0x3070 JUMP JUMPDEST JUMPDEST SWAP3 SWAP2 POP POP JUMP JUMPDEST PUSH32 0x4E487B7100000000000000000000000000000000000000000000000000000000 PUSH0 MSTORE PUSH1 0x12 PUSH1 0x4 MSTORE PUSH1 0x24 PUSH0 REVERT JUMPDEST PUSH0 PUSH2 0x317E DUP3 PUSH2 0x252F JUMP JUMPDEST SWAP2 POP PUSH2 0x3189 DUP4 PUSH2 0x252F JUMP JUMPDEST SWAP3 POP DUP3 PUSH2 0x3199 JUMPI PUSH2 0x3198 PUSH2 0x3147 JUMP JUMPDEST JUMPDEST DUP3 DUP3 DIV SWAP1 POP SWAP3 SWAP2 POP POP JUMP JUMPDEST PUSH32 0x50726F6A656374206973206E6F74206163746976650000000000000000000000 PUSH0 DUP3 ADD MSTORE POP JUMP JUMPDEST PUSH0 PUSH2 0x31D8 PUSH1 0x15 DUP4 PUSH2 0x2E48 JUMP JUMPDEST SWAP2 POP PUSH2 0x31E3 DUP3 PUSH2 0x31A4 JUMP JUMPDEST PUSH1 0x20 DUP3 ADD SWAP1 POP SWAP2 SWAP1 POP JUMP JUMPDEST PUSH0 PUSH1 0x20 DUP3 ADD SWAP1 POP DUP2 DUP2 SUB PUSH0 DUP4 ADD MSTORE PUSH2 0x3205 DUP2 PUSH2 0x31CC JUMP JUMPDEST SWAP1 POP SWAP2 SWAP1 POP JUMP JUMPDEST PUSH0 PUSH1 0x40 DUP3 ADD SWAP1 POP PUSH2 0x321F PUSH0 DUP4 ADD DUP6 PUSH2 0x30D0 JUMP JUMPDEST PUSH2 0x322C PUSH1 0x20 DUP4 ADD DUP5 PUSH2 0x2B12 JUMP JUMPDEST SWAP4 SWAP3 POP POP POP JUMP JUMPDEST PUSH32 0x46756E64696E6720706572696F64206973206E6F74206F766572207965740000 PUSH0 DUP3 ADD MSTORE POP JUMP JUMPDEST PUSH0 PUSH2 0x3267 PUSH1 0x1E DUP4 PUSH2 0x2E48 JUMP JUMPDEST SWAP2 POP PUSH2 0x3272 DUP3 PUSH2 0x3233 JUMP JUMPDEST PUSH1 0x20 DUP3 ADD SWAP1 POP SWAP2 SWAP1 POP JUMP JUMPDEST PUSH0 PUSH1 0x20 DUP3 ADD SWAP1 POP DUP2 DUP2 SUB PUSH0 DUP4 ADD MSTORE PUSH2 0x3294 DUP2 PUSH2 0x325B JUMP JUMPDEST SWAP1 POP SWAP2 SWAP1 POP JUMP JUMPDEST PUSH32 0x4E6F7468696E6720746F20776974686472617700000000000000000000000000 PUSH0 DUP3 ADD MSTORE POP JUMP JUMPDEST PUSH0 PUSH2 0x32CF PUSH1 0x13 DUP4 PUSH2 0x2E48 JUMP JUMPDEST SWAP2 POP PUSH2 0x32DA DUP3 PUSH2 0x329B JUMP JUMPDEST PUSH1 0x20 DUP3 ADD SWAP1 POP SWAP2 SWAP1 POP JUMP JUMPDEST PUSH0 PUSH1 0x20 DUP3 ADD SWAP1 POP DUP2 DUP2 SUB PUSH0 DUP4 ADD MSTORE PUSH2 0x32FC DUP2 PUSH2 0x32C3 JUMP JUMPDEST SWAP1 POP SWAP2 SWAP1 POP JUMP JUMPDEST PUSH32 0x436F6E7472616374206973206E6F742070617573656400000000000000000000 PUSH0 DUP3 ADD MSTORE POP JUMP JUMPDEST PUSH0 PUSH2 0x3337 PUSH1 0x16 DUP4 PUSH2 0x2E48 JUMP JUMPDEST SWAP2 POP PUSH2 0x3342 DUP3 PUSH2 0x3303 JUMP JUMPDEST PUSH1 0x20 DUP3 ADD SWAP1 POP SWAP2 SWAP1 POP JUMP JUMPDEST PUSH0 PUSH1 0x20 DUP3 ADD SWAP1 POP DUP2 DUP2 SUB PUSH0 DUP4 ADD MSTORE PUSH2 0x3364 DUP2 PUSH2 0x332B JUMP JUMPDEST SWAP1 POP SWAP2 SWAP1 POP JUMP JUMPDEST PUSH32 0x50726F6A6563742069736E277420616374697665000000000000000000000000 PUSH0 DUP3 ADD MSTORE POP JUMP JUMPDEST PUSH0 PUSH2 0x339F PUSH1 0x14 DUP4 PUSH2 0x2E48 JUMP JUMPDEST SWAP2 POP PUSH2 0x33AA DUP3 PUSH2 0x336B JUMP JUMPDEST PUSH1 0x20 DUP3 ADD SWAP1 POP SWAP2 SWAP1 POP JUMP JUMPDEST PUSH0 PUSH1 0x20 DUP3 ADD SWAP1 POP DUP2 DUP2 SUB PUSH0 DUP4 ADD MSTORE PUSH2 0x33CC DUP2 PUSH2 0x3393 JUMP JUMPDEST SWAP1 POP SWAP2 SWAP1 POP JUMP JUMPDEST PUSH32 0x436F6E747269627574696F6E206D757374206265206772656174657220746861 PUSH0 DUP3 ADD MSTORE PUSH32 0x6E207A65726F0000000000000000000000000000000000000000000000000000 PUSH1 0x20 DUP3 ADD MSTORE POP JUMP JUMPDEST PUSH0 PUSH2 0x342D PUSH1 0x26 DUP4 PUSH2 0x2E48 JUMP JUMPDEST SWAP2 POP PUSH2 0x3438 DUP3 PUSH2 0x33D3 JUMP JUMPDEST PUSH1 0x40 DUP3 ADD SWAP1 POP SWAP2 SWAP1 POP JUMP JUMPDEST PUSH0 PUSH1 0x20 DUP3 ADD SWAP1 POP DUP2 DUP2 SUB PUSH0 DUP4 ADD MSTORE PUSH2 0x345A DUP2 PUSH2 0x3421 JUMP JUMPDEST SWAP1 POP SWAP2 SWAP1 POP JUMP JUMPDEST PUSH32 0x4F6E6C792070726F6A6563742063726561746F722063616E2073656E64206675 PUSH0 DUP3 ADD MSTORE PUSH32 0x6E64730000000000000000000000000000000000000000000000000000000000 PUSH1 0x20 DUP3 ADD MSTORE POP JUMP JUMPDEST PUSH0 PUSH2 0x34BB PUSH1 0x23 DUP4 PUSH2 0x2E48 JUMP JUMPDEST SWAP2 POP PUSH2 0x34C6 DUP3 PUSH2 0x3461 JUMP JUMPDEST PUSH1 0x40 DUP3 ADD SWAP1 POP SWAP2 SWAP1 POP JUMP JUMPDEST PUSH0 PUSH1 0x20 DUP3 ADD SWAP1 POP DUP2 DUP2 SUB PUSH0 DUP4 ADD MSTORE PUSH2 0x34E8 DUP2 PUSH2 0x34AF JUMP JUMPDEST SWAP1 POP SWAP2 SWAP1 POP JUMP JUMPDEST PUSH32 0x50726F6A656374206973206E6F742066756E6465640000000000000000000000 PUSH0 DUP3 ADD MSTORE POP JUMP JUMPDEST PUSH0 PUSH2 0x3523 PUSH1 0x15 DUP4 PUSH2 0x2E48 JUMP JUMPDEST SWAP2 POP PUSH2 0x352E DUP3 PUSH2 0x34EF JUMP JUMPDEST PUSH1 0x20 DUP3 ADD SWAP1 POP SWAP2 SWAP1 POP JUMP JUMPDEST PUSH0 PUSH1 0x20 DUP3 ADD SWAP1 POP DUP2 DUP2 SUB PUSH0 DUP4 ADD MSTORE PUSH2 0x3550 DUP2 PUSH2 0x3517 JUMP JUMPDEST SWAP1 POP SWAP2 SWAP1 POP JUMP JUMPDEST PUSH0 DUP2 SWAP1 POP SWAP2 SWAP1 POP JUMP JUMPDEST PUSH0 PUSH2 0x357A PUSH2 0x3575 PUSH2 0x3570 DUP5 PUSH2 0x25EB JUMP JUMPDEST PUSH2 0x3557 JUMP JUMPDEST PUSH2 0x25EB JUMP JUMPDEST SWAP1 POP SWAP2 SWAP1 POP JUMP JUMPDEST PUSH0 PUSH2 0x358B DUP3 PUSH2 0x3560 JUMP JUMPDEST SWAP1 POP SWAP2 SWAP1 POP JUMP JUMPDEST PUSH0 PUSH2 0x359C DUP3 PUSH2 0x3581 JUMP JUMPDEST SWAP1 POP SWAP2 SWAP1 POP JUMP JUMPDEST PUSH2 0x35AC DUP2 PUSH2 0x3592 JUMP JUMPDEST DUP3 MSTORE POP POP JUMP JUMPDEST PUSH0 PUSH1 0x60 DUP3 ADD SWAP1 POP PUSH2 0x35C5 PUSH0 DUP4 ADD DUP7 PUSH2 0x30D0 JUMP JUMPDEST PUSH2 0x35D2 PUSH1 0x20 DUP4 ADD DUP6 PUSH2 0x35A3 JUMP JUMPDEST PUSH2 0x35DF PUSH1 0x40 DUP4 ADD DUP5 PUSH2 0x26AB JUMP JUMPDEST SWAP5 SWAP4 POP POP POP POP JUMP JUMPDEST PUSH32 0x436F6E7472616374206973207061757365640000000000000000000000000000 PUSH0 DUP3 ADD MSTORE POP JUMP JUMPDEST PUSH0 PUSH2 0x361B PUSH1 0x12 DUP4 PUSH2 0x2E48 JUMP JUMPDEST SWAP2 POP PUSH2 0x3626 DUP3 PUSH2 0x35E7 JUMP JUMPDEST PUSH1 0x20 DUP3 ADD SWAP1 POP SWAP2 SWAP1 POP JUMP JUMPDEST PUSH0 PUSH1 0x20 DUP3 ADD SWAP1 POP DUP2 DUP2 SUB PUSH0 DUP4 ADD MSTORE PUSH2 0x3648 DUP2 PUSH2 0x360F JUMP JUMPDEST SWAP1 POP SWAP2 SWAP1 POP JUMP JUMPDEST PUSH32 0x546869732075736572206973206E6F742063726561746F72206F662074686973 PUSH0 DUP3 ADD MSTORE PUSH32 0x2070726F6A656374000000000000000000000000000000000000000000000000 PUSH1 0x20 DUP3 ADD MSTORE POP JUMP JUMPDEST PUSH0 PUSH2 0x36A9 PUSH1 0x28 DUP4 PUSH2 0x2E48 JUMP JUMPDEST SWAP2 POP PUSH2 0x36B4 DUP3 PUSH2 0x364F JUMP JUMPDEST PUSH1 0x40 DUP3 ADD SWAP1 POP SWAP2 SWAP1 POP JUMP JUMPDEST PUSH0 PUSH1 0x20 DUP3 ADD SWAP1 POP DUP2 DUP2 SUB PUSH0 DUP4 ADD MSTORE PUSH2 0x36D6 DUP2 PUSH2 0x369D JUMP JUMPDEST SWAP1 POP SWAP2 SWAP1 POP JUMP JUMPDEST PUSH32 0x4E487B7100000000000000000000000000000000000000000000000000000000 PUSH0 MSTORE PUSH1 0x22 PUSH1 0x4 MSTORE PUSH1 0x24 PUSH0 REVERT JUMPDEST PUSH0 PUSH1 0x2 DUP3 DIV SWAP1 POP PUSH1 0x1 DUP3 AND DUP1 PUSH2 0x3721 JUMPI PUSH1 0x7F DUP3 AND SWAP2 POP JUMPDEST PUSH1 0x20 DUP3 LT DUP2 SUB PUSH2 0x3734 JUMPI PUSH2 0x3733 PUSH2 0x36DD JUMP JUMPDEST JUMPDEST POP SWAP2 SWAP1 POP JUMP JUMPDEST PUSH0 DUP2 SWAP1 POP DUP2 PUSH0 MSTORE PUSH1 0x20 PUSH0 KECCAK256 SWAP1 POP SWAP2 SWAP1 POP JUMP JUMPDEST PUSH0 PUSH1 0x20 PUSH1 0x1F DUP4 ADD DIV SWAP1 POP SWAP2 SWAP1 POP JUMP JUMPDEST PUSH0 DUP3 DUP3 SHL SWAP1 POP SWAP3 SWAP2 POP POP JUMP JUMPDEST PUSH0 PUSH1 0x8 DUP4 MUL PUSH2 0x3796 PUSH32 0xFFFFFFFFFFFFFFFFFFFFFFFFFFFFFFFFFFFFFFFFFFFFFFFFFFFFFFFFFFFFFFFF DUP3 PUSH2 0x375B JUMP JUMPDEST PUSH2 0x37A0 DUP7 DUP4 PUSH2 0x375B JUMP JUMPDEST SWAP6 POP DUP1 NOT DUP5 AND SWAP4 POP DUP1 DUP7 AND DUP5 OR SWAP3 POP POP POP SWAP4 SWAP3 POP POP POP JUMP JUMPDEST PUSH0 PUSH2 0x37D2 PUSH2 0x37CD PUSH2 0x37C8 DUP5 PUSH2 0x252F JUMP JUMPDEST PUSH2 0x3557 JUMP JUMPDEST PUSH2 0x252F JUMP JUMPDEST SWAP1 POP SWAP2 SWAP1 POP JUMP JUMPDEST PUSH0 DUP2 SWAP1 POP SWAP2 SWAP1 POP JUMP JUMPDEST PUSH2 0x37EB DUP4 PUSH2 0x37B8 JUMP JUMPDEST PUSH2 0x37FF PUSH2 0x37F7 DUP3 PUSH2 0x37D9 JUMP JUMPDEST DUP5 DUP5 SLOAD PUSH2 0x3767 JUMP JUMPDEST DUP3 SSTORE POP POP POP POP JUMP JUMPDEST PUSH0 SWAP1 JUMP JUMPDEST PUSH2 0x3813 PUSH2 0x3807 JUMP JUMPDEST PUSH2 0x381E DUP2 DUP5 DUP5 PUSH2 0x37E2 JUMP JUMPDEST POP POP POP JUMP JUMPDEST JUMPDEST DUP2 DUP2 LT ISZERO PUSH2 0x3841 JUMPI PUSH2 0x3836 PUSH0 DUP3 PUSH2 0x380B JUMP JUMPDEST PUSH1 0x1 DUP2 ADD SWAP1 POP PUSH2 0x3824 JUMP JUMPDEST POP POP JUMP JUMPDEST PUSH1 0x1F DUP3 GT ISZERO PUSH2 0x3886 JUMPI PUSH2 0x3857 DUP2 PUSH2 0x373A JUMP JUMPDEST PUSH2 0x3860 DUP5 PUSH2 0x374C JUMP JUMPDEST DUP2 ADD PUSH1 0x20 DUP6 LT ISZERO PUSH2 0x386F JUMPI DUP2 SWAP1 POP JUMPDEST PUSH2 0x3883 PUSH2 0x387B DUP6 PUSH2 0x374C JUMP JUMPDEST DUP4 ADD DUP3 PUSH2 0x3823 JUMP JUMPDEST POP POP JUMPDEST POP POP POP JUMP JUMPDEST PUSH0 DUP3 DUP3 SHR SWAP1 POP SWAP3 SWAP2 POP POP JUMP JUMPDEST PUSH0 PUSH2 0x38A6 PUSH0 NOT DUP5 PUSH1 0x8 MUL PUSH2 0x388B JUMP JUMPDEST NOT DUP1 DUP4 AND SWAP2 POP POP SWAP3 SWAP2 POP POP JUMP JUMPDEST PUSH0 PUSH2 0x38BE DUP4 DUP4 PUSH2 0x3897 JUMP JUMPDEST SWAP2 POP DUP3 PUSH1 0x2 MUL DUP3 OR SWAP1 POP SWAP3 SWAP2 POP POP JUMP JUMPDEST PUSH2 0x38D7 DUP3 PUSH2 0x2CFC JUMP JUMPDEST PUSH8 0xFFFFFFFFFFFFFFFF DUP2 GT ISZERO PUSH2 0x38F0 JUMPI PUSH2 0x38EF PUSH2 0x2745 JUMP JUMPDEST JUMPDEST PUSH2 0x38FA DUP3 SLOAD PUSH2 0x370A JUMP JUMPDEST PUSH2 0x3905 DUP3 DUP3 DUP6 PUSH2 0x3845 JUMP JUMPDEST PUSH0 PUSH1 0x20 SWAP1 POP PUSH1 0x1F DUP4 GT PUSH1 0x1 DUP2 EQ PUSH2 0x3936 JUMPI PUSH0 DUP5 ISZERO PUSH2 0x3924 JUMPI DUP3 DUP8 ADD MLOAD SWAP1 POP JUMPDEST PUSH2 0x392E DUP6 DUP3 PUSH2 0x38B3 JUMP JUMPDEST DUP7 SSTORE POP PUSH2 0x3995 JUMP JUMPDEST PUSH1 0x1F NOT DUP5 AND PUSH2 0x3944 DUP7 PUSH2 0x373A JUMP JUMPDEST PUSH0 JUMPDEST DUP3 DUP2 LT ISZERO PUSH2 0x396B JUMPI DUP5 DUP10 ADD MLOAD DUP3 SSTORE PUSH1 0x1 DUP3 ADD SWAP2 POP PUSH1 0x20 DUP6 ADD SWAP5 POP PUSH1 0x20 DUP2 ADD SWAP1 POP PUSH2 0x3946 JUMP JUMPDEST DUP7 DUP4 LT ISZERO PUSH2 0x3988 JUMPI DUP5 DUP10 ADD MLOAD PUSH2 0x3984 PUSH1 0x1F DUP10 AND DUP3 PUSH2 0x3897 JUMP JUMPDEST DUP4 SSTORE POP JUMPDEST PUSH1 0x1 PUSH1 0x2 DUP9 MUL ADD DUP9 SSTORE POP POP POP JUMPDEST POP POP POP POP POP POP JUMP JUMPDEST PUSH0 PUSH1 0x40 DUP3 ADD SWAP1 POP PUSH2 0x39B0 PUSH0 DUP4 ADD DUP6 PUSH2 0x30D0 JUMP JUMPDEST DUP2 DUP2 SUB PUSH1 0x20 DUP4 ADD MSTORE PUSH2 0x39C2 DUP2 DUP5 PUSH2 0x2E58 JUMP JUMPDEST SWAP1 POP SWAP4 SWAP3 POP POP POP JUMP JUMPDEST PUSH0 PUSH2 0x39D5 DUP3 PUSH2 0x29E1 JUMP JUMPDEST SWAP2 POP PUSH2 0x39E0 DUP4 PUSH2 0x29E1 JUMP JUMPDEST SWAP3 POP DUP3 DUP3 SUB SWAP1 POP DUP2 DUP2 SLT PUSH0 DUP5 SLT AND DUP3 DUP3 SGT PUSH0 DUP6 SLT ISZERO AND OR ISZERO PUSH2 0x3A05 JUMPI PUSH2 0x3A04 PUSH2 0x3070 JUMP JUMPDEST JUMPDEST SWAP3 SWAP2 POP POP JUMP JUMPDEST PUSH0 PUSH2 0x3A15 DUP3 PUSH2 0x29E1 JUMP JUMPDEST SWAP2 POP PUSH2 0x3A20 DUP4 PUSH2 0x29E1 JUMP JUMPDEST SWAP3 POP DUP3 PUSH2 0x3A30 JUMPI PUSH2 0x3A2F PUSH2 0x3147 JUMP JUMPDEST JUMPDEST PUSH1 0x1 PUSH0 SUB DUP4 EQ PUSH32 0x8000000000000000000000000000000000000000000000000000000000000000 DUP4 EQ AND ISZERO PUSH2 0x3A68 JUMPI PUSH2 0x3A67 PUSH2 0x3070 JUMP JUMPDEST JUMPDEST DUP3 DUP3 SDIV SWAP1 POP SWAP3 SWAP2 POP POP JUMP JUMPDEST PUSH0 PUSH2 0x3A7D DUP3 PUSH2 0x29E1 JUMP JUMPDEST SWAP2 POP PUSH2 0x3A88 DUP4 PUSH2 0x29E1 JUMP JUMPDEST SWAP3 POP DUP3 DUP3 ADD SWAP1 POP DUP3 DUP2 SLT ISZERO PUSH0 DUP4 SLT AND DUP4 DUP3 SLT PUSH0 DUP5 SLT ISZERO AND OR ISZERO PUSH2 0x3AAE JUMPI PUSH2 0x3AAD PUSH2 0x3070 JUMP JUMPDEST JUMPDEST SWAP3 SWAP2 POP POP JUMP JUMPDEST PUSH0 DUP2 SWAP1 POP SWAP3 SWAP2 POP POP JUMP JUMPDEST PUSH0 PUSH2 0x3AC8 DUP3 PUSH2 0x2CFC JUMP JUMPDEST PUSH2 0x3AD2 DUP2 DUP6 PUSH2 0x3AB4 JUMP JUMPDEST SWAP4 POP PUSH2 0x3AE2 DUP2 DUP6 PUSH1 0x20 DUP7 ADD PUSH2 0x2D16 JUMP JUMPDEST DUP1 DUP5 ADD SWAP2 POP POP SWAP3 SWAP2 POP POP JUMP JUMPDEST PUSH0 DUP2 SWAP1 POP SWAP2 SWAP1 POP JUMP JUMPDEST PUSH2 0x3B08 PUSH2 0x3B03 DUP3 PUSH2 0x252F JUMP JUMPDEST PUSH2 0x3AEE JUMP JUMPDEST DUP3 MSTORE POP POP JUMP JUMPDEST PUSH0 DUP2 PUSH1 0x60 SHL SWAP1 POP SWAP2 SWAP1 POP JUMP JUMPDEST PUSH0 PUSH2 0x3B24 DUP3 PUSH2 0x3B0E JUMP JUMPDEST SWAP1 POP SWAP2 SWAP1 POP JUMP JUMPDEST PUSH0 PUSH2 0x3B35 DUP3 PUSH2 0x3B1A JUMP JUMPDEST SWAP1 POP SWAP2 SWAP1 POP JUMP JUMPDEST PUSH2 0x3B4D PUSH2 0x3B48 DUP3 PUSH2 0x260A JUMP JUMPDEST PUSH2 0x3B2B JUMP JUMPDEST DUP3 MSTORE POP POP JUMP JUMPDEST PUSH0 PUSH2 0x3B5E DUP3 DUP8 PUSH2 0x3ABE JUMP JUMPDEST SWAP2 POP PUSH2 0x3B6A DUP3 DUP7 PUSH2 0x3ABE JUMP JUMPDEST SWAP2 POP PUSH2 0x3B76 DUP3 DUP6 PUSH2 0x3AF7 JUMP JUMPDEST PUSH1 0x20 DUP3 ADD SWAP2 POP PUSH2 0x3B86 DUP3 DUP5 PUSH2 0x3B3C JUMP JUMPDEST PUSH1 0x14 DUP3 ADD SWAP2 POP DUP2 SWAP1 POP SWAP6 SWAP5 POP POP POP POP POP JUMP JUMPDEST PUSH0 PUSH1 0xC0 DUP3 ADD SWAP1 POP PUSH2 0x3BAB PUSH0 DUP4 ADD DUP10 PUSH2 0x30D0 JUMP JUMPDEST DUP2 DUP2 SUB PUSH1 0x20 DUP4 ADD MSTORE PUSH2 0x3BBD DUP2 DUP9 PUSH2 0x2E58 JUMP JUMPDEST SWAP1 POP DUP2 DUP2 SUB PUSH1 0x40 DUP4 ADD MSTORE PUSH2 0x3BD1 DUP2 DUP8 PUSH2 0x2E58 JUMP JUMPDEST SWAP1 POP PUSH2 0x3BE0 PUSH1 0x60 DUP4 ADD DUP7 PUSH2 0x261B JUMP JUMPDEST PUSH2 0x3BED PUSH1 0x80 DUP4 ADD DUP6 PUSH2 0x26AB JUMP JUMPDEST PUSH2 0x3BFA PUSH1 0xA0 DUP4 ADD DUP5 PUSH2 0x26AB JUMP JUMPDEST SWAP8 SWAP7 POP POP POP POP POP POP POP JUMP JUMPDEST PUSH0 PUSH2 0x3C0F DUP3 PUSH2 0x252F JUMP JUMPDEST SWAP2 POP PUSH2 0x3C1A DUP4 PUSH2 0x252F JUMP JUMPDEST SWAP3 POP DUP3 DUP3 MUL PUSH2 0x3C28 DUP2 PUSH2 0x252F JUMP JUMPDEST SWAP2 POP DUP3 DUP3 DIV DUP5 EQ DUP4 ISZERO OR PUSH2 0x3C3F JUMPI PUSH2 0x3C3E PUSH2 0x3070 JUMP JUMPDEST JUMPDEST POP SWAP3 SWAP2 POP POP JUMP JUMPDEST PUSH0 PUSH2 0x3C50 DUP3 PUSH2 0x252F JUMP JUMPDEST SWAP2 POP PUSH32 0xFFFFFFFFFFFFFFFFFFFFFFFFFFFFFFFFFFFFFFFFFFFFFFFFFFFFFFFFFFFFFFFF DUP3 SUB PUSH2 0x3C82 JUMPI PUSH2 0x3C81 PUSH2 0x3070 JUMP JUMPDEST JUMPDEST PUSH1 0x1 DUP3 ADD SWAP1 POP SWAP2 SWAP1 POP JUMP JUMPDEST PUSH0 PUSH2 0x3C97 DUP3 PUSH2 0x252F JUMP JUMPDEST SWAP2 POP PUSH0 DUP3 SUB PUSH2 0x3CA9 JUMPI PUSH2 0x3CA8 PUSH2 0x3070 JUMP JUMPDEST JUMPDEST PUSH1 0x1 DUP3 SUB SWAP1 POP SWAP2 SWAP1 POP JUMP INVALID LOG2 PUSH5 0x6970667358 0x22 SLT KECCAK256 PUSH6 0xF1BE30764566 RETURNDATASIZE MLOAD 0xCE 0xC BALANCE DUP9 KECCAK256 SAR PUSH31 0x18748F3232A721B120C3C3B79C33962864736F6C634300081A003300000000 "
		},
		"gasEstimates": {
			"creation": {
				"codeDepositCost": "3118800",
				"executionCost": "71919",
				"totalCost": "3190719"
			},
			"external": {
				"": "197",
				"CONTRIBUTION_COMMISSION_RATE()": "2492",
				"TRANSACTION_COMMISSION_RATE()": "2536",
				"binarySearchContributor(bytes32,address)": "infinite",
				"checkIfFundingComplete(bytes32)": "infinite",
				"createProject(string,string,uint256,uint256)": "infinite",
				"fundProject(bytes32)": "infinite",
				"getAmountOfProjects()": "2529",
				"getContributionFee()": "2521",
				"getMilestones(bytes32)": "infinite",
				"getProjectCreator(bytes32)": "2927",
				"getProjectDetails(bytes32)": "infinite",
				"getProjectStatus(bytes32)": "2971",
				"getTransactionFee()": "2543",
				"getUserContribution(bytes32)": "infinite",
				"getUserProjects()": "infinite",
				"idSearch(bytes32[],bytes32)": "infinite",
				"makeRefund(bytes32)": "infinite",
				"pause()": "28919",
				"projectExists(bytes32)": "2957",
				"projectIsActive(bytes32)": "2949",
				"quickSort(bytes32[])": "infinite",
				"sendFunds(bytes32)": "infinite",
				"setContributionFee(uint256)": "24771",
				"setMilestone(bytes32,uint256,string)": "infinite",
				"setProjectDescription(bytes32,string)": "infinite",
				"setTransactionFee(uint256)": "24728",
				"unpause()": "28873",
				"withdraw()": "infinite"
			},
			"internal": {
				"partition(bytes32[] memory,uint256,uint256)": "infinite"
			}
		},
		"methodIdentifiers": {
			"CONTRIBUTION_COMMISSION_RATE()": "7b18d3e7",
			"TRANSACTION_COMMISSION_RATE()": "bf6faedc",
			"binarySearchContributor(bytes32,address)": "0f26bb9c",
			"checkIfFundingComplete(bytes32)": "2f2fafcd",
			"createProject(string,string,uint256,uint256)": "94ba9709",
			"fundProject(bytes32)": "4a83b226",
			"getAmountOfProjects()": "d3d6a117",
			"getContributionFee()": "bbdb284f",
			"getMilestones(bytes32)": "ea4a873c",
			"getProjectCreator(bytes32)": "0b207621",
			"getProjectDetails(bytes32)": "f88fb6cf",
			"getProjectStatus(bytes32)": "d10797cf",
			"getTransactionFee()": "85d79102",
			"getUserContribution(bytes32)": "a81ae362",
			"getUserProjects()": "f08a64e6",
			"idSearch(bytes32[],bytes32)": "89022ff3",
			"makeRefund(bytes32)": "0d93dab8",
			"pause()": "8456cb59",
			"projectExists(bytes32)": "38975895",
			"projectIsActive(bytes32)": "a1bdae45",
			"quickSort(bytes32[])": "c12483d4",
			"sendFunds(bytes32)": "6e0ace70",
			"setContributionFee(uint256)": "64088bb8",
			"setMilestone(bytes32,uint256,string)": "d874cf64",
			"setProjectDescription(bytes32,string)": "88559468",
			"setTransactionFee(uint256)": "096a8ab7",
			"unpause()": "3f4ba83a",
			"withdraw()": "3ccfd60b"
		}
	},
	"abi": [
		{
			"inputs": [],
			"stateMutability": "nonpayable",
			"type": "constructor"
		},
		{
			"anonymous": false,
			"inputs": [
				{
					"indexed": false,
					"internalType": "bytes32",
					"name": "projectId",
					"type": "bytes32"
				},
				{
					"indexed": false,
					"internalType": "address",
					"name": "contributor",
					"type": "address"
				},
				{
					"indexed": false,
					"internalType": "uint256",
					"name": "amount",
					"type": "uint256"
				}
			],
			"name": "ContributionMade",
			"type": "event"
		},
		{
			"anonymous": false,
			"inputs": [
				{
					"indexed": false,
					"internalType": "bytes32",
					"name": "projectId",
					"type": "bytes32"
				},
				{
					"indexed": false,
					"internalType": "address",
					"name": "creator",
					"type": "address"
				},
				{
					"indexed": false,
					"internalType": "uint256",
					"name": "amount",
					"type": "uint256"
				}
			],
			"name": "FundsWithdrawn",
			"type": "event"
		},
		{
			"anonymous": false,
			"inputs": [
				{
					"indexed": false,
					"internalType": "uint256",
					"name": "newFee",
					"type": "uint256"
				}
			],
			"name": "PlatformFeeUpdated",
			"type": "event"
		},
		{
			"anonymous": false,
			"inputs": [
				{
					"indexed": false,
					"internalType": "bytes32",
					"name": "projectId",
					"type": "bytes32"
				},
				{
					"indexed": false,
					"internalType": "string",
					"name": "project_name",
					"type": "string"
				},
				{
					"indexed": false,
					"internalType": "string",
					"name": "description",
					"type": "string"
				},
				{
					"indexed": false,
					"internalType": "address",
					"name": "creator",
					"type": "address"
				},
				{
					"indexed": false,
					"internalType": "uint256",
					"name": "final_goal",
					"type": "uint256"
				},
				{
					"indexed": false,
					"internalType": "uint256",
					"name": "deadline",
					"type": "uint256"
				}
			],
			"name": "ProjectCreated",
			"type": "event"
		},
		{
			"anonymous": false,
			"inputs": [
				{
					"indexed": false,
					"internalType": "bytes32",
					"name": "projectId",
					"type": "bytes32"
				},
				{
					"indexed": false,
					"internalType": "string",
					"name": "newDescription",
					"type": "string"
				}
			],
			"name": "ProjectDescriptionUpdated",
			"type": "event"
		},
		{
			"anonymous": false,
			"inputs": [
				{
					"indexed": false,
					"internalType": "bytes32",
					"name": "projectID",
					"type": "bytes32"
				},
				{
					"indexed": false,
					"internalType": "enum Fund.ProjectStatus",
					"name": "newStatus",
					"type": "uint8"
				}
			],
			"name": "ProjectStatusUpdated",
			"type": "event"
		},
		{
			"anonymous": false,
			"inputs": [
				{
					"indexed": false,
					"internalType": "bytes32",
					"name": "projectId",
					"type": "bytes32"
				},
				{
					"indexed": false,
					"internalType": "address",
					"name": "contributor",
					"type": "address"
				},
				{
					"indexed": false,
					"internalType": "uint256",
					"name": "amount",
					"type": "uint256"
				}
			],
			"name": "RefundIssued",
			"type": "event"
		},
		{
			"stateMutability": "payable",
			"type": "fallback"
		},
		{
			"inputs": [],
			"name": "CONTRIBUTION_COMMISSION_RATE",
			"outputs": [
				{
					"internalType": "uint256",
					"name": "",
					"type": "uint256"
				}
			],
			"stateMutability": "view",
			"type": "function"
		},
		{
			"inputs": [],
			"name": "TRANSACTION_COMMISSION_RATE",
			"outputs": [
				{
					"internalType": "uint256",
					"name": "",
					"type": "uint256"
				}
			],
			"stateMutability": "view",
			"type": "function"
		},
		{
			"inputs": [
				{
					"internalType": "bytes32",
					"name": "projectId",
					"type": "bytes32"
				},
				{
					"internalType": "address",
					"name": "targetAddress",
					"type": "address"
				}
			],
			"name": "binarySearchContributor",
			"outputs": [
				{
					"internalType": "uint256",
					"name": "index",
					"type": "uint256"
				},
				{
					"internalType": "bool",
					"name": "found",
					"type": "bool"
				}
			],
			"stateMutability": "view",
			"type": "function"
		},
		{
			"inputs": [
				{
					"internalType": "bytes32",
					"name": "projectID",
					"type": "bytes32"
				}
			],
			"name": "checkIfFundingComplete",
			"outputs": [],
			"stateMutability": "nonpayable",
			"type": "function"
		},
		{
			"inputs": [
				{
					"internalType": "string",
					"name": "name",
					"type": "string"
				},
				{
					"internalType": "string",
					"name": "description",
					"type": "string"
				},
				{
					"internalType": "uint256",
					"name": "goal",
					"type": "uint256"
				},
				{
					"internalType": "uint256",
					"name": "deadline",
					"type": "uint256"
				}
			],
			"name": "createProject",
			"outputs": [],
			"stateMutability": "nonpayable",
			"type": "function"
		},
		{
			"inputs": [
				{
					"internalType": "bytes32",
					"name": "projectID",
					"type": "bytes32"
				}
			],
			"name": "fundProject",
			"outputs": [],
			"stateMutability": "payable",
			"type": "function"
		},
		{
			"inputs": [],
			"name": "getAmountOfProjects",
			"outputs": [
				{
					"internalType": "uint256",
					"name": "",
					"type": "uint256"
				}
			],
			"stateMutability": "view",
			"type": "function"
		},
		{
			"inputs": [],
			"name": "getContributionFee",
			"outputs": [
				{
					"internalType": "uint256",
					"name": "",
					"type": "uint256"
				}
			],
			"stateMutability": "view",
			"type": "function"
		},
		{
			"inputs": [
				{
					"internalType": "bytes32",
					"name": "projectID",
					"type": "bytes32"
				}
			],
			"name": "getMilestones",
			"outputs": [
				{
					"components": [
						{
							"internalType": "uint256",
							"name": "milestone_sum",
							"type": "uint256"
						},
						{
							"internalType": "string",
							"name": "milestone_description",
							"type": "string"
						}
					],
					"internalType": "struct Fund.Milestone[]",
					"name": "",
					"type": "tuple[]"
				}
			],
			"stateMutability": "view",
			"type": "function"
		},
		{
			"inputs": [
				{
					"internalType": "bytes32",
					"name": "projectId",
					"type": "bytes32"
				}
			],
			"name": "getProjectCreator",
			"outputs": [
				{
					"internalType": "address",
					"name": "",
					"type": "address"
				}
			],
			"stateMutability": "view",
			"type": "function"
		},
		{
			"inputs": [
				{
					"internalType": "bytes32",
					"name": "projectID",
					"type": "bytes32"
				}
			],
			"name": "getProjectDetails",
			"outputs": [
				{
					"internalType": "string",
					"name": "",
					"type": "string"
				},
				{
					"internalType": "string",
					"name": "",
					"type": "string"
				},
				{
					"internalType": "address",
					"name": "",
					"type": "address"
				},
				{
					"internalType": "uint256",
					"name": "",
					"type": "uint256"
				},
				{
					"internalType": "uint256",
					"name": "",
					"type": "uint256"
				},
				{
					"internalType": "uint256",
					"name": "",
					"type": "uint256"
				},
				{
					"internalType": "enum Fund.ProjectStatus",
					"name": "",
					"type": "uint8"
				}
			],
			"stateMutability": "view",
			"type": "function"
		},
		{
			"inputs": [
				{
					"internalType": "bytes32",
					"name": "projectID",
					"type": "bytes32"
				}
			],
			"name": "getProjectStatus",
			"outputs": [
				{
					"internalType": "enum Fund.ProjectStatus",
					"name": "",
					"type": "uint8"
				}
			],
			"stateMutability": "view",
			"type": "function"
		},
		{
			"inputs": [],
			"name": "getTransactionFee",
			"outputs": [
				{
					"internalType": "uint256",
					"name": "",
					"type": "uint256"
				}
			],
			"stateMutability": "view",
			"type": "function"
		},
		{
			"inputs": [
				{
					"internalType": "bytes32",
					"name": "projectID",
					"type": "bytes32"
				}
			],
			"name": "getUserContribution",
			"outputs": [
				{
					"internalType": "uint256",
					"name": "",
					"type": "uint256"
				}
			],
			"stateMutability": "view",
			"type": "function"
		},
		{
			"inputs": [],
			"name": "getUserProjects",
			"outputs": [
				{
					"internalType": "bytes32[]",
					"name": "",
					"type": "bytes32[]"
				}
			],
			"stateMutability": "view",
			"type": "function"
		},
		{
			"inputs": [
				{
					"internalType": "bytes32[]",
					"name": "array",
					"type": "bytes32[]"
				},
				{
					"internalType": "bytes32",
					"name": "target",
					"type": "bytes32"
				}
			],
			"name": "idSearch",
			"outputs": [
				{
					"internalType": "int256",
					"name": "",
					"type": "int256"
				}
			],
			"stateMutability": "pure",
			"type": "function"
		},
		{
			"inputs": [
				{
					"internalType": "bytes32",
					"name": "projectID",
					"type": "bytes32"
				}
			],
			"name": "makeRefund",
			"outputs": [],
			"stateMutability": "nonpayable",
			"type": "function"
		},
		{
			"inputs": [],
			"name": "pause",
			"outputs": [],
			"stateMutability": "nonpayable",
			"type": "function"
		},
		{
			"inputs": [
				{
					"internalType": "bytes32",
					"name": "projectID",
					"type": "bytes32"
				}
			],
			"name": "projectExists",
			"outputs": [
				{
					"internalType": "bool",
					"name": "",
					"type": "bool"
				}
			],
			"stateMutability": "view",
			"type": "function"
		},
		{
			"inputs": [
				{
					"internalType": "bytes32",
					"name": "projectId",
					"type": "bytes32"
				}
			],
			"name": "projectIsActive",
			"outputs": [
				{
					"internalType": "enum Fund.ProjectStatus",
					"name": "",
					"type": "uint8"
				}
			],
			"stateMutability": "view",
			"type": "function"
		},
		{
			"inputs": [
				{
					"internalType": "bytes32[]",
					"name": "arr",
					"type": "bytes32[]"
				}
			],
			"name": "quickSort",
			"outputs": [
				{
					"internalType": "bytes32[]",
					"name": "",
					"type": "bytes32[]"
				}
			],
			"stateMutability": "pure",
			"type": "function"
		},
		{
			"inputs": [
				{
					"internalType": "bytes32",
					"name": "projectID",
					"type": "bytes32"
				}
			],
			"name": "sendFunds",
			"outputs": [],
			"stateMutability": "nonpayable",
			"type": "function"
		},
		{
			"inputs": [
				{
					"internalType": "uint256",
					"name": "fee",
					"type": "uint256"
				}
			],
			"name": "setContributionFee",
			"outputs": [],
			"stateMutability": "nonpayable",
			"type": "function"
		},
		{
			"inputs": [
				{
					"internalType": "bytes32",
					"name": "projectID",
					"type": "bytes32"
				},
				{
					"internalType": "uint256",
					"name": "milestoneSum",
					"type": "uint256"
				},
				{
					"internalType": "string",
					"name": "milestoneDescription",
					"type": "string"
				}
			],
			"name": "setMilestone",
			"outputs": [],
			"stateMutability": "nonpayable",
			"type": "function"
		},
		{
			"inputs": [
				{
					"internalType": "bytes32",
					"name": "projectID",
					"type": "bytes32"
				},
				{
					"internalType": "string",
					"name": "newDescription",
					"type": "string"
				}
			],
			"name": "setProjectDescription",
			"outputs": [],
			"stateMutability": "nonpayable",
			"type": "function"
		},
		{
			"inputs": [
				{
					"internalType": "uint256",
					"name": "fee",
					"type": "uint256"
				}
			],
			"name": "setTransactionFee",
			"outputs": [],
			"stateMutability": "nonpayable",
			"type": "function"
		},
		{
			"inputs": [],
			"name": "unpause",
			"outputs": [],
			"stateMutability": "nonpayable",
			"type": "function"
		},
		{
			"inputs": [],
			"name": "withdraw",
			"outputs": [],
			"stateMutability": "nonpayable",
			"type": "function"
		},
		{
			"stateMutability": "payable",
			"type": "receive"
		}
	]
}